:020000040800F2
:10000000004002201D060008110A0008130A00081B
:1000100000000000000000000000000000000000E0
:10002000000000000000000000000000150A0008A9
:100030000000000000000000170A0008190A00086C
:100040006D0600086D0600086D0600086D060008C4
:100050006D0600086D0600086D0600086D060008B4
:100060006D0600086D0600086D0600086D060008A4
:100070006D0600086D0600086D0600086D06000894
:100080006D0600086D0600086D0600086D06000884
:100090006D0600086D0600086D0600086D06000874
:1000A0006D0600086D0600086D060008210A0008AC
:0C00B0006D0600086D0600086D060008D3
:1000BC0010B5064C2378002B07D1054B002B02D032
:1000CC00044800E000BF0123237010BD0C00002089
:1000DC0000000000FC4D0008044B10B5002B03D0B1
:1000EC000349044800E000BF10BDC04600000000FA
:1000FC0010000020FC4D0008002243088B4274D3F2
:10010C0003098B425FD3030A8B4244D3030B8B420C
:10011C0028D3030C8B420DD3FF22090212BA030C15
:10012C008B4202D31212090265D0030B8B4219D3F6
:10013C0000E0090AC30B8B4201D3CB03C01A524116
:10014C00830B8B4201D38B03C01A5241430B8B425E
:10015C0001D34B03C01A5241030B8B4201D30B0347
:10016C00C01A5241C30A8B4201D3CB02C01A52416E
:10017C00830A8B4201D38B02C01A5241430A8B4231
:10018C0001D34B02C01A5241030A8B4201D30B021A
:10019C00C01A5241CDD2C3098B4201D3CB01C01A34
:1001AC00524183098B4201D38B01C01A524143093E
:1001BC008B4201D34B01C01A524103098B4201D32C
:1001CC000B01C01A5241C3088B4201D3CB00C01A99
:1001DC00524183088B4201D38B00C01A5241430811
:1001EC008B4201D34B00C01A5241411A00D2014636
:1001FC00524110467047FFE701B5002000F0F0F8BF
:10020C0002BDC0460029F7D076E7704703460B4382
:10021C007FD4002243088B4274D303098B425FD3F3
:10022C00030A8B4244D3030B8B4228D3030C8B421F
:10023C000DD3FF22090212BA030C8B4202D3121205
:10024C00090265D0030B8B4219D300E0090AC30BDA
:10025C008B4201D3CB03C01A5241830B8B4201D387
:10026C008B03C01A5241430B8B4201D34B03C01A70
:10027C005241030B8B4201D30B03C01A5241C30AE8
:10028C008B4201D3CB02C01A5241830A8B4201D359
:10029C008B02C01A5241430A8B4201D34B02C01A43
:1002AC005241030A8B4201D30B02C01A5241CDD2E8
:1002BC00C3098B4201D3CB01C01A524183098B4233
:1002CC0001D38B01C01A524143098B4201D34B011C
:1002DC00C01A524103098B4201D30B01C01A52417F
:1002EC00C3088B4201D3CB00C01A524183088B4206
:1002FC0001D38B00C01A524143088B4201D34B00EF
:10030C00C01A5241411A00D2014652411046704760
:10031C005DE0CA0F00D04942031000D34042534065
:10032C0000229C4603098B422DD3030A8B4212D325
:10033C00FC22890112BA030A8B420CD38901921157
:10034C008B4208D3890192118B4204D389013AD094
:10035C00921100E08909C3098B4201D3CB01C01A69
:10036C00524183098B4201D38B01C01A524143097C
:10037C008B4201D34B01C01A524103098B4201D36A
:10038C000B01C01A5241C3088B4201D3CB00C01AD7
:10039C00524183088B4201D38B00C01A5241D9D2EF
:1003AC0043088B4201D34B00C01A5241411A00D270
:1003BC000146634652415B10104601D34042002B6C
:1003CC0000D54942704763465B1000D3404201B5EB
:1003DC00002000F005F802BD0029F8D016E77047A0
:1003EC007047C046002B11D1002A0FD1002900D133
:1003FC00002802D00021C943080007B4024802A11A
:10040C004018029003BDC046D9FFFFFF03B46846F5
:10041C0001B5029800F006F8019B9E4602B00CBC98
:10042C007047C046F0B557464E464546DE46E0B5E9
:10043C0004000D009246994683B08B4230D82DD0E3
:10044C004946504600F0BAF829000600200000F09A
:10045C00B5F8331A9846203B9B4633D45A4653463C
:10046C00934042461F00534693401E00AF423AD879
:10047C00AF4200D178E05B46A41BBD41002B00DAF3
:10048C0075E0002200230092019301235A46934009
:10049C000193012342469340009328E08242CFD936
:1004AC0000220023009201930C9B002B01D01C60B6
:1004BC005D600098019903B0F0BCBB46B246A946FA
:1004CC00A046F0BD424620239B1A5246DA404146D4
:1004DC0013004A468A40170042461F435346934036
:1004EC001E00AF42C4D90022002300920193434660
:1004FC00002BD9D0FB0772081A4346467B080EE046
:10050C00AB4201D1A2420CD8A41A9D41012024195E
:10051C006D410021013E24184D41002E06D0AB4206
:10052C00EED9013E24196D41002EF8D100980199A5
:10053C005B4600196941002B24DB2B005A464446CC
:10054C00D3402A00E2401C005B461500002B2ADB3E
:10055C0026009E40330026004746BE403200801ADB
:10056C009941009001919FE7A342BCD883E7424692
:10057C00202300219B1A0022009101920122DA40D3
:10058C00019286E7424620239B1A2A0046469A404F
:10059C002300F340444613432A00E2401C005B4610
:1005AC001500002BD4DA42462F002023260097405A
:1005BC009B1ADE403B003343CDE7C04610B5002903
:1005CC0003D100F007F8203002E0080000F002F838
:1005DC0010BDC0461C2101231B04984201D3000C02
:1005EC0010391B0A984201D3000A08391B0998429A
:1005FC0001D30009043902A2105C40187047C046B0
:10060C0004030202010101010000000000000000CF
:10061C000D48854600F006FA0C480D490D4A00239A
:10062C0002E0D458C4500433C4188C42F9D30A4A9B
:10063C000A4C002301E013600432A242FBD304F005
:10064C00A1FB00F059F8FEE700400220000000205A
:10065C000C000020D04E00080C0000205802002096
:10066C00FEE710B501F008FD10BD10B501F024FD3A
:10067C0010BD72B6FEE700B595B03C22002105A86E
:10068C0004F0ADFB1022002101A804F0A8FB80208F
:10069C00800002F0A7FB0A230593F633089300238E
:1006AC00099340220A923F3A0B9201320D920E921C
:1006BC000F930833109380239B02119380239B0488
:1006CC00129380239B05139305A802F00FFC0028BE
:1006DC000ED107230193053B02930023039304934C
:1006EC00022101A802F0EAFE002803D115B000BDDA
:1006FC00FFF7BFFFFFF7BDFF10B501F025FD02F0BE
:10070C009BFB002801D0FFF7B4FFFFF7B4FF00F00C
:10071C000BF800F04BF800F0D7F800F0BBF801F044
:10072C001BFC01F06DFCFCE7F0B589B01422002134
:10073C0003A804F054FB1B4B596B02221143596361
:10074C00596B0A400192019A5A6B012422435A6355
:10075C005B6B23400293029BF027BF01124E0122D8
:10076C003900300001F0CBFE0323039300250495E0
:10077C00059403A9300001F0F9FD03970494059545
:10078C00069503A9300001F0F1FD80235B00039373
:10079C0004950594A02003A9C00501F0E7FD09B05C
:1007AC00F0BDC046001002400004005010B51448C3
:1007BC00144B0360144B4360002383600122C2601E
:1007CC00036143618361C361036202F067F800282F
:1007DC000CD100210A4802F073FA002809D100213B
:1007EC00074802F099FA002806D110BDFFF741FF27
:1007FC00EFE7FFF73EFFF2E7FFF73BFFF5E7C046F9
:10080C002800002000540040B57DB11010B59AB0FE
:10081C0004001422002115A804F0E1FA4C22002156
:10082C0002A804F0DCFA2268174B9A4201D01AB0E5
:10083C0010BD2023029302A802F020FF00281FD134
:10084C00124C626B02231A436263626B1340009377
:10085C00009BC0231593AE3B16930023179318935C
:10086C000633199315A90A4801F080FDE26B80212B
:10087C0089030A43E263E36B0B400193019BD6E7C8
:10088C00FFF7F7FEDCE7C0460054004000100240C2
:10089C000004005010B50848084B03600323436064
:1008AC00074BC360074B836002F060FA002800D14D
:1008BC0010BDFFF7DEFEFBE77C000020003000409F
:1008CC00FF0F0000E703000010B51948194B036037
:1008DC0096239B01436000238360C36003610C2259
:1008EC0042618361C36103624362836204F08AF8EC
:1008FC00002811D100210E4804F0F6F900280ED181
:10090C0000210B4804F016FA00280BD1084804F01B
:10091C00CBF9002809D110BDFFF7ABFEEAE7FFF7D2
:10092C00A8FEEDE7FFF7A5FEF0E7FFF7A2FEF2E762
:10093C008C0000200038014010B59AB0040014223D
:10094C00002115A804F04BFA4C22002102A804F057
:10095C0046FA22681B4B9A4201D01AB010BD0123F3
:10096C00029302A802F08AFE002828D1164B196CBB
:10097C008020C001014319641A6C02400092009A55
:10098C00596B0122114359635B6B13400193019B1B
:10099C00C023DB00159302231693179200231893A0
:1009AC001992A02015A9C00501F0E0FC002201213C
:1009BC001B2001F00DFC1B2001F03AFCCDE7FFF7EA
:1009CC0058FED3E7003801400010024000B583B058
:1009DC000B4B196C012211431964196C0A400092DB
:1009EC00009ADA6B802149050A43DA63DB6B0B4012
:1009FC000193019BC020C00001F0DEFB03B000BDE1
:100A0C0000100240FEE7FEE77047704710B501F09A
:100A1C00AFFB10BD10B5024802F0FCFF10BDC04684
:100A2C008C0000207047000010B5041E1DD04368D8
:100A3C00002B1CD08268002A1BD0FA225200828123
:100A4C00753AFF3AD200052100689847002808D073
:100A5C0063682068084A00219847002803D00120C9
:100A6C0000E0002010BD0020FCE70020FAE7002089
:100A7C00F8E70020F6E7C04627050000F0B5C646AB
:100A8C0000B582B004000E0015001F0000283DD0F8
:100A9C0000293ED0002A3FD0002B40D06B469A1D37
:100AAC0002210068A3689847002828D001AA0421D5
:100ABC002068A3689847002821D06B469A1C032114
:100ACC002068A36898478046002818D06B46DA88BF
:100ADC0093009B189B08338001AB00229B5EA0897E
:100AEC005843FA218900FFF791FB28806B465A88FE
:100AFC0093009B189A009B185B083B6001E0002355
:100B0C009846404602B080BCB846F0BD00239846DB
:100B1C00F7E700239846F4E700239846F1E7002313
:100B2C009846EEE7F0B520235B42D31811D40400AD
:100B3C009C400500954056423F233340203B11D446
:100B4C000800D84052423F231A40D1402843214349
:100B5C00F0BD20239B1A0400DC4023000C009440C1
:100B6C001C43E6E756423F2333402026F61A0F007B
:100B7C00B740D8403843E5E7F0B506000023002025
:100B8C00002108E020252D1B1700EF403D00A2405E
:100B9C00104329430133072B09D8F25CDC002025D4
:100BAC006D426519EED41700AF403D00EFE7F0BD84
:100BBC0070B500210AE020252D1B1E00AE4035002B
:100BCC001600E64034002C4344540131072907D861
:100BDC00CC0020256D426519EDD41C00EC40F3E7E8
:100BEC0070BD30B50023002404E0C25CCD5C6A40CB
:100BFC0014430133072BF8D963425C41E0B230BD9A
:100C0C000170090A4170704701700B0A43700B0C9C
:100C1C008370090EC1707047037840780002184346
:100C2C007047030000785A78120210439A78120425
:100C3C001043DB781B0618437047000010B50C00FE
:100C4C00022800D9002093009B185B019B1A5901C4
:100C5C005B189B009B1A5901CB1A1902C91A49003F
:100C6C008918C900891861400A0C4A400649514349
:100C7C00CA0B4A4001211140013140180321FFF7F2
:100C8C00C1FAC8B210BDC0462D35EB7F30B505009A
:100C9C000C0000210B480DE0400080B20133072B03
:100CAC0007D802B2002AF7DA400082B20648504058
:100CBC00F4E70131A14204D26B5C1B0258400023C3
:100CCC00EDE730BDFFFF000021100000F0B5DE465F
:100CDC0057464E464546E0B59BB0060017919346E5
:100CEC00FFF74AFF05000C0030000830FFF744FF07
:100CFC000022002302920393714B6B400293714BC1
:100D0C006340039300220023049205936E4B4340EF
:100D1C0004936E4B4B4005930022002300920193E9
:100D2C006B4B6B4000936B4B634001936A4B43409E
:100D3C0015936A4B4B4016935B461B069946002352
:100D4C0098461893DA464B4619938CE01798404412
:100D5C00FFF712FF83468946159B43400693169B6B
:100D6C004B400793029C039D0498059924184D4110
:100D7C000D22FFF7D7FE60400890694009912022B0
:100D8C0020002900FFF7CEFE06000F00009C019DFD
:100D9C000698079924184D411022FFF7C3FE6040B6
:100DAC000A9069400B910A980B9936184F411522FD
:100DBC00FFF7B8FE70400C9079400D910898099996
:100DCC0024184D411122FFF7ADFE60400E90694092
:100DDC000F91202220002900FFF7A4FE04000D0033
:100DEC000E980F9936184F410D22FFF79BFE70405D
:100DFC00109079401191202230003900FFF792FEBB
:100E0C0006000F000C980D9924184D411022FFF785
:100E1C0089FE60401290694013911298139936180C
:100E2C004F411522FFF77EFE7040159079401691C8
:100E3C001098119924184D411122FFF773FE604050
:100E4C00049069400591202220002900FFF76AFEDA
:100E5C00009001915B46734002934B467B40039399
:100E6C0008239C46E044534642469B1A072B00D964
:100E7C006CE7D346189B9A46199B99460021464627
:100E8C00179B9C465F46D0464C460AE02025AD1A7F
:100E9C001800E8400500934042461A4390462C4304
:100EAC0001317318BB421BD26246D35CCA002025A9
:100EBC006D425519EAD41800A8400500EBE7C0466E
:100ECC0075657370656D6F736D6F646E61726F6451
:100EDC006172656E6567796C73657479626465744B
:100EEC00A146159B424653401C00169B4A46534054
:100EFC001D00029A039B0498059912184B41049209
:100F0C0005930D22FFF70EFE0E0000220023029225
:100F1C000393049A059B11004140029110001900A3
:100F2C00734003932022FFF7FDFD04900591009A76
:100F3C00019B12196B4116001F0010222000290082
:100F4C00FFF7F0FD32003B004640340016004B40EA
:100F5C001D000499059A09196A4100910192152204
:100F6C0020001900FFF7DEFD0024002504940595F0
:100F7C00009B019C1D0045400495200048400590B5
:100F8C0032003B000298039912184B4116001F00C7
:100F9C001122FFF7C7FD3200424014003A004A40CC
:100FAC001500202230003900FFF7BCFD02900391A0
:100FBC00009E019F36196F410D2220002900FFF77A
:100FCC00B1FD0023002400930194704000907940FF
:100FDC000191202230003900FFF7A4FD06000F001C
:100FEC00029A039B0498059912184B4114001D009A
:100FFC001022FFF797FD0494059544402000059CB2
:10100C004C40210036184F411522FFF78BFD002371
:10101C0000240293039434004440029406960797EC
:10102C003B004B400393049A059B009801991218BE
:10103C004B4114001D001122FFF774FD22002B0000
:10104C004440260014004B401F00202220002900A1
:10105C00FFF768FD4446069D6C4022004C46079DF8
:10106C006C4023000024002500940195FF3444407B
:10107C000094019192197B4114001D000D22300047
:10108C003900FFF74FFD0022002304920593260040
:10109C00464004962B004B4005932032200029003B
:1010AC00FFF740FD06900791009A019B0298039967
:1010BC0012184B4114001D001022FFF733FD2200C3
:1010CC002B0044402600029203934B401F000699CC
:1010DC00079A89197A410C00150015223000190065
:1010EC00FFF720FD002200230092019322002B0029
:1010FC0044400094069207934B400193029A039B41
:10110C000498059912184B4116001F001122FFF785
:10111C0009FD32003B004640340016004B401D00D8
:10112C00202230003900FFF7FDFC02900391069954
:10113C00079A09196A410E0017000D222000290098
:10114C00FFF7F0FC00230024049305943400464080
:10115C0004963B004B400593202220003900FFF7FA
:10116C00E1FC06900791029A039B009801991218D2
:10117C004B4114001D001022FFF7D4FC22002B0061
:10118C0044402600029203934B401F000699079A95
:10119C0089197A410C001500152230001900FFF74F
:1011AC00C1FC002200230092019322002B0044403A
:1011BC000094069207934B400193029A039B049868
:1011CC00059912184B4116001F001122FFF7AAFCBB
:1011DC0032003B004640340016004B401D002022DC
:1011EC0030003900FFF79EFC029003910699079A94
:1011FC0009196A410E0017000D2220002900FFF783
:10120C0091FC00230024049305943400464004967A
:10121C003B004B400593202220003900FFF782FC55
:10122C0006900791029A039B0098019912184B4162
:10123C0014001D001022FFF775FC22002B00444007
:10124C002600029203934B401F000699079A8919B6
:10125C007A410C001500152230001900FFF762FCD2
:10126C00002200230092019322002B0044400094A2
:10127C00069207934B400193029A039B049805999D
:10128C0012184B4116001F001122FFF74BFC3200C5
:10129C003B004640340016004B401D00202230001D
:1012AC003900FFF73FFC06000F000699079A091951
:1012BC006A41049105920D2220002900FFF732FCAF
:1012CC000022002302920393049B059C1A004240C7
:1012DC00029222004A400392202218002100FFF7BC
:1012EC0021FC0490059134003D00009801992418CC
:1012FC004D411022FFF716FC02000B00624010005B
:10130C006B401900049E059F36184F411522FFF7BC
:10131C0009FC7040834679408A4602980399241848
:10132C004D411122FFF7FEFB604081466940884623
:10133C00202220002900FFF7F5FB4A467240434665
:10134C007B40504059405B465840534659401BB077
:10135C00F0BCBB46B246A946A046F0BDF8B5CE4699
:10136C00474680B504001500984600284ED0002A48
:10137C004ED0002B4ED0167C202E4DD813239946E0
:10138C00B14437001D378F4201D9002745E03F3368
:10139C00037001334370513B83701378C3705188D1
:1013AC000430FFF72DFCA988A01DFFF729FCAB79B1
:1013BC002372EB796372A96820000A30FFF724FCD2
:1013CC00E96820000E30FFF71FFC2A7CA274002A6B
:1013DC0015D149462000FFF759FC01004B46E01897
:1013EC00FFF70EFC350015352A0021004046FFF7AB
:1013FC006DFC02000B006019FFF7DAFB0DE0290011
:10140C0011312000133003F0E1FCE2E7002704E087
:10141C00002702E0002700E000273800C0BCB946D6
:10142C00B046F8BDF0B5CE46474680B583B0060051
:10143C000C001D00002862D0002962D0002B62D065
:10144C001C2A62D90B78522B65D14B78532B64D163
:10145C008878022863D18F7C202F57D8403B984640
:10146C00B8443B001D339A4202D04FD201384DE0B4
:10147C0041462000FFF70AFC81464346E018FFF77F
:10148C00CBFB484501D0052040E015239846B844D5
:10149C00424621002800FFF719FC02000B006846A9
:1014AC00FFF786FB4346E1186846FFF79AFB0028D6
:1014BC0037D0E3783370201DFFF7AEFB7080A01D92
:1014CC00FFF7AAFBB080237AB371637AF371200023
:1014DC000A30FFF7A6FBB06020000E30FFF7A1FB2F
:1014EC00F0603774002F01D138000FE0300011305C
:1014FC00210013313A0003F069FC002006E00220C1
:10150C0004E0022002E0022000E0012003B0C0BC95
:10151C00B946B046F0BD0320F8E70320F6E70420F7
:10152C00F4E70620F2E7002804D000233D22835480
:10153C0001328354704770B504001000002C4AD05F
:10154C00002A4AD0002B4AD03D22A55C002D09D19F
:10155C00522902D00025280070BD6A1C3D23E2549C
:10156C006155F8E7012D10D03C2D19D86A1CD2B268
:10157C003D26A2556155132A17D03E21615C0029E6
:10158C002FD08A421DD00025E5E75329ECD05229F3
:10159C0000D000253D23E554153323700025DAE7F0
:1015AC002000FFF7C0FF0025D5E7A17C202903D838
:1015BC001D313E256155E0E72000FFF7B4FF002503
:1015CC00C9E72100FFF72EFF43425841C5B2200066
:1015DC00FFF7A9FFBFE70025BDE70025BBE7002506
:1015EC00B9E70025B7E710B5031E27D0007800280F
:1015FC0011D05C688C4223D19968914211D38A1A1C
:10160C001F2A1FD8012191400A00D9680A421BD118
:10161C000A43DA6004E00130187059609A60D860AF
:10162C0010BD511A1F2905D8DC688C4021000124FB
:10163C00214300E00121D9609A60F1E70020EFE737
:10164C000020EDE70020EBE70020E9E7002804D0BC
:10165C000023037043608360C3607047411A00200D
:10166C0091424041C0B27047401AC043C00F70470E
:10167C0001000023052B08D81A018A185C32107857
:10168C00002803D10133DBB2F4E700207047F0B53A
:10169C000026002401E00134E4B2052C12D8250107
:1016AC0045195C352D78002D0BD0A51D2D01451944
:1016BC006F68B51D2D0145196D68AF42EBD2260040
:1016CC00E9E726003401041925005C3501272F7049
:1016DC00216606363601801942600372F0BDF8B5FA
:1016EC0006000F0000240AE00022F3184A331A7097
:1016FC002D0175195C3500232B700134E4B2052CD7
:10170C001DD825002301F3185C331B78002BF4D073
:10171C008222A31D1B01F318596852003800FFF7F1
:10172C009DFF0028E9D0A31D1B01F3181B7AF218AA
:10173C004A3212780C2AD7D90C3AD2B2D5E7F8BD76
:10174C0030B5002303E0FF211AE00133DBB2052B97
:10175C001FD81D001C0104195C342478002CF4D013
:10176C001C010419246E8C42EFD106331B01C318E3
:10177C001B7AC1184A310978F629E4D80831C9B264
:10178C00C3184A3319702D0145195C350021297095
:10179C00826330BD70B504000D005223C65C023369
:1017AC00C35C9E420AD01922016C2800FFF756FF39
:1017BC00002804D05423E654256400E0016470BD75
:1017CC005123C35C022B06D0C36A0133C3624D2381
:1017DC000322C254C16351230222C254033B002290
:1017EC00C254704770B505000C005123C35C013B1B
:1017FC005A4253410B705423C35C002B1CD0012361
:10180C005322AA5C002A19D002221343637044238A
:10181C00E95AA01CFFF7F4F94623E95A201DFFF7FB
:10182C00EFF94823E95AA01DFFF7EAF9E96A20000D
:10183C000830FFF7E9F970BD0023E1E70022E4E787
:10184C00F0B5D6464F464646C0B59EB00400894614
:10185C001600984626AB1F7827AB1B789A4611AD1D
:10186C0034220021280003F0BAFA4B462B700123D6
:10187C006B800133AB80AE7103215046FEF7C2FC86
:10188C00E971A36A5A1CA2621393636A14932F74AE
:10189C00002F08D04346002B05D03A004146552076
:1018AC00684403F093FA2300143311AA3D2101A8D4
:1018BC00FFF754FD021E05D001A92068A3689847C4
:1018CC00051E0CD14822A35A04210B43A352002518
:1018DC0028001EB0E0BCBA46B146A846F0BD48226E
:1018EC00A35A04218B43A35211AB139A1499D879A0
:1018FC00FFF7A4F94F23E054F307E9D511AAD379E4
:10190C001399289A2000FFF7C2FEE1E7F0B587B0E3
:10191C0004000D0017001E0004AB19705123C35CAA
:10192C00022B20D0002204AB5A704423E15A12201F
:10193C006844FFF765F9E16A05A8FFF765F9002D22
:10194C0013D00122002F02D004231A43D2B20C9BD5
:10195C00029301960823009304AB03212000FFF7A8
:10196C006FFF07B0F0BD0122DDE70322EAE730B5D7
:10197C0085B008AC2478099D02954F25455D0195ED
:10198C000094FFF75DFF05B030BDF8B504000D0005
:10199C0017001E0086225200002103F020FA2000BE
:1019AC000ECD0EC00CCD0CC01022390003F00EFA77
:1019BC0066620123A362002305E0E2184A3280210B
:1019CC0011700133DBB2022BF7D92000BC30FFF7CA
:1019DC00AAFDF8BD5223C1540133C2547047000014
:1019EC0030B5442401530234025356228354002B45
:1019FC0002D00F4A91420FD84824025B01252A439A
:101A0C000253002B02D00B4B99420BD84822835A1D
:101A1C0002210B43835230BD4824025B0125AA43AB
:101A2C000253EEE74822835A02218B438352F2E79A
:101A3C005B2B00000329000010B50B00816B002903
:101A4C0008D0FA2252001800FFF708FE002803D134
:101A5C00013000E0002010BD0020FCE770B58EB016
:101A6C00040003001433BC3001AAFFF764FD002806
:101A7C0026D001AB5B88022B22D101AB9B88012BBA
:101A8C0002D02C4A93421BD120686368984705000A
:101A9C0001002000FFF7D0FF002809D1FC23E35CF4
:101AAC00002B05D080235B00E358049A934209D1A4
:101ABC00039A04992000FC30FFF795FD002806D10D
:101ACC000EB070BD2000FC30FFF7C0FDF0E701AE9A
:101ADC00F079039A0499FFF7B1F84F23E054A5630A
:101AEC003378042B0CD0052B1AD0012BE8D101AB89
:101AFC001B7C002BE4D001AB5A7C5023E254DFE773
:101B0C00327C072AEFD9B27C5023E2541920684466
:101B1C00FFF787F801002A002000FFF711FECFE73E
:101B2C0001AA127C002AE0D001AB5A7C5023E2546B
:101B3C00C6E7C046FFFF000070B586B004000D007C
:101B4C00FFF77AFF00280FD0022603A92000FFF729
:101B5C0049FE01950C23009303AB012231002000B8
:101B6C00FFF705FF06B070BD0126EEE7F0B5D646CF
:101B7C004F464646C0B504000D00FFF75DFF03005D
:101B8C004822A25A02261640002A09D1002811D058
:101B9C005121615C022901D0002102E0013900E0F1
:101BAC0001218A465621615C002905D0D20718D53F
:101BBC00002702E00121F4E700275122A25C012A50
:101BCC0011D0012A17D05022A25C042A15D0002271
:101BDC00E16888462068002B11D0002A10D0012221
:101BEC000EE00127E9E75021615C0239C9B20129F5
:101BFC00E7D80122ECE70022EAE70122E8E700221D
:101C0C000021C047E3689846236899465346002B49
:101C1C0007D0FA212800FEF76FFAC3071DD4002263
:101C2C0000E0002201214846C0473A00022120680A
:101C3C00E3689847E76823689846002E0FD07D210B
:101C4C002800FEF759FA0122024003214046B8470A
:101C5C00E0BCBA46B146A846F0BD0122E2E74823F3
:101C6C00E05A01220240F0E770B582B0040000682F
:101C7C006368984705005823E35C002B07D1583361
:101C8C000122E254206320640300C83B63632900F3
:101C9C002000FFF77FFD5423E35C002B05D0552279
:101CAC00A25C002A62D0002600E000265522A35434
:101CBC005323E35C002B0FD14833E35A9B0757D5D2
:101CCC005123E35C002B07D1A5325200216B280075
:101CDC00FFF7C4FC00284BD029002000FFF770FD53
:101CEC005723E35C002B0ED05123E35C002B0AD16D
:101CFC005633E35C002B06D04823E35A9B0702D4EF
:101D0C0051230122E254002E03D05123E35C012B1A
:101D1C003DD04D23E65C002E05D0E16B2800FFF78B
:101D2C00A3FC002841D14E23E65C002E05D0E16BCC
:101D3C002800FFF799FC00284BD12000FFF798FCF6
:101D4C00002806D1C822616B2800FFF787FC002809
:101D5C0052D129002000FFF7C2FC29002000FFF718
:101D6C0005FF23692068984702B070BD01269DE7E6
:101D7C005723E35C002BB3D11922216B2800FFF70A
:101D8C006DFC0028ACD057230122E254A8E72900AF
:101D9C002000FFF751FE0028BBD0E36A0133E36259
:101DAC004E230222E254E563B3E703239B1BDBB211
:101DBC00033E721E9641F2B2009500212000FFF7FF
:101DCC00A5FD4D22A35C013BA3542B001E33E36302
:101DDC00B3E74F23E35C023E721E9641F2B20095CC
:101DEC0002212000FFF792FD4E22A35C013BA3547D
:101DFC002B003C33E363A0E7656329002000FFF769
:101E0C009BFEA6E710B586B014000A0014230293BB
:101E1C00123B019305AB009301238021074800F08E
:101E2C007BFE002808D105A90A7812024B781343CF
:101E3C002380013006B010BD0020FBE728000020F5
:101E4C0000B587B0100A05AB18705A700A0014213F
:101E5C00029112390191009301237E31034800F065
:101E6C008BFD43425841C0B207B000BD2800002092
:101E7C0010B5024800F0AEFF10BDC0467C0000203B
:101E8C0010B592B27823034802F0C9FC4342584182
:101E9C00C0B210BD8C00002010B500F075F910BD5B
:101EAC0010B500F077F9040000F07AF9C001444055
:101EBC0000F07CF9C008444000F066F96040074B24
:101ECC009B68584043035840430C43405A01100050
:101EDC0058409A4200D010BD0120FCE710E000E011
:101EEC0010B501235A40D2B200F009FB10BD00001E
:101EFC0010B5022918D009D800290FD0012912D108
:101F0C00802109010B48FFF7EBFF0CE003290AD1F4
:101F1C00802189010748FFF7E3FF04E08021C90015
:101F2C000448FFF7DDFF10BD802149010148FFF790
:101F3C00D7FFF8E70004005010B5140000F0D8FAF1
:101F4C000100013842425041C0B2002C03D001398B
:101F5C004B1E9941C8B210BD70B586B001AC1F4B79
:101F6C00220023CB23C203CB03C2FFF799FF060049
:101F7C0080211B4D0022C9002800FFF7B1FF8021F2
:101F8C00002209012800FFF7ABFF80210022490144
:101F9C002800FFF7A5FF8021002289012800FFF708
:101FAC009FFF104D3300104A21002800FFF7EDFC75
:101FBC000023002200212800FFF712FD0B4800230C
:101FCC0003600B4B43600B4B8360FEF72DFD01222E
:101FDC0009490A4802F000FE06B070BD144E000814
:101FEC000004005034010020884E0008200100201D
:101FFC004D1E0008111E0008500200208C0000200D
:10200C0070B582B000F0C0F80400174E0122012117
:10201C003000FFF791FF0500002202213000FFF78E
:10202C008BFF020029001148FFF7D4FC104B1B68F2
:10203C00E31A632B04D80D48FFF716FE02B070BDEF
:10204C006B469D1C01AB2A0069460A48FEF716FD3B
:10205C00030000216A5E694609880448FFF7C0FC4A
:10206C00034B1C60E7E7C04600040050340100201D
:10207C00300100202001002010B50A4B834200D013
:10208C0010BD094A136801331360084C2178084BC2
:10209C0019700848FFF7E2FC01222100014802F008
:1020AC009BFDEDE78C0000204C020020500200202C
:1020BC00480200203401002010B5094B984200D092
:1020CC0010BD084A13680133136002F00BF9064B7C
:1020DC00186001220549024802F07EFDF0E7C04677
:1020EC008C000020400200204402002050020020FE
:1020FC0010B50400114B1978002901D1012010BD35
:10210C00FA208000FDF7F8FF01000D4B1868FDF771
:10211C00F3FF00F099F800280DD1032C01D9012010
:10212C00EDE7013000222100404200F051F8054B50
:10213C001C600020E3E70120E1E7C046040000201A
:10214C00000000200800002010B5084A1168802308
:10215C005B000B4313600320FFF7CAFF041E02D081
:10216C000124200010BDFEF731FCFAE700200240EC
:10217C00034B1B78034A11685B1813607047C04609
:10218C000400002054020020014B18687047C04620
:10219C0054020020014B18687047C0469075FF1F11
:1021AC00014B18687047C0469475FF1F014B1868A7
:1021BC007047C0469875FF1F034A136803490B40CC
:1021CC00034313607047C04600000140FFF9FFFF56
:1021DC0070B5002811DB8308134EC0339B009D594A
:1021EC0003242040C000FF2214008440A543890131
:1021FC000A4082402A439A5170BD0F230340083B8A
:10220C009B0806339B00094A944663445C6803228E
:10221C001040C000FC3215008540AC4389010A40D7
:10222C00824022435A60E7E700E100E000ED00E065
:10223C00002805DB1F2318401E3B8340014A136016
:10224C007047C04600E100E0013880235B049842EF
:10225C000FD2094A50600948036A1B021B0AC021AD
:10226C0009060B43036200239360073313600020BD
:10227C0070470120FCE7C04610E000E000ED00E0F4
:10228C0010B5002833D02523C35C022B06D00423C1
:10229C00C36320330022C254012010BD01680A68B8
:1022AC0001239A430A6001680A680E24A2430A605B
:1022BC00816C0A680F4C22400A601C22416C0A4057
:1022CC00016C93404B60C36C026D5A60436D002BE4
:1022DC0005D01A6822401A60836DC26D5A6025239E
:1022EC000122C254013B0022C2540020D5E7012038
:1022FC00D3E7C046FFFEFFFF10B52523C35C022BBE
:10230C0003D00423C363012010BD01680A680123B4
:10231C009A430A6001680A680E24A2430A60816C21
:10232C000A68114C22400A601C22416C0A40016C64
:10233C0093404B60C36C026D5A60436D002B05D00B
:10234C001A6822401A60836DC26D5A6025230122DF
:10235C00C254013B0022C254836B002B02D098471D
:10236C000020D1E70020CFE7FFFEFFFFF0B50023F0
:10237C005AE084685F000326BE40B4432600CC6854
:10238C00BC4034438460446894434A681609012273
:10239C0032409A402243426056E0DC080834A400E4
:1023AC00265805321A4092000F279740BE430F69FA
:1023BC0097403A00324322505AE0042600E00026AF
:1023CC00A64034003C43454E183292009451346878
:1023DC00EA432600AE434F68FF0201D52C4326008A
:1023EC003E4C26606468260016404F68BF0201D53B
:1023FC002C432600394C66608426A45926001640CE
:10240C004F68BF0301D52C432600344C8427E6517A
:10241C008026A45922404E68F60301D52A00224397
:10242C002E4D80242A5101330C682200DA4054D0FE
:10243C0001229A40250015401442F4D003244E6822
:10244C003440013C012C94D903224C682240032ACD
:10245C0009D0C2685E000324B440A24314008A6809
:10246C00B2402243C26003224C682240022A94D01C
:10247C0004685E0003221700B740BC434F683A4023
:10248C00B24022430260C02292024C681442CAD06D
:10249C009A0814001834A400104EA75903261E40A5
:1024AC00F4000F26A640B743A026F605B04286D00E
:1024BC000B4EB0420BD00B4EB0420AD00A4EB0427B
:1024CC0009D00A4EB04200D177E7052678E70126FD
:1024DC0076E7022674E7032672E7F0BD0018024087
:1024EC000004005000080050000C00500010005078
:1024FC0003690B4201D0012070470020FCE7002A41
:10250C0001D0816170478162FCE703689A69920788
:10251C0001D500229A6203689A69D20703D49A699A
:10252C0001210A439A61704710B58905890D12047F
:10253C0011431943029B1943490049080468626816
:10254C005B0D8020C0000340024803439A431143B3
:10255C00616010BDFF63FF03F0B5C64600B5040013
:10256C000D00170001688B69102216001E401A42DC
:10257C0000D175E01023CB61002398460026236818
:10258C009869820631D4002E2FD16B1CF7D0FFF73F
:10259C00FBFDC01BA84201D8002DF0D121684B686F
:1025AC008022D20113404222A25CD2B2886900047C
:1025BC0003D5002B01D1202A0ED123689B699B06E1
:1025CC00DDD4FFF7E1FDC01B1928F6D920234246C4
:1025DC001A4390460126D2E74A688023DB01134355
:1025EC004B60FFF7D1FD0700E7E7002E01D1202259
:1025FC00DA610426434633431E00012522689369A1
:10260C00D90504D501210E43FF31D16101255A05AD
:10261C0006D50822164322688021C900D161012504
:10262C009B051FD502231E43236880229200DA618A
:10263C0001252000FFF769FF226853680B490B4006
:10264C005360636C1E43666441232022E2540023D2
:10265C002232A354023AA354280080BCB846F0BDE1
:10266C000025CBE7002DF7D0E3E7C04600E800FEDD
:10267C0070B504000D00160023689B699B0720D4DD
:10268C00320029002000FFF767FF00281BD16B1CCC
:10269C00F2D0FFF779FD801BA84201D8002DEBD1B9
:1026AC0023689B699B07E7D4636C20221343636404
:1026BC004123E25400232232A354023AA3540120B2
:1026CC0000E0002070BD0120FCE7F0B5D6464F4677
:1026DC0080B583B007000D00160099460A9B9A46F8
:1026EC003B689C692C40641B63425C410196B4427C
:1026FC0028D1524649463800FFF72EFF002827D133
:10270C004B460133ECD0FFF73FFD5346C01A48450A
:10271C0002D84B46002BE3D13B689B692B405B1BDB
:10272C005A425341019A9342DAD17B6C20221343D3
:10273C007B644123FA5400232232BB54023ABB542B
:10274C00012000E0002003B0C0BCBA46B146F0BD89
:10275C000120F8E770B582B0040015001E0080233C
:10276C00F2B2194800905B042000FFF7DDFE079AD7
:10277C0006992000FFF77CFF00281ED1012E0ED1F8
:10278C002368EDB29D62079B0093069B002280217B
:10279C002000FFF79AFF002813D102B070BD236808
:1027AC002A0A9A62079A06992000FFF761FF00280F
:1027BC0005D12368EDB29D62E5E70120EDE701202C
:1027CC00EBE70120E9E7C0460020008070B582B03D
:1027DC00040015001E00DAB2184B00930023FFF71B
:1027EC00A3FE079A06992000FFF742FF00281ED18E
:1027FC00012E0ED12368EDB29D62079B0093069BC0
:10280C00002240212000FFF760FF002813D102B006
:10281C0070BD23682A0A9A62079A06992000FFF76E
:10282C0027FF002805D12368EDB29D62E5E7012062
:10283C00EDE70120EBE70120E9E7C046002000802E
:10284C0070B504000D00160003E023689B699B061D
:10285C0012D523689B699B061BD4320029002000EB
:10286C00FFF77AFE002816D1FFF78EFC801BA842DA
:10287C00EBD8002DEDD1E8E7636C202213436364A1
:10288C004123E25400232232A354023AA3540120E0
:10289C0000E0002070BD0120FCE7000010B5041E14
:1028AC0060D04123C35C002B48D041232422E25446
:1028BC002268136801218B43136022682A4B6168DC
:1028CC000B4013612268936828490B409360E368BE
:1028DC00012B39D0226884231B02A1680B4393601F
:1028EC00E368022B37D02268536821490B405360B0
:1028FC00226851681F4B0B4353602268D3681B49F5
:10290C000B40D360236962691343A26912022168E8
:10291C001343CB602268E369216A0B43136022687E
:10292C00136801210B4313600023636441221F31A0
:10293C00A15423630132A354002010BD4033002264
:10294C00C254FDF763FFB0E7226880231B02A16825
:10295C000B439360C4E72268516880231B010B432F
:10296C005360C5E70120E8E7FFFFFFF0FF7FFFFFA3
:10297C00FFF7FFFF00800002F0B587B00400039161
:10298C00049205930CAB20CB1F884123C35C202BF6
:10299C0000D0B3E0002D18D0002F16D04023C35C1C
:1029AC00012B00D1ADE040230122C254FFF7ECFB18
:1029BC000600802100901923012209022000FFF754
:1029CC0084FE002806D0012099E080239B006364DC
:1029DC00012094E041232122E25401331F32E254BE
:1029EC000023636465626785636301960E9B0093A5
:1029FC00059B049A03992000FFF7ACFE00280FD129
:102A0C00638D9BB2FF2B10D9FF2323857F3B0022C4
:102A1C0000925B04FF3203992000FFF785FD21E053
:102A2C0040230022E254012069E0628D92B222859B
:102A3C008023D2B2002100919B0403992000FFF760
:102A4C0073FD0FE0628D92B222858023D2B20021F9
:102A5C0000919B0403992000FFF766FD638D9BB2E8
:102A6C00002B34D032000E992000FFF701FE002815
:102A7C0049D12368626A12789A62636A013363628D
:102A8C00638D013B9BB26385238D013B9BB22385F8
:102A9C00628D92B2002AE1D0002BDFD100960E9B02
:102AAC00002280212000FFF710FE00282DD1638D1D
:102ABC009BB2FF2BC6D9FF2323857F3B00220092BC
:102ACC005B04FF3203992000FFF72EFDC6E73200AE
:102ADC000E992000FFF7B4FE002818D1236820229D
:102AEC00DA6121684B680B4D2B404B604123E2545B
:102AFC0000232232A354023AA35400E0022007B070
:102B0C00F0BD0220FBE70120F9E70120F7E70120E7
:102B1C00F5E7C04600E800FEF0B587B0040003916D
:102B2C00049205930CAB20CB1F884123C35C202B54
:102B3C0000D0B5E0002D18D0002F16D04023C35C78
:102B4C00012B00D1AFE040230122C254FFF71CFB44
:102B5C000600802100901923012209022000FFF7B2
:102B6C00B4FD002806D001209BE080239B00636409
:102B7C00012096E041232222E25401331E32E2541A
:102B8C000023636465626785636301960E9B009303
:102B9C00059B049A03992000FFF718FE00280FD11B
:102BAC00638D9BB2FF2B10D9FF2323857F3B424AB9
:102BBC0000925B04FF2203992000FFF7B5FC21E093
:102BCC0040230022E25401206BE0628D92B22285F8
:102BDC008023D2B2384900919B0403992000FFF75F
:102BEC00A3FC0FE0628D92B222858023D2B2002129
:102BFC0000919B0403992000FFF796FC638D9BB218
:102C0C00002B36D000960E9B002204212000FFF7EB
:102C1C005CFD002849D123685B6A626A1370636AA1
:102C2C0001336362238D013B9BB22385628D013A94
:102C3C0092B26285628D92B2002ADFD0002BDDD178
:102C4C0000960E9B002280212000FFF73EFD0028FD
:102C5C002DD1638D9BB2FF2BC4D9FF2323857F3BE2
:102C6C00002200925B04FF3203992000FFF75CFC0A
:102C7C00C4E732000E992000FFF7E2FD002818D1BE
:102C8C0023682022DA6121684B680C4D2B404B6085
:102C9C004123E25400232232A354023AA35400E00D
:102CAC00022007B0F0BD0220FBE70120F9E701206C
:102CBC00F7E70120F5E7C0460024008000E800FE9D
:102CCC00F0B54123C35C202B20D12033C35C012BF6
:102CDC001ED0402401220255412524234355066869
:102CEC00336893433360066833680A4F3B40336064
:102CFC00066833681943316001680B6813430B6035
:102D0C0020234355002303550020F0BD0220FCE78F
:102D1C000220FAE7FFEFFFFFF0B54123C35C202B45
:102D2C001ED12033C35C012B1CD040240122025540
:102D3C004125242343550668336893433360066862
:102D4C003368094F3B4009021943316001680B6835
:102D5C0013430B6020234355002303550020F0BD83
:102D6C000220FCE70220FAE7FFF0FFFF70B5041E1B
:102D7C0028D00368144A1A600368144A1A6003685E
:102D8C0042685A60036882689A60FFF7FDF9050093
:102D9C002368DA6852070AD0FFF7F6F9401B31288E
:102DAC00F6D92368DB685B07F2D003200BE01969C6
:102DBC00E268914202D01A61002004E0044A1A60D1
:102DCC00002000E0012070BDCCCC00005555000067
:102DDC00AAAA00000368024A1A6000207047C04685
:102DEC00AAAA000010B5104A136810490B400343FF
:102DFC00136080239B00984201D0002010BD0C4B27
:102E0C001B685800C01840000A49FDF775F90130DD
:102E1C00054B5B695B0503D5002803D00138F7E748
:102E2C000020EBE70320E9E700700040FFF9FFFF0B
:102E3C000000002040420F0070B5FFF7A5F9040018
:102E4C00254A116880235B000B431360224B1B68DF
:102E5C005B0506D4FFF798F9001B0228F6D903206E
:102E6C0070BD1D4D8023DB016B60FFF78DF90400F5
:102E7C000023AB60184B9B6838221A4207D0FFF72F
:102E8C0083F9001B154B9842F4D90320E8E7124B49
:102E9C00C8321A601A60FFF777F904000E4B1B68F2
:102EAC009B0106D5FFF770F9001B0228F6D9032009
:102EBC00D6E7094B80225201DA6000229A61013A6E
:102ECC001A62074B074A1A60074B1868FFF710F98C
:102EDC000028C5D00120C3E7001002408813000071
:102EEC00000000200024F4000800002070B582B01F
:102EFC00041E00D15EE20368DB0739D5C14A916834
:102F0C0038230B40D16803220A40102B26D0082B03
:102F1C0026D063688022520293427FD0A022D20234
:102F2C00934200D181E0B74B1A68B7490A401A6046
:102F3C001A68B6490A401A606368002B00D180E019
:102F4C00FFF722F90500AF4B1B689B0310D4FFF76A
:102F5C001BF9401B6428F6D903202CE2032AD6D196
:102F6C00A84B1B689B0303D56368002B00D124E29C
:102F7C0023689B0731D5A34A936838210B40D1684D
:102F8C0003220A40102B6AD0002B6BD19D4A126889
:102F9C00520503D5E268002A00D110E29948426834
:102FAC009B490A40616909020A434260002B0DD11A
:102FBC00036898490B4021690B4303600368DB0AE3
:102FCC0007221A40944BD340944A1360944B1868D0
:102FDC00FFF78EF8002800D0F3E123681B0700D41C
:102FEC0081E0884B9A6838231340182B73D0A3695F
:102FFC00002B00D1B4E0834A136E01210B431366FE
:10300C00FFF7C2F805007F4B1B6E9B076BD4FFF7D5
:10301C00BBF8401B0228F6D90320CCE1794A116891
:10302C0080235B020B43136086E7764B1968802282
:10303C00D2020A431A601968802252020A431A60AB
:10304C007AE7FFF7A1F805006E4B1B689B038FD541
:10305C00FFF79AF8401B6428F6D90320ABE1022A4B
:10306C0092D193E7E368002B22D0664A1368694932
:10307C000B4021690B431360116880235B000B43E9
:10308C001360FFF781F805005E4B1B685B0506D4E7
:10309C00FFF77AF8401B0228F6D903208BE1594937
:1030AC004B685B4A13406269120213434B6094E70E
:1030BC00544A13685B490B401360FFF765F8050031
:1030CC00504B1B685B0588D5FFF75EF8401B022848
:1030DC00F6D903206FE14B4B1B6E9B0703D5A369FD
:1030EC00002B00D16FE123685B0700D4A2E0454BB5
:1030FC009A6838231340202B45D0424BDB6BDB0006
:10310C004AD4404AD16B802040050143D163D36B34
:10311C0003400193019B0125434B1B68DB053DD507
:10312C00A368012B4ED0052B52D0364BDA6D012102
:10313C008A43DA65DA6D03318A43DA65A368002BBA
:10314C0050D0FFF721F806002E4BDB6D9B076FD498
:10315C00FFF71AF8801B354B9842F5D903202AE16A
:10316C00284A136E01218B431366FFF70DF80500F7
:10317C00244B1B6E9B07B6D5FFF706F8401B0228A5
:10318C00F6D9032017E11F4BDB6D9B0752D5A368C3
:10319C00002B4FD101200EE10025BDE7224A11681A
:1031AC0080235B000B431360FEF7EEFF06001E4B03
:1031BC001B68DB05B4D4FEF7E7FF801B0228F6D9A9
:1031CC000320F8E00F4AD36D01210B43D365B5E71B
:1031DC000C4BDA6D04210A43DA65DA6D03390A43C4
:1031EC00DA65ABE7FEF7D0FF0600064BDB6D9B07FD
:1031FC001ED5FEF7C9FF801B0C4B9842F5D9032056
:10320C00D9E0C04600100240FFFFFEFFFFFFFBFFAE
:10321C00FF80FFFFFFC7FFFF0024F4000000002029
:10322C0008000020FFFEFFFF007000408813000024
:10323C00012D19D023689B062FD5E369002B19D0DB
:10324C006A4A11688023DB030B431360FEF79CFF73
:10325C000500664B1B681B021FD4FEF795FF401B35
:10326C000228F6D90320A6E0604AD36B60490B40D4
:10327C00D363DFE75D4A13685E490B401360FEF7CA
:10328C0083FF0500594B1B681B0206D5FEF77CFF1C
:10329C00401B0228F6D903208DE0236A002B00D1B5
:1032AC0093E0524A916838220A40102A5AD0022BD5
:1032BC0012D04E4A136850490B401360FEF764FF5E
:1032CC0004004A4B1B689B0145D5FEF75DFF001BB4
:1032DC000228F6D903206EE0444A136846490B4095
:1032EC001360FEF751FF0500404B1B689B0106D590
:1032FC00FEF74AFF401B0228F6D903205BE03B4A4D
:10330C00D3683E491940636AA06A0343E06A00022D
:10331C000343206B0343606B0343A06B03430B43DA
:10332C00D360116880235B040B431360D168802346
:10333C005B050B43D360FEF727FF04002B4B1B6888
:10334C009B0106D4FEF720FF001B0228F6D90320B0
:10335C0031E000202FE0254AD36829490B40D36087
:10336C00002028E0012B32D0204BDA6803231340D5
:10337C00616A8B422DD170231340A16A8B422AD1F2
:10338C00FE21C9011140E36A1B02994225D1F823A1
:10339C009B031340216B8B4221D1E0231B0513406F
:1033AC00616B8B421DD1520F5207A36B9A421AD1FB
:1033BC00002000E0012002B070BD0120FBE70120DD
:1033CC00F9E70120F7E70120F5E70020F3E70120FA
:1033DC00F1E70120EFE70120EDE70120EBE7012009
:1033EC00E9E70120E7E70120E5E7C04600100240CD
:1033FC00FFFFFFEFFFFFBFFFFFFFFFFE8C80C11140
:10340C00FCFFFEEE10B52A4B9B6838221A4207D1FE
:10341C00274B1A68D20A072313402648D84010BD00
:10342C00234B9A6838231340082B3BD0204B9A68C7
:10343C0038231340102B0DD01D4B9A6838231340A2
:10344C00202B31D01A4B9A6838231340182B26D0D6
:10345C000020E4E7164AD1680D3B0B40D2681209F4
:10346C00072111400131032B0FD01248FCF744FE09
:10347C000F4BDA68120A7F23134058430C4BD96860
:10348C00490F0131FCF738FEC9E70B48FCF734FE55
:10349C00074BDA68120A7F2313405843EEE7FA20F1
:1034AC00C001BCE70448BAE780200002B7E7C04679
:1034BC00001002400024F40000127A0070B50400E1
:1034CC000D00002800D1AAE0574B1A6807231340BF
:1034DC008B4221D323689A070ED55B0705D5534A37
:1034EC009168E023DB010B439360504A9368504989
:1034FC000B40A1680B4393602368DB0754D56368CA
:10350C00012B20D0022B3BD0002B3FD1474A126815
:10351C0052051CD401206AE0434A136807218B43EF
:10352C002B431360FEF730FE06003F4B1A6807234F
:10353C001340AB42CED0FEF727FE801B3D4A904293
:10354C00F3D9032053E0394A1268920369D53749FD
:10355C008A680720824313438B60FEF715FE060032
:10356C00324B9B6838221A406368DB009A421BD0AE
:10357C00FEF70AFE801B2F4B9842F1D9032036E050
:10358C002A4A12689201E2D4012030E0032B05D0C4
:10359C00264AD26D9207DAD4012028E0234A126E13
:1035AC009207D4D4012022E01F4B1A680723134042
:1035BC00AB421DD823685B0706D51C4A93681E498D
:1035CC000B40E1680B439360FFF71CFF174B9A68A5
:1035DC00120A0F2313409B00184A9A581F231340BA
:1035EC00D840174B1860174B1868FEF781FD70BD5B
:1035FC000D4A136807218B432B431360FEF7C4FD60
:10360C000600094B1A6807231340AB42D2D0FEF7D1
:10361C00BBFD801B074B9842F3D90320E7E7012041
:10362C00E5E70120E3E7C04600200240001002401D
:10363C00FFF0FFFF88130000FF8FFFFF284E0008EC
:10364C000000002008000020014B18687047C0469D
:10365C000000002010B5FFF7F7FF064B9A68120B1D
:10366C00072313409B00044A9A581F231340D84049
:10367C0010BDC04600100240684E0008F0B583B083
:10368C00040003689B0362D5AE4BDB6BDB001ED4DE
:10369C00AC4AD16B802040050143D163D36B03400E
:1036AC000193019B0126A84A116880235B000B4300
:1036BC001360FEF769FD0500A34B1B68DB0508D4FE
:1036CC00FEF762FD401B0228F6D9032502E0002616
:1036DC00E9E70025002D23D19A4BD96DC022920029
:1036EC000B001340114210D0226C9A420DD0954A17
:1036FC00D36D96490B40D06D802149020143D165B1
:10370C00D16D93480140D165D365DB0710D4002DF2
:10371C0006D18C4AD36D8D490B40216C0B43D3657C
:10372C00012E15D1874AD36B8A490B40D3630FE026
:10373C00FEF72AFD0700834BDB6D9B07E7D4FEF7F2
:10374C0023FDC01B844B9842F5D90325DFE70025E8
:10375C002368DB0706D57B4A536D03218B436168D5
:10376C000B43536523689B0706D5764A536D0C2192
:10377C008B43A1680B43536523685B0706D5714ADD
:10378C00536D30218B43E1680B4353652368DB0693
:10379C0006D56C4A536D71490B4021690B43536537
:1037AC002368DB0406D5674A536D68490B40616991
:1037BC000B43536523689B0506D5624A536D6849D4
:1037CC000B40A16A0B43536523685B0506D55D4A24
:1037DC00536D64490B40E16A0B43536523689B06A8
:1037EC0006D5584A536D60490B40A1690B4353658C
:1037FC0023685B0606D5534A536D5C490B40E1695F
:10380C000B43536523685B040BD54E4A536D9B00E9
:10381C009B08216B0B4353658023DB05226B9A427B
:10382C0062D023681B0306D5464A536D40218B4357
:10383C00616B0B43536523689B020BD5414A536D57
:10384C004B490B40A16B0B4353658023DB03A26BED
:10385C009A4250D023685B020BD53A4A536D4549C6
:10386C000B40E16B0B43536580235B04E26B9A4284
:10387C0048D023681B0509D5324A936D03218B432D
:10388C00216A0B439365236A012B40D023689B0468
:10389C0009D52C4A936D0C218B43616A0B439365BC
:1038AC00636A042B39D02368DB010BD5254A936D51
:1038BC002D490B40616C0B43936580239B01626C1B
:1038CC009A4230D023689B010BD51E4A936D1F4939
:1038DC000B40A16C0B439365A26C80235B009A4256
:1038EC0028D0280003B0F0BD164AD16880235B02B3
:1038FC000B43D36095E7134AD16880235B040B43D9
:10390C00D360A7E70F4AD1680B43D360B1E7D16806
:10391C0080235B020B43D360B8E7D16880235B0242
:10392C000B43D360BFE7074AD16880235B040B438A
:10393C00D360C7E7034AD16880235B040B43D36091
:10394C00CFE7C0460010024000700040FFFCFFFFB4
:10395C00FFFFFEFFFFFFFFEF88130000FFF3FFFFE9
:10396C00FFFFF3FFFFFFCFFFFFCFFFFFFF3FFFFF87
:10397C00FFFFBFFFFFFFFFFE30B5EFF31084012206
:10398C0082F3108801680B68124D2B400B6084F396
:10399C001088EFF3108182F31088026893680E4C44
:1039AC002340936081F31088C36E012B06D08C23C7
:1039BC002022C2500023C366436730BDEFF3108151
:1039CC0083F31088026813681024A343136081F3F7
:1039DC001088ECE7DFFEFFFFFEFFFFEF704710B52E
:1039EC00EFF31081012383F31088026813684024DD
:1039FC00A343136081F3108888232022C250002334
:103A0C008367FFF7EBFF10BD10B5806AFCF72DFE46
:103A1C0010BD7047F8B504000268D369106895684A
:103A2C00BA491E000E400B4205D1990603D58106FA
:103A3C002CD4E9002AD4002E07D0B5492E000E4014
:103A4C000D4229D1B349084226D1E16E012900D19A
:103A5C00AAE0D90202D5690200D550E11A0605D5B3
:103A6C00020600D560E12A0200D55DE15A0602D5B6
:103A7C00420600D55FE11A0202D5420000D55EE194
:103A8C00DB0102D5002800DA5DE1F8BD636F002B85
:103A9C00FBD020009847F8E7D90707D5C10505D515
:103AAC0001271762902162583A4362509A0709D550
:103ABC00EA0707D52268022111628E316258042769
:103ACC003A4362505A0709D5EA0707D52268042100
:103ADC0011628C31625802273A4362501A070AD598
:103AEC00820601D4002E06D0226808261662902188
:103AFC006258324362501A050AD5420108D5226831
:103B0C0080210901116290216258202632436250B3
:103B1C009022A258002AB8D09B0608D5830601D45F
:103B2C00EB0004D5636F002B01D020009847902345
:103B3C00E25823689B685B0602D4282313422CD0DE
:103B4C002000FFF719FF23689B685B0621D5EFF374
:103B5C001081012383F310882268936840208343EB
:103B6C00936081F310888023E358002B0DD06A4AB0
:103B7C009A638023E058FEF7BFFB002800D184E74E
:103B8C008023E058836B98477FE72000FCF76DFD9E
:103B9C007BE72000FCF769FD77E72000FCF765FD6B
:103BAC0090230022E25070E7D90600D451E7C106F9
:103BBC0000D44EE71023136223689B685B0662D522
:103BCC008023E1580A6853689BB2002B4CD05C20D0
:103BDC00205A984248D95E22A3520B681B689B0658
:103BEC000BD5022323675A33E15A0233E35AC91A1D
:103BFC0089B22000FFF70DFF47E7EFF31080012398
:103C0C0083F3108821680A68444D2A400A6080F3C7
:103C1C001088EFF3108083F3108821688A689A4328
:103C2C008A6080F31088EFF3108083F3108821688A
:103C3C008A684235FF35AA438A6080F310888C224B
:103C4C002021A1500022E266EFF3108183F310884B
:103C5C002268136810208343136081F3108880233B
:103C6C00E058FEF70DFBBCE75C21615A994200D08D
:103C7C000BE713689B0600D407E702232367200099
:103C8C00FFF7C7FE01E75C23E15A0233E25A891AB7
:103C9C0089B2E35A9BB2002B00D1F6E6002900D181
:103CAC00F3E6EFF31085012383F310882068026894
:103CBC001B4E3240026085F31088EFF3108583F3BE
:103CCC00108820688268174E3240826085F3108815
:103CDC008C222020A0500022E2666267EFF3108055
:103CEC0083F31088226813681025AB43136080F3AC
:103CFC001088022323672000FFF78BFEC5E6802384
:103D0C005B031362200000F0CBFFBEE60F0800003F
:103D1C000100001020010004153A0008FFFEFFFF0F
:103D2C00DFFEFFFFFEFFFFEFA36F002B00D1ACE621
:103D3C0020009847A9E62000FFF751FEA5E62000D9
:103D4C0000F0B0FFA1E6200000F0ABFF9DE6C046FE
:103D5C0010B56023C35A8C228258222A05D00268DF
:103D6C00936908210B43936110BD0268526ADBB260
:103D7C001340826D1370836D013383655E22835A09
:103D8C00013B9BB28352835A9BB2002BECD1EFF3D5
:103D9C00108C5D3A82F3108801680B68244C234028
:103DAC000B608CF31088EFF3108C82F31088016891
:103DBC008B6893438B608CF310888C231F32C2501A
:103DCC0000234367036703681A4A934211D01A4AC7
:103DDC0093420ED05B681B020BD5EFF310810123CD
:103DEC0083F3108802681368144C2340136081F32A
:103DFC001088C36E012B17D10023C366EFF3108418
:103E0C00013383F3108801680B68102293430B6015
:103E1C0084F310880368D9690A4200D01A625C23C3
:103E2C00C15AFFF7F6FD9FE7FCF71BFC9CE7C04669
:103E3C00DFFEFFFF0080004000840040FFFFFFFB1F
:103E4C0010B56023C25A2C33C358222B05D00268FC
:103E5C00936908210B43936110BD03685B6A13409F
:103E6C00826D1380836D023383655E22835A013B1E
:103E7C009BB28352835A9BB2002BEDD1EFF3108C83
:103E8C005D3A82F3108801680B68244C23400B6068
:103E9C008CF31088EFF3108C82F3108801688B6818
:103EAC0093438B608CF310888C231F32C2500023F9
:103EBC004367036703681A4A934211D0194A934225
:103ECC000ED05B681B020BD5EFF31081012383F33B
:103EDC00108802681368144C2340136081F3108817
:103EEC00C36E012B17D10023C366EFF3108401338B
:103EFC0083F3108801680B68102293430B6084F3E2
:103F0C0010880368D9690A4200D01A625C23C15A2E
:103F1C00FFF77FFDA0E7FCF7A4FB9DE7DFFEFFFFAB
:103F2C000080004000840040FFFFFFFBF0B5C64658
:103F3C0000B582B004006023C35A01930368DD69A5
:103F4C001A6890469F688C228258222A07D09A6958
:103F5C0008210A439A6102B080BCB846F0BD6823C0
:103F6C00C65A08E09023E358002B41D15E23E35A54
:103F7C009BB2002B43D0002E00D18EE0AB0600D4B8
:103F8C008BE023685B6A6A4612791340A26D13704A
:103F9C00A36D0133A3655E22A35A013B9BB2A352CE
:103FAC002368DD696A07E1D0EA0708D54246D205E5
:103FBC0005D5012119629022A3580B43A350AB07DE
:103FCC0009D5FB0707D5236802221A628E32A35843
:103FDC0004210B43A3506B07C4D5FB07C2D5236840
:103FEC0004221A628C32A35802210B43A350B9E766
:103FFC002000FCF73AFB90230022E250B6E7EFF3E7
:10400C001080012282F3108821680B68374D2B40F9
:10401C000B6080F31088EFF3108182F31088226814
:10402C00936833480340936081F310888C232022DB
:10403C00E25000236367236723682E4A934211D012
:10404C002D4A93420ED05B681B020BD5EFF3108107
:10405C00012383F3108822681368284803401360F7
:10406C0081F31088E36E012B3CD10023E366EFF360
:10407C001080013383F3108821680B68102293435E
:10408C000B6080F310882368D9690A4200D01A6249
:10409C005C23E15A2000FFF7BCFC5E23E35A9BB281
:1040AC00002B00D157E76822A25A9A4200D852E757
:1040BC00EFF31080012282F3108821688B68104D79
:1040CC002B408B6080F310880E4B6367EFF31081ED
:1040DC0082F310882268136820200343136081F355
:1040EC00108838E72000FCF7BCFAD6E7FFFEFFFF8C
:1040FC00FEFFFFEF0080004000840040FFFFFFFB4D
:10410C00FFFFFFEF5D3D0008F8B5CE46474680B592
:10411C0004006023C55A0368DF691A6890469A68E0
:10412C0091468C228258222A07D09A6908210A4388
:10413C009A61C0BCB946B046F8BD6823C65A08E0BF
:10414C009023E358002B41D15E23E35A9BB2002B02
:10415C0043D0002E00D18EE0BB0600D48BE0236848
:10416C005B6A2B40A26D1380A36D0233A3655E22A4
:10417C00A35A013B9BB2A3522368DF697A07E3D0B1
:10418C00FA0708D54246D20505D5012119629022BD
:10419C00A3580B43A350BB070AD54B46DB0707D5E7
:1041AC00236802221A628E32A35804210B43A350B7
:1041BC007B07C5D54B46DB07C2D5236804221A62A0
:1041CC008C32A35802210B43A350B9E72000FCF713
:1041DC004CFA90230022E250B6E7EFF31080012254
:1041EC0082F3108821680B68374D2B400B6080F3ED
:1041FC001088EFF3108182F310882268936833489B
:10420C000340936081F310888C232022E25000231A
:10421C006367236723682E4A934211D02D4A934239
:10422C000ED05B681B020BD5EFF31081012383F3D7
:10423C0010882268136828480340136081F31088A3
:10424C00E36E012B3CD10023E366EFF310800133C6
:10425C0083F3108821680B68102293430B6080F362
:10426C0010882368D9690A4200D01A625C23E15A8B
:10427C002000FFF7CEFB5E23E35A9BB2002B00D14C
:10428C0057E76822A25A9A4200D852E7EFF31080FF
:10429C00012282F3108821688B68104D2B408B60B3
:1042AC0080F310880E4B6367EFF3108182F3108854
:1042BC002268136820200343136081F3108838E7C9
:1042CC002000FCF7CEF9D6E7FFFEFFFFFEFFFFEF65
:1042DC000080004000840040FFFFFFFBFFFFFFEF6A
:1042EC004D3E00089023C05870470000F8B50400FC
:1042FC00016883680269134342691343C26913431B
:10430C000A68AA48024013430B6022685368A84904
:10431C000B40E1680B435360A1692268A54B9A429C
:10432C0004D0A54B9A4201D0236A19439368A34841
:10433C0003400B4393602268D36A0F218B43616A5D
:10434C000B43D36222689E4B9A421AD09D4B9A42E1
:10435C005CD09D4B9A426AD09C4B9A4200D1BDE0F6
:10436C009B4B9A4200D1BBE09A4B9A4200D1B9E0E8
:10437C00904B9A426CD0904B9A4200D180E0102323
:10438C000EE0954B596D03230B40022B00D18FE0AF
:10439C0038D8002B00D18DE0012B00D08CE00333FA
:1043AC0084498A4200D1AFE083498A4200D1ABE014
:1043BC00E06980221202904200D119E1042B00D155
:1043CC005AE100D94AE1002B00D14EE1022B00D07A
:1043DC0042E18248636A5B00814A995AFBF78CFE82
:1043EC0063685B08C0186168FBF786FE0200103A30
:1043FC007C4B9A4200D94AE123680004000CD86037
:10440C000020BFE0032B59D10533C9E7724B596D1E
:10441C000C230B40082B53D005D8002B52D0042B67
:10442C00BED01023BCE70C2B4ED1043BB8E76A4B33
:10443C00596D30230B40202B48D005D8002B47D08A
:10444C00102B47D10C3BABE7302B45D1283BA7E7D2
:10445C00614B5B6DC02109010B40802109018B422E
:10446C0042D007D8002B41D08021C9008B423FD1CC
:10447C00042395E7C02109018B423BD108238FE728
:10448C00554B5B6DC02189000B400139FF398B42C4
:10449C0032D007D8002B31D00139FF398B422FD1C4
:1044AC0004237DE7C02189008B422BD1082377E7B9
:1044BC00022375E7002373E7102371E710236FE7DE
:1044CC0002236DE700236BE7102369E7022367E7FC
:1044DC00002365E7102363E7102361E700235FE700
:1044EC0000235DE700235BE7022359E7002357E72E
:1044FC00102355E7102353E7022351E700234FE71E
:10450C0010234DE710234BE7042B4BD034D8002B52
:10451C0041D0022B2ED1314D636A5B00304A9F5A39
:10452C0039002800FBF7E8FD666873009B1983428D
:10453C0000D9A4E03303834200D2A2E03A00002366
:10454C0028000021FBF74EFF050E0B022B43020245
:10455C00700800218018594132000023FBF742FFFC
:10456C00214BC218214B9A4200D98CE02368D860A9
:10457C00002007E0012005E0082B02D180252D0248
:10458C00CAE7012001236A22A352023AA352002354
:10459C006367A367F8BDFFF75DF80500002DBBD17D
:1045AC000020EFE7FEF72EFF0500F7E7F369FFCFDA
:1045BC00FFCFFFFF0080004000840040FFF4FF119C
:1045CC00003801400044004000480040004C0040CE
:1045DC0000500040003C0140001002400024F40058
:1045EC00984E0008EFFF000000FDFFFFFFFC0F00DE
:1045FC00042B2ED023D8002B25D0022B1DD12548DF
:10460C00636A5B00244A995AFBF776FD40006368A5
:10461C005B08C0186168FBF76FFD0200103A1F4B76
:10462C009A4232D882B20F239A434008083B184072
:10463C0010432368D8600020A4E70120A2E7082BD0
:10464C00DED001209EE7FFF705F80028D8D1002026
:10465C0098E7FEF7D7FEF8E7012093E7082B02D185
:10466C0080200002B6E601208CE7FEF7F3FF00285D
:10467C0000D0AFE6002085E7FEF7C4FEF7E7012087
:10468C0080E701207EE701207CE701207AE701200A
:10469C0078E7C0460024F400984E0008EFFF0000B5
:1046AC00836A1B0706D5026853682C490B40816B43
:1046BC000B435360836ADB0706D5026853682849AD
:1046CC000B40C16A0B435360836A9B0706D5026893
:1046DC00536824490B40016B0B435360836A5B079F
:1046EC0006D50268536820490B40416B0B4353605D
:1046FC00836ADB0606D5026893681C490B40C16BC4
:10470C000B439360836A9B0606D50268936818492D
:10471C000B40016C0B439360836A5B060BD50268FC
:10472C00536814490B40416C0B43536080235B036B
:10473C00426C9A420AD0836A1B0606D502685368FB
:10474C000D490B40C16C0B435360704702685368B2
:10475C000A490B40816C0B435360ECE7FF7FFFFF72
:10476C00FFFFFDFFFFFFFEFFFFFFFBFFFFEFFFFF64
:10477C00FFDFFFFFFFFFEFFFFFFFF7FFFFFF9FFFD5
:10478C00F8B5CE46474680B506000D001700994691
:10479C00089B98463368DC692C40641B63425C417F
:1047AC00BC4233D143460133F4D0FDF7EDFC4B460C
:1047BC00C01A40452FD84346002B2ED033681A68B8
:1047CC005207E7D5802DE5D0402DE3D0DA691207EA
:1047DC0010D4DA691205DDD5802212011A6230007C
:1047EC00FFF7CAF890232022F2500C3B0022F2541F
:1047FC0003200CE008241C623000FFF7BDF8902366
:10480C00F4500C3B0022F254012000E00020C0BC0C
:10481C00B946B046F8BD0320F9E70320F7E7F0B539
:10482C00C64600B582B004000D0090461E008823D9
:10483C00C358202B6ED1002900D170E0002A00D182
:10484C006FE080235B0182689A4204D10369002BDC
:10485C0001D1CB0767D490230022E250083B2132D0
:10486C00E250FDF791FC070054234246E25202331A
:10487C00E25280235B01A2689A4202D00023984640
:10488C0019E02369002B30D00023984613E08823CD
:10489C002022E25003203EE02A7823689A620135F8
:1048AC008823E258673B1340212B3ED13533E25A23
:1048BC00013A92B2E2525623E35A9BB2002B17D024
:1048CC0000963B00002280212000FFF759FF0028B2
:1048DC00DDD1002DE0D143461B882268DB05DB0DC2
:1048EC00936202239C46E044DAE7A8460025E2E7FF
:1048FC0000963B00002240212000FFF741FF0028DA
:10490C0003D188232022E25005E088232022E250A4
:10491C00032000E0022002B080BCB846F0BD0120AC
:10492C00F9E70120F7E70120F5E70120F3E70000A4
:10493C0030B583B0040090230022C250FDF724FC54
:10494C00050022681268130710D423681B685B07E4
:10495C002BD420238822A3500432A3500023E366D7
:10496C002367083AA354002003B030BD8021234BA9
:10497C0000930300002289032000FFF701FF0028A9
:10498C00E3D0EFF31081012383F3108822681368BE
:10499C0080208343136081F3108888232022E25007
:1049AC00043B0022E2547D38DEE78021134B009358
:1049BC002B000022C9032000FFF7E2FE0028C8D01C
:1049CC00EFF31080012282F3108821680B680C4DE4
:1049DC002B400B6080F31088EFF3108082F310886B
:1049EC0021688B6893438B6080F310888C231F3273
:1049FC00E250083B0022E2540320B5E7FFFFFF0121
:104A0C00DFFEFFFF10B5041E30D08823C358002BE7
:104A1C0022D088232422E2502268136801218B4380
:104A2C001360A36A002B1DD12000FFF75FFC012847
:104A3C0011D0226853680E490B405360226893686A
:104A4C002A218B4393602268136829390B43136026
:104A5C002000FFF76DFF10BD84330022C254FBF71A
:104A6C006BFFD6E72000FFF71BFEDDE70120F2E726
:104A7C00FFB7FFFF10B581655C23C2520233C252EF
:104A8C00002343678368802149018B4208D0002BA7
:104A9C0015D10369002B0ED16033FF21C15215E0F3
:104AAC000369002B03D160334649C1520EE06023E9
:104ABC00FF21C1520AE060237F21C15206E0802110
:104ACC0049058B4231D060230021C1529023002133
:104ADC00C150043B2231C150EFF3108C012484F3FC
:104AEC00108801688B6823438B608CF310888023BB
:104AFC009B05416E994223D080235B0182689A42C8
:104B0C004CD0314B43670369002B4DD0EFF3108130
:104B1C00012383F31088026810682033FF330343AA
:104B2C00136081F31088002010BD0369002B03D1A2
:104B3C0060337F21C152C9E760233F21C152C5E7D1
:104B4C006823C35A9342D7D880235B0182689A4268
:104B5C001ED01E4B43670369002B0BD0EFF3108163
:104B6C00012383F3108802681468FF332343136016
:104B7C0081F31088EFF31081012383F3108802680E
:104B8C00906880235B050343936081F31088CAE728
:104B9C000369002BDDD10E4B4367DCE70369002B67
:104BAC00AFD10C4B4367AEE7EFF31081012383F3D6
:104BBC0010880268136820200343136081F3108867
:104BCC00B1E7C046FF0100005D3D0008393F000819
:104BDC00154100084D3E000870B58C23C358202B9E
:104BEC0029D1002929D0002A29D080235B0184688F
:104BFC009C4204D10369002B01D1CB0721D40023A3
:104C0C00C3660368104CA34212D0104CA3420FD0C1
:104C1C005B681B020CD5EFF3108C012383F3108817
:104C2C00046825688023DB042B4323608CF31088F5
:104C3C00FFF720FF00E0022070BD0120FCE70120FF
:104C4C00FAE70120F8E7C0460080004000840040ED
:104C5C00F8B50400436E002B05D101336A22835250
:104C6C00023A8352F8BD026895686D0E07231D4009
:104C7C009268520F1340084FF85CC000074EF15C6D
:104C8C00FBF7C4FA6A23E052785DC000715DFBF754
:104C9C00BDFA6823E052E5E7B84E0008B04E0008B4
:104CAC00704770477047000070B58423C35C012BBC
:104CBC0015D08424012606558825242343510268E7
:104CCC0013681168B1431160064A13400022426612
:104CDC0001680B60202343510255002070BD022057
:104CEC00FCE7C046FFFFFFDFF8B504000A00842391
:104CFC00C35C012B1BD084250120605588262423FE
:104D0C00A35123681F681968814319602068836860
:104D1C00DB00D908114381602000FFF799FF23685D
:104D2C001F602023A351002363550020F8BD0220EF
:104D3C00FCE70000F8B504000B008422825C012A19
:104D4C001BD084250120605588262422A25122687C
:104D5C001768116881431160226891680848014006
:104D6C00194391602000FFF773FF23681F60202315
:104D7C00A351002363550020F8BD0220FCE7C04678
:104D8C00FFFFFFF170B500260C4D0D4C641BA410F9
:104D9C00A64209D1002600F02BF80A4D0A4C641BE0
:104DAC00A410A64205D170BDB300EB58984701364C
:104DBC00EEE7B300EB5898470136F2E7C84E00080F
:104DCC00C84E0008C84E0008CC4E0008002310B591
:104DDC009A4200D110BDCC5CC4540133F8E70300F7
:104DEC008218934200D1704719700133F9E7000023
:104DFC00F8B5C046F8BC08BC9E467047F8B5C0462E
:084E0C00F8BC08BC9E4670478B
:104E140000000000A51E00088D1E0008FD1E0008ED
:104E24007D1E0008000000000000000000000000DB
:104E3400000000000000000000000000000000006E
:104E44000000000001000000020000000300000058
:104E54000400000006000000070000000800000035
:104E64000900000000000000000000000000000035
:104E74000000000001000000020000000300000028
:104E8400040000006368616E67652D746869732DA2
:104E94006B657921010002000400060008000A0085
:104EA4000C001000200040008000000108040204EF
:0C4EB400080101010101010307010000D9
:084EC00070B5FF7F0100000046
:044EC800E5000008F9
:044ECC00BD0000081D
:0C4ED0000024F4000100000004000000B9
:040000050800061DCC
:00000001FF
