:020000022000DC
:10000000F0EF01201104020059040200590402001B
:1000100059040200590402005904020000000000C3
:1000200000000000000000000000000081D7020076
:100030005904020000000000E1D7020045D8020088
:100040001F62020029620200336202003D62020068
:1000500047620200516202005B62020065620200B8
:100060006F62020079620200836202008D62020008
:1000700097620200A1620200AB620200B562020058
:10008000BF62020059040200590402005904020030
:1000900059040200590402005904020059040200E4
:1000A000539702005D97020089990200939902001C
:1000B0009D9902006797020071970200590402009F
:1000C00059040200590402005904020059040200B4
:1000D00059040200590402005904020069B20200E6
:1000E00073B20200590402005904020059040200CC
:1000F0005904020059040200590402005904020084
:100100005904020059040200590402005904020073
:100110005904020059040200590402005904020063
:100120005904020059040200590402005904020053
:100130005904020059040200590402005904020043
:100140005904020059040200590402005904020033
:1001500059040200D97C020059040200590402002B
:100160003D640200156402001F640200296402005D
:100170005904020033640200557C02005F7C0200D7
:10018000697C0200737C02007D7C0200590402003D
:1001900059040200877C0200917C0200590402008D
:1001A0009B7C0200A57C0200590402005904020055
:1001B000AF7C0200B97C020059040200C37C02003B
:1001C000CD7C0200590402005904020059040200C7
:1001D00059040200590402005904020059040200A3
:1001E0005904020059040200590402005904020093
:1001F0005904020059040200590402005904020083
:100200005904020059040200590402005904020072
:1003F000590402005904020059040200FFFFFFFFE4
:10040000FFFFFFFFFFFFFFFFFFFFFFFFFE7FFFFF7D
:1004100072B64FF000014FF000024FF000034FF0B2
:1004200000044FF000054FF000064FF00007B846FB
:10043000B946BA46BB46BC46044880470448854690
:100440000448804762B60DF0B3FBFEE71D42020090
:10045000F0EF012081420200FFF7FEBF81F0004172
:1004600002E000BF83F0004330B54FEA41044FEA99
:10047000430594EA050F08BF90EA020F1FBF54EA34
:10048000000C55EA020C7FEA645C7FEA655C00F0D0
:10049000E2804FEA5454D4EB5555B8BF6D420CDDA1
:1004A0002C4480EA020281EA030382EA000083EA24
:1004B000010180EA020281EA0303362D88BF30BDC4
:1004C00011F0004F4FEA01314FF4801C4CEA11311A
:1004D00002D0404261EB410113F0004F4FEA033379
:1004E0004CEA133302D0524263EB430394EA050F04
:1004F00000F0A780A4F10104D5F1200E0DDB02FA73
:100500000EFC22FA05F2801841F1000103FA0EF206
:10051000801843FA05F359410EE0A5F120050EF1CC
:10052000200E012A03FA0EFC28BF4CF0020C43FAFD
:1005300005F3C01851EBE37101F0004507D54FF00A
:10054000000EDCF1000C7EEB00006EEB0101B1F55A
:10055000801F1BD3B1F5001F0CD349085FEA3000A0
:100560004FEA3C0C04F101044FEA445212F5800FAB
:1005700080F09A80BCF1004F08BF5FEA500C50F148
:10058000000041EB045141EA050130BD5FEA4C0C2B
:10059000404141EB010111F4801FA4F10104E9D1B4
:1005A00091F0000F04BF01460020B1FA81F308BFAB
:1005B0002033A3F10B03B3F120020CDA0C3208DD77
:1005C00002F1140CC2F10C0201FA0CF021FA02F152
:1005D0000CE002F11402D8BFC2F1200C01FA02F1C2
:1005E00020FA0CFCDCBF41EA0C019040E41AA2BFE7
:1005F00001EB0451294330BD6FEA04041F3C1CDAAF
:100600000C340EDC04F11404C4F1200220FA04F0CE
:1006100001FA02F340EA030021FA04F345EA030178
:1006200030BDC4F10C04C4F1200220FA02F001FA3A
:1006300004F340EA0300294630BD21FA04F02946BC
:1006400030BD94F0000F83F4801306BF81F4801155
:100650000134013D4EE77FEA645C18BF7FEA655CC8
:1006600029D094EA050F08BF90EA020F05D054EA9A
:10067000000C04BF1946104630BD91EA030F1EBF9F
:100680000021002030BD5FEA545C05D140004941A3
:1006900028BF41F0004130BD14F580043CBF01F596
:1006A000801130BD01F0004545F0FE4141F470017C
:1006B0004FF0000030BD7FEA645C1ABF1946104657
:1006C0007FEA655C1CBF0B46024650EA013406BF58
:1006D00052EA033591EA030F41F4002130BD00BF17
:1006E00090F0000F04BF0021704730B54FF48064D4
:1006F00004F132044FF000054FF0000150E700BF55
:1007000090F0000F04BF0021704730B54FF48064B3
:1007100004F1320410F0004548BF40424FF00001A0
:100720003EE700BF42004FEAE2014FEA31014FEAE3
:1007300002701FBF12F07F4393F07F4F81F0605132
:10074000704732F07F4208BF704793F07F4F04BF7D
:1007500041F40021704730B54FF4607401F000455A
:1007600021F000411CE700BF50EA010208BF7047BA
:1007700030B54FF000050AE050EA010208BF7047AB
:1007800030B511F0004502D5404261EB41014FF414
:10079000806404F132045FEA915C3FF4D8AE4FF01C
:1007A00003025FEADC0C18BF03325FEADC0C18BFFF
:1007B000033202EBDC02C2F1200300FA03FC20FA50
:1007C00002F001FA03FE40EA0E0021FA02F114449D
:1007D000BDE600BF70B54FF0FF0C4CF4E06C1CEAB6
:1007E00011541DBF1CEA135594EA0C0F95EA0C0F27
:1007F00000F0DEF82C4481EA030621EA4C5123EA9A
:100800004C5350EA013518BF52EA033541F48011C8
:1008100043F4801338D0A0FB02CE4FF00005E1FB7B
:1008200002E506F00042E0FB03E54FF00006E1FBC5
:1008300003569CF0000F18BF4EF0010EA4F1FF0408
:10084000B6F5007F64F5407404D25FEA4E0E6D4148
:1008500046EB060642EAC62141EA55514FEAC52059
:1008600040EA5E504FEACE2EB4F1FD0C88BFBCF5D5
:10087000E06F1ED8BEF1004F08BF5FEA500E50F186
:10088000000041EB045170BD06F0004646EA01014C
:1008900040EA020081EA0301B4EB5C04C2BFD4EB7E
:1008A0000C0541EA045170BD41F480114FF0000E77
:1008B000013C00F3AB8014F1360FDEBF002001F0E5
:1008C000004170BDC4F10004203C35DA0C341BDC5F
:1008D00004F11404C4F1200500FA05F320FA04F031
:1008E00001FA05F240EA020001F0004221F0004165
:1008F00010EBD37021FA04F642EB06015EEA430ED8
:1009000008BF20EAD37070BDC4F10C04C4F1200507
:1009100000FA04F320FA05F001FA04F240EA0200BA
:1009200001F0004110EBD37041F100015EEA430E8B
:1009300008BF20EAD37070BDC4F1200500FA05F2AB
:100940004EEA020E20FA04F301FA05F243EA02032A
:1009500021FA04F001F0004121FA04F220EA020039
:1009600000EBD3705EEA430E08BF20EAD37070BD7F
:1009700094F0000F0FD101F00046400041EB01015F
:1009800011F4801F08BF013CF7D041EA060195F041
:10099000000F18BF704703F00046520043EB0303FB
:1009A00013F4801F08BF013DF7D043EA06037047E8
:1009B00094EA0C0F0CEA135518BF95EA0C0F0CD0F3
:1009C00050EA410618BF52EA4306D1D181EA030139
:1009D00001F000414FF0000070BD50EA410606BF33
:1009E0001046194652EA430619D094EA0C0F02D178
:1009F00050EA013613D195EA0C0F05D152EA0336BD
:100A00001CBF104619460AD181EA030101F00041DA
:100A100041F0FE4141F470014FF0000070BD41F023
:100A2000FE4141F4780170BD70B54FF0FF0C4CF4FD
:100A3000E06C1CEA11541DBF1CEA135594EA0C0F1C
:100A400095EA0C0F00F0A7F8A4EB050481EA030E69
:100A500052EA03354FEA013100F088804FEA033350
:100A60004FF0805545EA131343EA12634FEA02221E
:100A700045EA111545EA10654FEA00260EF00041DF
:100A80009D4208BF964244F1FD0404F5407402D231
:100A90005B084FEA3202B61A65EB03055B084FEAC2
:100AA00032024FF480104FF4002CB6EB020E75EBBF
:100AB000030E22BFB61A754640EA0C005B084FEAE7
:100AC0003202B6EB020E75EB030E22BFB61A754664
:100AD00040EA5C005B084FEA3202B6EB020E75EBAF
:100AE000030E22BFB61A754640EA9C005B084FEA27
:100AF0003202B6EB020E75EB030E22BFB61A754634
:100B000040EADC0055EA060E18D04FEA051545EA22
:100B100016754FEA06164FEAC30343EA52734FEACB
:100B2000C2025FEA1C1CC0D111F4801F0BD141EA44
:100B300000014FF000004FF0004CB6E711F4801FA9
:100B400004BF01430020B4F1FD0C88BFBCF5E06F89
:100B50003FF6AFAEB5EB030C04BFB6EB020C5FEA99
:100B6000500C50F1000041EB045170BD0EF0004EEE
:100B70004EEA113114EB5C04C2BFD4EB0C0541EA20
:100B8000045170BD41F480114FF0000E013C90E61D
:100B900045EA060E8DE60CEA135594EA0C0F08BFE1
:100BA00095EA0C0F3FF43BAF94EA0C0F0AD150EAE0
:100BB00001347FF434AF95EA0C0F7FF425AF104673
:100BC00019462CE795EA0C0F06D152EA03353FF49B
:100BD000FDAE1046194622E750EA410618BF52EA18
:100BE00043067FF4C5AE50EA41047FF40DAF52EAEC
:100BF00043057FF4EBAE12E74FF0FF3C06E000BF89
:100C00004FF0010C02E000BF4FF0010C4DF804CD95
:100C10004FEA410C7FEA6C5C4FEA430C18BF7FEA55
:100C20006C5C1BD001B050EA410C0CBF52EA430C83
:100C300091EA030F02BF90EA020F0020704710F103
:100C4000000F91EA030F58BF994208BF90422CBF92
:100C5000D8176FEAE37040F0010070474FEA410C8B
:100C60007FEA6C5C02D150EA013C07D14FEA430CA9
:100C70007FEA6C5CD6D152EA033CD3D05DF8040B1A
:100C8000704700BF8446104662468C46194663464C
:100C900000E000BF01B5FFF7B7FF002848BF10F123
:100CA000000F01BD4DF808EDFFF7F4FF0CBF012068
:100CB00000205DF808FB00BF4DF808EDFFF7EAFFE4
:100CC00034BF012000205DF808FB00BF4DF808ED9F
:100CD000FFF7E0FF94BF012000205DF808FB00BF94
:100CE0004DF808EDFFF7CEFF94BF012000205DF81E
:100CF00008FB00BF4DF808EDFFF7C4FF34BF01202B
:100D000000205DF808FB00BF4FEA410C7FEA6C5CF5
:100D100002D150EA013C0AD14FEA430C7FEA6C5CF5
:100D200002D152EA033C02D14FF0000070474FF06D
:100D3000010070474FEA410212F5001215D211D599
:100D40006FF47873B3EB625212D94FEAC12343F0C8
:100D5000004343EA505311F0004F23FA02F018BF4A
:100D6000404270474FF00000704750EA013005D113
:100D700011F0004008BF6FF0004070474FF00000D6
:100D8000704700BF4A0011D212F5001211D20DD5E2
:100D90006FF47873B3EB62520ED44FEAC12343F081
:100DA000004343EA505323FA02F070474FF000002B
:100DB000704750EA013002D14FF0FF3070474FF0DA
:100DC000000070474FEA4102B2F1E04324BFB3F59F
:100DD000001CDCF1FE5C0DD901F0004C4FEAC002B2
:100DE0004CEA5070B2F1004F40EB830008BF20F096
:100DF0000100704711F0804F21D113F13872BCBF50
:100E000001F00040704741F480114FEA5252C2F1A4
:100E10001802C2F1200C10FA0CF320FA02F018BFED
:100E200040F001004FEAC1234FEAD32303FA0CFC40
:100E300040EA0C0023FA02F34FEA4303CCE77FEACF
:100E4000625307D150EA01331EBF4FF0FE4040F419
:100E50004000704701F0004040F0FE4040F40000C8
:100E6000704700BF8C4619B3F0B54E1E8F1EF3B20B
:100E7000FF1A4FF0000E10E05A0030F81310023243
:100E8000845AA14284BF20F8134081520133DBB25F
:100E9000AB42F1DB013EB74205D03546002EC8BF5C
:100EA0007346E9DCF6E74FEA5C0C30F81C00F0BD55
:100EB0004FEA510C30F81C007047000008B50A4B8F
:100EC0000A4A03F10C0033F8021B22F8021B83428A
:100ED000F9D10749054B0B6000231A460548006805
:100EE0000BF0D4FA08BD00BF000000206000002015
:100EF000C80000205C00002008B5084908480AF036
:100F0000BFFA0221272007F007FD00220421032059
:100F10000BF004FA034B186008BD00BF002C03005F
:100F20000C2C03005C00002038B500223249334B02
:100F300018680BF023FB012808D0314B1B78012BDC
:100F400052D000212F480AF0E9FA38BD2A4B19681F
:100F50002D4803780C882D4A22F813404D88DC1D5B
:100F600022F814508D8803F10E0422F81450CD8815
:100F700003F1150422F814500D8903F11C0422F822
:100F800014504C8903F1230122F811400133DBB2E4
:100F90000370062BD1D9154607211046FFF762FFD3
:100FA0001B4C2080072105F10E00FFF75BFF6080DE
:100FB000072105F11C00FFF755FFA080072105F16F
:100FC0002A00FFF74FFFE080072105F13800FFF707
:100FD00049FF2081072105F14600FFF743FF6081AB
:100FE0000022094B1A70A8E7044B18680BF0FAFBB3
:100FF000034B9871A5E700BFC40000205C000020EF
:10100000980700200C2C03006C00002070000020CA
:10101000540A002000B587B000238DF810308DF8F9
:1010200011308DF80F300138C0B2032803D90020E9
:1010300007B05DF804FB01238DF81430000140383F
:101040008DF81500E3228DF8162005220092032268
:1010500005A913480AF045FD08B10020E8E7022081
:101060000BF092FF05230093002301220DF10F01E5
:101070000B480AF036FD08B10020D9E7052300939C
:101080000123022204A906480AF041FD30B99DF867
:1010900010309DF8110040EA0320C9E70020C7E79F
:1010A0004C00002008B5024902480AF0BDFC08BD0A
:1010B000C82C03004C00002038B5094D2C780134B1
:1010C000E4B22C702046FFF7A5FF064B03EB440467
:1010D00060812B78032B01D900222A7038BD00BF14
:1010E000CC000020540A002010B50D4C01220A212A
:1010F000204609F0AAFF01220A21204609F0B1FF8B
:1011000001220921204609F0ACFF00220A212046D5
:1011100009F0A7FF00220921204609F0A2FF10BD17
:1011200040F00F402DE9F0410546154C01220A21FF
:10113000204609F08AFF00220921204609F091FF8C
:1011400008240F4E00274FF0010815F0800F14BF40
:1011500042463A460A21304609F083FF6D00EDB25F
:1011600042460921304609F07CFF3A4609213046C3
:1011700009F077FF631E13F0FF04E6D1BDE8F081AC
:1011800040F00F4010B50D4C01220A21204609F015
:101190005CFF00220921204609F063FF00220A219A
:1011A000204609F05EFF01220921204609F059FF7F
:1011B00001220A21204609F054FF10BD40F00F40E3
:1011C00038B5134C00220A21204609F03EFF0122C7
:1011D0000A21204609F045FF01220921204609F095
:1011E00040FFFB240A4D284609F04DFF10F4806FA4
:1011F00007D0631E13F0FF04F5D1FFF7C3FF0120F2
:1012000038BD00220921024809F02BFF002038BD1B
:1012100040F00F4010B582B0032806D8DFE800F098
:1012200002292D31C022194B1A708DF804100123A8
:101230008DF80530154B1B788DF80630E3238DF8BB
:101240000730FFF751FF0023114A1370144602AA1A
:10125000134413F8040CFFF765FFFFF7B1FF237881
:101260000133DBB22370032BF1D9FFF78BFF02B000
:1012700010BDD022054B1A70D7E7E022034B1A703D
:10128000D3E7F022014B1A70CFE700BFCD0000205A
:10129000CE00002010B50446FFF726FF2046FFF7DA
:1012A00041FFFFF78DFF0020FFF73CFFFFF788FFAE
:1012B000FFF768FF10BD00002DE9F84381460022CA
:1012C0000A212D4809F0C1FE082500242A4EA04617
:1012D000092742463946304609F0C3FE0122394605
:1012E000304609F0BEFE6400E4B2304609F0CBFEA1
:1012F00010F4806F1CBF0134E4B26B1E13F0FF05C5
:10130000E7D1B9F1000F1CD01B4D0022092128465E
:1013100009F0A7FE01220A21284609F096FE0022C4
:101320000A21284609F09DFE01220921284609F0DC
:1013300098FE00220921284609F093FE2046BDE8C8
:10134000F8830D4D00220921284609F08AFE01226A
:101350000A21284609F079FE01220A21284609F0CF
:1013600080FE01220921284609F07BFE0022092186
:10137000284609F076FEE1E740F00F4038B5044614
:10138000FFF7B2FE601CC0B2FFF7CCFEFFF718FFFC
:101390000120FFF791FF05460120FFF78DFF04466E
:1013A000FFF7F0FE04EB052080B238BD10B5064C07
:1013B00001220921204609F054FE01220A2120467B
:1013C00009F04FFE10BD00BF40F00F402DE9F04185
:1013D0001D4F0024922602253146E0B2FFF71AFF86
:1013E00028460BF0D1FD3046FFF754FF28460BF09E
:1013F000CBFD3046FFF7C2FF804628460BF0C4FD08
:1014000027F8028B0134042CE6D1104F00249026DB
:1014100002253146E0B2FFF7FDFE28460BF0B4FD91
:101420003046FFF737FF28460BF0AEFD3046FFF79A
:10143000A5FF804628460BF0A7FD27F8028B013454
:10144000042CE6D1BDE8F0816C0A0020740A00206B
:10145000A2B32DE9F04182B00446571EFFB24D1EE3
:101460000F440026DFF8588007E09DF8033005F8A8
:10147000013F0134A4B2BD421DD08DF8036014F4C5
:10148000004FF2D1230A8DF804308DF80540334621
:10149000022201A940460AF01BFB03200BF074FD59
:1014A00001231A460DF1030140460AF027FB0320F1
:1014B0000BF06AFDD9E702B0BDE8F081704700BFCC
:1014C0002C05FE1F6AB32DE9F04182B004460D469B
:1014D000531EDBB203445E1CB6B2DFF8488001271E
:1014E00007E00134A4B2013505200BF04DFDB442F4
:1014F00014D014F4004FF4D12B78220A8DF8042074
:101500008DF805408DF806303B46032201A9404680
:101510000AF0DEFA03200BF037FDE2E702B0BDE887
:10152000F08170472C05FE1F08B5024902480AF0F9
:101530007BFA08BDE02C03002C05FE1F08B50C4B00
:101540001B78012B02D0022B09D008BD0222084BC8
:101550001A70042207490020FFF7B4FF08BD0322D8
:10156000034B1A70042204490020FFF771FFECE7D7
:101570006C0EFE1F700EFE1FD000002008B5064B3B
:101580001B7803B908BD054A054B1A6007F0BCF982
:1015900002F06AFEF6E700BFD5000020CDFE351749
:1015A000F0EF012010B50A490A480AF045FC012273
:1015B0001121094809F055FD084C01221D21204642
:1015C00009F04FFD01221E21204609F04AFD10BD01
:1015D000142D03005C0EFE1F40F00F40C0F00F40C2
:1015E0002DE9F04383B0DD4B1B7D002B00F007811C
:1015F00000248DF800408DF801408DF804408DF8EE
:101600000540DFF8688322461121404609F029FD94
:1016100002200BF0B9FCD24F022301AA69463846DA
:101620000AF07EFC02200BF0AFFC012211214046A3
:1016300009F017FDC94E9DF804209DF8053003EB15
:101640000223F38202200BF09FFC8DF800408DF8FE
:101650000140C44D22461D21284609F002FD02200A
:101660000BF092FC022301AA694638460AF058FCA6
:1016700002200BF089FC01221D21284609F0F1FC13
:101680009DF804209DF8053003EB022333830220EC
:101690000BF07AFC8DF800408DF8014022461E21A7
:1016A000284609F0DEFC02200BF06EFC022301AAA2
:1016B000694638460AF034FC02200BF065FC012232
:1016C0001E21284609F0CDFC9DF804209DF8053028
:1016D00003EB0223738302200BF056FC8DF80140CC
:1016E0008DF804408DF805404FF007098DF8009003
:1016F00022461121404609F0B4FC02200BF044FCC4
:10170000022301AA694638460AF00AFC02200BF0BF
:101710003BFC01221121404609F0A3FC9DF8042066
:101720009DF8053003EB0223738402200BF02CFCA0
:101730008DF800908DF8014022461D21284609F0C1
:1017400090FC02200BF020FC022301AA69463846D7
:101750000AF0E6FB02200BF017FC01221D212846AF
:1017600009F07FFC9DF804209DF8053003EB02236F
:10177000B38402200BF008FC8DF800908DF8014036
:1017800022461E21284609F06CFC02200BF0FCFBCF
:10179000022301AA694638460AF0C2FB02200BF078
:1017A000F3FB01221E21284609F05BFC9DF8042072
:1017B0009DF8053003EB0223F38402200BF0E4FBD9
:1017C0008DF800408DF801408DF804408DF80540FB
:1017D000284609F058FC10F0805F77D0624809F085
:1017E00052FC10F0020F00F0C3805F4809F04BFC80
:1017F00010F0010F00F0038103B0BDE8F083012673
:10180000564B1E7500248DF804408DF805404FF0AE
:1018100080098DF800904FF0D3088DF80180534D6A
:1018200022461121284609F01CFC02200BF0ACFBDB
:101830004B4F022301AA694638460AF071FB022089
:101840000BF0A2FB32461121284609F00AFC0220C7
:101850000BF09AFB8DF800908DF8018080352246C0
:101860001D21284609F0FDFB02200BF08DFB022311
:1018700001AA694638460AF053FB02200BF084FBAC
:1018800032461D21284609F0ECFB02200BF07CFBC0
:101890008DF800908DF8018022461E21284609F01F
:1018A000E0FB02200BF070FB022301AA69463846D8
:1018B0000AF036FB02200BF067FB32461E21284659
:1018C00009F0CFFB02200BF05FFB91E64FF001081F
:1018D0008DF8008027468DF80140244E22461121C4
:1018E000304609F0BEFB02200BF04EFBDFF8709093
:1018F000022301AA694648460AF012FB02200BF0B7
:1019000043FB42461121304609F0ABFB9DF80550E0
:101910002D0202248DF800408DF801703A46112105
:10192000304609F09EFB20460BF02EFB234601AA11
:10193000694648460AF0F4FA20460BF025FB424679
:101940001121304609F08DFB9DF805301D44034BF5
:101950009D8320460BF018FB40E700BF680A00207B
:101960005C0EFE1FC0F00F4000F00F4040F00F4033
:101970004FF001088DF8008000278DF80170434E6C
:101980003A461D21304609F06CFB02200BF0FCFAB0
:10199000DFF80091022301AA694648460AF0C0FA1E
:1019A00002200BF0F1FA42461D21304609F059FBA6
:1019B0009DF805502D0202248DF800408DF801702D
:1019C0003A461D21304609F04CFB20460BF0DCFA6C
:1019D000234601AA694648460AF0A2FA20460BF0BF
:1019E000D3FA42461D21304609F03BFB9DF80530F5
:1019F0001D44274BDD8320460BF0C6FAF5E64FF079
:101A000001088DF8008000278DF801701F4E3A46BE
:101A10001E21304609F025FB02200BF0B5FADFF855
:101A20007490022301AA694648460AF079FA022016
:101A30000BF0AAFA42461E21304609F012FB9DF82F
:101A400005502D0202248DF800408DF801703A46B1
:101A50001E21304609F005FB20460BF095FA23467F
:101A600001AA694648460AF05BFA20460BF08CFA58
:101A700042461E21304609F0F4FA9DF805301D4417
:101A8000034B1D8420460BF07FFAB5E6C0F00F40F3
:101A9000680A00205C0EFE1F10B5084908480AF0CD
:101AA000CBF9084C00220C21204609F0DAFA00227A
:101AB0000D21204609F0D5FA10BD00BF302D0300DE
:101AC000640EFE1F80F00F4030B585B00025ADF8E4
:101AD0000E501E4C01220C21204609F0C2FA0122B0
:101AE0000D21204609F0BDFA194C294620460AF07E
:101AF0005FFA184B1B7863F0FF0304A921F8023D3D
:101B0000022300930123144A20460AF02BFA18B945
:101B1000114B1A880F4B9A700D4C012120460AF088
:101B200047FA0C4B5B7863F0FF0304A921F8023DF0
:101B3000022300930123094A20460AF013FA18B938
:101B4000054B5A88034BDA7005B030BD80F00F406A
:101B5000640EFE1FD8000020DC000020DE00002004
:101B600008B5074A01F00F0303EB0013137020F0D0
:101B70000F0040EA11115170FFF7A6FF08BD00BF2A
:101B8000D800002008B5094BD3F8002442F03002F9
:101B9000C3F80024D3F8042442F03002C3F804242C
:101BA0000349044804F050FC08BD00BF0010004089
:101BB000E8010020CC2B030038B505460C46C1F3E4
:101BC0000B033BB1B1F5805F26BF01F58054E41AE9
:101BD0004FF4805422462946094804F09DFC0346F0
:101BE00008B1184638BD06484FF0FF338361012322
:101BF000C4F30F12294604F0D7FC0346F1E700BFF7
:101C0000E80100202DE9F04385B00746894690465B
:101C100006F07AFE07EB0805AF4212D23C4602E01E
:101C20000434AC420DD22368B3F1FF3FF8D0291B36
:101C30002046FFF7C1FF06460028F2D006F056FE08
:101C400014E04B46424639460C4804F0E3FC064695
:101C500080B90123019303AB00934B4642463946BA
:101C6000064804F033FD064606F040FE304605B057
:101C7000BDE8F08306F03AFEF8E700BFE801002077
:101C800070B504460D46164606F03EFE46B1291FC5
:101C900004EB860254F8043B41F8043F9442F9D126
:101CA00006F024FE70BD01700B0A43700B0C8370AC
:101CB000090EC1700420704770B5C0B00D4E351FBD
:101CC000FC36002455F8041F0DEB0400FFF7EBFF72
:101CD0000444A4B2B542F5D114F0070302D008348D
:101CE000E41AA4B2224669464FF48030FFF78AFF17
:101CF00040B070BDE000002008B5402202494FF41A
:101D00008030FFF7BDFF08BDE000002010B5164B86
:101D10001A785B78934224D0134B5A70134B2120CE
:101D200083F8000141F23421A3F80211104AC3F8EC
:101D30000421186059609A60FFF7BEFF0324FFF783
:101D4000DBFF0A4B53F8242083F80021621C53F870
:101D50002220A3F80221023453F82420C3F80421DE
:101D600010BD0024EBE700BF04020020E0000020CB
:101D70007856341238B5494D284609F084F980F474
:101D80008054C4F30034284609F07DF910F4804FE4
:101D900008BF44F00204414809F075F910F4005FEF
:101DA00008BF44F004043D4809F06DF910F4806F59
:101DB0000EBF44F0080424F00804A4B2374809F028
:101DC00062F910F4006F0EBF44F0100424F0100408
:101DD000A4B2324809F057F910F4004F0EBF44F096
:101DE000200424F02004A4B22C4809F04CF910F48B
:101DF000001F0EBF44F0400424F04004A4B2274862
:101E000009F041F910F4801F0EBF44F0800424F063
:101E10008004A4B2214809F036F910F4002F0EBF57
:101E200044F4807424F48074A4B21C4809F02BF9A3
:101E300010F4803F0EBF44F4007424F40074A4B284
:101E4000164809F020F910F4800F0EBF44F48064A6
:101E500024F48064A4B2114809F015F910F4000FBD
:101E60000EBF44F4006424F40064A4B20B4809F0EB
:101E70000AF910F0807F0EBF44F4805424F480549B
:101E8000A4B2064809F0FFF810F0007F0EBF44F43A
:101E9000005024F40054A0B238BD00BF00F10F4040
:101EA00010B50E495D2009F0C0F80D4C0121204607
:101EB00009F0E5F80221204609F0DFF80022182198
:101EC000204609F0CEF800221321204609F0C9F877
:101ED00000221221204609F0C4F810BD3405FE1F6F
:101EE000C0F00F4008B5FFF745FF08BD38B51D48E5
:101EF00009F0C9F880F00804C4F3C0041A4809F0D6
:101F0000C2F810F4807F08BF44F00204174809F0BB
:101F1000BAF810F4001F08BF44F00404134809F095
:101F2000B2F810F4801F0CBF44F0080404F0F7046A
:101F30000D4809F0A8F810F4007F0CBF44F010041D
:101F400004F0EF040A4809F09EF810F4003F0CBFBB
:101F500044F0200404F0DF04064D6C80FFF70AFF14
:101F6000288038BD80F00F4000F10F4040F00F4056
:101F7000C0F00F40680A002010B5044610F0010FB1
:101F800014BF0122002217211C4809F06AF814F03E
:101F9000020F14BF012200220221184809F061F843
:101FA00014F0040F14BF012200220321134809F08A
:101FB00058F814F0080F14BF0122002204210F4822
:101FC00009F04FF814F0100F14BF0122002216215F
:101FD0000A4809F046F814F0200F14BF012200222D
:101FE0000F21074809F03DF814F0400F14BF0122FB
:101FF00000221021024809F034F810BDC0F00F4053
:1020000080F00F400123002140FA03F202F00102A8
:1020100051400133102BF7D108467047E0B170B43E
:102020000F498C780B1D421ED2B2033201EB4201E4
:102030000025012601E08B420CD033F8022F12F468
:10204000004FF8D0B3F86A0090421CBF44F002047D
:102050003546F0E70DB970BC7047014B9C70FAE74C
:102060000802002010B32DE9F04182B0104DAC1DE4
:10207000431EDBB2043305EB4305DFF8388002274B
:1020800001260097334604F16A022146404609F0D2
:1020900069FF18B90234AC42F3D104E0044A9378E2
:1020A00043F00103937002B0BDE8F081704700BFB8
:1020B000080200205400002010B54FF4A040FFF7A4
:1020C000A1FF0F4C00F0010040F4A040E08001208F
:1020D0002071FFF7C7FFB4F87030C3F3400262709D
:1020E00003F4C072B2F5C07F03D103F06003602B2C
:1020F00004D0034A937843F00403937010BD00BFEB
:102100000802002010B54FF49C40FFF77BFF084CFD
:1021100000F0010040F49C40E08001202071FFF7B6
:10212000A1FFB4F87000C0F34200207010BD00BFE2
:102130000802002010B54AF6D430FFF763FF0D4CBB
:1021400000F0010040F42B4040F0D400E0804AF65B
:102150002A40FFF757FF00F0010040F42C4040F008
:102160002A00208102202071FFF77CFF2079FFF7F1
:1021700055FF10BD0802002070B548F25670FFF7F9
:1021800041FF564C00F0010040F4074040F056007B
:10219000E08048F2DE70FFF735FF00F0010040F408
:1021A000074040F0DE00208148F2AC60FFF72AFFD4
:1021B00000F0010040F4064040F0AC00608148F2BD
:1021C0002460FFF71FFF00F0010040F4064040F0DC
:1021D0002400A081042626713046FFF743FF2079B2
:1021E000FFF71CFFFFF768FF4FF40C40FFF70AFFF3
:1021F00000F0010040F40C40E0804FF40E40FFF787
:1022000001FF00F0010040F40E40208102252571FD
:102210002846FFF727FF2079FFF700FF4FF40A4019
:10222000FFF7F0FE00F0010040F40A40E0800120DA
:102230002071FFF717FF2079FFF7F0FEFFF77AFF15
:1022400048F2BE70FFF7DEFE00F0010040F40740E8
:1022500040F0BE00E08048F26860FFF7D3FE00F077
:10226000010040F4064040F06800208148F27C7094
:10227000FFF7C8FE00F0010040F4074040F07C008A
:10228000608148F29470FFF7BDFE00F0010040F459
:10229000074040F09400A08126713046FFF7E2FE2F
:1022A0002079FFF7BBFEFFF707FF4FF4D050FFF791
:1022B000A9FE00F0010040F4D050E0804FF4E0505F
:1022C000FFF7A0FE00F0010040F4E05020812571EE
:1022D0002846FFF7C7FEFFF715FF70BD0802002074
:1022E00038B501280ED060B1022855D0314B1B788B
:1022F000834206D02F4B1870FFF71CFF64200AF0B2
:1023000043FE38BD2B4B1B78012BFAD00122294B01
:102310001A704AF60620FFF775FE274C00F0010000
:1023200040F42A4040F00600E0804AF6F850FFF7FB
:1023300069FE00F0010040F42D4040F0F8002081DB
:10234000022525712846FFF78DFE2079FFF766FEEE
:102350000A200AF019FE4AF60A20FFF753FE00F0A1
:10236000010040F42A4040F00A00E0804AF6F450B0
:10237000FFF748FE00F0010040F42D4040F0F4006B
:10238000208125712846FFF76DFE2079FFF746FE74
:102390000A200AF0F9FD38BD064B1B78022BB0D09D
:1023A0000222044B1A70FFF7C5FE0A200AF0ECFD6A
:1023B00038BD00BFE20200200802002010B5064C24
:1023C0000649204609F038FD0221204609F0F0FDBB
:1023D000FFF7D2FE10BD00BF54000020F82C030010
:1023E00010B5EE4B1B78012B00F008820020FFF7A0
:1023F00009FEEA4C00F00100E0804FF40070FFF7A6
:1024000001FE00F0010040F4007020814FF4806074
:10241000FFF7F8FD00F0010040F4806060814FF4A8
:10242000C060FFF7EFFD00F0010040F4C060A08144
:102430004FF40060FFF7E6FD00F0010040F400609B
:10244000E0814FF42060FFF7DDFD00F0010040F473
:10245000206020824FF44060FFF7D4FD00F00100BF
:1024600040F4406060824FF46060FFF7CBFD00F005
:10247000010040F46060A0824FF48050FFF7C2FD7D
:1024800000F0010040F48050E0824FF49050FFF7DC
:10249000B9FD00F0010040F4905020834FF4A050AB
:1024A000FFF7B0FD00F0010040F4A05060834FF44E
:1024B000B050FFF7A7FD00F0010040F4B050A0833A
:1024C0004FF4C050FFF79EFD00F0010040F4C050F3
:1024D000E0834FF4D050FFF795FD00F0010040F489
:1024E000D05020844FF4E050FFF78CFD00F0010045
:1024F00040F4E05060844FF4F050FFF783FD00F0AB
:10250000010040F4F050A0844FF40050FFF77AFD32
:1025100000F0010040F40050E0844FF40850FFF751
:1025200071FD00F0010040F4085020854FF4105078
:10253000FFF768FD00F0010040F4105060854FF493
:102540001850FFF75FFD00F0010040F41850A0851F
:102550004FF42050FFF756FD00F0010040F42050EA
:10256000E0854FF42850FFF74DFD00F0010040F4E6
:10257000285020864FF43050FFF744FD00F0010052
:1025800040F4305060864FF43850FFF73BFD00F0C8
:10259000010040F43850A0864FF44050FFF732FD60
:1025A00000F0010040F44050E0864FF44850FFF73F
:1025B00029FD00F0010040F4485020874FF45050AE
:1025C000FFF720FD00F0010040F4505060874FF409
:1025D0005850FFF717FD00F0010040F45850A08755
:1025E0004FF46050FFF70EFD00F0010040F4605022
:1025F000E0874FF46850FFF705FD00F0010040F45C
:102600006850A4F840004FF47050FFF7FBFC00F056
:10261000010040F47050A4F842004FF47850FFF7E6
:10262000F1FC00F0010040F47850A4F844004FF4AD
:102630008040FFF7E7FC00F0010040F48040A4F880
:1026400046004FF48440FFF7DDFC00F0010040F449
:102650008440A4F848004FF48840FFF7D3FC00F012
:10266000010040F48840A4F84A004FF48C40FFF782
:10267000C9FC00F0010040F48C40A4F84C004FF479
:102680009040FFF7BFFC00F0010040F49040A4F838
:102690004E004FF49440FFF7B5FC00F0010040F409
:1026A0009440A4F850004FF49840FFF7ABFC00F0C2
:1026B000010040F49840A4F852004FF49C40FFF70A
:1026C000A1FC00F0010040F49C40A4F854004FF439
:1026D000A040FFF797FC00F0010040F4A040A4F8F0
:1026E00056004FF4A440FFF78DFC00F0010040F4C9
:1026F000A440A4F858004FF4A840FFF783FC00F072
:10270000010040F4A840A4F85A004FF4AC40FFF791
:1027100079FC00F0010040F4AC40A4F85C004FF4F8
:10272000B040FFF76FFC00F0010040F4B040A4F8A7
:102730005E004FF4B440FFF765FC00F0010040F488
:10274000B440A4F860004FF4B840FFF75BFC00F021
:10275000010040F4B840A4F862004FF4BC40FFF719
:1027600051FC00F0010040F4BC40A4F864004FF4B8
:10277000C040FFF747FC00F0010040F4C040A4F85F
:1027800066004FF4C440FFF73DFC00F0010040F448
:10279000C440A4F868004FF4C84001E008020020DB
:1027A000FFF730FC00F0010040F4C840A4F86A00D4
:1027B0004FF4CC40FFF726FC00F0010040F4CC4081
:1027C000A4F86C004FF4FC40FFF71CFC00F0010083
:1027D00040F4FC40A4F86E0035202071FFF742FC65
:1027E000217921B100230133DAB29142FBD8FFF7FE
:1027F00089FC054BD878FFF773FD10BD64200AF003
:10280000C3FBFFF7B9FCF4E70802002008B5044950
:10281000044809F089F90449044809F085F908BD1C
:102820001C0EFE1F240EFE1F480EFE1F500EFE1F24
:1028300008B5002814BF4FF4166200220621024892
:1028400009F0B0FA08BD00BF500EFE1F704700002F
:1028500000B583B000230193002940F02181002AB4
:1028600040F00E81934B5B68B3F5F46F0AD0914A48
:1028700092F84820082A21D08E4A00218E4809F07B
:102880007BF8FFE08B4B93F84830002BF4D0894A5B
:10289000127A422A0ED0082BEED1884B884A03CAFE
:1028A000C3F85100C3F8551093F87120013283F832
:1028B000712066E00121834A1170ECE7B3F5F27FE5
:1028C00000F0888021D8132B50D00CD9172B74D04E
:1028D000422B00F0A180162B62D0764A0021764868
:1028E00009F04AF8CEE0112B00F08980122BF4D1C8
:1028F000724B03F12802724903C982E8030093F87E
:102900004D20013283F84D203BE0B3F5F46FC4D085
:1029100017D940F2A272934200F0A580C0F09680D1
:1029200040F2A3729342D8D1644B654A03CAC3F8FC
:102930006900C3F86D1093F87420013283F8742095
:102940001FE040F20142934273D040F202429342B0
:10295000C3D15A4B03F14002594903C982E803002D
:1029600093F85020013283F850200AE0534B544A28
:1029700092E8030083E8030093F84820013283F8CB
:1029800048204C4A00214C4808F0F6FF4E494B4B7A
:102990000B60002301AA4D48006809F077FD71E043
:1029A000464B03F10802464903C982E8030093F845
:1029B0004920013283F84920E3E7404B03F110023C
:1029C0003F4903C982E8030093F84A20013283F8A3
:1029D0004A20D6E7374A137A517A927A4B409A4284
:1029E0007FF44AAF354B03F11802354903C982E839
:1029F000030093F84B20013283F84B20C1E72F4BA3
:102A000003F120022E4903C982E8030093F84C2009
:102A1000013283F84C20B4E7284B03F130022849F7
:102A200003C982E8030093F84E20013283F84E2058
:102A3000A7E7224B03F13802214903C982E80300CA
:102A400093F84F20013283F84F209AE71B4B1C4A22
:102A500003CAC3F85900C3F85D1093F8722001321D
:102A600083F872208DE7154B154A03CAC3F861003D
:102A7000C3F8651093F87320013283F8732080E760
:102A8000022A10D0124A137A01331372019B3BB110
:102A90004FF080520F4B1A60BFF34F8FBFF36F8F11
:102AA00003B05DF804FB0C4A0221034808F064FF00
:102AB000E8E700BFAC030020482C0300E40200203C
:102AC000B4030020D50000205C0300205407002040
:102AD0003C07002004ED00E060030020F0B595B055
:102AE00005460F4616461C464C22002101A810F050
:102AF00064F82246082C28BF082202978DF84C2043
:102B0000314603A810F04EF8022301AA29460248D4
:102B100008F0F2FE15B0F0BD482C030008B50823FC
:102B20000A4601460120FFF7D9FF08BD08B5082372
:102B30000A4601460320FFF7D1FF08BD10B51D4C22
:102B40001D49204608F0C8FD00231C4A19462046AE
:102B500008F094FE1A4A0121204608F055FE002391
:102B6000184A0221204608F089FE174A0321204610
:102B700008F04AFE00231A461946204608F020FFB6
:102B8000002302220121204608F01AFF00220F49EB
:102B9000204608F029FF0221512005F0BDFE0C4A15
:102BA0000021204608F0E8FE0A4A0221204608F0EB
:102BB000E3FE10BD482C0300142C0300800EFE1F02
:102BC000900EFE1F780EFE1F880EFE1F5128020079
:102BD000AC0300206003002000B583B00023019304
:102BE00091B9042A13D0062A00F00E81894A537A3B
:102BF00001335372019B3BB14FF08052864B1A60F8
:102C0000BFF34F8FBFF36F8F03B05DF804FB834BAF
:102C100093F84830082B05D0804A0421804808F0FA
:102C2000ABFEE3E77D4B5B68B3F5F27F00F0898094
:102C300021D8132B51D00CD9172B75D0422B00F073
:102C4000A280162B63D0754A0421754808F094FEC3
:102C5000CCE7112B00F08A80122BF4D1714B03F1D9
:102C60002802714903C982E8030093F84D2001321C
:102C700083F84D203CE0B3F5F46F00F09E8017D947
:102C800040F2A272934200F0B280C0F0A38040F202
:102C9000A3729342D7D1634B634A03CAC3F8690056
:102CA000C3F86D1093F87420013283F874201FE08C
:102CB00040F20142934273D040F202429342C2D1A9
:102CC000584B03F14002584903C982E8030093F8C6
:102CD0005020013283F850200AE0524B524A92E8C9
:102CE000030083E8030093F84820013283F848206A
:102CF0004A4A04214A4808F03FFE4C49494B0B60C0
:102D0000002301AA4A48006809F0C0FB6EE7454B62
:102D100003F10802444903C982E8030093F84920FB
:102D2000013283F84920E3E73E4B03F110023E49AC
:102D300003C982E8030093F84A20013283F84A204D
:102D4000D6E7364A137A517A927A4B409A427FF408
:102D500063AF344B03F11802334903C982E803001F
:102D600093F84B20013283F84B20C1E72D4B03F140
:102D700020022D4903C982E8030093F84C20013258
:102D800083F84C20B4E7274B03F13002264903C9EE
:102D900082E8030093F84E20013283F84E20A7E723
:102DA000204B03F13802204903C982E8030093F85D
:102DB0004F20013283F84F209AE71A4B1A4A03CA70
:102DC000C3F85100C3F8551093F87120013283F80D
:102DD00071208DE7134B144A03CAC3F85900C3F896
:102DE0005D1093F87220013283F8722080E70D4B5A
:102DF0000D4A03CAC3F86100C3F8651093F8732045
:102E0000013283F8732073E70A4A0621044808F068
:102E1000B3FDEBE63C07002004ED00E0C004002019
:102E2000842C0300F8030020C80400207004002054
:102E3000580700207404002010B51D4C1D49204681
:102E400008F04AFC00231C4A0421204608F016FD25
:102E50001A4A0521204608F0D7FC0023184A06210B
:102E6000204608F00BFD174A0721204608F0CCFC4D
:102E7000002304221946204608F0A2FD0023062262
:102E80000121204608F09CFD00220F49204608F051
:102E9000ABFD0221582005F03FFD0C4A04212046DD
:102EA00008F06AFD0A4A0621204608F065FD10BDBB
:102EB000842C0300502C0300A00EFE1FB00EFE1F3A
:102EC000980EFE1FA80EFE1FD92B0200C004002082
:102ED0007404002000B583B000230193D1B90A2AFD
:102EE0001BD00C2A1FD01349134B0B60002301AADF
:102EF0001248006809F0CAFA114A937A01339372B2
:102F0000019B3BB14FF080520E4B1A60BFF34F8FC5
:102F1000BFF36F8F03B05DF804FB0B4A0A210B4827
:102F200008F02AFDDFE70A4A0C21084808F024FDD2
:102F3000D9E700BF100500200C0500205C07002029
:102F40003C07002004ED00E060050020C02C0300D9
:102F50001405002008B503282ED8DFE800F0020D84
:102F6000182301220821154808F07BF801220D21C1
:102F7000134808F076F808BD012208210F4808F030
:102F800070F800220D210E4808F06BF808BD0022F1
:102F900008210A4808F065F800220D21084808F0C9
:102FA00060F808BD00220821044808F05AF8012200
:102FB0000D21034808F055F808BD00BF40F00F4050
:102FC000C0F00F4010B5214C2149204608F084FB89
:102FD0000023204A0A21204608F050FC1E4A0B21FB
:102FE000204608F011FC1D4A0E21204608F00CFC7A
:102FF00000231B4A0C21204608F040FC194A0D21F1
:10300000204608F001FC00230A221946204608F059
:10301000D7FC00230C220121204608F0D1FC00221D
:103020001149204608F0E0FC02215F2005F074FC05
:103030000E4A0A21204608F09FFC0D4A0C2120462A
:1030400008F09AFC0020FFF785FF10BDC02C03009C
:103050008C2C0300C00EFE1FD00EFE1FD80EFE1FCC
:10306000B80EFE1FC80EFE1FD52E02006005002000
:1030700014050020F0B583B00023019341BB364A0C
:10308000D37A0133D372354B1B784BB9334B5B7812
:10309000552B5CD001223249324809F011F817E073
:1030A0000133DBB22D4A1370202B13D82B490B7838
:1030B0000133012219442B4809F002F8019B3BB16E
:1030C0004FF08052284B1A60BFF34F8FBFF36F8FC2
:1030D00003B0F0BD254B186809F08FFB022803D917
:1030E00000221E4B1A70E1E7214B1978214B01EBAE
:1030F000811121225A544C1C1848421C234421306F
:10310000176856689568D4681F605E609D60DC60D3
:10311000103210338242F3D112781A70154B1944D1
:103120000091002301AA69461048006809F0AEF931
:103130000128D5D10E4B1B780133DBB2032B02D80B
:103140000B4A1370CCE70022094B1A70C8E7012222
:10315000024B1A70AAE700BF3C070020AC05002014
:10316000AD0500206C2D030004ED00E06C0700208D
:10317000FC060020F805002010B5074C0749204642
:1031800008F020FF0821212005F0C6FB0122044998
:10319000204608F083FF10BD6C2D03004C2D03006A
:1031A000AD05002010B582B00C4601A9314808F0E9
:1031B0007EFF022808D001A92E4808F078FF0122DE
:1031C0002D492C4808F06AFF5CB92C4B1B78A3B939
:1031D000294B1B780F2B06D001222749254808F0E0
:1031E0006FFF02B010BD0122244B1A700022244B45
:1031F0001A700F22234B1A70EEE7012BECD1204AF4
:1032000013780133DBB213701B4A11781D4AD15475
:10321000172BE1D90022194B1A701A4B1B7E002B79
:10322000DAD1194C2378013323700AF0BBFA154B1D
:10323000224603F1170013F8011F02F8011F834211
:10324000F9D10AF0BFFA11490F4B0B60002302AA13
:1032500042F8083D0E48006809F018F9009B002B61
:10326000BAD04FF080520B4B1A60BFF34F8FBFF3B1
:103270006F8FB1E7942D0300FD0600201E0700208C
:103280001D07002004070020200700200007002061
:103290007007002004ED00E010B5074C07492046F8
:1032A00008F090FE0221232005F036FB012204499C
:1032B000204608F0F3FE10BD942D0300742D03008A
:1032C000FD06002000B583B000230D4A01210D4802
:1032D00002F0CCFC0021084602F0D6FCFEF7E0FD2F
:1032E000094B01930423009300234FF40072074914
:1032F000074809F087FB09F0D5FC03B05DF804FB33
:10330000480000208C04FE1F840700209C2D030031
:10331000BD34020010B582B01F4B01930424009409
:1033200000234FF400721D491D4809F06BFB1D4B33
:103330000193009400234FF400721B491B4809F0CD
:1033400061FB1B4B0193009400234FF40072194959
:10335000194809F057FB194B0193009400234FF4CF
:1033600000721749174809F04DFB174B0193009461
:1033700000234FF400721549154809F043FB154B23
:103380000193009400234FF400721349134809F08D
:1033900039FB02B010BD00BF90070020A42D030030
:1033A0009941020094070020B02D0300D94102008A
:1033B0008C070020BC2D0300E13D020080070020A7
:1033C000C82D03006D38020088070020D42D0300AB
:1033D000F93C02007C070020E02D03001D350200AF
:1033E00008B500220421032008F098FF244B186040
:1033F00000220421032008F091FF224B18600022D4
:103400000421032008F08AFF1F4B186000220421CA
:10341000032008F083FF1D4B1860002204210320C5
:1034200008F07CFF1A4B186000220421032008F0EA
:1034300075FF184B186000220421032008F06EFF6E
:10344000154B186000220421032008F067FF134B7E
:10345000186000220421032008F060FF104B186060
:1034600000220421032008F059FF0E4B18600022AF
:103470000421032008F052FF0B4B186008BD00BF69
:1034800054070020580700205C0700206007002038
:1034900064070020680700206C07002070070020E8
:1034A00074070020780700205007002008B508F0B6
:1034B00010FE014B186008BD3807002008B5FFF763
:1034C0008FFFFFF7F3FFFDF717FDFDF7EBFDFDF7AE
:1034D0006DFFFEF729F8FFF74FFEFFF7DDFEFFF760
:1034E0002DFBFFF7A9FCFFF76DFDFEF767FFFEF769
:1034F000D3FAFEF757F8FFF789F9FEF743FBFFF71A
:1035000009FF002009F068FB08BD000008B5022192
:10351000014807F0B4FD08BDC0F00F402DE9F04FA1
:103520002DED028B85B00023039309F0F9FB039086
:103530000124B34EDFF8F0A206F1100BB14FDFF813
:10354000EC9282E0B04B1A6833461068516803C3AE
:10355000114651F8080F496803C3114651F8100F7E
:10356000496803C3114651F8180F496803C311464F
:1035700051F8200F496803C3114651F8280F4968D4
:1035800003C3114651F8300F496803C3114651F87F
:10359000380F496803C352F8400F516803C35DE018
:1035A0009A4B1A689A4B1168196051685960916872
:1035B0009960D168D960116919615169596191693E
:1035C0009961D169D961116A1962526A5A624DE0F2
:1035D00059462020FFF7A2FA06F120014120FFF70B
:1035E0009DFA06F1280140F26940FFF797FA44E09E
:1035F00006F118011020FFF791FA47E006F10801E3
:103600008448FFF793FA06F130014FF4F660FFF7B4
:1036100085FA06F1380140F2B170FFF77FFA06F142
:10362000400140F2B270FFF779FA39E00134A4B2F8
:1036300042F210739C4288BF01240A2103A809F0BA
:1036400075FC754A537C0133537400226E49734BE9
:10365000186808F093FF01283FF474AF00226B490B
:103660006F4B186808F08AFF012899D03146504600
:10367000FFF75CFA14F0010FAAD0A7FB04239B0804
:1036800003EB8303E31A9BB2002BB1D0A7FB042307
:10369000DB0803EB8303A4EB43039BB2002BADD009
:1036A000A9FB04231B09322202FB13439BB2002B0C
:1036B000BCD1574DD5ED007A9FED5A8A67EE887AD6
:1036C000FDEEE77A17EE903A1BB21A128DF804203D
:1036D0008DF80530D5ED017A67EE887AFDEEE77A50
:1036E00017EE903A1BB21A128DF806208DF80730AB
:1036F000D5ED027A67EE887AFDEEE77A17EE903A1A
:103700001BB21A128DF808208DF80930D5ED097A10
:1037100067EE887AFDEEE77A17EE903A1BB21A123E
:103720008DF80A208DF80B3001A9BA20FFF7F6F9C1
:10373000D5ED037A67EE887AFDEEE77A17EE903AD8
:103740001BB21A128DF804208DF80530D5ED047ADD
:1037500067EE887AFDEEE77A17EE903A1BB21A12FE
:103760008DF806208DF80730D5ED057A67EE887A5A
:10377000FDEEE77A17EE903A1BB21A128DF8082088
:103780008DF809304FF000088DF80A808DF80B8015
:1037900001A9BB20FFF7C2F9D5ED077A67EE887A59
:1037A000FDEEE77A17EE903A1BB21A128DF804205C
:1037B0008DF80530D5ED067A67EE887AFDEEE77A6A
:1037C00017EE903A1BB21A128DF806208DF80730CA
:1037D000D5ED087A27EE888ABDEEC88A18EE103A31
:1037E0001BB21A128DF808208DF809308DF80A8066
:1037F0008DF80B8001A9BC20FFF790F916E700BFF8
:10380000A0070020CDCCCCCC10080020140800204C
:10381000E8070020EF09FF0C3C07002060070020AC
:10382000500700200000C842EF08FF0C1F85EB5135
:1038300003788B420DD0017000234370837893424C
:1038400004D20133DBB283709A420DD80123C370D6
:103850000AE043781D2B04D80133DBB243701D2BE3
:1038600002D90023C3708370C07870472DE9F04FF0
:1038700083B009F055FA01900024644F644D05F1BE
:10388000510903264FF0000B61E1624BD3F800C0F1
:103890003B46DCF80000DCF80410DCF8082007C325
:1038A0005CF80C0FDCF8041003C359E15A4BD3F851
:1038B00000C0BCF80030DFF8A0E1AEF80030BCF882
:1038C0000230AEF8023063460EF1040853F8040FDC
:1038D00059689A68DB68A8E80F009CF814308EF8E5
:1038E0001430634653F8162FCEF816209B88AEF896
:1038F0001A30634653F81C0FCEF81C009B88AEF8B4
:1039000020305CF8223FCEF82230BCF80430AEF80C
:1039100026302EE1414BD3F8008009F043FF752299
:10392000414628460FF03EF909F04CFF3C4A2B4631
:1039300003CB106051603B4A03CB106051603A4AA0
:1039400003CB10605160394A03CB10605160384A94
:1039500003CB10605160374A03CB10605160364A88
:1039600003CB10605160354A03CB10605160344A7C
:1039700003CB10605160334BD9F80010D9F8042004
:1039800019605A60304A2B4653F8591F5B68116022
:1039900053602E4A2B4653F8611F5B6811605360D9
:1039A0002B4A2B4653F8691F5B6811605360294B03
:1039B00095F871201A7095F872205A7095F8732056
:1039C0009A7095F87420DA70E2E0154B1C605C6028
:1039D000EDE0144B1C605C60F2E0134B1C605C601B
:1039E000F7E0124B1C605C60FCE0114B1C605C60FB
:1039F00001E1104B1C605C6006E10F4B1C605C60D9
:103A00000BE10E4B1C605C6010E100BFF008002071
:103A100030080020480900204C0900203809002007
:103A2000F8D9002000DA002008DA002070DC00203D
:103A300040DC002048DC0020F0D9002028DC0020F9
:103A400030DC002088DC002098DC002080DC0020B6
:103A500090DC0020A0DC00200409002022467D49E3
:103A60007D4B186808F08AFD7C4B1B78002B00F01A
:103A7000EA80FEF737FA7A4B1880DFF87082A8F8F0
:103A80000000784BBA891A80FA895A803A8A9A805B
:103A90003A88DA807A881A81734BC3F800B0734B86
:103AA000C3F800B00AF040F9DFF844C2704A634638
:103AB0001068516803C36F4A1068516803C36E4AA7
:103AC000114651F8020F496803C36C4908684968F8
:103AD00003C36B490868496803C36A4908684968B1
:103AE00003C3114651F80A0F496803C3114651F840
:103AF000120F496803C3114651F81A0F496803C3EE
:103B0000DFF8F0A113788AF8003053788AF8013092
:103B10005D4B1B788AF803305C49C1F800C023462E
:103B200022465B48006808F01FFC5A49C1F800A013
:103B3000234622465848006808F016FC98F80F30D3
:103B4000013388F80F300A2101A809F0EFF9224665
:103B50005249534B186808F011FD01283FF495AE07
:103B600022465049504B186808F008FD01283FF4E0
:103B70009DAE22464D494E4B186808F0FFFC224688
:103B80004C494D4B186808F0F9FC01283FF4C2AECF
:103B900022464A494A4B186808F0F0FC324695F82C
:103BA00048104848FFF744FE00283FF40EAF324665
:103BB00095F849104448FFF73BFE00283FF409AF51
:103BC000324695F84A104148FFF732FE00283FF48C
:103BD00004AF012295F84B103D48FFF729FE00285D
:103BE0003FF4FFAE324695F84C103A48FFF720FEFE
:103BF00000283FF4FAAE324695F84D103648FFF7EC
:103C000017FE00283FF4F5AE324695F84E103348C3
:103C1000FFF70EFE00283FF4F0AE324695F84F1045
:103C20002F48FFF705FE00283FF4EBAE324695F82B
:103C300050102C48FFF7FCFD00287FF40FAF2A4BF3
:103C40001C605C600AE70122044B1A700DF0CCFB8B
:103C50000FE700BF400900205C0700205C0900203E
:103C60006ADC002060DC0020A4DC0020A8DC00204E
:103C700010DC002018DC0020E0DB002038DC002015
:103C8000E8D9002020DC002056DC00204409002078
:103C90006007002054090020640700204809002024
:103CA000740700204C0900207807002050090020EC
:103CB0007007002038090020540700203C0900202C
:103CC0005807002024080020280800202C08002085
:103CD000580900203009002034090020180800206D
:103CE0001C0800202008002030DC00203C070020B9
:103CF000A80800202C0900202DE9F04782B009F027
:103D00000FF801900025DFF8CC90DFF8CC802B4F26
:103D10002B4E2C4CDFF8C4A01EE0D9F800301A78E6
:103D200088F800209A783A705978274A1170DB7821
:103D3000337019E06278244B1B789A4220D125E039
:103D40000135EDB2132D29D8204A137C01331374A9
:103D50000A2101A809F0EAF8002249461C4B18681C
:103D600008F00CFC0128D8D098F800002378834292
:103D700002D02070FEF700F93878A3788342D9D0BA
:103D8000A070114B19786170FDF7EAFE3078E37886
:103D90008342D5D0E070FEF74BFDD1E7FEF720FB64
:103DA000FDF7CCFBFEF752FDFDF7B0FFFDF7E6FB9C
:103DB0000121504607F065F90025C5E76509002097
:103DC0005D09002060090020640900203C070020F4
:103DD00064070020680900206C090020C0F00F4033
:103DE0002DE9F04F2DED048B89B0DFED7D8A9FED3D
:103DF0007D8ADFED7D9A9FED7D9A57E17C4B1968B6
:103E000011F8012B402A28BF40227A4800F8012BE4
:103E10000EF0C8FE53E1F11803F10A0AB244002281
:103E200011F801BF5A44D2B25145F9D134446178F6
:103E3000914227D00A33DBB20133DBB2184603F1DB
:103E40000A04A54240F2D88032185278552AF3D19C
:103E500032189278532ADED0522A41D0512AEBD11F
:103E6000F11803F10A0AB244002211F801BF5A44C2
:103E7000D2B28A45F9D134446178914270D00A3384
:103E8000DBB2D9E730440179C27842EA012212B2AA
:103E900006EE102AB8EEC66A26EE226A26EE086AF8
:103EA0008179427942EA012212B206EE902AF8EEB6
:103EB000E66A66EEA26A66EE886A017AC27942EA2A
:103EC000012212B207EE902AF8EEE77A67EEA27AA4
:103ED00067EE887ACDF808C0CDF804E0F146A9E78E
:103EE000F11803F10A0AB244002211F801BF5A4442
:103EF000D2B25145F9D134446178914202D00A33AB
:103F0000DBB299E730440179C27842EA012212B269
:103F100005EE102AB8EEC55A25EE025A25EE085ACB
:103F20008179427942EA012212B205EE902AF8EE36
:103F3000E55A65EE825A65EE885A017AC27942EAFC
:103F4000012212B207EE102AB8EEC77A27EE027AE3
:103F500027EE087A6746CDF810E0CDF80CE0CEE702
:103F600030440179C27842EA012212B203EE102AEB
:103F7000B8EEC33A23EE283A23EE083A8179427923
:103F800042EA012212B203EE902AF8EEE33A63EE1F
:103F9000A83A63EE883A017AC27942EA012212B263
:103FA00004EE102AB8EEC44A24EE284A24EE084A49
:103FB000817A427A42EA012212B204EE902AF8EEA5
:103FC000E44A64EEA94A64EE884A74EE894ACDF860
:103FD0001CC0CDF818E0CDF814E0F0464FE700BF64
:103FE000CDCC1C43000000388FC2C042B81E124224
:103FF0004C0A002098090020B8F1000F40F0A28080
:10400000059B13B1574BC3ED013A069B13B1554BBA
:1040100083ED024A079B13B1524BC3ED094AB9F134
:10402000000F02D04F4B83ED066A019B13B14D4B3D
:10403000C3ED076A029B13B14A4BC3ED087A039B99
:1040400013B1484B83ED035A049B13B1454BC3EDA9
:10405000045A17B1434B83ED057A434B414A11682B
:1040600019605168596091689960D168D960116987
:1040700019615169596191699961D169D961116A6F
:104080001962526A5A6239490B6000231A4638484D
:10409000006808F069F9374B1B78012B56D0364A77
:1040A000937B01339373322008F06EFF0022334973
:1040B000334B186808F062FA01283FF49FAE0022E3
:1040C0003049314B186808F059FA0128C5D12D4BF9
:1040D000196811F8014B402C28BF40242B4800F8E8
:1040E000014B254622460EF05DFD0A2CB5D91D4B2D
:1040F00093ED003AD3ED013A93ED024AD3ED094A2C
:1041000093ED035AD3ED045A93ED057A93ED066AC5
:10411000D3ED076AD3ED087A002704970397029737
:104120000197B946079706970597B8460A243B4674
:104130003846164E4FF0010CE6469FED152ADFED8E
:10414000152A81E6074B83ED003A59E70C4B1868B6
:1041500008F048FB074C20710B4B186808F042FB35
:1041600060719CE7200A002070090020480A0020A6
:1041700050070020980700203C0700204C0A002030
:1041800068070020500A00206C070020DC0900208E
:104190000000FA440000344308B50B4C0B4E0C4DA4
:1041A000FCF7C2FEFCF788FF266000231A46214672
:1041B000286808F0D9F8074A137B013313730520E8
:1041C00008F0E2FEECE700BF900A0020540A00204D
:1041D000740700203C07002008B50C4C0C4E0D4D18
:1041E000FDF784FEFDF7F2F8FDF7FAF926600023EB
:1041F0001A462146286808F0B7F8074A537B01336E
:104200005373642008F0C0FEEAE700BF940A002060
:10421000680A0020780700203C0700204FF0E023C8
:10422000D3F8882D42F47002C3F8882DD3F8342FC8
:1042300022F08042C3F8342F084B094A5A605A686A
:1042400042F220121A604FF6FF729A60054AD2F8C5
:10425000003843F4F803C2F80038704700200540E6
:1042600020C528D900D000404FF0E021D1F80C2D16
:1042700092B2024B1343C1F80C3D70470400FA059B
:10428000264B274A9A4208D013462448254A13F859
:10429000011B02F8011B9842F9D1234B234A9A4291
:1042A00008D013462048224A13F8011B02F8011BCC
:1042B0008342F9D11F4B204A9A4206D0134600216F
:1042C0001C4A03F8011B9342FBD11C4B1C4A9A4227
:1042D00008D0134619481B4A13F8011B02F8011BAA
:1042E0008342F9D1184B194A9A4212D010B4184C93
:1042F000A40808D01946002351F8040B42F8040B17
:104300000133A342F8D1134B104A1A605DF8044BF5
:104310007047104B0C4A1A60704700BF644003009E
:10432000283403000004FE1F9C4003006440030087
:104330003C10FE1FDCDC0020000000209C4003003D
:104340009C40030000000020000002000000FE1F4F
:104350000004000008ED00E0002303700C2242700E
:104360008370C370037143718371C37103724372AD
:104370008372704770B584B006460D465D4B53F8A6
:1043800020404C238DF80C304D238DF80D3004A9BE
:10439000002341F8083D04AB034413F8040C01F07A
:1043A000E7FC2B78029ADA400292226C22F060023B
:1043B0005B0103F06003134323646B78002B08BF99
:1043C0000123626C22F0FF0213436364226C22F02B
:1043D0000C02AB789B0003F00C0313432364226CA4
:1043E00022F00302EB7803F0030313432364D4F8B1
:1043F000902022F040022B799B0103F040031343ED
:10440000C4F890306B79302200924FF44052019200
:10441000394A926904A901EB860151F8101C22EA7D
:104420000102002E43D0012E4FD0334B9A61AA795E
:10443000012100914FF4807101919B6904A901EB66
:10444000860151F8101C23EA0103002E39D0012EF9
:1044500045D0294A9361D4F8903023F00403EA79D7
:10446000002A14BF042200221343C4F89030D4F869
:10447000902022F003022B7A03F003031343C4F8C5
:104480009030D4F8943023F008036A7A002A14BFDD
:10449000082200221343C4F8943036B9AB7A1BBB10
:1044A000154A536823F40023536004B070BD1B0108
:1044B00003F03003134310498B61AA798B6923F011
:1044C000010302F001021343C3E71B0303F440534B
:1044D000134309498B61AA798B6923F48073120213
:1044E00002F480721343B4E7034A536843F4002391
:1044F0005360DAE7F02D03000080044030B4144B21
:1045000053F8200053881478A3F5706292B2052AFC
:104510000BD8104A556825F4E025556055681B04F2
:1045200003F4E0232B435360152300EB8101D1F802
:10453000082103F03F0322F07F021343002C14BF35
:10454000402200221343C1F8083130BC704700BF3D
:10455000F02D03000080044082B00E2300934FF43E
:10456000606301930C4B9B6902AA02EB800252F834
:10457000082C23EA020328B1012808D0064A9361D7
:1045800002B07047490001F00E010B43F6E7490203
:1045900001F460610B43F1E70080044010B582B084
:1045A0000446264B53F8201000233F2241F82320D5
:1045B0000133102BFAD100230B640C224A64C1F89A
:1045C0008830C1F88C30C1F89030C1F89430C1F80F
:1045D000A0300422C1F8B0203F2003F1420241F88C
:1045E00022000133202BF8D1302300934FF44053A5
:1045F0000193134B9A6902A901EB840151F8080C4D
:1046000022EA00029A61012200924FF48072019224
:104610009A6951F8081C22EA01029A610021204699
:10462000FFF79AFF44B9064B5A6822F400225A60F9
:104630005A6822F4E0225A6002B010BDF02D030047
:1046400000800440044B53F82030623153F821308D
:10465000C3F30B0313807047F02D03002DE9F047DF
:1046600082B04F4B53F82040D4F89430C3F3800805
:10467000D4F8947007F00307D4F89060656CEDB23D
:10468000D4F8943043F00303C4F89430D4F8943051
:1046900043F00403C4F89430D4F8903023F040037E
:1046A000C4F89030636C23F0FF0343F00C036364A1
:1046B0000023C4F8B430C4F8B830C4F8BC30C4F82F
:1046C000C030C4F8C430C4F8C830C4F8CC304C2270
:1046D0008DF804204D228DF8052002A941F8083DEF
:1046E000D4F840904FEA591A02AB184410F8040C61
:1046F00001F03EFB009B0AF0030A23FA0AFA294A5A
:10470000924512D9284A934208D9284A934245D95A
:10471000274A934294BF0323002300E00123226C25
:1047200022F0600242EA43132364D4F8943043F049
:104730008003C4F89430D4F8943013F08003FAD195
:10474000226C22F0600209F0600949EA0202226448
:10475000D4F8942022F00402B8F1000F18BF04230B
:104760001343C4F89430D4F8943023F003031F4368
:10477000C4F89470D4F8903023F0400306F040065B
:104780001E43C4F89060002D08BF0125636C23F020
:10479000FF031D43656402B0BDE8F0870223BEE756
:1047A000F02D030040787D0181F0FA0203E1F50568
:1047B00007C2EB0B014B33F910007047EC2D0300DF
:1047C000074B5B69DBB2042B06D0802B06D0012B94
:1047D0000CBF01200420704702207047032070475F
:1047E00000E00740044BD3F8003113F0807F1ABF7C
:1047F000024B18680020704700400640B80A0020AD
:1048000010B584B00B4600293BD0444AD2F80021B1
:1048100012F0007F7DD1414AD2F8001121F400014D
:10482000C2F800114FF08061C2F8001100213C4A2B
:104830001160002870D05A7A120202F4E062197AEC
:1048400001F007010A433548C0F80421DA79120162
:1048500002F030029979C90001F008010A43597940
:10486000890001F004010A43C0F808211A79012ADD
:1048700029D0E2B1022A32D01A68294B1A60294C99
:104880003BE000238DF804308DF80C3001228DF8C8
:1048900008208DF809208DF805208DF806300223B8
:1048A0008DF8073004AB204A43F8102DADE71A7B92
:1048B000002A14BF4FF40002002242F001021749FF
:1048C000C1F80021D8E71A7B002A14BF4FF4000278
:1048D000002242F001121149C1F80021CCE71A7BF5
:1048E000002A14BF4FF403024FF4403242F0010299
:1048F0000A49C1F80021BFE7013CFFF773FF18B96F
:10490000002CF9D1032005E0002C14BF0020032067
:1049100000E0022004B010BD0020FBE7004006408C
:10492000B80A002088E7300000127A00084BD3F85C
:10493000003213F0807F09D0054BD3F8083203F022
:104940000103002B034808BF002070470020704778
:104950000040064000127A0010B582B00B460029D4
:1049600038D02D4AD2F8002212F0007F4FD12A4AC7
:10497000D2F8001221F40001C2F800120021C2F89E
:104980000012002846D09A78120202F4E0625978A8
:1049900001F007010A432049C1F804221A7802F005
:1049A0000102C1F8082259799A791B79002B14BFAA
:1049B00003230123002914BF042100210B43002AF3
:1049C00014BF4FF4000200221343134AC2F800320E
:1049D000642410E000238DF8043001228DF80520B6
:1049E0008DF806308DF801208DF8022002AB03F817
:1049F000082DB6E7013CFFF799FF18B9002CF9D153
:104A0000032005E0002C14BF0020032000E002205A
:104A100002B010BD0020FBE700400640054BD3F874
:104A2000003313F0807F1DBF024BD3F808330248D8
:104A30000020704700400640006CDC0210B582B0D8
:104A40000B46002932D0294AD2F8002312F0007F09
:104A500047D1264AD2F8001321F40001C2F800130E
:104A60004FF08061C2F8001300283DD09A781202FE
:104A700002F4E062597801F007010A431B49C1F8CA
:104A800004231A7802F00302C1F808239A795B79AB
:104A9000002B14BF01230923002A14BF4FF4000286
:104AA00000221343C1F8003314240EE001238DF8D3
:104AB000053000228DF806208DF801308DF8023087
:104AC00002AB03F8082DBEE7013CFFF7A7FF18B9BA
:104AD000002CF9D1032005E0002C14BF0020032096
:104AE00000E0022002B010BD0020FBE700400640BD
:104AF00008B50F4BD3F8003613F0807F02D10023A6
:104B0000184608BDFFF76EFE03460028F8D0084996
:104B1000D1F80826C2F302220132B0FBF2F3D1F839
:104B20000826C2F30442103203FB02F35B08E7E7F6
:104B30000040064010B584B00C4699B13D4BD3F807
:104B4000003613F0007F72D13A4BD3F8002622F4DE
:104B50000002C3F800264FF08062C3F80026A0B917
:104B6000002065E000238DF804308DF80B30012221
:104B70008DF808208DF809208DF8053007228DF872
:104B800006208DF8073001ACD8E7FFF72BFE6379DC
:104B90001B0203F4E063227902F007021343254964
:104BA000C1F8043663781B0203F4E063A2781204B0
:104BB00002F4F8121343C1F808362378012B16D0FB
:104BC0004BB1022B1FD04FF47A74FFF791FF48BB13
:104BD00034B3013CF9E7E379002B14BF4FF4000331
:104BE000002343F00103134AC2F80036EBE7E379F0
:104BF000002B14BF4FF40003002343F001130D4AB0
:104C0000C2F80036DFE7E379002B14BF4FF403034B
:104C10004FF4403343F00103064AC2F80036D2E7AE
:104C2000032005E0002C14BF0020032000E0022038
:104C300004B010BD004006402DE9F04180460D460D
:104C40008C7801344E7806FB04460F7807FB044746
:104C5000CB78013B052B1CD8DFE803F00312151BB2
:104C60001B18FFF7BFFD0009B8F1020F4AD0B8F1D9
:104C7000030F7BD0B8F1010F0DD00020BDE8F0810B
:104C8000FFF754FEEFE7FFF7C9FEECE7FFF730FF51
:104C9000E9E70020E7E7EA7802EB42015B4B53F8D3
:104CA00021301B0904FB03F4A04200F293800B4661
:104CB000564901EB83035B681B0906FB03F6B04210
:104CC00000F28B8002EB420301EB83039B681B091C
:104CD00007FB03F7B84200F28380AB781B0403F4B0
:104CE0007023120602F0706213432A7802F00F025A
:104CF00013436A781201D2B21343454A536100202C
:104D0000BDE8F081EA7802EB4201424B53F82130D2
:104D10001B0904FB03F4A04265D80B463D4901EB97
:104D200083035B681B0906FB03F6B0425ED802EB07
:104D3000420301EB83039B681B0907FB03F7B8429F
:104D400057D8AB781B0403F47023120602F070628C
:104D500013432A7802F00F0213436A781201D2B289
:104D600013432B4A93610020BDE8F081EB7803EBFD
:104D70004301294A52F82120120904FB02F4A042FF
:104D80003AD80A46244901EB82025268120906FB0E
:104D900002F6B04233D803EB430201EB8202926881
:104DA000120907FB02F7B8422CD8AA78120402F4C1
:104DB00070221B0603F0706313432A7802F00F027F
:104DC00013436A781201D2B21343114AD36100200F
:104DD000BDE8F0810120BDE8F0810120BDE8F0814F
:104DE0000120BDE8F0810120BDE8F0810120BDE88F
:104DF000F0810120BDE8F0810120BDE8F0810120B3
:104E0000BDE8F0810120BDE8F08100BF042F030060
:104E100000400640582F0300B02E030038B5054669
:104E2000FFF7CEFC2946FFF707FF044658B9E8789C
:104E30000A220849013A0B69C3F30363984204D07C
:104E4000002AF7D10324204638BD002A08BF0324D6
:104E5000F9E700BF0040064010B504461B4B1B6934
:104E6000C3F30363013B052B1DD8DFE803F00313F5
:104E7000161C1C19FFF7B6FC144B1B69C3F3034344
:104E80000133B0FBF3F0012C0FD0ECB1022C14D0A5
:104E9000002010BDFFF74AFDEEE7FFF7BFFDEBE78F
:104EA000FFF726FEE8E70020E6E7084B1B69C3F39F
:104EB00003130133B0FBF3F010BD044B1B6903F087
:104EC0000F030133B0FBF3F010BD00BF00400640FC
:104ED00008B5094BD3F8D801C0F3807038B103F599
:104EE00088331B681B0E03D10020FFF7B5FF08BDF8
:104EF0000120FFF7B1FF08BD0050064008B50F4B79
:104F00001B6AC3F30363062B15D8DFE803F004081C
:104F10000B0E141411000220FFF79EFF08BDFFF7CF
:104F200061FC08BDFFF702FD08BDFFF777FD08BD76
:104F3000FFF7DEFD08BD002008BD00BF00400640B1
:104F400008B541B1012931D00020024610B1431EFD
:104F500022FA03F008BD0438032852D8DFE800F035
:104F60000B02141DFFF75AFD0246294BD3F8040328
:104F700000F00700EAE7FFF7D9FC0246244BD3F81C
:104F8000040200F00700E1E7FFF72CFC0246204B8B
:104F9000D3F8040100F00700D8E7FFF7A9FD0246A7
:104FA0001B4BD3F8040600F00700CFE704380328B2
:104FB0002AD8DFE800F00B02141DFFF72FFD024690
:104FC000134BD3F80403C0F30220BFE7FFF7AEFC96
:104FD00002460F4BD3F80402C0F30220B6E7FFF7F6
:104FE00001FC02460A4BD3F80401C0F30220ADE7EE
:104FF000FFF77EFD0246064BD3F80406C0F30220FD
:10500000A4E700200246A1E7002002469EE700BF79
:105010000040064008B5114B1B69C3F30113032B75
:1050200019D8DFE803F00207101300210620FFF76C
:1050300087FF08BD094B186900F00200002818BF5F
:105040004FF4FA4008BD064B186808BD0021052042
:10505000FFF776FF08BD002008BD00BF00800440B8
:10506000980A002008B50B4B1B6A13F0806F0FD015
:10507000094B1B681B0E4FF0000114BF05200720D1
:10508000FFF75EFF044B5B6A0133B0FBF3F008BD32
:10509000002008BD008004400060074038B51C4B6C
:1050A00033F810309B0003F1804303F5CA231D68D9
:1050B000C5F3C0051C6804F00704AC4225D318688A
:1050C000C0F3807010B31B68C3F30263013B052B70
:1050D00019D8DFE803F0030C101818140620FFF7A6
:1050E0002FFF0134B0FBF4F005FB000038BD0420B5
:1050F000FFF726FFF5E70520FFF722FFF1E707207E
:10510000FFF71EFFEDE70020EBE7002038BD00BFF2
:10511000F82D03000F4B1B69C3F38103022B07D04B
:10512000032B0ED0002B0CBF4FF4FA300020704739
:10513000084B186900F00200002818BF4FF4FA402D
:105140007047044B186900F00200002818BF4FF4A4
:10515000FA4070470080044008B5304B5B6813F498
:10516000006F58D02D4B5B68C3F303130F2B09D886
:10517000DFE803F00A080D08122F171C202547331B
:1051800029362C3E00203EE0FFF7B8FE3BE001212F
:105190000620FFF7D5FE36E001210420FFF7D0FE00
:1051A00031E001210520FFF7CBFE2CE00020FFF7C6
:1051B00053FE28E001210720FFF7C2FE23E0012073
:1051C000FFF74AFE1FE0FFF7A5FF1CE0FFF722FFF5
:1051D00019E0FFF747FF400815E0FFF779FE12E0FE
:1051E000FFF740FF0E4B1B681B0E0CD040080AE077
:1051F0000B4B1B681B0E01D1002004E0FFF732FFB0
:1052000001E04FF4FA30054B5B68C3F3022301332E
:10521000B0FBF3F008BD002008BD00BF00800440D3
:1052200000600740F0B5A1B028B304460646002848
:1052300000F0FF80644B1B69C3F30363032B00F092
:10524000C980FFF7EBFB002800F0B48003238DF842
:10525000073000228DF8062001228DF8052020A8B5
:1052600000F87C3DFFF7DAFD0546002800F0B2802B
:10527000284621B0F0BD01238DF80B3000228DF8B7
:105280000C208DF80D308DF80E208DF808308DF83B
:1052900009308DF80A308DF816308DF814308DF8FD
:1052A00015208DF80F208DF810308DF811308DF805
:1052B00038300D928DF82530444906918DF81C2028
:1052C0008DF824208DF81D308DF81E2002208DF8D9
:1052D0001F008DF820308DF821308DF830308DF89A
:1052E00028208DF82F208DF829200C218DF82A10E8
:1052F0008DF82B208DF82C308DF82D308DF83D3029
:1053000003218DF83C108DF84B308DF841108DF84D
:1053100040208DF83F308DF83E308DF845008DF8F7
:1053200044308DF843208DF8421006208DF8490056
:105330008DF848208DF847308DF8461024491E918D
:1053400029211D918DF84C308DF84D208DF84E207F
:105350008DF84F208DF850308DF854308DF8533043
:105360008DF852208DF851208DF868308DF8693015
:105370008DF86A308DF86B308DF86C308DF86D30AB
:105380008DF873308DF858301792189219928DF865
:105390006E308DF86F308DF870208DF871208DF89B
:1053A00072208DF87C308DF87D308DF87E2002AE35
:1053B00034463FE700210120FFF740FB0546002867
:1053C0007FF456AF42E700BF0040064000127A006B
:1053D000E00EFE1F3146E078FFF7BEFA05460028D2
:1053E00000F03081FFF7ECF9022800F06581032816
:1053F00000F06581012800F03F81002D7FF438AF77
:1054000094F8303013B1E26AAE4B1A6094F835303C
:1054100053B1AD490A6A22F0706294F834301B0629
:1054200003F0706313430B6294F84330002B40F099
:10543000B28114F16C0F35D0236F002B32D0E36EA4
:1054400083B30021A148A24D01EB8102236F9B5C35
:1054500030F813309B0003F1804303F5CA231E6824
:1054600026F080461E60236F9F189E5CBB781B064B
:1054700003F0E063FA78D20002F0080213433A79AD
:1054800002F0070213437A78002A14BF4FF08042DB
:105490000022134330F8162045F822300131E36E24
:1054A0009942D1D394F84430C3B194F8463094F87B
:1054B00047208849496821F47F6194F84500002815
:1054C00014BF4FF4006000201B01DBB2120202F493
:1054D000E06213430B4303437E4A536094F8483021
:1054E000DBB194F84A3094F849207A49096921F0EF
:1054F0003F0194F84C00084394F84B10002914BF66
:10550000022100219B0003F00C030343120102F06F
:10551000300213430B436F4A136194F86030002B41
:1055200044D06C4B196C21F0010194F861200A43BE
:105530001A641B6C23F0020394F86220002A14BF43
:10554000022200221343634A1364136C23F0040302
:1055500094F86320002A14BF0422002213435D4AFA
:105560001364136C23F0080394F86420002A14BF1A
:10557000082200221343574A1364136C23F01003CC
:1055800094F86520002A14BF102200221343514AC8
:105590001364136A23F0806394F86B20002A14BF0D
:1055A0004FF08062002213434A4A136294F850304D
:1055B00033B1494B626D1A60A26D5A60E26D9A6018
:1055C00094F86630EBB1434A936E002090665168C0
:1055D00021F4805194F868301B0303F480530B438B
:1055E0005360906694F867305BB194F869305B0063
:1055F00003F00E0394F86A2042F080521343354AB8
:10560000936694F87430002B00F0E18033498B7876
:1056100003F07F0394F8752082F0010243EAC2137D
:10562000DBB28B7094F97630002BBCBF20335BB2B9
:105630002A490A7903F01F0302F0E00213430B71B9
:10564000002515E604F11001607FFFF7D9F8054643
:1056500000287FF4C7AE04F1200194F82800FFF77A
:1056600069FA0546FFF7ACF8022825D0032826D0B2
:10567000012801D0002601E004F13606002D7FF458
:10568000BCAEF378032B2BD08DF80730B3788DF8B0
:10569000063073788DF80530337820A800F87C3D0B
:1056A000FFF7BCFB054600287FF4A7AEE11DA07BF9
:1056B000FFF7C4F90546A0E604F13A06DEE704F177
:1056C0003E06DBE7980A002000400640F82D030064
:1056D00000500640008004409C0A002000D0074093
:1056E00094F828300BBB637F93BBE378002B42D147
:1056F0000125002D7FF481AEE11DA07BFFF79EF90F
:10570000054600287FF479AEF3788DF80730B3783A
:105710008DF8063073788DF80530337820A800F8BE
:105720007C3DFFF77BFB054667E606238DF80730D7
:1057300002238DF8063001238DF8053020A800F8EB
:105740007C3DFFF76BFB0546637F7BB10128D0D121
:1057500001238DF8073000228DF806208DF80530E2
:1057600020A800F87C3DFFF759FB0546E378002BA5
:10577000BFD0012DBDD102238DF8073000238DF855
:1057800006308DF8053020A8012300F87C3DFFF796
:1057900045FB0546ADE704F136010120FFF74CFA61
:1057A000054600287FF464AD04F13A010220FFF7BA
:1057B00043FA054600287FF45BAD04F13E01032067
:1057C000FFF73AFA054600287FF452AD31E600258E
:1057D0004EE500BF70B504460D46112807D92B28A9
:1057E00040F285805A2840F2D081042070BD1128F3
:1057F0007AD8DFE800F00913191F24292E33383C2A
:1058000041484F565D646B720020FFF725FB03464D
:105810000020002D00F020822B6070BD0120FFF7DA
:105820001BFB03460020F4E70220FFF715FB0346AD
:105830000020EEE7FFF790FC03460020E9E7FFF7C2
:1058400075F803460020E4E7FFF7E8F80346002078
:10585000DFE7FEF7C7FF03460020DAE7FFF748F966
:1058600003460020D5E7B44B1B680020D1E7FFF7C3
:1058700045FB03460020CCE700210420FFF760FB36
:1058800003460020C5E701210420FFF759FB03462A
:105890000020BEE700210520FFF752FB0346002051
:1058A000B7E701210520FFF74BFB03460020B0E7D7
:1058B00000210620FFF744FB03460020A9E7012151
:1058C0000620FFF73DFB03460020A2E7002107204A
:1058D000FFF736FB034600209BE701210720FFF777
:1058E0002FFB0346002094E70023042091E7A0F15A
:1058F0001504162C00F20181DFE814F017002300D4
:105900002F003B00460052005E006A0076007F00D8
:10591000840090009D00AA00B300BC00C500CE002A
:10592000D700DF00E400E900F300844BDB68C3F339
:105930000163022B00F2E480814A52F823300020F8
:1059400056E07E4BDB68C3F38163022B00F2DB8001
:105950007B4A52F8233000204AE0784BDB68C3F3DF
:105960000173022B00F2D280754A52F823300020D6
:105970003EE0724BDB689B0F022B00F2CA80704A3C
:1059800052F82330002033E06C4BDB68C3F3014353
:10599000022B00F2C1806A4A52F82330002027E02F
:1059A000664BDB68C3F38143022B00F2B880644A84
:1059B00052F8233000201BE0604BDB68C3F3015337
:1059C000022B00F2AF805E4A52F8233000200FE035
:1059D0005A4BDB68C3F38153022B00F2A680584A6E
:1059E00052F82330002003E0FFF7B6FB0346002007
:1059F000002D00F031812B6070BDFFF70BFB0346DB
:105A00000020F5E74F4B9B78DB0902D000231846B6
:105A1000EEE7FFF77FFB03460020E9E7494B9B7861
:105A2000DB0940F08580454B1B6913F0010340F012
:105A30008D800020DCE7434B9B78DB0940F08A80B7
:105A40003E4B1B6913F0020340F087800020CFE734
:105A50003C4B9B78DB0940F084804FF4FA33002004
:105A6000C6E7364B1B6CC3F30013002B7CD14FF4FD
:105A70008070BDE7314B1B6CC3F3C003002B76D1A4
:105A80004FF48070B4E72D4B1B6CC3F38003002BE5
:105A900070D14FF48070ABE7284B1B6CC3F340030D
:105AA000002B6AD14FF48070A2E7244B1B6C13F0DB
:105AB000010365D14FF480709AE7FFF7D3FA4308EA
:105AC000002095E7FFF704FA0346002090E7FFF770
:105AD000C9FA03461C4A1268120E54D0430800202B
:105AE00086E7194B1B681B0E02D1002318467FE77F
:105AF000FFF7B8FA034600207AE70023042077E78F
:105B00000023184674E70023184671E7002318465F
:105B10006EE7002318466BE70023184668E700236A
:105B2000184665E70023184662E7002318465FE73A
:105B3000002318465CE700BF980A0020008004405C
:105B40009C0A002000D00740006007404FF47A73A1
:105B500000204DE7002318464AE74FF4FA4300209F
:105B600046E70023184643E70023184640E7002392
:105B700018463DE7002318463AE70023184637E762
:105B80000023184634E7002032E72C2805D80420EB
:105B90000023002D60D02B6070BDA0F13903DBB273
:105BA000122B07D82D4A22FA03F313F0010F18BF66
:105BB0000420EDD15A2C4DD0294B33F81420294B19
:105BC00053F8223013F0804F33D14FF48070DFE769
:105BD0000120FFF741F9B8BB00234FF48070D8E7EC
:105BE0000020FFF739F90028F6D02DE00220FFF75A
:105BF00033F90028F0D027E016F0080F06D116F090
:105C0000100F0BD100234FF48070C2E70021204613
:105C1000FFF744FA034616F0100F04D00121204686
:105C2000FFF73CFA0346002B14BF00204FF48070AE
:105C3000AFE70D4B1E5D16F0200FC9D116F0400FD7
:105C4000CED116F0800FD1D116F0180FD4D1002389
:105C500018469EE704209BE770BD00BF4101040089
:105C6000F82D030000500640AC2F030010B4054C83
:105C700020602171A2602373637300205DF8044BE0
:105C8000704700BFA80A0020F0B583B007460E4653
:105C90008DF804008DF8051002F036FE334B1C7BA6
:105CA0005C7301238DF80630002C4AD000242F4D60
:105CB00004E00134E4B22B7BA34242D9AB6853F831
