:020000040800F2
:1000000000400220D5040008D9080008DB080008D9
:1000100000000000000000000000000000000000E0
:10002000000000000000000000000000DD080008E3
:100030000000000000000000DF080008E1080008E0
:1000400025050008250500082505000825050008E8
:1000500025050008250500082505000825050008D8
:1000600025050008250500082505000825050008C8
:1000700025050008250500082505000825050008B8
:1000800025050008250500082505000825050008A8
:100090002505000825050008250500082505000898
:1000A000250500082505000825050008E9080008C1
:0C00B000250500082505000825050008AE
:1000BC00002243088B4274D303098B425FD3030A9B
:1000CC008B4244D3030B8B4228D3030C8B420DD3AE
:1000DC00FF22090212BA030C8B4202D3121209023C
:1000EC0065D0030B8B4219D300E0090AC30B8B427A
:1000FC0001D3CB03C01A5241830B8B4201D38B0328
:10010C00C01A5241430B8B4201D34B03C01A5241CC
:10011C00030B8B4201D30B03C01A5241C30A8B420F
:10012C0001D3CB02C01A5241830A8B4201D38B02FA
:10013C00C01A5241430A8B4201D34B02C01A52419E
:10014C00030A8B4201D30B02C01A5241CDD2C30910
:10015C008B4201D3CB01C01A524183098B4201D38C
:10016C008B01C01A524143098B4201D34B01C01A77
:10017C00524103098B4201D30B01C01A5241C308EF
:10018C008B4201D3CB00C01A524183088B4201D35E
:10019C008B00C01A524143088B4201D34B00C01A4A
:1001AC005241411A00D20146524110467047FFE7B6
:1001BC0001B5002000F0F0F802BDC0460029F7D0D0
:1001CC0076E7704703460B437FD4002243088B42EB
:1001DC0074D303098B425FD3030A8B4244D3030BC2
:1001EC008B4228D3030C8B420DD3FF22090212BA87
:1001FC00030C8B4202D31212090265D0030B8B4203
:10020C0019D300E0090AC30B8B4201D3CB03C01AEC
:10021C005241830B8B4201D38B03C01A5241430BC7
:10022C008B4201D34B03C01A5241030B8B4201D3B7
:10023C000B03C01A5241C30A8B4201D3CB02C01A22
:10024C005241830A8B4201D38B02C01A5241430A9A
:10025C008B4201D34B02C01A5241030A8B4201D389
:10026C000B02C01A5241CDD2C3098B4201D3CB0130
:10027C00C01A524183098B4201D38B01C01A5241DF
:10028C0043098B4201D34B01C01A524103098B42E3
:10029C0001D30B01C01A5241C3088B4201D3CB00CE
:1002AC00C01A524183088B4201D38B00C01A5241B1
:1002BC0043088B4201D34B00C01A5241411A00D261
:1002CC0001465241104670475DE0CA0F00D04942CA
:1002DC00031000D34042534000229C4603098B423A
:1002EC002DD3030A8B4212D3FC22890112BA030AC2
:1002FC008B420CD3890192118B4208D38901921144
:10030C008B4204D389013AD0921100E08909C309C8
:10031C008B4201D3CB01C01A524183098B4201D3CA
:10032C008B01C01A524143098B4201D34B01C01AB5
:10033C00524103098B4201D30B01C01A5241C3082D
:10034C008B4201D3CB00C01A524183088B4201D39C
:10035C008B00C01A5241D9D243088B4201D34B00B7
:10036C00C01A5241411A00D20146634652415B10F9
:10037C00104601D34042002B00D5494270476346DA
:10038C005B1000D3404201B5002000F005F802BD1F
:10039C000029F8D016E770477047C046002B11D1E2
:1003AC00002A0FD1002900D1002802D00021C94316
:1003BC00080007B4024802A14018029003BDC046D1
:1003CC00D9FFFFFF03B4684601B5029804F072FD33
:1003DC00019B9E4602B00CBC7047C04610B500296C
:1003EC0003D100F007F8203002E0080000F002F81A
:1003FC0010BDC0461C2101231B04984201D3000CE4
:10040C0010391B0A984201D3000A08391B0998427B
:10041C0001D30009043902A2105C40187047C04691
:10042C0004030202010101010000000000000000B1
:10043C000448054B10B5834203D0044B002B00D06D
:10044C00984710BD0C0000200C000020000000009C
:10045C0006480749091A8B10C90FC91810B549105D
:10046C0003D0044B002B00D0984710BD0C0000208B
:10047C000C0000200000000010B5074C2378002B66
:10048C0009D1FFF7D5FF054B002B02D0044800E043
:10049C0000BF0123237010BD0C00002000000000E1
:1004AC0058500008054B10B5002B03D004490548E3
:1004BC0000E000BFFFF7CCFF10BDC04600000000FD
:1004CC0010000020585000080D48854600F00EFA28
:1004DC000C480D490D4A002302E0D458C450043393
:1004EC00C4188C42F9D30A4A0A4C002301E0136069
:1004FC000432A242FBD304F0AFFC00F06CF8FEE730
:10050C0000400220000000200C000020D453000802
:10051C000C00002068040020FEE710B502F0F0F992
:10052C0010BD000082B0094A516B0223194351637C
:10053C00526B13400193019B054BB02292019A61BF
:10054C00802252019A6272B6FEE7C0460010024049
:10055C000004005000B595B03C22002105A804F021
:10056C0073FC1022002101A804F06EFC8020800096
:10057C0002F04AFE0A230593F633089300230993ED
:10058C0040220A923F3A0B9201320D920E920F9337
:10059C000833109380239B02119380239B041293A6
:1005AC0080239B05139305A802F058FE00280ED15A
:1005BC0007230193053B0293002303930493022129
:1005CC0001A803F033F9002803D115B000BDFFF7E3
:1005DC00A9FFFFF7A7FF10B502F0C0F9FFF7BAFFAC
:1005EC0000F076F800F00AF800F0D2F800F0B6F857
:1005FC0002F0BAF802F014F9FCE7000070B51048EC
:10060C00104B0360002343608360C36001210174BD
:10061C004174837408254561022282610D24C461F2
:10062C00026245628262C462026341638363C36394
:10063C0002F03CFB002800D170BDFFF773FFFBE715
:10064C00280000200064004010B59AB00400142269
:10065C00002115A804F0F8FB4C22002102A804F09C
:10066C00F3FB2268174B9A4201D01AB010BD8023BD
:10067C009B04029302A803F0B9F900281FD1124B76
:10068C00DA6B802149010A43DA63DA6B0A40009283
:10069C00009A596B0222114359635B6B134001930F
:1006AC00019BC0239B0015931692002317930333D1
:1006BC001893199315A9054802F09CFCD5E7FFF790
:1006CC0031FFDCE7006400400010024000040050E1
:1006DC00F0B589B01422002103A804F0B5FB1D4B22
:1006EC005A6B012422435A635A6B22400192019A9D
:1006FC00596B0222114359635B6B1A400292029BA5
:10070C00A027FF0501220121380002F03AFDB0219B
:10071C00114E01228901300002F033FD80210022AC
:10072C004901300002F02DFD039404940025059539
:10073C00069503A9380002F05DFCF0239B0103939E
:10074C0004940595069503A9300002F053FC09B0FA
:10075C00F0BDC046001002400004005010B509481E
:10076C00094B036003234360084BC360F423FF333E
:10077C00836002F00DFD002800D110BDFFF7D2FE02
:10078C00FBE7C0468C00002000300040FF0F00004B
:10079C0010B51948194B036096239B014360002345
:1007AC008360C36003610C2242618361C361036295
:1007BC004362836203F07EFF002811D10E480021B2
:1007CC0003F0FCFF00280ED10B48002104F01CF8AC
:1007DC0000280BD1084803F0D1FF002809D110BD27
:1007EC00FFF7A0FEEAE7FFF79DFEEDE7FFF79AFEA5
:1007FC00F0E7FFF797FEF2E79C000020003801407D
:10080C0010B59AB004001422002115A804F01CFBAA
:10081C004C22002102A804F017FB22681B4B9A42C1
:10082C0001D01AB010BD0123029302A803F0DEF828
:10083C00002828D1164B1A6C8021C9010A431A646E
:10084C001A6C0A400092009A596B012211435963A9
:10085C005B6B13400193019BC023DB0015930223B8
:10086C0016931792002318931992A02015A9C0056E
:10087C0002F0C0FB002201211B2002F011F91B2009
:10088C0002F012F9CDE7FFF74DFED3E70038014037
:10089C000010024000B583B00B4B196C01221143C0
:1008AC001964196C0A400092009ADA6B8021490590
:1008BC000A43DA63DB6B0B400193019BC020C00041
:1008CC0002F096F803B000BD00100240FEE7FEE710
:1008DC007047704710B502F055F810BD10B50248BE
:1008EC0003F050FA10BDC0469C0000207047F0B5D4
:1008FC001300203B11D404009C4005009540564247
:10090C003F233340203B11D40800D84052423F23B0
:10091C001340D94028432143F0BD20239B1A0400E7
:10092C00DC4023000C0094401C43E6E756423F2376
:10093C0033402026F61A0F00B740D8403843E5E77D
:10094C00F0B5060000230020002108E020252D1B17
:10095C001700EF403D00A240104329430133072B01
:10096C0008D8F25CDC002500203DEFD41700AF4026
:10097C003D00F0E7F0BD70B500210AE020252D1BED
:10098C001E00AE4035001600E64034002C434454A3
:10099C000131072906D8CC002500203DEED41C00DF
:1009AC00EC40F4E770BD30B50023002404E0C25CD9
:1009BC00CD5C6A4014430133072BF8D963425C4188
:1009CC00E0B230BD0170090A4170704701700B0A2A
:1009DC0043700B0C8370090EC170704703000078D4
:1009EC005B781B0218437047030000785A78120298
:1009FC0010439A7812041043DB781B061843704797
:100A0C0010B50C00022800D9002093009B185B0144
:100A1C009B1A59015B189B009B1A5901CB1A19029E
:100A2C00C91A49008918C900891861400A0C4A4042
:100A3C00064B5343DA0B5A40012313400133C018C1
:100A4C000321FFF7BBFBC8B210BDC0462D35EB7FB1
:100A5C0030B5050000240C480DE0400080B2013395
:100A6C00072B07D802B2002AF7DA400082B20748F7
:100A7C005040F4E701348C4204D22B5D1B025840E9
:100A8C000023EDE730BDC046FFFF00002110000041
:100A9C00F0B5DE4657464E464546E0B59BB00600DF
:100AAC0017919346FFF74CFF05000C0030000830FF
:100ABC00FFF746FF0022002302920393704B6B401A
:100ACC000293704B6340039300220023049205931E
:100ADC006D4B434004936D4B4B4005930022002318
:100AEC00009201936A4B6B4000936A4B63400193F5
:100AFC00694B43401593694B4B4016935B461B0661
:100B0C009946002398461893DA464B4619938CE085
:100B1C0017984044FFF714FF83468946159B4340C2
:100B2C000693169B4B400793029C039D04980599D2
:100B3C0024184D410D22FFF7DAFE60400890694001
:100B4C000991202220002900FFF7D1FE06000F009A
:100B5C00009C019D0698079924184D411022FFF71F
:100B6C00C6FE60400A9069400B910A980B993618A2
:100B7C004F411522FFF7BBFE70400C9079400D9150
:100B8C000898099924184D411122FFF7B0FE6040D6
:100B9C000E9069400F91202220002900FFF7A7FE3C
:100BAC0004000D000E980F9936184F410D22FFF7D7
:100BBC009EFE704010907940119120223000390037
:100BCC00FFF795FE06000F000C980D9924184D4167
:100BDC001022FFF78CFE604012906940139112981E
:100BEC00139936184F411522FFF781FE704015906E
:100BFC00794016911098119924184D411122FFF744
:100C0C0076FE604004906940059120222000290066
:100C1C00FFF76DFE009001915B46734002934B46CB
:100C2C007B40039308239C46E044534642469B1A60
:100C3C00072B00D96CE7D346189B9A46199B99460B
:100C4C0000214646179B9C465F46D0464C460AE020
:100C5C002025AD1A1800E8400500934042461A437F
:100C6C0090462C4301317318BB4219D26246D35CB7
:100C7C00CA001500203DEBD41800A8400500ECE795
:100C8C0075657370656D6F736D6F646E61726F6493
:100C9C006172656E6567796C73657479626465748D
:100CAC00A146159B424653401C00169B4A46534096
:100CBC001D00029A039B0498059912184B4104924B
:100CCC0005930D22FFF713FE0E0000220023029263
:100CDC000393049A059B11004140029110001900E6
:100CEC00734003932022FFF702FE04900591009AB3
:100CFC00019B12196B4116001F00102220002900C5
:100D0C00FFF7F5FD32003B004640340016004B4027
:100D1C001D000499059A09196A4100910192152246
:100D2C0020001900FFF7E3FD00240025049405952D
:100D3C00009B019C1D0045400495200048400590F7
:100D4C0032003B000298039912184B4116001F0009
:100D5C001122FFF7CCFD3200424014003A004A4009
:100D6C001500202230003900FFF7C1FD02900391DD
:100D7C00009E019F36196F410D2220002900FFF7BC
:100D8C00B6FD00230024009301947040009079403C
:100D9C000191202230003900FFF7A9FD06000F0059
:100DAC00029A039B0498059912184B4114001D00DC
:100DBC001022FFF79CFD0494059544402000059CEF
:100DCC004C40210036184F411522FFF790FD0023AF
:100DDC00002402930394340044400294069607972F
:100DEC003B004B400393049A059B00980199121801
:100DFC004B4114001D001122FFF779FD22002B003E
:100E0C004440260014004B401F00202220002900E3
:100E1C00FFF76DFD4446069D6C4022004C46079D35
:100E2C006C4023000024002500940195FF344440BD
:100E3C000094019192197B4114001D000D22300089
:100E4C003900FFF754FD002200230492059326007D
:100E5C00464004962B004B4005932032200029007D
:100E6C00FFF745FD06900791009A019B02980399A4
:100E7C0012184B4114001D001022FFF738FD220000
:100E8C002B0044402600029203934B401F0006990E
:100E9C00079A89197A410C001500152230001900A7
:100EAC00FFF725FD002200230092019322002B0066
:100EBC0044400094069207934B400193029A039B83
:100ECC000498059912184B4116001F001122FFF7C8
:100EDC000EFD32003B004640340016004B401D0016
:100EEC00202230003900FFF702FD02900391069991
:100EFC00079A09196A410E0017000D2220002900DB
:100F0C00FFF7F5FC002300240493059434004640BD
:100F1C0004963B004B400593202220003900FFF73C
:100F2C00E6FC06900791029A039B0098019912180F
:100F3C004B4114001D001022FFF7D9FC22002B009E
:100F4C0044402600029203934B401F000699079AD7
:100F5C0089197A410C001500152230001900FFF791
:100F6C00C6FC002200230092019322002B00444077
:100F7C000094069207934B400193029A039B0498AA
:100F8C00059912184B4116001F001122FFF7AFFCF8
:100F9C0032003B004640340016004B401D0020221E
:100FAC0030003900FFF7A3FC029003910699079AD1
:100FBC0009196A410E0017000D2220002900FFF7C5
:100FCC0096FC0023002404930594340046400496B8
:100FDC003B004B400593202220003900FFF787FC93
:100FEC0006900791029A039B0098019912184B41A5
:100FFC0014001D001022FFF77AFC22002B00444045
:10100C002600029203934B401F000699079A8919F8
:10101C007A410C001500152230001900FFF767FC0F
:10102C00002200230092019322002B0044400094E4
:10103C00069207934B400193029A039B04980599DF
:10104C0012184B4116001F001122FFF750FC320002
:10105C003B004640340016004B401D00202230005F
:10106C003900FFF744FC06000F000699079A09198E
:10107C006A41049105920D2220002900FFF737FCEC
:10108C000022002302920393049B059C1A00424009
:10109C00029222004A400392202218002100FFF7FE
:1010AC0026FC0490059134003D0000980199241809
:1010BC004D411022FFF71BFC02000B006240100098
:1010CC006B401900049E059F36184F411522FFF7FF
:1010DC000EFC7040834679408A4602980399241886
:1010EC004D411122FFF703FC604081466940884660
:1010FC00202220002900FFF7FAFB4A4672404346A3
:10110C007B40504059405B465840534659401BB0B9
:10111C00F0BCBB46B246A946A046F0BDF8B5CE46DB
:10112C00474680B504001500984600284ED0002A8A
:10113C004ED0002B4ED0167C202E4DD81323994622
:10114C00B14437001D378F4201D9002745E03F33AA
:10115C00037001334370513B83701378C370518813
:10116C000430FFF72FFCA988A01DFFF72BFCAB79EF
:10117C002372EB796372A96820000A30FFF726FC12
:10118C00E96820000E30FFF721FC2A7CA274002AAB
:10119C0015D149462000FFF75BFC01004B46E018D7
:1011AC00FFF710FC350015352A0021004046FFF7EB
:1011BC006FFC02000B006019FFF7DDFB0DE029004E
:1011CC0011312000133003F06BFEE2E7002704E03E
:1011DC00002702E0002700E000273800C0BCB94619
:1011EC00B046F8BDF0B5CE46474680B583B0060094
:1011FC000C001D00002862D0002962D0002B62D0A8
:10120C001C2A62D90B78522B65D14B78532B64D1A5
:10121C008878022863D18F7C202F57D8403B984682
:10122C00B8443B001D339A4202D04FD201384DE0F6
:10123C0041462000FFF70CFC81464346E018FFF7BF
:10124C00CDFB484501D0052040E015239846B84415
:10125C00424621002800FFF71BFC02000B006846E9
:10126C00FFF789FB4346E1186846FFF79CFB002813
:10127C0037D0E3783370201DFFF7B0FB7080A01DD2
:10128C00FFF7ACFBB080237AB371637AF371200063
:10129C000A30FFF7A9FBB06020000E30FFF7A4FB6B
:1012AC00F0603774002F01D138000FE0300011309E
:1012BC00210013313A0003F0F3FD002006E0022078
:1012CC0004E0022002E0022000E0012003B0C0BCD8
:1012DC00B946B046F0BD0320F8E70320F6E704203A
:1012EC00F4E70620F2E7002804D000233D228354C3
:1012FC0001328354704770B504001000002C4AD0A2
:10130C00002A4AD0002B4AD03D22A55C002D09D1E1
:10131C00522902D00025280070BD6A1C3D23E254DE
:10132C006155F8E7012D10D03C2D19D86A1CD2B2AA
:10133C003D26A2556155132A17D03E21615C002928
:10134C002FD08A421DD00025E5E75329ECD0522935
:10135C0000D000253D23E554153323700025DAE732
:10136C002000FFF7C0FF0025D5E7A17C202903D87A
:10137C001D313E256155E0E72000FFF7B4FF002545
:10138C00C9E72100FFF72EFF43425841C5B22000A8
:10139C00FFF7A9FFBFE70025BDE70025BBE7002548
:1013AC00B9E70025B7E710B5031E26D00078002852
:1013BC0010D05C688C4222D19968914210D3891A62
:1013CC001F291ED801228A40D9680A421BD1114319
:1013DC00D96004E00130187059609A60D86010BD73
:1013EC00511A1F2905D8DC688C40210001242143A7
:1013FC0000E00121D9609A60F1E70020EFE70020BE
:10140C00EDE70020EBE70020E9E7002804D00023FB
:10141C00037043608360C360704770B504000D00B7
:10142C00012303700B78437049880230FFF7CAFA26
:10143C002B7923716B79002B0BD00123AA79002A0D
:10144C0009D00222134363712989A01DFFF7BAFA50
:10145C0070BD0023F2E70022F4E770B5040015001C
:10146C00FFF7B4FA201D2900FFF7B0FA70BD411A3E
:10147C00002091424041C0B27047401AC043C00F97
:10148C00704770B5040015001E00DD23C1540133F4
:10149C00C254036900680A00002198472369206838
:1014AC002A0001219847636920683200012198477E
:1014BC0070BD10B50400D622835A0B4380210B4318
:1014CC008352E023D53AC2540023BC328354426B7E
:1014DC008263DA228354023204218154033283540E
:1014EC004369006800220021984701230022002153
:1014FC002000FFF7C6FF10BD10B504000800E02364
:10150C00E35C002B03D0BD23E35C002B0BD0E22368
:10151C00E35C002B07D0FA22C423E1585200FFF7FA
:10152C00A6FF002800D110BD04212000FFF7C1FF49
:10153C00F9E70378013BDBB2012B01D9002070479E
:10154C00037C002B04D0437C012B03D00020F6E756
:10155C000020F4E70120F2E70378022B03D0032BE1
:10156C0009D000207047027C002AF8D0407C43420E
:10157C005841C0B2F6E7037C002B04D0437C002B0F
:10158C0003D00020EEE70020ECE70120EAE7002280
:10159C0001E00132D2B2BC23C35C934208D91300E0
:1015AC000E339B00C3185B688B42F2D1012000E024
:1015BC000020704710B5E023C35C002B03D0BD2383
:1015CC00C35C002B2BD0D823C35A002B27D1DA3382
:1015DC00C35C022B02D80133DA228354DA23C35CB6
:1015EC00022B1CD9BD23C35C002B07D00023E022A7
:1015FC008354233A8354193283528363D622835AF9
:10160C0020218B438352DF23C35C002B02D1DC33BC
:10161C00D43AC254002301220121FFF732FF10BD3E
:10162C0070B50400E023C55CBC22835C581CA0543C
:10163C000E339B00E3185960616300231E32A354E0
:10164C000A3AA35020002530FF30FFF7DEFE002DB4
:10165C0005D0D823E35A002B05D0002200E000224D
:10166C00BD23E25470BD0122FAE7F0B5C64600B5C1
:10167C009EB004000F0090461E0011AD34220021D4
:10168C00280003F0E1FB2F7002236B80013BAB8041
:10169C00DA33E35CEB71236B5A1C22631393E36A1A
:1016AC0014932E74002E08D04346002B05D0320024
:1016BC0041465520684403F0F3FB23001C3311AA68
:1016CC003D2101A8FFF72AFD021E05D0A368206862
:1016DC0001A99847051E05D1002528001EB080BC25
:1016EC00B846F0BD11AB139A1499D879FFF788F965
:1016FC00DB23E054F1E710B582B004006B4619709F
:10170C00DC23C35C69464B70DD23C35C002B17D014
:10171C000123DE21615C002914D002210B436946B0
:10172C008B70D623E35CCB70110001A8FFF74EF948
:10173C0008236A4604212000FFF797FF02B010BD72
:10174C000023E6E70021E9E7F8B504000D001700D7
:10175C001E009A225200002103F076FB2000290083
:10176C002CC92CC02CC92CC00B680360043010226F
:10177C00390003F095FBE662012323632000E3307C
:10178C00FFF7B1FD6369206800220021984701230F
:10179C00002200212000FFF774FEF8BD10B5002ACE
:1017AC0008D1D822835A8B438352023A835A8B43F3
:1017BC00835210BDD822835A0B438352FFF779FE14
:1017CC00F7E7000030B583B004000A00416B6846AF
:1017DC00FFF743FEE568206808236A460549A847D9
:1017EC00002801D003B030BD012240212000FFF7BA
:1017FC00D5FFF7E71105000070B582B004001500A5
:10180C000B7C072B0BD9E023C35C002B07D1D833FF
:10181C00C35A002B03D1DC33C35C022B01D002B0C2
:10182C0070BD15310800FFF7DFF80600D023E35830
:10183C008342F4D2D023E050D422A35A0133A352D2
:10184C00DC23D13AE2540333023AE2546435133BBD
:10185C00E550636920680021984731002000FFF7AC
:10186C00B1FFE023E35C002BD9D131006846FFF7D0
:10187C00ADF8D423E15A01A8FFF7A4F8DB23E35C0D
:10188C006A4693710123D371E568206807330549D3
:10189C00A8470028C3D1012240212000FFF77EFF7A
:1018AC00BDE7C04612050000F0B58FB00400030080
:1018BC001C33E33001AAFFF71EFD002834D001AB26
:1018CC005B88012B30D101AB9B88022B02D0744A70
:1018DC00934229D1636820689847050001002000D5
:1018EC00FFF70AFE01AB1E78731EDBB2012B1DD96C
:1018FC00032E19D101AB1B7C082B15D101AB5B7CE2
:10190C00022B01D0002B0FD192235B00E75C002F40
:10191C0003D0049A636B9A4236D001A8FFF71CFEE1
:10192C0000280CD1012E1FD00FB0F0BD01AB1B7CD9
:10193C000C2BDDD101AB5B7C012BD9D8E4E7022168
:10194C002000FFF7B6FD01AD039A0499E879FFF783
:10195C0057F8DB23E054AB79DB07E5D5AA68297887
:10196C002000FFF7C8FEDFE704992000FFF70FFE09
:10197C000028D9D1BC23E35C1F2BD5D8002F56D11E
:10198C0004992000FFF74CFE92235B00E35C002BD4
:10199C000AD0039A96235B00E3589A4204D801A814
:1019AC00FFF7DAFD0028BFD0039A049920002530F8
:1019BC00FF30FFF7F8FC0028B6D0C423E5501E33E7
:1019CC000122E25401A8FFF7B4FD002807D101ABB6
:1019DC001B78032B05D101AB5B7C022B01D1C023FF
:1019EC00E55001AE039A0499F079FFF709F8DB236F
:1019FC00E0543000FFF7B0FD00281DD101AB1E787C
:101A0C00012E29D001A8FFF794FD002843D1032E05
:101A1C0016D101AB1B7C002B12D001AB5B7C022BD3
:101A2C000ED12A0001A92000FFF7E6FE08E00221F2
:101A3C002000FFF73EFDA3E702212000FFF739FD50
:101A4C0001AB9B79DB0700D46EE701AB039A1978E5
:101A5C002000FFF750FE67E71B7C002BD2D001ABB8
:101A6C005B7C002BCED1DE33E35A002B0ED1DA2374
:101A7C000022E2540633E35C9342E1D10121DC23E2
:101A8C00E1540B002000FFF7FCFCD9E702212000F9
:101A9C00FFF70FFDEBE72000FFF78CFDD0E7C0460A
:101AAC00FFFF000030B587B00400DC23C35C03AA41
:101ABC001370D621415A5180E222825C002A07D051
:101ACC00E022825C002A03D1023BDBB2012B1AD943
:101ADC00DB23E35C03A90B71DD23E35C4B71DE2399
:101AEC00E35C8B71D423E35A0B8101A8FFF795FCBF
:101AFC00E568A2212068082301AAC900A84700288C
:101B0C0006D007B030BD0123194303AB5980DFE782
:101B1C00012240212000FFF741FEF2E770B50400DE
:101B2C004368006898470500E123E35C002B0FD164
:101B3C00E1330122E254013BE35C002B31D0DC2386
:101B4C000332E254DB3B002200212000FFF799FC1A
:101B5C0029002000FFF7D0FCDF23E35C002B14D01E
:101B6C00CC23E1582800FFF788FC00280DD0DF2398
:101B7C000022E2546369206800219847E023E35C6B
:101B8C00002B02D1DC330222E254C823E15832226A
:101B9C002800FFF76CFC00280DD1A369206898473A
:101BAC0070BDDC230122E254DB3B0022012120002A
:101BBC00FFF767FCCCE7C823E5502000FFF772FF66
:101BCC00EBE7000010B5064B18680649FEF770FAF3
:101BDC00013001E0C0461800431E0028FAD110BDA8
:101BEC000000002020A1070010B5024801F004FB02
:101BFC0010BDC0468C00002070B58AB00D001600D8
:101C0C001C002422002101A803F01EF9082C02D08C
:101C1C0000200AB070BD01950823049304483200DB
:101C2C0001A901F095F943425841C0B2F1E7C04611
:101C3C002800002010B500F0B1FE10BD10B50A4A06
:101C4C005060002313609362084A1370084A1370A3
:101C5C00A02001221021C00501F093FA01220821D5
:101C6C00044801F08EFA10BD0C030020760200200F
:101C7C00750200200004005010B5A0200022102195
:101C8C00C00501F07EFAFFF79DFF10BD10B5FFF700
:101C9C0099FFA02001221021C00501F072FAFFF774
:101CAC0091FF10BD10B5D21A531E9A41D2B201F059
:101CBC0068FA10BD10B5002906D180310023490106
:101CCC000548FFF7EFFF10BD802100238901024872
:101CDC00FFF7E8FFF7E7C0460004005010B50029F5
:101CEC0006D180310123C9000548FFF7DBFF10BD89
:101CFC008021012309010248FFF7D4FFF7E7C04612
:101D0C000004005010B582B013000B4C032200925B
:101D1C000A000100200002F04DFF002802D1012032
:101D2C0002B010BD054AD3680133D3600120FFF720
:101D3C0085FF0020F4E7C046A80200200C03002019
:101D4C00F0B58DB001900091150000F027FE060053
:101D5C000027264B02930E22002103A803F074F8EF
:101D6C001222002107A803F06FF8FFF785FF02226B
:101D7C0007A902A8FFF7C6FF041E18D007AB5B78B3
:101D8C001B4A5364FF2B15D0FFF780FF00F006FEB3
:101D9C00801BA84203D20137164B9F42D9D9144A53
:101DAC009368013393600220FFF748FF0024200062
:101DBC000DB0F0BD009A002A0AD0162102AB9C4649
:101DCC006144981CFFF79EFF002804D10400EEE745
:101DDC00FFF75CFFEBE7FFF759FF009A162102AB08
:101DEC009C466144019803F05BF8E0E744FF000077
:101DFC000C0300209F860100F0B589B006000C0092
:101E0C0017001D004B1EDBB20F2B28D8102D01D94B
:101E1C00002025E00278134BDA6301221A640E9A33
:101E2C0000210020FFF78CFF002819D02200310080
:101E3C0004A803F035F8FFF71FFF2200694604A839
:101E4C00FFF760FF00280BD0FFF720FF054B0222A5
:101E5C001A640E9A29003800FFF772FF00E0002088
:101E6C0009B0F0BD0C03002030B587B0040005A804
:101E7C00CD239B00038004AB1B4A1A8002ABE43ACF
:101E8C00FF3A1A705C7000229A70DA703021197166
:101E9C005A7103329A71DA710523009300230022E0
:101EAC002E39FFF7A9FF002803D10025280007B021
:101EBC0030BD0523009300230022022104A8FFF764
:101ECC009BFF0028F1D0052300930023002208215A
:101EDC0002A8FFF791FF051EE7D0044B5C6200F0EF
:101EEC005DFD034B1860E1E7150200000C030020B8
:101EFC006C02002010B5084B1B68002B07D0064B5A
:101F0C009B6A002B03D1044B5B6A984200D110BD35
:101F1C00FFF7AAFFFBE7C0460C03002010B584B006
:101F2C000400202303931B3B009303330200042182
:101F3C0003A8FFF761FF002807D0A278044B9A642E
:101F4C00A279DA641A6D01321A6504B010BDC0466C
:101F5C000C03002010B5A0B06F4B1B68002B01D1F7
:101F6C0020B010BD04216D4801F004F9041E07D007
:101F7C0000F014FD6A4B1B68C01A092800D898E0C1
:101F8C0000F00CFD664B1860002C03D0624A136EF7
:101F9C00013313661EA8FFF7C1FF0028E0D01EAB6B
:101FAC009B7928221A421CD15B4B9B6A002B03D0D5
:101FBC001EAB9B789B061CD4574B9B6A002B78D18D
:101FCC001EAB9B7818221A4273D01B071CD5524AA1
:101FDC00936901339361504B586AC0B2FFF744FFC9
:101FEC00BEE74D4AD3690133D3610520FFF726FEC6
:101FFC00B6E7494B00229A621A6901321A61494BC1
:10200C001878FFF731FFABE7772304932D220021DB
:10201C0005A802F019FF03A815230380103B0093B9
:10202C00033B02AA0221FFF7E7FE002898D002AB7F
:10203C001B78302B03D00620FFF700FE90E7FFF74C
:10204C001BFE312211A904A8FFF75CFE002800D169
:10205C0086E7FFF71BFE344B1A78344B1B789A42F9
:10206C001FD311AB5A7813001D3BDBB2122BB2D825
:10207C002E4C22702C4B002119702D48463169448E
:10208C0002F00EFF00F08AFC2A4B18602A4BD86233
:10209C001969227852181A611F4A53690133536126
:1020AC0099E7254A536A013353620620FFF7C6FDB0
:1020BC0056E7194B9B6A002B1DD11B4B1A781B4BF7
:1020CC001B789A4200D04BE700F068FC1B4B1B6856
:1020DC00C01A96239B00984200D241E70E4B1A6A15
:1020EC0001321A62586A01300321FEF767F8C8B250
:1020FC00FFF7BAFE34E700F051FC114B1B68C01A15
:10210C00EF2800D82CE70C4A936901339361072020
:10211C00FFF794FD24E7C0460C0300200004005098
:10212C006402002074020020760200207502002058
:10213C007802002068020020780300206C02002046
:10214C0070020020F0B5A3B005000C0021ABCD222D
:10215C0092001A8020AB4D4A1A80662311932D22CF
:10216C00002112A802F070FE02AA494B19680291D4
:10217C00998891809B799371FFF7ECFE454B1B6816
:10218C00002B75D02F2C00D976E01C2C00D875E0D4
:10219C00EFF30583002B00D072E03E4B9B6A002BC3
:1021AC0007D0EB78032B00D06CE0EB7C002B00D03D
:1021BC006AE06B7A022B01D900245AE005230093C4
:1021CC0000230022022121A8FFF716FE002801D1CE
:1021DC0000244EE00523009300230022022120A8B6
:1021EC00FFF70AFE0028F3D01EA8FFF797FE002881
:1021FC00EED011AE7470220029004620684402F023
:10220C004FFEFFF739FD312204A93000FFF77AFDAC
:10221C00041E2ED0FFF73AFD6B7A02A843700523FB
:10222C000093002300220721FFF7E6FD041E20D0B7
:10223C006F7A28000E30FEF7D7FB060028000A3014
:10224C00FEF7D2FB020031003800FEF7D9FB124B2F
:10225C00187000F0A3FB114B18600E4B01229A6210
:10226C006A7A5A620E4B18635A6901325A6100E05D
:10227C000024200023B0F0BD0024FAE70024F8E786
:10228C000024F6E70024F4E70024F2E7150300002D
:10229C00705000080C030020740200207002002013
:1022AC007803002010B508001100FFF74BFF041E47
:1022BC0001D0200010BD034801220421FFF76EFA63
:1022CC00F7E7C0463001002010B500F07FFB04009A
:1022DC0000F082FBC001444000F084FBC008444085
:1022EC0000F05CFB6040074B9B6858404203424047
:1022FC00530C53405A01100058409A4200D010BD64
:10230C000120FCE710E000E030B587B0040005AB1D
:10231C0012221A7042785A7082789A70C278DA70E7
:10232C000025012D3BD8A3780522009202AA042196
:10233C0005A8FFF761FD002832D01A4A936D0133CE
:10234C009365211DA27802A802F070FD002801D12E
:10235C000135E6E7134B00225A669A660023A278F1
:10236C009A4211D9032B0FD80E4A516E181D205CBE
:10237C00DD00A84001435166916E02A8C05CA840E4
:10238C00014391660133EAE763781B02E278134359
:10239C00044AD3650820FFF751FC002000E001201F
:1023AC0007B030BD0C030020F0B5C64600B59EB09A
:1023BC0004001422002119A802F046FDB44B1A782F
:1023CC0018AB1A70B34B9A681692998916AA918019
:1023DC0014A91A00103260CA60C1AF4A1168129178
:1023EC00117912AA11710EA91A001832E0CAE0C1B3
:1023FC0012680A600BAA283361CB61C2A74BA84AAA
:10240C001A605C60A74A9A60A74BA84A5A63A84B0B
:10241C005A6B01252A435A635A6B2A400292029A3C
:10242C005A6B02273A435A635A6B3A400392039A07
:10243C001A6C802149010A431A641B6C0B400493EB
:10244C00049BA026F60501221021300000F099FE15
:10245C00984B984601220821180000F092FE102398
:10246C0019931A951B9500241C9419A9300000F09F
:10247C00C1FD082319931B9519A9404600F0BAFD1C
:10248C00042319931A941B9519A9404600F0B2FD28
:10249C00E02319931A971B941C941D9419A93000CE
:1024AC0000F0A8FD8448854B036082235B004360E9
:1024BC008460E023DB00C3600461446180239B00E3
:1024CC008361C93BFF3BC361046244628462313B5C
:1024DC00C3620463446302F0EBFA00280CD10520BC
:1024EC0000F062FA00220821724800F04AFE142023
:1024FC0000F05AFA002415E00120FFF79FFB1EB0F4
:10250C0080BCB846F0BD0320FFF798FBF7E74833D3
:10251C00FF330093002300222900FFF76DFC0028F5
:10252C00EDD02C19664A944213D8664A155D002DDD
:10253C000FD05D4A94630134102DE4D8624B1B1B01
:10254C009D42E0D85F4BE0181B5D172BDFD01423A6
:10255C00DFE75B4A94421AD805230093033309AA98
:10256C00012118A8FFF748FC0028C8D009A94B780E
:10257C001B028A7813434C4AD3620B781363D26ADA
:10258C00524B9A4207D00420FFF758FBB7E70320C1
:10259C00FFF754FBB3E70523009300230022062129
:1025AC0016A8FFF729FC0028A9D0052300930023C7
:1025BC000022082114A8FFF71FFC00289FD0052338
:1025CC00009300230022052112A8FFF715FC002818
:1025DC0095D007A8FFF7A2FC002800D18FE707AB26
:1025EC009B7928221A424BD114A8FFF78DFE0028A4
:1025FC0000D184E716A8FFF787FE002800D17EE7FC
:10260C0012A8FFF781FE002800D178E70EA8FFF78B
:10261C007BFE002800D172E70BA8FFF775FE00289F
:10262C0000D16CE700F0BAF9294B18600020FFF7D5
:10263C001BFC002800D162E7264B05930523009371
:10264C00013B06AA190005A8FFF7D6FB002800D10C
:10265C0055E7069A144B5A6506AB1B78052B0BD124
:10266C0006AB5B78382B07D106AB9B78002B03D1DC
:10267C0006ABDB78282B07D00820FFF7DFFA3EE704
:10268C000520FFF7DBFA3AE7074B01221A6036E721
:10269C0020510008705000082451000878030020D5
:1026AC0044534552240926200C03002080C3C90141
:1026BC000010024000040050A8020020003001402D
:1026CC004E0200002C5100084F0200006344000031
:1026DC00640200201201040070B504000D00FFF725
:1026EC0039FC1B4B1B68002B30D01A4B1A781A4B39
:1026FC001B789A4201D3002029E000F04FF9174BC8
:10270C001B68C01A642810D8124B1B78002B19D0E8
:10271C00104A1378591C1170114AD35C2B70114A52
:10272C00536B01335363012011E00A4B0A4A1278B0
:10273C001A702000FEF7D7FD0A4AD36B0133D3631E
:10274C00002004E02000FEF7CEFDE1E7002070BD84
:10275C000C03002076020020750200206802002085
:10276C00780200207803002070B590B009AD264B9C
:10277C002A0013CB13C213CB13C21B68136018228D
:10278C00002103A802F060FBA020002300220121FD
:10279C00C005FFF787FA00230393049302220592E6
:1027AC00013206920793194B0893194C03A9200088
:1027BC0000F06EFB0123009302220221200000F0A6
:1027CC0096FBFFF781FD0300124A134E29003000DF
:1027DC00FEF7BAFF200000F0A5FB002808D102206C
:1027EC00FFF7E2FD0D4B1B68002B07D010B070BD3E
:1027FC00094801224021FEF7D1FFF0E706480122EB
:10280C000421FEF7CBFFF1E7A4500008FF070000FE
:10281C00280000207C530008300100200C0300200D
:10282C0030B58DB0314B962252009D5830486946D8
:10283C0000F0B7FB002802D1059B002B04D02B48DD
:10284C0001224021FEF7AAFF2848FFF767F98023F1
:10285C0006E02F236B4419782448FFF725F8230052
:10286C005C1E002B06D023482F216944FFF734FF50
:10287C000028EED11D4B962252009B58AB4224D11E
:10288C001D4B1B68002B26D0184C2000FFF746F977
:10289C0000F084F8194BD860C022A2581A64DC22CC
:1028AC00A25C5A64D622A25A9A64DD23E35C002B04
:1028BC0017D001230D4ADE21525C002A13D00222CC
:1028CC0013430E4AD3650DB030BD084B513A985C9A
:1028DC00FFF710FBD4E7054801220421FEF75EFF49
:1028EC00D2E70023E6E70022EAE7C04630010020E9
:1028FC0028000020130200200C0300207803002085
:10290C007047000010B50400114B1978002901D153
:10291C00012010BDFA208000FDF7CAFB01000D4B11
:10292C001868FDF7C5FB00F0CBF800280DD1032C7F
:10293C0001D90120EDE7013000222100404200F0D6
:10294C00AFF8054B1C600020E3E70120E1E7C0462F
:10295C0004000020000000200800002010B5084AE8
:10296C00116880235B000B4313600320FFF7CAFF41
:10297C00041E02D00124200010BDFDF78BFFFAE7E6
:10298C0000200240034B1B78034A11685B1813604C
:10299C007047C0460400002064040020014B1868F6
:1029AC007047C0466404002070B50400FFF7F6FFC2
:1029BC000500631C02D0044B1B78E418FFF7EEFFF4
:1029CC00401BA042FAD370BD04000020014B1868D4
:1029DC007047C0469075FF1F014B18687047C04682
:1029EC009475FF1F014B18687047C0469875FF1F00
:1029FC00034A136803490B40034313607047C046F6
:102A0C0000000140FFF9FFFF70B5002811DB8308BF
:102A1C00134DC0339B005C5903221040C000FC32A4
:102A2C0016008640B44389010A40824022435A5121
:102A3C0070BD0F230340083B9B0806339B00094ADB
:102A4C00944663445C6803221040C000FC321500BD
:102A5C008540AC4389010A40824022435A60E7E733
:102A6C0000E100E000ED00E0013880235B049842B7
:102A7C000FD2094A50600948036A1B021B0AC02185
:102A8C0009060B4303620023936007331360002095
:102A9C0070470120FCE7C04610E000E000ED00E0CC
:102AAC0010B5FFF7B1FF10BD002805DB1F22024057
:102ABC0001239340014A13607047C04600E100E0D7
:102ACC0010B5FFF7D1FF10BD10B5002833D025236A
:102ADC00C35C022B06D00423C36320330022C254F0
:102AEC00012010BD01680A6801239A430A6001683D
:102AFC000A680E24A2430A60816C0A680F4C2240BB
:102B0C000A60416C1C220A40016C93404B60C36C00
:102B1C00026D5A60436D002B05D01A6822401A6072
:102B2C00836DC26D5A6025230122C254013B0022E1
:102B3C00C2540020D5E70120D3E7C046FFFEFFFFBB
:102B4C0010B52523C35C022B03D00423C3630120DF
:102B5C0010BD01680A6801239A430A6001680A687B
:102B6C000E24A2430A60816C0A68114C22400A6050
:102B7C00416C1C220A40016C93404B60C36C026D8B
:102B8C005A60436D002B05D01A6822401A60836D81
:102B9C00C26D5A6025230122C254013B0022C2544B
:102BAC00836B002B02D098470020D1E70020CFE7A1
:102BBC00FFFEFFFF30B50468184B9C4223D0184928
:102BCC0001648022A358174D2B40456B2D042B43D9
:102BDC00A3500B00703343640568AB58124C234070
:102BEC00846B24062343AB500B00B0338364D8337F
:102BFC00C36498239B00CB1803659E239B00CB18C2
:102C0C0043650B0003E00949DAE7002204C3D42230
:102C1C0092008A189A42F8D830BDC046006800402D
:102C2C0000B40040FFFFE0FFFFFFFFF050B7004093
:102C3C00F0B51F004B68002B1AD10D698B681D4332
:102C4C000B689B041D430C6A2406CB691C438B69DF
:102C5C001C434B691C43CB681B041C43466DFB0097
:102C6C00DB19DB00F618356074600836002015E0BF
:102C7C000B698C6823430C6823438025ED051D43A9
:102C8C00E1E71418E3781B06A5782D042B43647830
:102C9C0024022343145C234308C60430CB68024C43
:102CAC00E35C8342EDD8F0BD8C53000870B5041E74
:102CBC0000D1E1E05C23C35C002B19D0226893693E
:102CCC0010218B439361FFF769FE0500226893691D
:102CDC001B0713D5FFF762FE401B0A28F6D9236E9B
:102CEC000122134323665C230232E254012070BD9F
:102CFC005D330022C254FDF7A7FCDFE79369012185
:102D0C000B439361FFF74AFE050022689369DB07CA
:102D1C000DD4FFF743FE401B0A28F6D9236E01227F
:102D2C00134323665C230232E2540120DFE79369EC
:102D3C0002210B4393612268504B9A4243D0237C6F
:102D4C00012B44D02268936940210B439361637C2F
:102D5C00012B42D02268936949490B409361A37CB3
:102D6C00012B41D02268916980235B010B43936155
:102D7C002268936943490B40A1680B439361226815
:102D8C009369A4218B4393612268136994398B4313
:102D9C001361E368012B2DD0002B30D0022B54D0C3
:102DAC002268936980210B439361226813697039FF
:102DBC000B431361E368032B21D122689369103113
:102DCC000B4393611BE062682F4B1A60B7E72268D4
:102DDC00936940218B439361B9E722689169802301
:102DEC00DB010B439361BAE72268936927490B40D7
:102DFC009361BDE7226893690C390B439361A36916
:102E0C00013B5B06E269013A12021343226A013A62
:102E1C0013436269013A120421681343CB61A2681F
:102E2C00C0239B009A4216D02168C0228B58E06BBD
:102E3C0003438B502000FFF7BDFE0023A3652366E0
:102E4C005C330122E254002051E72268936920216F
:102E5C000B439361D3E7A36A013BE26A013A120286
:102E6C001343226B013A12011343626A013A1204B2
:102E7C0021681343CB60D7E7012038E7006400409A
:102E8C00FFBFFFFFFFFCFFFF00650040FFEFFFFFF0
:102E9C0010B55C23C35C013BDBB2012B05D9036E7F
:102EAC00022213430366012010BD0B68002B0FD1C7
:102EBC008B689B07CA68D20613430A691204134332
:102ECC004A691343006C4A68920083500020EBE778
:102EDC00CA6852070B691A438B689B074C692343DA
:102EEC00406C4968C90041180A604B60EEE770B548
:102EFC005C24045D012C05D0036E0422134303668D
:102F0C00012070BD05687F3428593F26B043090164
:102F1C00920011435B001943049B1943014329514F
:102F2C000020EEE75C23C35C012B05D0036E04226A
:102F3C0013430366012070475B330222C2540268BC
:102F4C00936901218B439361002303660020F2E710
:102F5C0070B504005C23C35C022B1CD10068C23327
:102F6C00C3589B0206D5226E80239B001343236615
:102F7C00012015E0C423C3581B0C03251D402B0056
:102F8C002000FFF755FE21680123AB40CC228B506B
:102F9C00A365002004E0036E08221343036601209E
:102FAC0070BD03685B6C0722100018400860180A9B
:102FBC0002404A6018221A408A60580901221040C7
:102FCC00C860980910400861D80910404861D80AB7
:102FDC0010408861180B1040C861580B10400862F3
:102FEC00980B02404A621B0C7F2213408B6200201C
:102FFC0070470000F0B5002359E086685F00032499
:10300C00BC40A643CC68BC403443846044689443C1
:10301C004E683609012232409A402243426056E003
:10302C00DE080836B600375805321A4092000F24D5
:10303C009440A7430C69944022003A43325059E023
:10304C00042600E00026A64034003C43444E1832CF
:10305C00920094513768EA433E00AE434C68E40258
:10306C0001D53E002E433E4C266067683E0016405C
:10307C004C68A40201D53E002E43394C6660842670
:10308C00A7593E0016404C68A40301D53E002E43C0
:10309C00334C8427E6518026A65932404C68E40311
:1030AC0001D52A0032432E4D80242A5101330C685D
:1030BC002200DA4053D001229A40250015401442D8
:1030CC00F4D04E6803243440013C012C95D94C6853
:1030DC0003222240032A08D0C4685E000322B240B7
:1030EC0094438A68B2402243C2604C680322224057
:1030FC00022A95D004685E0003221700B740BC4337
:10310C004F683A40B240224302604C68C02292029F
:10311C001442CBD09A0814001834A400104EA759AE
:10312C0003241C40E4000F26A640B743A026F60556
:10313C00B04287D00B4EB0420BD00B4EB0420AD0EF
:10314C000A4EB04209D00A4EB04200D178E70526AB
:10315C0079E7012677E7022675E7032673E7F0BDCA
:10316C00001802400004005000080050000C0050F1
:10317C000010005003690B4201D001207047002061
:10318C00FCE7002A01D0816170478162FCE70000F6
:10319C0070B5041E28D00368144A1A600368144AD8
:1031AC001A60036842685A60036882689A60FFF785
:1031BC00F5FB05002268D3685B070AD0FFF7EEFB2E
:1031CC00401B3128F6D92368DB685B07F2D003205B
:1031DC000BE01169E368994202D01361002004E00E
:1031EC00044B1360002000E0012070BDCCCC00002B
:1031FC0055550000AAAA00000368024A1A60002074
:10320C007047C046AAAA000010B5104A13681049AE
:10321C000B400343136080239B00984201D0002095
:10322C0010BD0C4B1B685800C01840000A49FCF735
:10323C003FFF0130054B5B695B0503D5002803D0CC
:10324C000138F7E70020EBE70320E9E700700040C6
:10325C00FFF9FFFF0000002040420F0070B582B064
:10326C00041E00D15EE20368DB0739D5C14A9168C0
:10327C0038230B40D16803220A40102B26D0082B90
:10328C0026D063688022520293427FD0A022D202C1
:10329C00934200D181E0B74B1A68B7490A401A60D3
:1032AC001A68B6490A401A606368002B00D180E0A6
:1032BC00FFF774FB0500AF4B1B689B0310D4FFF7A3
:1032CC006DFB401B6428F6D903202CE2032AD6D1CF
:1032DC00A84B1B689B0303D56368002B00D124E229
:1032EC0023689B0731D5A34A916838230B40D168DA
:1032FC0003220A40102B6AD0002B6BD19D4A126816
:10330C00520503D5E268002A00D110E299484268C0
:10331C009B490A40616909020A434260002B0DD1A6
:10332C00036898490B4021690B4303600368DB0A6F
:10333C0007221A40944BD340944A1360944B18685C
:10334C00FFF7E0FA002800D0F3E123681B0700D454
:10335C0081E0884B9A6838231340182B73D0A369EB
:10336C00002B00D1B4E0834A136E01210B4313668A
:10337C00FFF714FB05007F4B1B6E9B076BD4FFF70D
:10338C000DFB401B0228F6D90320CCE1794A1168C9
:10339C0080235B020B43136086E7764B196880220F
:1033AC00D2020A431A601968802252020A431A6038
:1033BC007AE7FFF7F3FA05006E4B1B689B038FD57A
:1033CC00FFF7ECFA401B6428F6D90320ABE1022A84
:1033DC0092D193E7E368002B22D0664A13686949BF
:1033EC000B4021690B431360116880235B000B4376
:1033FC001360FFF7D3FA05005E4B1B685B0506D420
:10340C00FFF7CCFA401B0228F6D903208BE159496F
:10341C004B685B4A13406269120213434B6094E79A
:10342C00544A13685B490B401360FFF7B7FA050069
:10343C00504B1B685B0588D5FFF7B0FA401B022880
:10344C00F6D903206FE14B4B1B6E9B0703D5A36989
:10345C00002B00D16FE123685B0700D4A2E0454B41
:10346C009A6838231340202B45D0424BDB6BDB0092
:10347C004AD4404BDA6B802149050A43DA63DB6B93
:10348C000B400193019B0125434B1B68DB053DD58C
:10349C00A368012B4ED0052B52D0364BDA6D01218F
:1034AC008A43DA65DA6D03318A43DA65A368002B47
:1034BC0050D0FFF773FA06002E4BDB6D9B076FD4D1
:1034CC00FFF76CFA801B354B9842F5D903202AE1A3
:1034DC00284A136E01218B431366FFF75FFA050030
:1034EC00244B1B6E9B07B6D5FFF758FA401B0228DE
:1034FC00F6D9032017E11F4BDB6D9B0752D5A36850
:10350C00002B4FD101200EE10025BDE7224A1168A6
:10351C0080235B000B431360FFF740FA06001E4B41
:10352C001B68DB05B4D4FFF739FA801B0228F6D9E7
:10353C000320F8E00F4AD36D01210B43D365B5E7A7
:10354C000C4BDA6D04210A43DA65DA6D03390A4350
:10355C00DA65ABE7FFF722FA0600064BDB6D9B073B
:10356C001ED5FFF71BFA801B0C4B9842F5D9032094
:10357C00D9E0C04600100240FFFFFEFFFFFFFBFF3B
:10358C00FF80FFFFFFC7FFFF0024F40000000020B6
:10359C0008000020FFFEFFFF0070004088130000B1
:1035AC00012D19D023689B062FD5E369002B19D068
:1035BC006A4A11688023DB030B431360FFF7EEF9B3
:1035CC000500664B1B681B021FD4FFF7E7F9401B75
:1035DC000228F6D90320A6E0604AD36B60490B4061
:1035EC00D363DFE75D4A13685E490B401360FFF756
:1035FC00D5F90500594B1B681B0206D5FFF7CEF910
:10360C00401B0228F6D903208DE0236A002B00D141
:10361C0093E0524A916838220A40102A5AD0022B61
:10362C0012D04E4A136850490B401360FFF7B6F99D
:10363C0004004A4B1B689B0145D5FFF7AFF9001BF3
:10364C000228F6D903206EE0444A136846490B4021
:10365C001360FFF7A3F90500404B1B689B0106D5CF
:10366C00FFF79CF9401B0228F6D903205BE03B4A8C
:10367C00D3683E491940636AA06A0343E06A0002BA
:10368C000343206B0343606B0343A06B03430B4367
:10369C00D360116880235B040B431360D1688023D3
:1036AC005B050B43D360FFF779F904002B4B1B68C8
:1036BC009B0106D4FFF772F9001B0228F6D90320F0
:1036CC0031E000202FE0254AD36829490B40D36014
:1036DC00002028E0012B32D0204BDA680323134062
:1036EC00616A8B422DD170231340A16A8B422AD17F
:1036FC00FE21C9011140E36A1B02994225D1F8232E
:10370C009B031340216B8B4221D1E0231B051340FB
:10371C00616B8B421DD1520F5207A36B9A421AD187
:10372C00002000E0012002B070BD0120FBE7012069
:10373C00F9E70120F7E70120F5E70020F3E7012086
:10374C00F1E70120EFE70120EDE70120EBE7012095
:10375C00E9E70120E7E70120E5E7C0460010024059
:10376C00FFFFFFEFFFFFBFFFFFFFFFFE8C80C111CC
:10377C00FCFFFEEE10B52A4B9B6838221A4207D18B
:10378C00274B1A68D20A072313402648D84010BD8D
:10379C00234B9A6838231340082B3BD0204B9A6854
:1037AC0038231340102B0DD01D4B9A68382313402F
:1037BC00202B31D01A4B9A6838231340182B26D063
:1037CC000020E4E7164AD1680D3B0B40D268120981
:1037DC00072111400131032B0FD01248FCF768FC74
:1037EC000F4BDA68120A7F23134058430C4BD968ED
:1037FC00490F0131FCF75CFCC9E70B48FCF758FC9E
:10380C00074BDA68120A7F2313405843EEE7FA207D
:10381C00C001BCE70448BAE780200002B7E7C04605
:10382C00001002400024F40000127A0070B504006D
:10383C000D00002800D1AAE0574B1A68072313404B
:10384C008B4221D323689A070ED55B0705D5534AC3
:10385C009168E023DB010B439360504A9368504915
:10386C000B40A1680B4393602368DB0754D5636856
:10387C00012B20D0022B3BD0002B3FD1474A1268A2
:10388C0052051CD401206AE0434A136807218B437C
:10389C002B431360FFF782F806003F4B1A6807238F
:1038AC001340AB42CED0FFF779F8801B3D4A9042D3
:1038BC00F3D9032053E0394A1268920369D537498A
:1038CC008A680720824313438B60FFF767F8060072
:1038DC00324B9B6838221A406368DB009A421BD03B
:1038EC00FFF75CF8801B2F4B9842F1D9032036E090
:1038FC002A4A12689201E2D4012030E0032B05D051
:10390C00264AD26D9207DAD4012028E0234A126E9F
:10391C009207D4D4012022E01F4B1A6807231340CE
:10392C00AB421DD823685B0706D51C4A93681E4919
:10393C000B40E1680B439360FFF71CFF174B9A6831
:10394C00120A0F231340194A9B009A581F23134045
:10395C00D840174B1860174B1868FEF7D3FF70BD93
:10396C000D4A136807218B432B431360FFF716F89E
:10397C000600094B1A6807231340AB42D2D0FFF75D
:10398C000DF8801B074B9842F3D90320E7E7012081
:10399C00E5E70120E3E7C0460020024000100240AA
:1039AC00FFF0FFFF88130000FF8FFFFFE0500008BF
:1039BC000000002008000020014B18687047C0462A
:1039CC000000002010B5FFF7F7FF064B9A68120BAA
:1039DC0007231340044A9B009A581F231340D840D6
:1039EC0010BDC04600100240C0500008F0B583B0B6
:1039FC00040003689B0362D5AE4BDB6BDB001ED46B
:103A0C00AC4BDA6B802149050A43DA63DB6B0B4064
:103A1C000193019B0126A84A116880235B000B438C
:103A2C001360FEF7BBFF0500A34B1B68DB0508D436
:103A3C00FEF7B4FF401B0228F6D9032502E000264E
:103A4C00E9E70025002D23D19A4BD96DC0229200B5
:103A5C000B001340114210D0226C9A420DD0954AA3
:103A6C00D36D96490B40D06D802149020143D1653D
:103A7C00D16D93480140D165D365DB0710D4002D7F
:103A8C0006D18C4AD36D8D490B40216C0B43D36509
:103A9C00012E15D1874AD36B8A490B40D3630FE0B3
:103AAC00FEF77CFF0700834BDB6D9B07E7D4FEF72B
:103ABC0075FFC01B844B9842F5D90325DFE7002521
:103ACC002368DB0706D57B4A536D03218B43616862
:103ADC000B43536523689B0706D5764A536D0C211F
:103AEC008B43A1680B43536523685B0706D5714A6A
:103AFC00536D30218B43E1680B4353652368DB0620
:103B0C0006D56C4A536D71490B4021690B435365C3
:103B1C002368DB0406D5674A536D68490B4061691D
:103B2C000B43536523689B0506D5624A536D684960
:103B3C000B40A16A0B43536523685B0506D55D4AB0
:103B4C00536D64490B40E16A0B43536523689B0634
:103B5C0006D5584A536D60490B40A1690B43536518
:103B6C0023685B0606D5534A536D5C490B40E169EB
:103B7C000B43536523685B040BD54E4A536D9B0076
:103B8C009B08216B0B435365226B8023DB059A4208
:103B9C0062D023681B0306D5464A536D40218B43E4
:103BAC00616B0B43536523689B020BD5414A536DE4
:103BBC004B490B40A16B0B435365A26B8023DB037A
:103BCC009A4250D023685B020BD53A4A536D454953
:103BDC000B40E16B0B435365E26B80235B049A4211
:103BEC0048D023681B0509D5324A936D03218B43BA
:103BFC00216A0B439365236A012B40D023689B04F5
:103C0C0009D52C4A936D0C218B43616A0B43936548
:103C1C00636A042B39D02368DB010BD5254A936DDD
:103C2C002D490B40616C0B439365626C80239B01A7
:103C3C009A4230D023689B010BD51E4A936D1F49C5
:103C4C000B40A16C0B439365A26C80235B009A42E2
:103C5C0028D0280003B0F0BD164AD16880235B023F
:103C6C000B43D36095E7134AD16880235B040B4365
:103C7C00D360A7E70F4AD1680B43D360B1E7D16893
:103C8C0080235B020B43D360B8E7D16880235B02CF
:103C9C000B43D360BFE7074AD16880235B040B4317
:103CAC00D360C7E7034AD16880235B040B43D3601E
:103CBC00CFE7C0460010024000700040FFFCFFFF41
:103CCC00FFFFFEFFFFFFFFEF88130000FFF3FFFF76
:103CDC00FFFFF3FFFFFFCFFFFFCFFFFFFF3FFFFF14
:103CEC00FFFFBFFFFFFFFFFE30B5EFF31084012293
:103CFC0082F3108801680B68124D2B400B6084F323
:103D0C001088EFF3108182F31088026893680E4CD0
:103D1C002340936081F31088C36E012B06D08C2353
:103D2C002022C2500023C366436730BDEFF31081DD
:103D3C0083F31088026813681024A343136081F383
:103D4C001088ECE7DFFEFFFFFEFFFFEF704710B5BA
:103D5C00EFF31081012383F3108802681368402469
:103D6C00A343136081F3108888232022C2500023C0
:103D7C008367FFF7EBFF10BD10B5806AFCF7CDFB36
:103D8C0010BD7047F8B504000268D36910689168DB
:103D9C00BE4D2B420BD19D0611D5850601D4CD000D
:103DAC000DD5636F002B2AD02000984727E0B84D23
:103DBC000E002E40294223D1B64D284220D1E56E6B
:103DCC00012D00D1A4E0DD0202D54D0200D54AE15F
:103DDC001A0605D5020600D54CE1090200D549E1C9
:103DEC005A0602D5420600D54BE11A0202D5420012
:103DFC0000D559E1DB0102D5002800DA58E1F8BD05
:103E0C00DD0707D5C50505D5012717629025625931
:103E1C003A4362519A0709D5CA0707D52268022589
:103E2C0015628E35625904273A4362515A0709D5F7
:103E3C00CA0707D52268042515628C3562590227FA
:103E4C003A4362511A070AD5820601D4002E06D0D5
:103E5C0022680826166290256259324362511A056F
:103E6C000AD5420108D5226880252D0115629025BE
:103E7C0062592026324362519022A258002ABED0A9
:103E8C009B0608D5800601D4C90004D5636F002BAE
:103E9C0001D0200098479023E25823689B685B066A
:103EAC0002D4282313422CD02000FFF71DFF2368D7
:103EBC009B685B0621D5EFF31081012383F31088F7
:103ECC002268936840208343936081F31088802399
:103EDC00E358002B0DD0704A9A638023E058FEF70C
:103EEC002FFE002800D18AE78023E058836B984787
:103EFC0085E72000FCF711FB81E72000FCF70DFBA8
:103F0C007DE72000FCF709FB90230022E25076E7C6
:103F1C00DD0600D457E7C50600D454E7102313621E
:103F2C0023689B685B0662D58023E1580A68536856
:103F3C009BB2002B4CD05C20205A984248D95E2270
:103F4C00A3520B681B689B060BD5022323675A33BD
:103F5C00E15A0233E35AC91A89B22000FFF711FF64
:103F6C004DE7EFF31080012383F3108821680A6872
:103F7C004A4D2A400A6080F31088EFF3108083F3D7
:103F8C00108821688A689A438A6080F31088EFF35E
:103F9C00108083F3108821688A684235FF35AA4364
:103FAC008A6080F310888C222021A1500022E266C6
:103FBC00EFF3108183F31088226813681020834379
:103FCC00136081F310888023E058FEF77DFDBCE779
:103FDC005C21615A994200D011E713689B0600D40A
:103FEC000DE7022323672000FFF7CBFE07E75C23D6
:103FFC00E35A5E22A15A591A89B2A35A9BB2002BDA
:10400C0000D1FCE6002900D1F9E6EFF3108501237D
:10401C0083F3108820680268214E3240026085F3D9
:10402C001088EFF3108583F31088206882681D4E8A
:10403C003240826085F310888C222020A050002210
:10404C00E2666267EFF3108083F3108822681368CE
:10405C001025AB43136080F31088022323672000E4
:10406C00FFF78FFECBE680235B031362200000F08A
:10407C0081FBC4E6A36F002B00D1C0E6200098475B
:10408C00BDE62000FFF763FEB9E6C0460F0800004E
:10409C000100001020010004853D0008FFFEFFFF19
:1040AC00DFFEFFFFFEFFFFEF200000F065FBA6E642
:1040BC00200000F060FBA2E6F8B5040001688368FC
:1040CC000269134342691343C26913430A68B04837
:1040DC00024013430B6022685368AE490B40E16801
:1040EC000B435360A1692268AB4B9A4204D0AB4B93
:1040FC009A4201D0236A19439368A94803400B43A1
:10410C0093602268D36A0F218B43616A0B43D3629D
:10411C002368A44A934219D0A34A934227D0A34AB6
:10412C00934235D0A24A934200D188E0A14A9342EF
:10413C0000D19DE0A04A934200D19BE0964A934265
:10414C0037D0964A93424CD0102279E09B4A516D5D
:10415C0003220A40022A5CD005D8002A5BD0012A2F
:10416C005BD103326CE0032A59D1053268E0934AE3
:10417C00516D0C220A40082A53D005D8002A52D07F
:10418C00042A5DD010225BE00C2A4ED1043A57E091
:10419C008A4A516D30220A40202A48D005D8002A7C
:1041AC0047D0102A47D10C3A4AE0302A45D1283A58
:1041BC0046E0824A526DC02109010A408021090162
:1041CC008A4259D007D8002A58D08021C9008A4287
:1041DC0056D1042234E0C02109018A4252D108226E
:1041EC002EE0764A526DC02189000A400139FF3910
:1041FC008A4249D007D8002A48D00139FF398A426F
:10420C0046D104221CE0C02189008A4242D10822F6
:10421C0016E0022214E0002212E0102210E010221C
:10422C000EE002220CE000220AE0102208E002223A
:10423C0006E0002204E0102202E0102200E000223E
:10424C0055498B4228D055498B4225D0E0698023B3
:10425C001B0298426AD0042A00D1E1E000D9BEE0EA
:10426C00002A00D1C2E0022A00D0B6E05448C1E0D6
:10427C000022E5E70022E3E70222E1E70022DFE784
:10428C001022DDE71022DBE70222D9E70022D7E774
:10429C001022D5E71022D3E7042A43D007D8002AEE
:1042AC000CD0022A01D1464D0EE00120BEE0082AB6
:1042BC0002D180252D0207E00120B7E0FFF782FB39
:1042CC000500002D00D1AEE0626A3E4B5200D75A79
:1042DC0039002800FBF7ECFE666873009B198342DB
:1042EC0000D9A2E03303834200D2A8E03A000023B5
:1042FC0028000021FCF752F8050E0B022B4302029A
:10430C00700800218018594132000023FCF746F850
:10431C002D4BC2182D4B9A4200D992E02368D860DD
:10432C00002083E0FFF726FA0500CAE7042A51D0E3
:10433C0007D8002A09D0022A01D121480AE001201D
:10434C0074E0082A06D0012070E0FFF73BFB002840
:10435C0000D178E0626A1B4B5200D15AFBF7A8FEE1
:10436C00400061684B08C018FBF7A2FE0200103A2F
:10437C00174B9A4200D968E082B20F239A43400847
:10438C00083B034013432268D36000204EE0C04634
:10439C00F369FFCFFFCFFFFF008000400084004097
:1043AC00FFF4FF1100380140004400400048004079
:1043BC00004C004000500040003C01400010024006
:1043CC000024F4009C53000800FDFFFFFFFC0F00CD
:1043DC00EFFF0000FFF7CEF9B9E7012026E0082A2D
:1043EC0002D18020000205E001201FE0FFF7EAFA6D
:1043FC0000282CD0626A184B5200D15AFBF758FE99
:10440C0061684B08C018FBF753FE0200103A134BBF
:10441C009A421ED823680004000CD860002005E0E6
:10442C00FFF7A8F9E4E7002000E0012001236A224D
:10443C00A352023AA35200236367A367F8BD01207D
:10444C00F4E70120F2E70020F0E70120EEE700207E
:10445C00ECE70120EAE7C0469C530008EFFF0000A0
:10446C00836A1B0706D5026853682C490B40816B85
:10447C000B435360836ADB0706D5026853682849EF
:10448C000B40C16A0B435360836A9B0706D50268D5
:10449C00536824490B40016B0B435360836A5B07E1
:1044AC0006D50268536820490B40416B0B4353609F
:1044BC00836ADB0606D5026893681C490B40C16B06
:1044CC000B439360836A9B0606D502689368184970
:1044DC000B40016C0B439360836A5B060BD502683F
:1044EC00536814490B40416C0B435360426C80235E
:1044FC005B039A420AD0836A1B0606D5026853688E
:10450C000D490B40C16C0B435360704702685368F4
:10451C000A490B40816C0B435360ECE7FF7FFFFFB4
:10452C00FFFFFDFFFFFFFEFFFFFFFBFFFFEFFFFFA6
:10453C00FFDFFFFFFFFFEFFFFFFFF7FFFFFF9FFF17
:10454C00F8B5CE46474680B506000D0017009946D3
:10455C00089B98463368DC692C40641B63425C41C1
:10456C00BC4233D143460133F4D0FEF717FA4B4625
:10457C00C01A40452FD84346002B2ED03268136802
:10458C005B07E7D5802DE5D0402DE3D0D3691B0721
:10459C0010D4D3691B05DDD580231B0113623000B9
:1045AC00FFF7A2FB90232022F2500C3B0022F25486
:1045BC0003200CE0082414623000FFF795FB9023D5
:1045CC00F4500C3B0022F254012000E00020C0BC4F
:1045DC00B946B046F8BD0320F9E70320F7E7000021
:1045EC0030B583B0040090230022C250FEF7D6F9F8
:1045FC00050023681B681B0710D423681B685B0726
:10460C002BD420238822A3500432A3500023E3662A
:10461C002367083AA354002003B030BD8021234BFC
:10462C0000930300002289032000FFF789FF002874
:10463C00E3D0EFF31081012383F310882268136811
:10464C0080208343136081F3108888232022E2505A
:10465C00043B0022E2547D38DEE78021134B0093AB
:10466C002B000022C9032000FFF76AFF0028C8D0E6
:10467C00EFF31080012282F3108821680B680C4D37
:10468C002B400B6080F31088EFF3108082F31088BE
:10469C0021688B6893438B6080F310888C231F32C6
:1046AC00E250083B0022E2540320B5E7FFFFFF0174
:1046BC00DFFEFFFF10B5041E30D08823C358002B3B
:1046CC0022D088232422E2502268136801218B43D4
:1046DC001360A36A002B1DD12000FFF7EDFC01280D
:1046EC0011D0226853680E490B40536022689368BE
:1046FC002A218B4393602268136829390B4313607A
:10470C002000FFF76DFF10BD84330022C254FCF76C
:10471C0077F8D6E72000FFF7A3FEDDE70120F2E7EC
:10472C00FFB7FFFFF8B50400436E002B05D1013332
:10473C006A228352023A8352F8BD026895686D0E64
:10474C0007231D409268520F1340084FF85CC000BD
:10475C00074EF15CFBF736FD6A23E052785DC00032
:10476C00715DFBF72FFD6823E052E5E7BC530008B1
:10477C00B4530008704770477047000070B584232D
:10478C00C35C012B15D084240126065588252423CF
:10479C004351026813681168B1431160064A134013
:1047AC000022426601680B60202343510255002011
:1047BC0070BD0220FCE7C046FFFFFFDFF8B5040028
:1047CC000A008423C35C012B1BD084250120605577
:1047DC0088262423A35123681F6819688143196014
:1047EC0020688368DB00D908114381602000FFF743
:1047FC0099FF23681F602023A351002363550020D9
:10480C00F8BD0220FCE70000F8B504000B00842280
:10481C00825C012A1BD08425012060558826242225
:10482C00A25122681768116881431160226891684F
:10483C0008480140194391602000FFF773FF23687B
:10484C001F602023A351002363550020F8BD0220D4
:10485C00FCE7C046FFFFFFF1F0B5D6464F46464693
:10486C00C0B582B006000D0090461F00FEF796F80A
:10487C000A9B181A8146B944FEF790F882462C4BD5
:10488C001B685B011B0D4A465343019333689C68BC
:10489C002C40641B63425C41444542D07B1CF5D0E8
:1048AC00FEF77CF85346C01A484504D2019B002BF6
:1048BC0033D19946EAE732685368E0218B43536061
:1048CC00726882235B009A420CD0B26A80239B01EF
:1048DC009A4216D05D230122F254013B0022F2547D
:1048EC0003201FE0B36880221202934203D080227F
:1048FC00D2009342E9D13268136840218B43136094
:10490C00E3E7326813680B490B4013603268116897
:10491C0080239B010B431360DCE7019B013B01935C
:10492C00B4E7002002B0E0BCBA46B146A846F0BDE0
:10493C0000000020FFDFFFFFF0B5DE4657464E4675
:10494C004546E0B583B007000D00160098466B464F
:10495C000022DA70FEF722F80C9B181A40448146AC
:10496C00FEF71CF882463B689B46344B1B689A004A
:10497C00D218D3009B1A1B0D4A465343019302E0F5
:10498C004346013311D13B689C682C40B4424DD056
:10499C00C023DB009D42F3D1002EF1D15B461B7B83
:1049AC00DBB26A46D370D378EAE7FDF7F7FF5346DC
:1049BC00C01A484504D2019B002B33D19946E2E73B
:1049CC003A685368E0218B4353607A6882235B001A
:1049DC009A420CD0BA6A80239B019A4216D05D236E
:1049EC000122FA54013B0022FA5403201FE0BB6859
:1049FC0080221202934203D08022D2009342E9D14A
:104A0C003A68136840218B431360E3E73A681368F4
:104A1C000B490B4013603A68116880239B010B43D0
:104A2C001360DCE7019B013B0193ACE7002003B072
:104A3C00F0BCBB46B246A946A046F0BD0000002023
:104A4C00FFDFFFFF70B582B004000D001600C0211F
:104A5C0000922B0000224901FFF76EFF002818D1AD
:104A6C0000962B00002280212000FFF7F5FE002885
:104A7C0016D1C02100962B000022C9002000FFF7A0
:104A8C005BFF00280AD0236E2022134323660320E9
:104A9C0004E0236E202213432366032002B070BD72
:104AAC00236E2022134323660320F7E77047000090
:104ABC0070B5041E00D178E0436A002B07D1426820
:104ACC000533FF339A4205D00023C36102E0002373
:104ADC00036143610023A3625D33E35C002B5AD076
:104AEC005D230222E2542268136840218B43136039
:104AFC00E368E022D200934254D90022F02109014C
:104B0C008B4205D0E021C9008B4201D00023A36267
:104B1C006368822149000B40A16884200002014097
:104B2C000B432069022101400B43606901210840BD
:104B3C000343A0698025AD0028400343E569382074
:104B4C0028400343256A802028400343A06A80251F
:104B5C00AD012840256803432B60608B0423034080
:104B6C00656A102028400343656B082028400343E6
:104B7C00E068F0252D01284003432068134343606F
:104B8C002268D3690A480340D361002323665D334E
:104B9C00E154002070BD5C330022E2542000FFF78A
:104BAC0085FF9DE780225201A8E70120F2E7C0466D
:104BBC00FFF7FFFFF0B5CE4600B582B00400894682
:104BCC0001921F00089DFDF7E9FE06005D23E35CE2
:104BDC00D9B26268012B0BD082235B009A4200D0C1
:104BEC0011E1A368002B00D012E1042900D011E1DF
:104BFC004B46002B00D10FE1019B002B00D10DE1A6
:104C0C00002F00D10CE15C23E35C012B00D109E106
:104C1C005C230122E2540133E35C042B02D05D23BC
:104C2C000432E25400232366019A22644622A752DE
:104C3C00023AA7524A46A263E787A787E364236533
:104C4C00E268E023DB009A4223D922685368764954
:104C5C000B40536023681A68520603D41A6840212B
:104C6C000A431A60E268E023DB009A425BD963686E
:104C7C00002B01D0012F0AD1A26B23681288DA60B5
:104C8C00A36B0233A363E38F013B9BB2E387012742
:104C9C002DE02268516880235B010B435360D9E7F8
:104CAC00A36B1B88D360A36B0233A363E38F013B1D
:104CBC009BB2E387002722689368DB0710D5462355
:104CCC00E35A9BB2002B0BD0D268236C1A80236C56
:104CDC00023323644622A35A013B9BB2A352012701
:104CEC00FDF75CFE801BA84201D36B1C13D1E38F34
:104CFC009BB2002B04D14633E35A9BB2002B69D0F4
:104D0C00226893689B07D6D5E38F9BB2002BD2D039
:104D1C00012FD0D1C4E75D230122E254013B0022D4
:104D2C00E254032070E06368002B01D0012F0AD1FC
:104D3C00A26B236812781A73A36B0133A363E38FFE
:104D4C00013B9BB2E38701271DE022689368DB07D8
:104D5C0010D54623E35A9BB2002B0BD0236C127B4D
:104D6C001A70236C013323644622A35A013B9BB275
:104D7C00A3520127FDF712FE801BA84201D36B1C26
:104D8C0020D1002D1ED0E38F9BB2002B04D14633D3
:104D9C00E35A9BB2002B1DD0226893689B07D4D595
:104DAC00E38F9BB2002BD0D0012FCED1A36B1B78FD
:104DBC001373A36B0133A363E38F013B9BB2E387B4
:104DCC000027C2E75D230122E254013B0022E2549A
:104DDC00032019E0320029002000FFF733FE0028E1
:104DEC000AD15D230122E254013B0022E254236EDE
:104DFC00002B09D0012007E0202323663C3300223E
:104E0C00E254012000E0022002B080BCB946F0BDA3
:104E1C000220F9E70220F7E70120F5E70120F3E78C
:104E2C000120F1E70220EFE7FFEFFFFF30B5002490
:104E3C000139A24201D1002005E0035D01340D5D72
:104E4C00AB42F6D0581B30BD03008218934200D100
:104E5C00704719700133F9E770B500260C4C0D4DF5
:104E6C00641BA410A64209D1002600F0EFF80A4CEE
:104E7C000A4D641BA410A64205D170BDB300EB58BB
:104E8C0098470136EEE7B300EB5898470136F2E746
:104E9C00CC530008CC530008D0530008CC53000866
:104EAC00002310B59A4200D110BDCC5CC454013320
:104EBC00F8E70000F0B557464E464546DE46E0B5ED
:104ECC0004000D009246994683B08B4230D82DD009
:104EDC0049465046FBF782FA290006002000FBF7F2
:104EEC007DFA331A9846203B34D49B4653465A4697
:104EFC00934042461F00534693401E00AF423BD89E
:104F0C00AF4200D179E05B46A41BBD41002B00DA17
:104F1C0076E0002200230092019301235A4693402D
:104F2C000193012342469340009329E08242CFD95A
:104F3C0000220023009201930C9B002B01D01C60DB
:104F4C005D600098019903B0F0BCBB46B246A9461F
:104F5C00A046F0BD42469B4620239B1A5246DA409F
:104F6C00414613004A468A40170042461F435346A7
:104F7C0093401E00AF42C3D900220023009201933C
:104F8C004346002BD8D0FB0772081A4346467B08D1
:104F9C000EE0AB4201D1A2420CD8A41A9D410120D3
:104FAC0024196D410021013E24184D41002E06D0DC
:104FBC00AB42EED9013E24196D41002EF8D1009878
:104FCC0001995B4600196941002B24DB2B005A46E2
:104FDC004446D3402A00E2401C005B461500002BDF
:104FEC002ADB26009E40330026004746BE40320096
:104FFC00801A9941009001919EE7A342BCD882E7A8
:10500C004246202300219B1A00220091019201228A
:10501C00DA40019285E7424620239B1A2A00464635
:10502C009A402300F340444613432A00E2401C00FC
:10503C005B461500002BD4DA42462F0020232600B5
:10504C0097409B1ADE403B003343CDE7F8B5C04692
:10505C00F8BC08BC9E467047F8B5C046F8BC08BC06
:04506C009E467047A5
:1050700031003000300000001112020D003000003D
:10508000110104000538002811200C00030007015D
:10509000770005C9C380000011400800380E147A5B
:1050A0001B4F20FE00000000411C0008B122000838
:1050B000051C0008E91C0008C11C0008F51B0008BD
:1050C00000000000000000000000000000000000E0
:1050D00001000000020000000300000004000000C6
:1050E00000000000000000000000000000000000C0
:1050F00000000000000000000000000000000000B0
:105100000100000002000000030000000400000095
:105110000600000007000000080000000900000071
:10512000010000001122010110000000070201002F
:1051300001C9C380081300082021670B0005110076
:105140000100520511000103601011200C00030042
:105150000702710005C9C3800000051120010C463B
:105160000C11200818010008038000B0100D112058
:105170000922004E068DB9000002C00B1120072C39
:1051800000120023015CA00511200135E20D112061
:105190000938111111001A200000280C11200842B2
:1051A000A403D603007B0180051120014E220511C6
:1051B0002001510A1011210C007E641BBA580BDD2E
:1051C000CED6E6F6001011210C0C030315F03F00BB
:1051D0007E641BBA580B1011210C18DDCED6E6F6F2
:1051E00000030315F03F0005112201033D0B1123BD
:1051F00007002C0E0B040C73030C11400800370938
:1052000000001B4F20FE08320000000000000005D7
:10521000175610CAF005171310CAF0051100010146
:1052200000051100010360061101020005180511B7
:1052300001010328081102040002040A090D1110DB
:105240000900081400FF31000000000911110500D9
:1052500001B42B00000B11120700840108FFFF00AE
:10526000021011120C080000004014000706AA00EA
:1052700000001011120C14000000000000000000DB
:105280000000001011120C200000000000000000BF
:10529000000000000D1112092C00000000000000A9
:1052A00000001011200C0003000701770005C9C39E
:1052B000800000051120010C540C11200818010079
:1052C0000803800030100D11200922020900FBA9FB
:1052D00000FC02000B1120072C001280150DE9E0E4
:1052E0000511200135E20D11200938117272001AE2
:1052F0004000002B0D11200942A403D60300250114
:105300008040051120014C00051120014E4005117F
:105310002001510A1011210C00FFBA0F51CFA9C969
:10532000FC1B1E0F011011210C0CFCFD15FF000FC2
:10533000FFBA0F51CFA91011210C18C9FC1B1E0F69
:1053400001FCFD15FF000F0811220400087F003D3D
:105350000B112307002C0E0B040C73031011300CDF
:10536000000000000000000000000000000C1140E0
:105370000800380E147A1B4F20FE00006368616E2F
:1053800067652D746869732D6B65792100010203CF
:1053900004050607080C1014182030400100020014
:1053A0000400060008000A000C0010002000400065
:1053B0008000000108040204080101010101010349
:0453C00007010000E1
:0853C400FCFAFF7F010000006C
:0453CC00B104000820
:0453D0008504000848
:0C53D4000024F4000100000004000000B0
:04000005080004D516
:00000001FF
