:020000022000DC
:10000000F0EF01201104020059040200590402001B
:1000100059040200590402005904020000000000C3
:10002000000000000000000000000000F1CD020010
:10003000590402000000000051CE0200B5CE0200BB
:10004000B35C0200BD5C0200C75C0200D15C020030
:10005000DB5C0200E55C0200EF5C0200F95C020080
:10006000035D02000D5D0200175D0200215D0200CC
:100070002B5D0200355D02003F5D0200495D02001C
:10008000535D0200590402005904020059040200A1
:1000900059040200590402005904020059040200E4
:1000A000939102009D910200C9930200D393020034
:1000B000DD930200A7910200B191020059040200F1
:1000C00059040200590402005904020059040200B4
:1000D000590402005904020059040200E9AB02006D
:1000E000F3AB020059040200590402005904020053
:1000F0005904020059040200590402005904020084
:100100005904020059040200590402005904020073
:100110005904020059040200590402005904020063
:100120005904020059040200590402005904020053
:100130005904020059040200590402005904020043
:100140005904020059040200590402005904020033
:10015000590402007D78020059040200590402008B
:10016000D15E0200A95E0200B35E0200BD5E020025
:1001700059040200C75E0200F9770200037802000A
:100180000D7802001778020021780200590402005D
:10019000590402002B78020035780200590402004D
:1001A0003F78020049780200590402005904020015
:1001B000537802005D78020059040200677802005B
:1001C0007178020059040200590402005904020027
:1001D00059040200590402005904020059040200A3
:1001E0005904020059040200590402005904020093
:1001F0005904020059040200590402005904020083
:100200005904020059040200590402005904020072
:1003F000590402005904020059040200FFFFFFFFE4
:10040000FFFFFFFFFFFFFFFFFFFFFFFFFE7FFFFF7D
:1004100072B64FF000014FF000024FF000034FF0B2
:1004200000044FF000054FF000064FF00007B846FB
:10043000B946BA46BB46BC46044880470448854690
:100440000448804762B60CF0D1FEFEE7B13C0200E2
:10045000F0EF0120153D0200FFF7FEBF81F00041E3
:1004600002E000BF83F0004330B54FEA41044FEA99
:10047000430594EA050F08BF90EA020F1FBF54EA34
:10048000000C55EA020C7FEA645C7FEA655C00F0D0
:10049000E2804FEA5454D4EB5555B8BF6D420CDDA1
:1004A0002C4480EA020281EA030382EA000083EA24
:1004B000010180EA020281EA0303362D88BF30BDC4
:1004C00011F0004F4FEA01314FF4801C4CEA11311A
:1004D00002D0404261EB410113F0004F4FEA033379
:1004E0004CEA133302D0524263EB430394EA050F04
:1004F00000F0A780A4F10104D5F1200E0DDB02FA73
:100500000EFC22FA05F2801841F1000103FA0EF206
:10051000801843FA05F359410EE0A5F120050EF1CC
:10052000200E012A03FA0EFC28BF4CF0020C43FAFD
:1005300005F3C01851EBE37101F0004507D54FF00A
:10054000000EDCF1000C7EEB00006EEB0101B1F55A
:10055000801F1BD3B1F5001F0CD349085FEA3000A0
:100560004FEA3C0C04F101044FEA445212F5800FAB
:1005700080F09A80BCF1004F08BF5FEA500C50F148
:10058000000041EB045141EA050130BD5FEA4C0C2B
:10059000404141EB010111F4801FA4F10104E9D1B4
:1005A00091F0000F04BF01460020B1FA81F308BFAB
:1005B0002033A3F10B03B3F120020CDA0C3208DD77
:1005C00002F1140CC2F10C0201FA0CF021FA02F152
:1005D0000CE002F11402D8BFC2F1200C01FA02F1C2
:1005E00020FA0CFCDCBF41EA0C019040E41AA2BFE7
:1005F00001EB0451294330BD6FEA04041F3C1CDAAF
:100600000C340EDC04F11404C4F1200220FA04F0CE
:1006100001FA02F340EA030021FA04F345EA030178
:1006200030BDC4F10C04C4F1200220FA02F001FA3A
:1006300004F340EA0300294630BD21FA04F02946BC
:1006400030BD94F0000F83F4801306BF81F4801155
:100650000134013D4EE77FEA645C18BF7FEA655CC8
:1006600029D094EA050F08BF90EA020F05D054EA9A
:10067000000C04BF1946104630BD91EA030F1EBF9F
:100680000021002030BD5FEA545C05D140004941A3
:1006900028BF41F0004130BD14F580043CBF01F596
:1006A000801130BD01F0004545F0FE4141F470017C
:1006B0004FF0000030BD7FEA645C1ABF1946104657
:1006C0007FEA655C1CBF0B46024650EA013406BF58
:1006D00052EA033591EA030F41F4002130BD00BF17
:1006E00090F0000F04BF0021704730B54FF48064D4
:1006F00004F132044FF000054FF0000150E700BF55
:1007000090F0000F04BF0021704730B54FF48064B3
:1007100004F1320410F0004548BF40424FF00001A0
:100720003EE700BF42004FEAE2014FEA31014FEAE3
:1007300002701FBF12F07F4393F07F4F81F0605132
:10074000704732F07F4208BF704793F07F4F04BF7D
:1007500041F40021704730B54FF4607401F000455A
:1007600021F000411CE700BF50EA010208BF7047BA
:1007700030B54FF000050AE050EA010208BF7047AB
:1007800030B511F0004502D5404261EB41014FF414
:10079000806404F132045FEA915C3FF4D8AE4FF01C
:1007A00003025FEADC0C18BF03325FEADC0C18BFFF
:1007B000033202EBDC02C2F1200300FA03FC20FA50
:1007C00002F001FA03FE40EA0E0021FA02F114449D
:1007D000BDE600BF70B54FF0FF0C4CF4E06C1CEAB6
:1007E00011541DBF1CEA135594EA0C0F95EA0C0F27
:1007F00000F0DEF82C4481EA030621EA4C5123EA9A
:100800004C5350EA013518BF52EA033541F48011C8
:1008100043F4801338D0A0FB02CE4FF00005E1FB7B
:1008200002E506F00042E0FB03E54FF00006E1FBC5
:1008300003569CF0000F18BF4EF0010EA4F1FF0408
:10084000B6F5007F64F5407404D25FEA4E0E6D4148
:1008500046EB060642EAC62141EA55514FEAC52059
:1008600040EA5E504FEACE2EB4F1FD0C88BFBCF5D5
:10087000E06F1ED8BEF1004F08BF5FEA500E50F186
:10088000000041EB045170BD06F0004646EA01014C
:1008900040EA020081EA0301B4EB5C04C2BFD4EB7E
:1008A0000C0541EA045170BD41F480114FF0000E77
:1008B000013C00F3AB8014F1360FDEBF002001F0E5
:1008C000004170BDC4F10004203C35DA0C341BDC5F
:1008D00004F11404C4F1200500FA05F320FA04F031
:1008E00001FA05F240EA020001F0004221F0004165
:1008F00010EBD37021FA04F642EB06015EEA430ED8
:1009000008BF20EAD37070BDC4F10C04C4F1200507
:1009100000FA04F320FA05F001FA04F240EA0200BA
:1009200001F0004110EBD37041F100015EEA430E8B
:1009300008BF20EAD37070BDC4F1200500FA05F2AB
:100940004EEA020E20FA04F301FA05F243EA02032A
:1009500021FA04F001F0004121FA04F220EA020039
:1009600000EBD3705EEA430E08BF20EAD37070BD7F
:1009700094F0000F0FD101F00046400041EB01015F
:1009800011F4801F08BF013CF7D041EA060195F041
:10099000000F18BF704703F00046520043EB0303FB
:1009A00013F4801F08BF013DF7D043EA06037047E8
:1009B00094EA0C0F0CEA135518BF95EA0C0F0CD0F3
:1009C00050EA410618BF52EA4306D1D181EA030139
:1009D00001F000414FF0000070BD50EA410606BF33
:1009E0001046194652EA430619D094EA0C0F02D178
:1009F00050EA013613D195EA0C0F05D152EA0336BD
:100A00001CBF104619460AD181EA030101F00041DA
:100A100041F0FE4141F470014FF0000070BD41F023
:100A2000FE4141F4780170BD70B54FF0FF0C4CF4FD
:100A3000E06C1CEA11541DBF1CEA135594EA0C0F1C
:100A400095EA0C0F00F0A7F8A4EB050481EA030E69
:100A500052EA03354FEA013100F088804FEA033350
:100A60004FF0805545EA131343EA12634FEA02221E
:100A700045EA111545EA10654FEA00260EF00041DF
:100A80009D4208BF964244F1FD0404F5407402D231
:100A90005B084FEA3202B61A65EB03055B084FEAC2
:100AA00032024FF480104FF4002CB6EB020E75EBBF
:100AB000030E22BFB61A754640EA0C005B084FEAE7
:100AC0003202B6EB020E75EB030E22BFB61A754664
:100AD00040EA5C005B084FEA3202B6EB020E75EBAF
:100AE000030E22BFB61A754640EA9C005B084FEA27
:100AF0003202B6EB020E75EB030E22BFB61A754634
:100B000040EADC0055EA060E18D04FEA051545EA22
:100B100016754FEA06164FEAC30343EA52734FEACB
:100B2000C2025FEA1C1CC0D111F4801F0BD141EA44
:100B300000014FF000004FF0004CB6E711F4801FA9
:100B400004BF01430020B4F1FD0C88BFBCF5E06F89
:100B50003FF6AFAEB5EB030C04BFB6EB020C5FEA99
:100B6000500C50F1000041EB045170BD0EF0004EEE
:100B70004EEA113114EB5C04C2BFD4EB0C0541EA20
:100B8000045170BD41F480114FF0000E013C90E61D
:100B900045EA060E8DE60CEA135594EA0C0F08BFE1
:100BA00095EA0C0F3FF43BAF94EA0C0F0AD150EAE0
:100BB00001347FF434AF95EA0C0F7FF425AF104673
:100BC00019462CE795EA0C0F06D152EA03353FF49B
:100BD000FDAE1046194622E750EA410618BF52EA18
:100BE00043067FF4C5AE50EA41047FF40DAF52EAEC
:100BF00043057FF4EBAE12E74FF0FF3C06E000BF89
:100C00004FF0010C02E000BF4FF0010C4DF804CD95
:100C10004FEA410C7FEA6C5C4FEA430C18BF7FEA55
:100C20006C5C1BD001B050EA410C0CBF52EA430C83
:100C300091EA030F02BF90EA020F0020704710F103
:100C4000000F91EA030F58BF994208BF90422CBF92
:100C5000D8176FEAE37040F0010070474FEA410C8B
:100C60007FEA6C5C02D150EA013C07D14FEA430CA9
:100C70007FEA6C5CD6D152EA033CD3D05DF8040B1A
:100C8000704700BF8446104662468C46194663464C
:100C900000E000BF01B5FFF7B7FF002848BF10F123
:100CA000000F01BD4DF808EDFFF7F4FF0CBF012068
:100CB00000205DF808FB00BF4DF808EDFFF7EAFFE4
:100CC00034BF012000205DF808FB00BF4DF808ED9F
:100CD000FFF7E0FF94BF012000205DF808FB00BF94
:100CE0004DF808EDFFF7CEFF94BF012000205DF81E
:100CF00008FB00BF4DF808EDFFF7C4FF34BF01202B
:100D000000205DF808FB00BF4FEA410C7FEA6C5CF5
:100D100002D150EA013C0AD14FEA430C7FEA6C5CF5
:100D200002D152EA033C02D14FF0000070474FF06D
:100D3000010070474FEA410212F5001215D211D599
:100D40006FF47873B3EB625212D94FEAC12343F0C8
:100D5000004343EA505311F0004F23FA02F018BF4A
:100D6000404270474FF00000704750EA013005D113
:100D700011F0004008BF6FF0004070474FF00000D6
:100D8000704700BF4A0011D212F5001211D20DD5E2
:100D90006FF47873B3EB62520ED44FEAC12343F081
:100DA000004343EA505323FA02F070474FF000002B
:100DB000704750EA013002D14FF0FF3070474FF0DA
:100DC000000070474FEA4102B2F1E04324BFB3F59F
:100DD000001CDCF1FE5C0DD901F0004C4FEAC002B2
:100DE0004CEA5070B2F1004F40EB830008BF20F096
:100DF0000100704711F0804F21D113F13872BCBF50
:100E000001F00040704741F480114FEA5252C2F1A4
:100E10001802C2F1200C10FA0CF320FA02F018BFED
:100E200040F001004FEAC1234FEAD32303FA0CFC40
:100E300040EA0C0023FA02F34FEA4303CCE77FEACF
:100E4000625307D150EA01331EBF4FF0FE4040F419
:100E50004000704701F0004040F0FE4040F40000C8
:100E6000704700BF8C4619B3F0B54E1E8F1EF3B20B
:100E7000FF1A4FF0000E10E05A0030F81310023243
:100E8000845AA14284BF20F8134081520133DBB25F
:100E9000AB42F1DB013EB74205D03546002EC8BF5C
:100EA0007346E9DCF6E74FEA5C0C30F81C00F0BD55
:100EB0004FEA510C30F81C007047000008B50A4B8F
:100EC0000A4A03F10C0033F8021B22F8021B83428A
:100ED000F9D10749054B0B6000231A460548006805
:100EE0000AF06CFF08BD00BF000000206000002079
:100EF000C80000205C00002008B50849084809F037
:100F00007FFF0221272007F0D9FA002204210320C5
:100F10000AF09CFE034B186008BD00BF30120300AE
:100F20003C1203005C00002038B500223249334BEC
:100F300018680AF0BBFF012808D0314B1B78012B41
:100F400052D000212F4809F0A9FF38BD2A4B19685B
:100F50002D4803780C882D4A22F813404D88DC1D5B
:100F600022F814508D8803F10E0422F81450CD8815
:100F700003F1150422F814500D8903F11C0422F822
:100F800014504C8903F1230122F811400133DBB2E4
:100F90000370062BD1D9154607211046FFF762FFD3
:100FA0001B4C2080072105F10E00FFF75BFF6080DE
:100FB000072105F11C00FFF755FFA080072105F16F
:100FC0002A00FFF74FFFE080072105F13800FFF707
:100FD00049FF2081072105F14600FFF743FF6081AB
:100FE0000022094B1A70A8E7044B18680AF0E6FFC4
:100FF000034B9871A5E700BFC40000205C000020EF
:10100000140600203C1203006C0000207000002039
:10101000C007002008B502200BF0A0FB08BD0000AF
:1010200010B582B001238DF80430E3238DF806302B
:10103000013803281FD8DFE800F002274461C023ED
:101040008DF805303C4C0123032201A920460AF00B
:1010500037FAFFF7DFFF00230122194620460AF086
:101060002FFAFFF7D7FF01230222694620460AF034
:1010700030FAFFF7CFFF9DF800309DF8010000EB3C
:10108000032080B202B010BDD0238DF805302A4C69
:101090000123032201A920460AF012FAFFF7BAFF42
:1010A00000230122194620460AF00AFAFFF7B2FF90
:1010B00001230222694620460AF00BFAFFF7AAFF35
:1010C000D9E7E0238DF805301B4C0123032201A949
:1010D00020460AF0F5F9FFF79DFF0023012219468B
:1010E00020460AF0EDF9FFF795FF01230222694639
:1010F00020460AF0EEF9FFF78DFFBCE7F0238DF8EC
:1011000005300D4C0123032201A920460AF0D8F92D
:10111000FFF780FF00230122194620460AF0D0F98C
:10112000FFF778FF01230222694620460AF0D1F931
:10113000FFF770FF9FE700BF4C00002008B5024991
:1011400002480AF069F908BDF81203004C000020BB
:1011500038B5094D2C780134E4B22C702046FFF7E5
:101160005FFF064B03EB440460812B78032B01D90E
:1011700000222A7038BD00BFCC000020C00700202C
:1011800010B50D4C01220A21204609F01EFC012257
:101190000A21204609F025FC01220921204609F0F8
:1011A00020FC00220A21204609F01BFC0022092114
:1011B000204609F016FC10BD40F00F402DE9F0412B
:1011C0000546154C01220A21204609F0FEFB0022AB
:1011D0000921204609F005FC08240F4E00274FF096
:1011E000010815F0800F14BF42463A460A213046E6
:1011F00009F0F7FB6D00EDB242460921304609F0D7
:10120000F0FB3A460921304609F0EBFB631E13F070
:10121000FF04E6D1BDE8F08140F00F4010B50D4C61
:1012200001220A21204609F0D0FB00220921204694
:1012300009F0D7FB00220A21204609F0D2FB012247
:101240000921204609F0CDFB01220A21204609F0A0
:10125000C8FB10BD40F00F4038B5134C00220A21E6
:10126000204609F0B2FB01220A21204609F0B9FB11
:1012700001220921204609F0B4FBFB240A4D28462F
:1012800009F0C1FB10F4806F07D0631E13F0FF0458
:10129000F5D1FFF7C3FF012038BD00220921024824
:1012A00009F09FFB002038BD40F00F4010B582B020
:1012B000032806D8DFE800F002292D31C022194B9F
:1012C0001A708DF8041001238DF80530154B1B782A
:1012D0008DF80630E3238DF80730FFF751FF002328
:1012E000114A1370144602AA134413F8040CFFF7B2
:1012F00065FFFFF7B1FF23780133DBB22370032BC7
:10130000F1D9FFF78BFF02B010BDD022054B1A7048
:10131000D7E7E022034B1A70D3E7F022014B1A7093
:10132000CFE700BFCD000020CE00002010B504465E
:10133000FFF726FF2046FFF741FFFFF78DFF002054
:10134000FFF73CFFFFF788FFFFF768FF10BD0000C5
:101350002DE9F843814600220A212D4809F035FB8A
:10136000082500242A4EA046092742463946304621
:1013700009F037FB01223946304609F032FB6400A0
:10138000E4B2304609F03FFB10F4806F1CBF01341B
:10139000E4B26B1E13F0FF05E7D1B9F1000F1CD0CA
:1013A0001B4D00220921284609F01BFB01220A21BE
:1013B000284609F00AFB00220A21284609F011FB01
:1013C00001220921284609F00CFB002209212846A8
:1013D00009F007FB2046BDE8F8830D4D00220921E6
:1013E000284609F0FEFA01220A21284609F0EDFA02
:1013F00001220A21284609F0F4FA0122092128468F
:1014000009F0EFFA00220921284609F0EAFAE1E79B
:1014100040F00F4038B50446FFF7B2FE601CC0B282
:10142000FFF7CCFEFFF718FF0120FFF791FF0546FD
:101430000120FFF78DFF0446FFF7F0FE04EB0520C7
:1014400080B238BD10B5064C01220921204609F0B2
:10145000C8FA01220A21204609F0C3FA10BD00BFD4
:1014600040F00F402DE9F0411D4F00249226022547
:101470003146E0B2FFF71AFF28460BF06FF930460D
:10148000FFF754FF28460BF069F93046FFF7C2FF1B
:10149000804628460BF062F927F8028B0134042CB1
:1014A000E6D1104F0024902602253146E0B2FFF726
:1014B000FDFE28460BF052F93046FFF737FF28466D
:1014C0000BF04CF93046FFF7A5FF804628460BF09D
:1014D00045F927F8028B0134042CE6D1BDE8F081F0
:1014E000D8070020E0070020A2B32DE9F04182B028
:1014F0000446571EFFB24D1E0F440026DFF85880E9
:1015000007E09DF8033005F8013F0134A4B2BD4265
:101510001DD08DF8036014F4004FF2D1230A8DF82A
:1015200004308DF805403346022201A9404609F0F7
:10153000C7FF03200BF012F901231A460DF1030136
:10154000404609F0C6FF03200BF008F9D9E702B0C6
:10155000BDE8F081704700BF2C05FE1F6AB32DE97E
:10156000F04182B004460D46531EDBB203445E1CBC
:10157000B6B2DFF84880012707E00134A4B2013594
:1015800005200BF0EBF8B44214D014F4004FF4D162
:101590002B78220A8DF804208DF805408DF806304E
:1015A0003B46032201A9404609F08AFF03200BF0C5
:1015B000D5F8E2E702B0BDE8F08170472C05FE1FC8
:1015C00008B50249024809F027FF08BD10130300BF
:1015D0002C05FE1F08B50C4B1B78012B02D0022BEB
:1015E00009D008BD0222084B1A70042207490020C6
:1015F000FFF7B4FF08BD0322034B1A70042204490D
:101600000020FFF771FFECE7980EFE1F9C0EFE1FF7
:10161000D000002008B5064B1B7803B908BD054A69
:10162000054B1A6006F042FF02F068FBF6E700BFC8
:10163000D5000020CDFE3517F0EF012010B50A4986
:101640000A480AF0B7F801221121094809F0C9F93E
:10165000084C01221D21204609F0C3F901221E2158
:10166000204609F0BEF910BD44130300880EFE1F8A
:1016700040F00F40C0F00F402DE9F04383B0DD4B48
:101680001B7D002B00F0078100248DF800408DF8B1
:1016900001408DF804408DF80540DFF8688322464C
:1016A0001121404609F09DF902200BF057F8D24F66
:1016B000022301AA694638460AF0F0F802200BF02E
:1016C0004DF801221121404609F08BF9C94E9DF8D1
:1016D00004209DF8053003EB0223F38202200BF077
:1016E0003DF88DF800408DF80140C44D22461D2183
:1016F000284609F076F902200BF030F8022301AAFF
:10170000694638460AF0CAF802200BF027F8012291
:101710001D21284609F065F99DF804209DF8053043
:1017200003EB0223338302200BF018F88DF80040FE
:101730008DF8014022461E21284609F052F9022068
:101740000BF00CF8022301AA694638460AF0A6F805
:1017500002200BF003F801221E21284609F041F96E
:101760009DF804209DF8053003EB022373830220CB
:101770000AF0F4FF8DF801408DF804408DF8054023
:101780004FF007098DF8009022461121404609F0DC
:1017900028F902200AF0E2FF022301AA694638462E
:1017A0000AF07CF802200AF0D9FF012211214046FC
:1017B00009F017F99DF804209DF8053003EB02238A
:1017C000738402200AF0CAFF8DF800908DF8014062
:1017D00022461D21284609F004F902200AF0BEFF26
:1017E000022301AA694638460AF058F802200AF096
:1017F000B5FF01221D21284609F0F3F89DF80420C9
:101800009DF8053003EB0223B38402200AF0A6FF03
:101810008DF800908DF8014022461E21284609F0DF
:10182000E0F802200AF09AFF022301AA694638462E
:101830000AF034F802200AF091FF01221E21284606
:1018400009F0CFF89DF804209DF8053003EB022342
:10185000F38402200AF082FF8DF800408DF80140E9
:101860008DF804408DF80540284609F0CCF810F0BA
:10187000805F77D0624809F0C6F810F0020F00F0E0
:10188000C3805F4809F0BFF810F0010F00F003813A
:1018900003B0BDE8F0830126564B1E7500248DF879
:1018A00004408DF805404FF080098DF800904FF00E
:1018B000D3088DF80180534D22461121284609F0A6
:1018C00090F802200AF04AFF4B4F022301AA694612
:1018D000384609F0E3FF02200AF040FF32461121AA
:1018E000284609F07EF802200AF038FF8DF80090B3
:1018F0008DF80180803522461D21284609F071F8B7
:1019000002200AF02BFF022301AA6946384609F09B
:10191000C5FF02200AF022FF32461D21284609F0A9
:1019200060F802200AF01AFF8DF800908DF801800F
:1019300022461E21284609F054F802200AF00EFF24
:10194000022301AA6946384609F0A8FF02200AF0DE
:1019500005FF32461E21284609F043F802200AF00E
:10196000FDFE91E64FF001088DF8008027468DF8C6
:101970000140244E22461121304609F032F802205F
:101980000AF0ECFEDFF87090022301AA694648468F
:1019900009F084FF02200AF0E1FE424611213046A0
:1019A00009F01FF89DF805502D0202248DF8004023
:1019B0008DF801703A461121304609F012F82046A0
:1019C0000AF0CCFE234601AA6946484609F066FFA4
:1019D00020460AF0C3FE42461121304609F001F8C4
:1019E0009DF805301D44034B9D8320460AF0B6FE4A
:1019F00040E700BFD4070020880EFE1FC0F00F4054
:101A000000F00F4040F00F404FF001088DF80080CB
:101A100000278DF80170434E3A461D21304608F0EC
:101A2000E0FF02200AF09AFEDFF80091022301AAEB
:101A30006946484609F032FF02200AF08FFE42460E
:101A40001D21304608F0CDFF9DF805502D020224DF
:101A50008DF800408DF801703A461D21304608F09F
:101A6000C0FF20460AF07AFE234601AA694648468E
:101A700009F014FF20460AF071FE42461D2130464F
:101A800008F0AFFF9DF805301D44274BDD8320464D
:101A90000AF064FEF5E64FF001088DF8008000279B
:101AA0008DF801701F4E3A461E21304608F099FF0E
:101AB00002200AF053FEDFF87490022301AA69465F
:101AC000484609F0EBFE02200AF048FE42461E217D
:101AD000304608F086FF9DF805502D0202248DF84F
:101AE00000408DF801703A461E21304608F079FF1B
:101AF00020460AF033FE234601AA6946484609F00B
:101B0000CDFE20460AF02AFE42461E21304608F04D
:101B100068FF9DF805301D44034B1D8420460AF0E4
:101B20001DFEB5E6C0F00F40D4070020880EFE1F52
:101B300010B50849084809F03DFE084C00220C2168
:101B4000204608F04EFF00220D21204608F049FFF4
:101B500010BD00BF60130300900EFE1F80F00F4009
:101B60002DE9F04182B000248DF807401E4D01227E
:101B70000C21284608F035FF01220D21284608F0E7
:101B800030FF1A4D2146284609F0AAFE01200AF02E
:101B9000E5FD174C237802AE06F8013D154F0123F1
:101BA0003A463146284609F079FE01200AF0D6FD72
:101BB000B84638F8023BA3700121284609F090FE90
:101BC00001200AF0CBFD63788DF8073001234246EF
:101BD0003146284609F062FE01200AF0BFFD7B88ED
:101BE000E37002B0BDE8F08180F00F40900EFE1F60
:101BF000D8000020DC00002008B5074A01F00F03E0
:101C000003EB0013137020F00F0040EA1111517024
:101C1000FFF7A6FF08BD00BFD800002008B5094B9C
:101C2000D3F8002442F03002C3F80024D3F804248F
:101C300042F03002C3F804240349044804F04EF98A
:101C400008BD00BF00100040E8010020FC110300A7
:101C500038B505460C46C1F30B033BB1B1F5805FC7
:101C600026BF01F58054E41A4FF4805422462946D9
:101C7000094804F09BF9034608B1184638BD0648E8
:101C80004FF0FF3383610123C4F30F12294604F0A0
:101C9000D5F90346F1E700BFE80100202DE9F04344
:101CA00085B007468946904606F000FC07EB08051C
:101CB000AF4212D23C4602E00434AC420DD223685B
:101CC000B3F1FF3FF8D0291B2046FFF7C1FF0646BE
:101CD0000028F2D006F0DCFB14E04B4642463946C1
:101CE0000C4804F0E1F9064680B90123019303ABE7
:101CF00000934B4642463946064804F031FA064600
:101D000006F0C6FB304605B0BDE8F08306F0C0FB28
:101D1000F8E700BFE801002070B504460D461646FE
:101D200006F0C4FB46B1291F04EB860254F8043BBD
:101D300041F8043F9442F9D106F0AAFB70BD01704E
:101D40000B0A43700B0C8370090EC170042070479E
:101D500070B5C0B00D4E351FFC36002455F8041F79
:101D60000DEB0400FFF7EBFF0444A4B2B542F5D13C
:101D700014F0070302D00834E41AA4B222466946DC
:101D80004FF48030FFF78AFF40B070BDE0000020C4
:101D900008B5402202494FF48030FFF7BDFF08BD6F
:101DA000E000002010B5164B1A785B78934224D0DF
:101DB000134B5A70134B212083F8000141F2342158
:101DC000A3F80211104AC3F80421186059609A6000
:101DD000FFF7BEFF0324FFF7DBFF0A4B53F8242075
:101DE00083F80021621C53F82220A3F80221023458
:101DF00053F82420C3F8042110BD0024EBE700BFF2
:101E000004020020E00000207856341210B50E497C
:101E10005D2008F0CAFD0D4C0121204608F0EFFDC1
:101E20000221204608F0E9FD00221821204608F092
:101E3000D8FD00221321204608F0D3FD00221221F4
:101E4000204608F0CEFD10BD3405FE1FC0F00F4047
:101E500038B5524808F0D7FD80F00800C0F3C00440
:101E60004F4808F0D0FD10F4807F08BF44F0020412
:101E70004C4808F0C8FD10F4001F08BF44F00404EB
:101E8000484808F0C0FD10F4801F08BF44F0080463
:101E9000434808F0B8FD10F4007F08BF44F0100478
:101EA000414808F0B0FD10F4003F08BF44F02004A2
:101EB0003E4B5C803A4D284608F0A5FD80F48050EA
:101EC000C0F30034284608F09EFD10F4804F08BF90
:101ED00044F00204324808F096FD10F4005F08BF99
:101EE00044F004042E4808F08EFD10F4806F08BF03
:101EF00044F008042A4808F086FD10F4006F08BF7B
:101F000044F01004264808F07EFD10F4004F08BF8E
:101F100044F02004224808F076FD10F4001F08BFAA
:101F200044F040041E4808F06EFD10F4801F08BF06
:101F300044F080041A4808F066FD10F4002F08BF32
:101F400044F48074164808F05EFD10F4803F08BF2A
:101F500044F40074124808F056FD10F4800F08BFD6
:101F600044F480640E4808F04EFD10F4000F08BFE2
:101F700044F400640A4808F046FD10F0807F08BF72
:101F800044F48054064808F03EFD10F0007F08BF7E
:101F900044F40054054B1C8038BD00BF80F00F4056
:101FA00000F10F4040F00F40C0F00F40D407002078
:101FB00010B5044610F0010F14BF012200221721B2
:101FC0001C4808F00EFD14F0020F14BF012200227D
:101FD0000221184808F005FD14F0040F14BF012277
:101FE00000220321134808F0FCFC14F0080F14BF72
:101FF0000122002204210F4808F0F3FC14F0100F16
:1020000014BF0122002216210A4808F0EAFC14F04D
:10201000200F14BF012200220F21074808F0E1FC25
:1020200014F0400F14BF012200221021024808F0D2
:10203000D8FC10BDC0F00F4080F00F4001230021FC
:1020400040FA03F202F0010251400133102BF7D1A4
:1020500008467047E0B170B40F498C780B1D421EE2
:10206000D2B2033201EB42010025012601E08B428E
:102070000CD033F8022F12F4004FF8D0B3F86A00F6
:1020800090421CBF44F002043546F0E70DB970BC25
:102090007047014B9C70FAE708020020F8B5A8B120
:1020A0000C4EB41D431EDBB2043306EB43060A4F4D
:1020B00001252B4604F16A022146384609F0EEFB61
:1020C00028460AF04BFB0234B442F2D101200AF058
:1020D00045FBF8BD080200205400002010B54FF465
:1020E000A040FFF7ABFF0F4C00F0010040F4A04010
:1020F000E08001202071FFF7D1FFB4F87030C3F306
:102100004002627003F4C072B2F5C07F03D103F0E5
:102110006003602B04D0034A937843F00403937068
:1021200010BD00BF0802002010B54FF49C40FFF71F
:1021300085FF084C00F0010040F49C40E080012045
:102140002071FFF7ABFFB4F87000C0F342002070BD
:1021500010BD00BF0802002010B54AF6D430FFF7CA
:102160006DFF0D4C00F0010040F42B4040F0D40016
:10217000E0804AF62A40FFF761FF00F0010040F4DA
:102180002C4040F02A00208102202071FFF786FFBA
:102190002079FFF75FFF10BD0802002070B548F2FC
:1021A0005670FFF74BFF564C00F0010040F407401B
:1021B00040F05600E08048F2DE70FFF73FFF00F08D
:1021C000010040F4074040F0DE00208148F2AC609E
:1021D000FFF734FF00F0010040F4064040F0AC008F
:1021E000608148F22460FFF729FF00F0010040F40D
:1021F000064040F02400A081042626713046FFF7F7
:102200004DFF2079FFF726FFFFF768FF4FF40C40E2
:10221000FFF714FF00F0010040F40C40E0804FF4A1
:102220000E40FFF70BFF00F0010040F40E4020814C
:10223000022525712846FFF731FF2079FFF70AFFB5
:102240004FF40A40FFF7FAFE00F0010040F40A40A4
:10225000E08001202071FFF721FF2079FFF7FAFECF
:10226000FFF77AFF48F2BE70FFF7E8FE00F00100CA
:1022700040F4074040F0BE00E08048F26860FFF79D
:10228000DDFE00F0010040F4064040F068002081CF
:1022900048F27C70FFF7D2FE00F0010040F40740E6
:1022A00040F07C00608148F29470FFF7C7FE00F0B8
:1022B000010040F4074040F09400A08126713046B0
:1022C000FFF7ECFE2079FFF7C5FEFFF707FF4FF49D
:1022D000D050FFF7B3FE00F0010040F4D050E08092
:1022E0004FF4E050FFF7AAFE00F0010040F4E05088
:1022F000208125712846FFF7D1FEFFF715FF70BD3D
:102300000802002038B501280ED060B1022855D04F
:10231000314B1B78834206D02F4B1870FFF71CFF00
:1023200064200AF01BFA38BD2B4B1B78012BFAD026
:102330000122294B1A704AF60620FFF77FFE274C30
:1023400000F0010040F42A4040F00600E0804AF628
:10235000F850FFF773FE00F0010040F42D4040F00C
:10236000F8002081022525712846FFF797FE207985
:10237000FFF770FE0A200AF0F1F94AF60A20FFF78B
:102380005DFE00F0010040F42A4040F00A00E080C9
:102390004AF6F450FFF752FE00F0010040F42D40E1
:1023A00040F0F400208125712846FFF777FE207960
:1023B000FFF750FE0A200AF0D1F938BD064B1B7812
:1023C000022BB0D00222044B1A70FFF7C5FE0A2080
:1023D0000AF0C4F938BD00BFE20200200802002064
:1023E00010B50849084809F07DF8084C084920460E
:1023F00009F0E0F90221204609F072FAFFF7CEFE5B
:1024000010BD00BF740EFE1F7C0EFE1F5400002086
:102410002813030010B5EE4B1B78012B00F0088247
:102420000020FFF70BFEEA4C00F00100E0804FF4C3
:102430000070FFF703FE00F0010040F400702081FF
:102440004FF48060FFF7FAFD00F0010040F4806077
:1024500060814FF4C060FFF7F1FD00F0010040F42F
:10246000C060A0814FF40060FFF7E8FD00F00100BC
:1024700040F40060E0814FF42060FFF7DFFD00F0E2
:10248000010040F4206020824FF44060FFF7D6FD49
:1024900000F0010040F4406060824FF46060FFF79C
:1024A000CDFD00F0010040F46060A0824FF4805048
:1024B000FFF7C4FD00F0010040F48050E0824FF4CB
:1024C0009050FFF7BBFD00F0010040F490502083D6
:1024D0004FF4A050FFF7B2FD00F0010040F4A0500F
:1024E00060834FF4B050FFF7A9FD00F0010040F405
:1024F000B050A0834FF4C050FFF7A0FD00F00100E2
:1025000040F4C050E0834FF4D050FFF797FD00F047
:10251000010040F4D05020844FF4E050FFF78EFDCE
:1025200000F0010040F4E05060844FF4F050FFF7F9
:1025300085FD00F0010040F4F050A0844FF40050FD
:10254000FFF77CFD00F0010040F40050E0844FF400
:102550000850FFF773FD00F0010040F4085020859B
:102560004FF41050FFF76AFD00F0010040F41050E6
:1025700060854FF41850FFF761FD00F0010040F452
:102580001850A0854FF42050FFF758FD00F00100CF
:1025900040F42050E0854FF42850FFF74FFD00F045
:1025A000010040F4285020864FF43050FFF746FDDC
:1025B00000F0010040F4305060864FF43850FFF7CF
:1025C0003DFD00F0010040F43850A0864FF440502B
:1025D000FFF734FD00F0010040F44050E0864FF476
:1025E0004850FFF72BFD00F0010040F448502087D1
:1025F0004FF45050FFF722FD00F0010040F450501E
:1026000060874FF45850FFF719FD00F0010040F4C7
:102610005850A0874FF46050FFF710FD00F0010004
:1026200040F46050E0874FF46850FFF707FD00F07A
:10263000010040F46850A4F840004FF47050FFF7D8
:10264000FDFC00F0010040F47050A4F842004FF48B
:102650007850FFF7F3FC00F0010040F47850A4F844
:1026600044004FF48040FFF7E9FC00F0010040F423
:102670008040A4F846004FF48440FFF7DFFC00F0F0
:10268000010040F48440A4F848004FF48840FFF76C
:10269000D5FC00F0010040F48840A4F84A004FF453
:1026A0008C40FFF7CBFC00F0010040F48C40A4F814
:1026B0004C004FF49040FFF7C1FC00F0010040F4E3
:1026C0009040A4F84E004FF49440FFF7B7FC00F0A0
:1026D000010040F49440A4F850004FF49840FFF7F4
:1026E000ADFC00F0010040F49840A4F852004FF413
:1026F0009C40FFF7A3FC00F0010040F49C40A4F8CC
:1027000054004FF4A040FFF799FC00F0010040F4A2
:10271000A040A4F856004FF4A440FFF78FFC00F04F
:10272000010040F4A440A4F858004FF4A840FFF77B
:1027300085FC00F0010040F4A840A4F85A004FF4D2
:10274000AC40FFF77BFC00F0010040F4AC40A4F883
:102750005C004FF4B040FFF771FC00F0010040F462
:10276000B040A4F85E004FF4B440FFF767FC00F0FF
:10277000010040F4B440A4F860004FF4B840FFF703
:102780005DFC00F0010040F4B840A4F862004FF492
:10279000BC40FFF753FC00F0010040F4BC40A4F83B
:1027A00064004FF4C040FFF749FC00F0010040F422
:1027B000C040A4F866004FF4C440FFF73FFC00F0AF
:1027C000010040F4C440A4F868004FF4C84001E0A0
:1027D00008020020FFF732FC00F0010040F4C8407E
:1027E000A4F86A004FF4CC40FFF728FC00F0010089
:1027F00040F4CC40A4F86C004FF4FC40FFF71EFC02
:1028000000F0010040F4FC40A4F86E003520207177
:10281000FFF744FC217921B100230133DAB2914260
:10282000FBD8FFF781FC054BD878FFF76BFD10BD97
:10283000642009F093FFFFF7B1FCF4E708020020E1
:1028400008B50449044808F04DFE0449044808F05E
:1028500049FE08BD1C0EFE1F240EFE1F480EFE1F63
:10286000500EFE1F7047000038B50D46164C174A33
:102870000021204608F03EFD154A0221204608F0BE
:1028800039FDDDB9114B5B6833B1B3F5F46F03D19A
:102890000E4B1B7A422B12D00E490F4B0B600023BC
:1028A0001A460E48006809F089FA0D4A137A013376
:1028B00013720023054A5360054A536038BD012254
:1028C000084B1A70E8E700BF7812030034030020B9
:1028D000E8020020E4020020E4020020D0050020ED
:1028E000B8050020D500002070B594B002900823F0
:1028F0008DF84C30002301934B1E03AA073113F8C7
:10290000010F02F8010B8B42F9D140F2ED140E4E8B
:1029100001252946304608F041FD70B1013CA4B2C2
:10292000002CF6D1084C0121204608F007FD01AA31
:102930000121204608F0A0FC04E001AA0121024880
:1029400008F09AFC14B070BD7812030010B51D4C4D
:102950001D49204608F080FB00231C4A19462046EA
:1029600008F04CFC1A4A0121204608F00DFC002317
:10297000184A0221204608F041FC174A032120464C
:1029800008F002FC00231A461946204608F0F2FC23
:10299000002302220121204608F0ECFC00220F490E
:1029A000204608F019FD0221512005F087FD0C4A50
:1029B0000021204608F09EFC0A4A0221204608F029
:1029C00099FC10BD7812030044120300AC0EFE1FE8
:1029D000BC0EFE1FA40EFE1FB40EFE1F69280200CF
:1029E00034030020E802002038B50D462D4C2E4A55
:1029F0000421204608F07EFC2C4A0621204608F0DF
:102A000079FC002D38D1284B5B681BB3132B1BD0EE
:102A10000FD9B3F5F27F30D040F2014293423AD061
:102A2000222B17D1224B234A92E8030083E80300AC
:102A300010E0112B28D0122B0CD11F4B1D4A92E80D
:102A4000030083E8030005E01C4B1A4A92E80300E8
:102A500083E803001A49194B0B6000231A461948F2
:102A6000006809F0ABF9184A537A01335372002316
:102A70000D4A53600D4A536038BD144B0D4A92E81D
:102A8000030083E80300E5E7114B0A4A92E80300DC
:102A900083E80300DEE70F4B064A92E8030083E871
:102AA0000300D7E7B412030000040020B4030020A1
:102AB000A0030020080400209803002080030020C9
:102AC000B0030020D4050020B805002088030020B2
:102AD00090030020A803002070B594B00290082352
:102AE0008DF84C304B1E03AA073113F8010F02F882
:102AF000010B8B42F9D140F2ED140E4E052529460B
:102B0000304608F04BFC70B1013CA4B2002CF6D169
:102B1000084C0521204608F011FC01AA0521204699
:102B200008F0AAFB04E001AA0521024808F0A4FB72
:102B300014B070BDB412030010B51D4C1D492046E1
:102B400008F08AFA00231C4A0421204608F056FBAC
:102B50001A4A0521204608F017FB0023184A0621CF
:102B6000204608F04BFB174A0721204608F00CFBD3
:102B7000002304221946204608F0FCFB002306220D
:102B80000121204608F0F6FB00220F49204608F0FC
:102B900023FC0221582005F091FC0C4A0421204618
:102BA00008F0A8FB0A4A0621204608F0A3FB10BD46
:102BB000B412030080120300CC0EFE1FDC0EFE1FB9
:102BC000C40EFE1FD40EFE1FE929020000040020DF
:102BD000B403002038B50D460F4C104A0A21204698
:102BE00008F088FB0E4A0C21204608F083FB05B153
:102BF00038BD0C490C4B0B6000231A460B4800688B
:102C000009F0DCF80A4A937A013393720023034AED
:102C10005360034A5360EBE7F01203009C0400206A
:102C2000500400204C0400204C040020D805002053
:102C3000B805002008B503282ED8DFE800F0020D03
:102C4000182301220821154807F0CBFE01220D218F
:102C5000134807F0C6FE08BD012208210F4807F0FF
:102C6000C0FE00220D210E4807F0BBFE08BD002269
:102C700008210A4807F0B5FE00220D21084807F098
:102C8000B0FE08BD00220821044807F0AAFE012278
:102C90000D21034807F0A5FE08BD00BF40F00F401E
:102CA000C0F00F4010B5214C2149204608F0D4F95E
:102CB0000023204A0A21204608F0A0FA1E4A0B21D0
:102CC000204608F061FA1D4A0E21204608F05CFA01
:102CD00000231B4A0C21204608F090FA194A0D21C6
:102CE000204608F051FA00230A221946204608F02F
:102CF00041FB00230C220121204608F03BFB00226F
:102D00001149204608F068FB02215F2005F0D6FB40
:102D10000E4A0A21204608F0EDFA0D4A0C21204601
:102D200008F0E8FA0020FFF785FF10BDF01203005D
:102D3000BC120300EC0EFE1FFC0EFE1F040FFE1F54
:102D4000E40EFE1FF40EFE1FD52B02009C04002093
:102D50005004002070B582B00E4601A92C4808F03E
:102D60003EFE022838D001A9294808F038FE002884
:102D700047D1284C284D2B7823700AF04BF82B466E
:102D8000224605F1240013F8011F02F8011F8342B7
:102D9000F9D10AF04FF821491E4B0B60002302AA1B
:102DA00042F8083D1E48006809F008F8009B3BB156
:102DB0004FF080521B4B1A60BFF34F8FBFF36F8FE2
:102DC000194AD37A0133D372134C24220021601C98
:102DD0000EF00BFA002323708EB90F4A13781A44B1
:102DE00052780A2A0BD0222B09D00133DBB20A49D0
:102DF0000B70013301221944054808F0F9FD02B0B7
:102E000070BD01220949024808F0E0FDE4E700BF77
:102E10009C13030038050020E8040020340500203E
:102E2000E805002004ED00E0B8050020E9040020DA
:102E300010B5074C0749204608F05CFD0821212009
:102E400005F03CFB01220449204608F0BFFD10BDFF
:102E50009C1303007C130300E904002008B5012241
:102E60000249034808F0B2FD08BD00BFE904002094
:102E70009C13030010B582B00C4601A9314808F03C
:102E8000AEFD022808D001A92E4808F0A8FD0122B5
:102E90002D492C4808F09AFD5CB92C4B1B78A3B93E
:102EA000294B1B780F2B06D001222749254808F013
:102EB0009FFD02B010BD0122244B1A700022244B4A
:102EC0001A700F22234B1A70EEE7012BECD1204A27
:102ED00013780133DBB213701B4A11781D4AD154A9
:102EE000172BE1D90022194B1A701A4B1B7E002BAD
:102EF000DAD1194C23780133237009F08BFF154B7D
:102F0000224603F1170013F8011F02F8011F834244
:102F1000F9D109F08FFF11490F4B0B60002302AA72
:102F200042F8083D0E48006808F048FF009B002B5F
:102F3000BAD04FF080520B4B1A60BFF34F8FBFF3E4
:102F40006F8FB1E7C4130300790500209A050020B4
:102F500099050020800500209C0500207C050020AC
:102F6000EC05002004ED00E010B5074C07492046B1
:102F700008F0C0FC0221232005F0A0FA0122044938
:102F8000204608F023FD10BDC4130300A413030062
:102F90007905002000B583B000230D4A01210D48BA
:102FA00002F0AEFB0021084602F0B8FBFEF72EFF50
:102FB000094B01930423009300234FF40072074947
:102FC000074809F009F909F057FA03B05DF804FB66
:102FD000480000208C04FE1F00060020CC130300D4
:102FE0008D31020010B582B01F4B01930424009470
:102FF00000234FF400721D491D4809F0EDF81D4BE8
:103000000193009400234FF400721B491B4809F000
:10301000E3F81B4B0193009400234FF4007219490D
:10302000194809F0D9F8194B0193009400234FF483
:1030300000721749174809F0CFF8174B0193009415
:1030400000234FF400721549154809F0C5F8154BD7
:103050000193009400234FF400721349134809F0C0
:10306000BBF802B010BD00BF0C060020D413030053
:103070002D3C020010060020E01303006D3C02000E
:1030800008060020EC13030021380200FC05002094
:10309000F8130300C13402000406002004140300E6
:1030A0002D370200F805002010140300F93102004A
:1030B00008B500220421032008F0C8FD244B186045
:1030C00000220421032008F0C1FD224B18600022D9
:1030D0000421032008F0BAFD1F4B186000220421D0
:1030E000032008F0B3FD1D4B1860002204210320CB
:1030F00008F0ACFD1A4B186000220421032008F0F0
:10310000A5FD184B186000220421032008F09EFD45
:10311000154B186000220421032008F097FD134B83
:10312000186000220421032008F090FD104B186065
:1031300000220421032008F089FD0E4B18600022B4
:103140000421032008F082FD0B4B186008BD00BF6E
:10315000D0050020D4050020D8050020DC05002083
:10316000E0050020E4050020E8050020EC05002033
:10317000F0050020F4050020CC05002008B508F07B
:1031800040FC014B186008BDB405002008B509F0EB
:1031900041FEFDF7B1FEFDF7D1FFFEF753F9FEF753
:1031A0000FFAFFF745FEFFF7DFFEFFF7CFFBFFF754
:1031B000C3FCFFF777FDFFF713F9FEF7B9FCFEF745
:1031C0003DFAFFF73DFBFEF729FDFFF70BFFFFF789
:1031D0006FFFFFF7D3FF034B186809F0E7F809F01A
:1031E00029FE08BD0006002008B50221014807F0AD
:1031F00006FC08BDC0F00F402DE9F04F2DED028B0D
:1032000085B00023039309F075F903900124A24FC0
:10321000A24D05F11009A24EDFF8A0829FEDA18A10
:1032200061E03A682B461068516803C3114651F8B3
:10323000080F496803C3114651F8100F496803C3CA
:10324000114651F8180F496803C3114651F8200F71
:10325000496803C352F8280F516803C34BE0924BEF
:103260001A68924B116819605168596091689960A9
:10327000D168D96011691961516959619169996180
:10328000D169D961116A1962526A5A623BE04946B2
:103290002020FFF721FC05F120012120FFF71CFC75
:1032A00005F1280140F26940FFF716FC33E005F113
:1032B00018011020FFF710FC36E005F1080140F678
:1032C000EF10FFF711FB39E00134A4B242F21073A2
:1032D0009C4288BF01240A2103A809F011FA744A0C
:1032E000537C0133537400223946724B186808F03E
:1032F000DDFD012895D000226B496F4B186808F05E
:10330000D5FD0128ABD0294640F6EF00FFF7ECFAD7
:1033100014F0010FBBD0A6FB04239B0803EB83032F
:10332000E31A9BB2002BC2D0A6FB0423DB0803EBFD
:103330008303A4EB43039BB2002BBED0A8FB042362
:103340001B09322202FB13439BB2002BBCD1DFF8D6
:103350005CA1DAED007A67EE887AFDEEE77A17EE87
:10336000903A1BB21A128DF804208DF80530DAED70
:10337000017A67EE887AFDEEE77A17EE903A1BB293
:103380001A128DF806208DF80730DAED027A67EE12
:10339000887AFDEEE77A17EE903A1BB21A128DF892
:1033A00008208DF80930DAED097A67EE887AFDEEAB
:1033B000E77A17EE903A1BB21A128DF80A208DF8B0
:1033C0000B3001A9BA20FFF78FFADAED037A67EE26
:1033D000887AFDEEE77A17EE903A1BB21A128DF852
:1033E00004208DF80530DAED047A67EE887AFDEE78
:1033F000E77A17EE903A1BB21A128DF806208DF874
:103400000730DAED057A67EE887AFDEEE77A17EE97
:10341000903A1BB21A128DF808208DF809304FF03F
:10342000000B8DF80AB08DF80BB001A9BB20FFF797
:103430005BFADAED077A67EE887AFDEEE77A17EE47
:10344000903A1BB21A128DF804208DF80530DAED8F
:10345000067A67EE887AFDEEE77A17EE903A1BB2AD
:103460001A128DF806208DF80730DAED087A67EE2B
:10347000887AFDEEE77A17EE903A1BB21A128DF8B1
:1034800008208DF809308DF80AB08DF80BB001A92D
:10349000BC20FFF729FA17E7740600201C0600205D
:1034A000CDCCCCCC0000C842780600204C060020D1
:1034B000B8050020DC050020CC0500201F85EB515D
:1034C0002DE98848DFF85882DFF858920024734DC0
:1034D000734F07F1040A8AE0D8F800602B46306881
:1034E0007168B26807C356F80C0F716803C387E0B0
:1034F0006C4B1E6833883B8073887B803346D44690
:1035000053F8040F59689A68DB68ACE80F00337D04
:103510003B75334653F8162FC7F816209B887B83DC
:10352000334653F81C0FF8619B883B8456F8223FC2
:10353000C7F82230B388FB846BE022465A495B4BC4
:10354000186808F0B3FC5A4B1B78002B00F0A080E1
:103550003A88584E3280584BDA81AA891A80EA8913
:103560005A802A8A9A802A88DA806A881A81AA88E8
:103570005A81EA889A8109F0D5FE504A504913468B
:103580000868496803C34F490868496803C34E493E
:103590000868496803C34D490868496803C34C4932
:1035A0000868496803C34B490868496803C3DFF8E2
:1035B00078B1494B19788BF800105B788BF80130A3
:1035C00046490A60234622464548006808F064FBE5
:1035D0004449C1F800B0234622464348006808F039
:1035E0005BFBF37B0133F3730A2009F0B7F8224643
:1035F0004146D9F8000008F059FC01283FF46CAFAF
:1036000022462849394B186808F050FC01283FF43D
:103610006FAF22463649374B186808F047FC224600
:103620003549364B186808F041FC22463449354B81
:10363000186808F03BFC01287FF47FAF304B1B6813
:10364000314A186859681060516030491A4652F87A
:10365000080F526808604A602D491A4652F8100F48
:10366000526808604A602B491A4652F8180F52688F
:1036700008604A6028491A4652F8200F52680860CC
:103680004A60264A53F8281F5B681160536054E76C
:103690000122074B1A700CF079FB59E7AC060020A9
:1036A000C006002000070020F4060020D8050020F6
:1036B0000C070020B8050020E4D700207C0600207D
:1036C000A8D70020B0D7002094D70020C8D700206A
:1036D00084D70020B8D70020F4D70020F8060020B7
:1036E000DC05002008070020E0050020F40500208C
:1036F00004070020EC050020EC060020D005002087
:10370000F0060020D40500209CD7002004D800201B
:10371000D0D70020D8D700208CD70020C0D70020D9
:10372000FC060020F0050020E806002080B5234FAD
:10373000DFF8A090224E234D234CDFF89C8023E03D
:103740003B681A7832709A782A705A781F4B1A7030
:1037500022E0A0701D4B19786170FEF74DFAFEF75C
:1037600059FEFDF737FFFFF77DF8FEF71BFBFDF76E
:1037700051FF0121404607F044F9154A137C0133FB
:103780001374C82008F0EAFF00223946D9F8000077
:1037900008F08CFB0128D3D030782378834202D004
:1037A0002070FEF705FC2878A3788342D1D1627897
:1037B000064B1B789A42CCD1D1E700BF18070020F6
:1037C0001C0700201407002010070020130700200A
:1037D000B8050020E0050020C0F00F40DFED0B7AB7
:1037E00060EEA70A30EE800ADFED097AB4EEE70A50
:1037F000F1EE10FAC4BFDFED077A30EE670A20EE73
:10380000010ADFED057A20EE270A704700008043A9
:1038100000FEFF4600FF7F47000000380000000068
:103820002DE980488BB04FF0000BDFF86C92DA4640
:10383000DFED97AA8DE1974B19680B4613F8010B42
:103840004A4602F8010B41311E685D689C68D868E1
:10385000166055609460D060103310328B42F3D103
:10386000FFF7FCFA84E109EB050205F10A0609EB12
:10387000060012F8013F1C44E4B28242F9D14E44E2
:103880007378A34229D00A35EDB20135EDB2232D6C
:1038900000F20481294609EB05035B78552BF4D12E
:1038A00009EB05039B78532BDDD0522B4CD0512BC9
:1038B000EBD109EB050205F10A0609EB060012F847
:1038C000013F1C44E4B29042F9D14E447378A342C4
:1038D00000F084800A35EDB2D7E709EB01063379B1
:1038E00000EE903AF37800EE103AB0EE481AF8EE97
:1038F000600AB8EE400AFFF771FFB0EE40AAB37954
:1039000000EE903A737900EE103AB0EE481AF8EEF5
:10391000600AB8EE400AFFF761FFF0EE409A337A92
:1039200000EE903AF37900EE103AB0EE481AF8EE55
:10393000600AB8EE400AFFF751FFB0EE409A0197D7
:10394000009B029398469EE709EB050205F10A06E3
:1039500009EB060012F8013F1C44E4B28242F9D19F
:103960004E447378A34202D00A35EDB28DE709EBDD
:103970000106337900EE903AF37800EE103AB0EE9B
:10398000681AF8EE600AB8EE400AFFF727FFB0EEBB
:1039900040CAB37900EE903A737900EE103AB0EE77
:1039A000681AF8EE600AB8EE400AFFF717FFF0EE6B
:1039B00040BA337A00EE903AF37900EE103AB0EE66
:1039C000681AF8EE600AB8EE400AFFF707FFB0EE9B
:1039D00040BA0597009B04930393C5E709EB0106E2
:1039E000337900EE903AF37800EE103AB0EE6A1AAE
:1039F000F8EE600AB8EE400AFFF7F0FEB0EE40EADB
:103A0000B37900EE903A737900EE103AB0EE6A1A8C
:103A1000F8EE600AB8EE400AFFF7E0FEF0EE40DA9A
:103A2000337A00EE903AF37900EE103AB0EE6A1A6B
:103A3000F8EE600AB8EE400AFFF7D0FEB0EE40DACA
:103A4000B37A00EE903A737A00EE103AB0EE6E1A46
:103A5000F8EE600AB8EE400AFFF7C0FE10EE100A5A
:103A6000FCF760FE08A3D3E90023FCF7FDFCFDF79B
:103A7000A9F90CEE900A0997009B08930793069307
:103A800028E700BFAFF30080A4703D0AD74342404F
:103A9000CDCC1C43BC07002048070020B8F1000F24
:103AA00040F09980029B13B1534BC3ED079A019BE1
:103AB00013B1514B83ED089A069B13B14E4B83ED26
:103AC00000EA079B13B14C4BC3ED01DA089B13B11D
:103AD000494B83ED02DA099B13B1474BC3ED09CA89
:103AE000039B13B1444B83ED03CA049B13B1424BB8
:103AF000C3ED04BA059B13B13F4B83ED05BA3F4BB1
:103B00003D4A116819605168596091689960D1689F
:103B1000D960116919615169596191699961D169D6
:103B2000D961116A1962526A5A6235490B605B4663
:103B30005A463448006808F0AFF8334B1B78012B25
:103B40004DD0324A937B013393734FF4FA7008F0EF
:103B500005FE5A462E492F4B186808F0A7F95A4619
:103B60002D492E4B186808F0A1F901283FF463AEE7
:103B7000214B93ED00EAD3ED01DA93ED02DAD3EDB8
:103B800009CA93ED03CAD3ED04BA93ED05BA93EDD8
:103B900006AAD3ED079A93ED089ACDF814B0CDF8A4
:103BA00010A0CDF80CA0CDF824A0CDF820A0CDF821
:103BB0001CA0CDF818A0CDF804A0CDF808A0D046E0
:103BC00054465546DFED16EA01270097DFED158ACA
:103BD0009FED158A5EE6084B83ED06AA62E70D4B62
:103BE000186808F0EBF9084C20710C4B186808F0C5
:103BF000E5F96071A5E700BF8C07002020070020D1
:103C0000B4070020CC05002014060020B8050020D1
:103C1000B8070020E4050020BC070020E8050020CC
:103C20008FC2C0420000FA440000344308B50B4C78
:103C30000B4E0C4DFDF778F9FDF78AFA266000234C
:103C40001A462146286808F027F8074A137B0133F3
:103C50001373052008F082FDECE700BFFC0700208D
:103C6000C0070020F0050020B805002008B50C4C66
:103C70000C4E0D4DFEF7ECF8FDF7F4FBFDF7FCFCE8
:103C8000266000231A462146286808F005F8074AEE
:103C9000537B01335373642008F060FDEAE700BFF3
:103CA00000080020D4070020F4050020B8050020FB
:103CB0004FF0E023D3F8882D42F47002C3F8882D2A
:103CC000D3F8342F22F08042C3F8342F084B094A2E
:103CD0005A605A6842F220121A604FF6FF729A60D8
:103CE000054AD2F8003843F4F803C2F800387047A8
:103CF0000020054020C528D900D000404FF0E02129
:103D0000D1F80C2D92B2024B1343C1F80C3D704711
:103D10000400FA05264B274A9A4208D01346244845
:103D2000254A13F8011B02F8011B9842F9D1234BD5
:103D3000234A9A4208D013462048224A13F8011B0E
:103D400002F8011B8342F9D11F4B204A9A4206D048
:103D5000134600211C4A03F8011B9342FBD11C4B64
:103D60001C4A9A4208D0134619481B4A13F8011BF3
:103D700002F8011B8342F9D1184B194A9A4212D01A
:103D800010B4184CA40808D01946002351F8040BAD
:103D900042F8040B0133A342F8D1134B104A1A60C6
:103DA0005DF8044B7047104B0C4A1A60704700BF17
:103DB000B0260300481A03000004FE1FE826030093
:103DC000B02603006810FE1F50DA0020000000201B
:103DD000E8260300E826030000000020000002009F
:103DE0000000FE1F0004000008ED00E00023037047
:103DF0000C2242708370C370037143718371C3716D
:103E0000037243728372704770B584B006460D46E4
:103E10005D4B53F820404C238DF80C304D238DF82A
:103E20000D3004A9002341F8083D04AB034413F806
:103E3000040C01F0E7FC2B78029ADA400292226C23
:103E400022F060025B0103F06003134323646B788C
:103E5000002B08BF0123626C22F0FF02134363644E
:103E6000226C22F00C02AB789B0003F00C0313438E
:103E70002364226C22F00302EB7803F00303134364
:103E80002364D4F8902022F040022B799B0103F0A8
:103E900040031343C4F890306B79302200924FF402
:103EA00040520192394A926904A901EB860151F806
:103EB000101C22EA0102002E43D0012E4FD0334BBA
:103EC0009A61AA79012100914FF4807101919B6957
:103ED00004A901EB860151F8101C23EA0103002E0E
:103EE00039D0012E45D0294A9361D4F8903023F07F
:103EF0000403EA79002A14BF042200221343C4F801
:103F00009030D4F8902022F003022B7A03F00303C0
:103F10001343C4F89030D4F8943023F008036A7A3D
:103F2000002A14BF082200221343C4F8943036B983
:103F3000AB7A1BBB154A536823F40023536004B0CB
:103F400070BD1B0103F03003134310498B61AA7944
:103F50008B6923F0010302F001021343C3E71B0343
:103F600003F44053134309498B61AA798B6923F405
:103F70008073120202F480721343B4E7034A536859
:103F800043F400235360DAE7201403000080044068
:103F900030B4144B53F8200053881478A3F57062A2
:103FA00092B2052A0BD8104A556825F4E0255560D1
:103FB00055681B0403F4E0232B435360152300EBE7
:103FC0008101D1F8082103F03F0322F07F0213435F
:103FD000002C14BF402200221343C1F8083130BC2A
:103FE000704700BF201403000080044082B00E23FD
:103FF00000934FF4606301930C4B9B6902AA02EBA0
:10400000800252F8082C23EA020328B1012808D0C4
:10401000064A936102B07047490001F00E010B435C
:10402000F6E7490201F460610B43F1E700800440C8
:1040300010B582B00446264B53F8201000233F22CF
:1040400041F823200133102BFAD100230B640C22FA
:104050004A64C1F88830C1F88C30C1F89030C1F89A
:104060009430C1F8A0300422C1F8B0203F2003F101
:10407000420241F822000133202BF8D13023009373
:104080004FF440530193134B9A6902A901EB840149
:1040900051F8080C22EA00029A61012200924FF4C2
:1040A000807201929A6951F8081C22EA01029A6111
:1040B00000212046FFF79AFF44B9064B5A6822F4C4
:1040C00000225A605A6822F4E0225A6002B010BD01
:1040D0002014030000800440044B53F82030623168
:1040E00053F82130C3F30B031380704720140300EF
:1040F0002DE9F04782B04F4B53F82040D4F894306C
:10410000C3F38008D4F8947007F00307D4F89060E4
:10411000656CEDB2D4F8943043F00303C4F89430E6
:10412000D4F8943043F00403C4F89430D4F89030B9
:1041300023F04003C4F89030636C23F0FF0343F096
:104140000C0363640023C4F8B430C4F8B830C4F876
:10415000BC30C4F8C030C4F8C430C4F8C830C4F8A7
:10416000CC304C228DF804204D228DF8052002A978
:1041700041F8083DD4F840904FEA591A02AB184470
:1041800010F8040C01F03EFB009B0AF0030A23FA2E
:104190000AFA294A924512D9284A934208D9284A4C
:1041A000934245D9274A934294BF0323002300E05A
:1041B0000123226C22F0600242EA43132364D4F804
:1041C000943043F08003C4F89430D4F8943013F062
:1041D0008003FAD1226C22F0600209F0600949EAFA
:1041E00002022264D4F8942022F00402B8F1000FF5
:1041F00018BF04231343C4F89430D4F8943023F048
:1042000003031F43C4F89470D4F8903023F04003A4
:1042100006F040061E43C4F89060002D08BF01253B
:10422000636C23F0FF031D43656402B0BDE8F087B3
:104230000223BEE72014030040787D0181F0FA02DA
:1042400003E1F50507C2EB0B014B33F91000704792
:104250001C140300074B5B69DBB2042B06D0802BD8
:1042600006D0012B0CBF01200420704702207047AC
:104270000320704700E00740044BD3F8003113F0EF
:10428000807F1ABF024B186800207047004006402C
:104290002408002010B584B00B4600293BD0444AC6
:1042A000D2F8002112F0007F7DD1414AD2F80011EE
:1042B00021F40001C2F800114FF08061C2F8001132
:1042C00000213C4A1160002870D05A7A120202F490
:1042D000E062197A01F007010A433548C0F8042169
:1042E000DA79120102F030029979C90001F008016F
:1042F0000A435979890001F004010A43C0F80821F2
:104300001A79012A29D0E2B1022A32D01A68294B3F
:104310001A60294C3BE000238DF804308DF80C30F6
:1043200001228DF808208DF809208DF805208DF8E0
:10433000063002238DF8073004AB204A43F8102DD5
:10434000ADE71A7B002A14BF4FF40002002242F0AE
:1043500001021749C1F80021D8E71A7B002A14BFCF
:104360004FF40002002242F001121149C1F800216D
:10437000CCE71A7B002A14BF4FF403024FF44032FB
:1043800042F001020A49C1F80021BFE7013CFFF7F2
:1043900073FF18B9002CF9D1032005E0002C14BFDD
:1043A0000020032000E0022004B010BD0020FBE745
:1043B000004006402408002088E7300000127A0000
:1043C000084BD3F8003213F0807F09D0054BD3F8A7
:1043D000083203F00103002B034808BF0020704798
:1043E000002070470040064000127A0010B582B0ED
:1043F0000B46002938D02D4AD2F8002212F0007F57
:104400004FD12A4AD2F8001221F40001C2F800125A
:104410000021C2F80012002846D09A78120202F455
:10442000E062597801F007010A432049C1F80422EB
:104430001A7802F00102C1F8082259799A791B7999
:10444000002B14BF03230123002914BF04210021E2
:104450000B43002A14BF4FF4000200221343134AF7
:10446000C2F80032642410E000238DF804300122E9
:104470008DF805208DF806308DF801208DF802208A
:1044800002AB03F8082DB6E7013CFFF799FF18B916
:10449000002CF9D1032005E0002C14BF00200320DC
:1044A00000E0022002B010BD0020FBE70040064003
:1044B000054BD3F8003313F0807F1DBF024BD3F8B8
:1044C000083302480020704700400640006CDC02C0
:1044D00010B582B00B46002932D0294AD2F8002309
:1044E00012F0007F47D1264AD2F8001321F40001D0
:1044F000C2F800134FF08061C2F8001300283DD0CD
:104500009A78120202F4E062597801F007010A4336
:104510001B49C1F804231A7802F00302C1F80823EA
:104520009A795B79002B14BF01230923002A14BF59
:104530004FF4000200221343C1F8003314240EE0AC
:1045400001238DF8053000228DF806208DF801300A
:104550008DF8023002AB03F8082DBEE7013CFFF7EF
:10456000A7FF18B9002CF9D1032005E0002C14BFD7
:104570000020032000E0022002B010BD0020FBE775
:104580000040064008B50F4BD3F8003613F0807F8B
:1045900002D10023184608BDFFF76EFE034600282F
:1045A000F8D00849D1F80826C2F302220132B0FB44
:1045B000F2F3D1F80826C2F30442103203FB02F3EF
:1045C0005B08E7E70040064010B584B00C4699B19F
:1045D0003D4BD3F8003613F0007F72D13A4BD3F83D
:1045E000002622F40002C3F800264FF08062C3F8D0
:1045F0000026A0B9002065E000238DF804308DF876
:104600000B3001228DF808208DF809208DF8053037
:1046100007228DF806208DF8073001ACD8E7FFF7A8
:104620002BFE63791B0203F4E063227902F0070298
:1046300013432549C1F8043663781B0203F4E06391
:10464000A278120402F4F8121343C1F80836237852
:10465000012B16D04BB1022B1FD04FF47A74FFF709
:1046600091FF48BB34B3013CF9E7E379002B14BF59
:104670004FF40003002343F00103134AC2F800364D
:10468000EBE7E379002B14BF4FF40003002343F062
:1046900001130D4AC2F80036DFE7E379002B14BF9F
:1046A0004FF403034FF4403343F00103064AC2F8CA
:1046B0000036D2E7032005E0002C14BF00200320C1
:1046C00000E0022004B010BD004006402DE9F0419A
:1046D00080460D468C7801344E7806FB04460F78F0
:1046E00007FB0447CB78013B052B1CD8DFE803F020
:1046F0000312151B1B18FFF7BFFD0009B8F1020FCD
:104700004AD0B8F1030F7BD0B8F1010F0DD00020D3
:10471000BDE8F081FFF754FEEFE7FFF7C9FEECE7D5
:10472000FFF730FFE9E70020E7E7EA7802EB420114
:104730005B4B53F821301B0904FB03F4A04200F249
:1047400093800B46564901EB83035B681B0906FB0C
:1047500003F6B04200F28B8002EB420301EB8303CD
:104760009B681B0907FB03F7B84200F28380AB7814
:104770001B0403F47023120602F0706213432A78BC
:1047800002F00F0213436A781201D2B21343454A72
:1047900053610020BDE8F081EA7802EB4201424B10
:1047A00053F821301B0904FB03F4A04265D80B46E3
:1047B0003D4901EB83035B681B0906FB03F6B0422E
:1047C0005ED802EB420301EB83039B681B0907FBE6
:1047D00003F7B84257D8AB781B0403F470231206D2
:1047E00002F0706213432A7802F00F0213436A78D2
:1047F0001201D2B213432B4A93610020BDE8F0812D
:10480000EB7803EB4301294A52F82120120904FBFB
:1048100002F4A0423AD80A46244901EB82025268C7
:10482000120906FB02F6B04233D803EB430201EB58
:1048300082029268120907FB02F7B8422CD8AA78C4
:10484000120402F470221B0603F0706313432A78EB
:1048500002F00F0213436A781201D2B21343114AD5
:10486000D3610020BDE8F0810120BDE8F081012086
:10487000BDE8F0810120BDE8F0810120BDE8F081B4
:104880000120BDE8F0810120BDE8F0810120BDE8F4
:10489000F0810120BDE8F0810120BDE8F08100BF7A
:1048A000341503000040064088150300E01403009F
:1048B00038B50546FFF7CEFC2946FFF707FF04464B
:1048C00058B9E8780A220849013A0B69C3F303632F
:1048D000984204D0002AF7D10324204638BD002A8C
:1048E00008BF0324F9E700BF0040064010B50446A6
:1048F0001B4B1B69C3F30363013B052B1DD8DFE88A
:1049000003F00313161C1C19FFF7B6FC144B1B69AC
:10491000C3F303430133B0FBF3F0012C0FD0ECB130
:10492000022C14D0002010BDFFF74AFDEEE7FFF780
:10493000BFFDEBE7FFF726FEE8E70020E6E7084BC0
:104940001B69C3F303130133B0FBF3F010BD044B39
:104950001B6903F00F030133B0FBF3F010BD00BF80
:104960000040064008B5094BD3F8D801C0F3807069
:1049700038B103F588331B681B0E03D10020FFF705
:10498000B5FF08BD0120FFF7B1FF08BD005006408C
:1049900008B50F4B1B6AC3F30363062B15D8DFE87A
:1049A00003F004080B0E141411000220FFF79EFF01
:1049B00008BDFFF761FC08BDFFF702FD08BDFFF76A
:1049C00077FD08BDFFF7DEFD08BD002008BD00BF74
:1049D0000040064008B541B1012931D0002002460F
:1049E00010B1431E22FA03F008BD0438032852D840
:1049F000DFE800F00B02141DFFF75AFD0246294BB9
:104A0000D3F8040300F00700EAE7FFF7D9FC0246F9
:104A1000244BD3F8040200F00700E1E7FFF72CFC79
:104A20000246204BD3F8040100F00700D8E7FFF757
:104A3000A9FD02461B4BD3F8040600F00700CFE7A0
:104A4000043803282AD8DFE800F00B02141DFFF712
:104A50002FFD0246134BD3F80403C0F30220BFE737
:104A6000FFF7AEFC02460F4BD3F80402C0F302205E
:104A7000B6E7FFF701FC02460A4BD3F80401C0F386
:104A80000220ADE7FFF77EFD0246064BD3F8040691
:104A9000C0F30220A4E700200246A1E7002002465E
:104AA0009EE700BF0040064008B5114B1B69C3F3E9
:104AB0000113032B19D8DFE803F0020710130021BC
:104AC0000620FFF787FF08BD094B186900F00200B8
:104AD000002818BF4FF4FA4008BD064B186808BDFF
:104AE00000210520FFF776FF08BD002008BD00BFAC
:104AF000008004400408002008B50B4B1B6A13F02B
:104B0000806F0FD0094B1B681B0E4FF0000114BFC4
:104B100005200720FFF75EFF044B5B6A0133B0FB03
:104B2000F3F008BD002008BD00800440006007408D
:104B300038B51C4B33F810309B0003F1804303F56C
:104B4000CA231D68C5F3C0051C6804F00704AC4205
:104B500025D31868C0F3807010B31B68C3F30263D9
:104B6000013B052B19D8DFE803F0030C10181814CB
:104B70000620FFF72FFF0134B0FBF4F005FB000027
:104B800038BD0420FFF726FFF5E70520FFF722FFD9
:104B9000F1E70720FFF71EFFEDE70020EBE700201D
:104BA00038BD00BF281403000F4B1B69C3F38103FA
:104BB000022B07D0032B0ED0002B0CBF4FF4FA3082
:104BC00000207047084B186900F00200002818BF49
:104BD0004FF4FA407047044B186900F002000028B7
:104BE00018BF4FF4FA4070470080044008B5304BBE
:104BF0005B6813F4006F58D02D4B5B68C3F303134D
:104C00000F2B09D8DFE803F00A080D08122F171C34
:104C10002025473329362C3E00203EE0FFF7B8FE22
:104C20003BE001210620FFF7D5FE36E001210420FC
:104C3000FFF7D0FE31E001210520FFF7CBFE2CE08D
:104C40000020FFF753FE28E001210720FFF7C2FEF6
:104C500023E00120FFF74AFE1FE0FFF7A5FF1CE05D
:104C6000FFF722FF19E0FFF747FF400815E0FFF7C5
:104C700079FE12E0FFF740FF0E4B1B681B0E0CD0B5
:104C800040080AE00B4B1B681B0E01D1002004E01A
:104C9000FFF732FF01E04FF4FA30054B5B68C3F3D6
:104CA00002230133B0FBF3F008BD002008BD00BFB4
:104CB0000080044000600740F0B5A1B028B304466E
:104CC0000646002800F0FF80644B1B69C3F30363B2
:104CD000032B00F0C980FFF7EBFB002800F0B48045
:104CE00003238DF8073000228DF8062001228DF86D
:104CF000052020A800F87C3DFFF7DAFD05460028D6
:104D000000F0B280284621B0F0BD01238DF80B30B1
:104D100000228DF80C208DF80D308DF80E208DF8C6
:104D200008308DF809308DF80A308DF816308DF87E
:104D300014308DF815208DF80F208DF810308DF877
:104D400011308DF838300D928DF825304449069198
:104D50008DF81C208DF824208DF81D308DF81E2034
:104D600002208DF81F008DF820308DF821308DF84D
:104D700030308DF828208DF82F208DF829200C2137
:104D80008DF82A108DF82B208DF82C308DF82D30D1
:104D90008DF83D3003218DF83C108DF84B308DF8A7
:104DA00041108DF840208DF83F308DF83E308DF861
:104DB00045008DF844308DF843208DF842100620D0
:104DC0008DF849008DF848208DF847308DF8461051
:104DD00024491E9129211D918DF84C308DF84D20CC
:104DE0008DF84E208DF84F208DF850308DF85430CE
:104DF0008DF853308DF852208DF851208DF86830A1
:104E00008DF869308DF86A308DF86B308DF86C3024
:104E10008DF86D308DF873308DF8583017921892E8
:104E200019928DF86E308DF86F308DF870208DF8F6
:104E300071208DF872208DF87C308DF87D308DF8E2
:104E40007E2002AE34463FE700210120FFF740FB01
:104E5000054600287FF456AF42E700BF00400640F9
:104E600000127A000C0FFE1F3146E078FFF7BEFA01
:104E70000546002800F03081FFF7ECF9022800F029
:104E80006581032800F06581012800F03F81002D35
:104E90007FF438AF94F8303013B1E26AAE4B1A6049
:104EA00094F8353053B1AD490A6A22F0706294F833
:104EB00034301B0603F0706313430B6294F84330E5
:104EC000002B40F0B28114F16C0F35D0236F002B12
:104ED00032D0E36E83B30021A148A24D01EB8102E1
:104EE000236F9B5C30F813309B0003F1804303F584
:104EF000CA231E6826F080461E60236F9F189E5CA2
:104F0000BB781B0603F0E063FA78D20002F00802D7
:104F100013433A7902F0070213437A78002A14BF48
:104F20004FF080420022134330F8162045F822301B
:104F30000131E36E9942D1D394F84430C3B194F86F
:104F4000463094F847208849496821F47F6194F8F5
:104F50004500002814BF4FF4006000201B01DBB2A5
:104F6000120202F4E06213430B4303437E4A536090
:104F700094F84830DBB194F84A3094F849207A49E3
:104F8000096921F03F0194F84C00084394F84B1054
:104F9000002914BF022100219B0003F00C030343EE
:104FA000120102F0300213430B436F4A136194F86D
:104FB0006030002B44D06C4B196C21F0010194F847
:104FC00061200A431A641B6C23F0020394F86220E8
:104FD000002A14BF022200221343634A1364136C95
:104FE00023F0040394F86320002A14BF0422002253
:104FF00013435D4A1364136C23F0080394F8642090
:10500000002A14BF082200221343574A1364136C6A
:1050100023F0100394F86520002A14BF1022002208
:105020001343514A1364136A23F0806394F86B208E
:10503000002A14BF4FF08062002213434A4A1362D1
:1050400094F8503033B1494B626D1A60A26D5A60CA
:10505000E26D9A6094F86630EBB1434A936E00209B
:105060009066516821F4805194F868301B0303F472
:1050700080530B435360906694F867305BB194F8AB
:1050800069305B0003F00E0394F86A2042F080520E
:105090001343354A936694F87430002B00F0E18096
:1050A00033498B7803F07F0394F8752082F0010276
:1050B00043EAC213DBB28B7094F97630002BBCBF8D
:1050C00020335BB22A490A7903F01F0302F0E002A1
:1050D00013430B71002515E604F11001607FFFF703
:1050E000D9F8054600287FF4C7AE04F1200194F8F2
:1050F0002800FFF769FA0546FFF7ACF8022825D02B
:10510000032826D0012801D0002601E004F136064C
:10511000002D7FF4BCAEF378032B2BD08DF8073035
:10512000B3788DF8063073788DF80530337820A881
:1051300000F87C3DFFF7BCFB054600287FF4A7AED6
:10514000E11DA07BFFF7C4F90546A0E604F13A068D
:10515000DEE704F13E06DBE70408002000400640DD
:105160002814030000500640008004400808002076
:1051700000D0074094F828300BBB637F93BBE378E3
:10518000002B42D10125002D7FF481AEE11DA07BD3
:10519000FFF79EF9054600287FF479AEF3788DF885
:1051A0000730B3788DF8063073788DF80530337892
:1051B00020A800F87C3DFFF77BFB054667E6062349
:1051C0008DF8073002238DF8063001238DF8053065
:1051D00020A800F87C3DFFF76BFB0546637F7BB1A1
:1051E0000128D0D101238DF8073000228DF8062048
:1051F0008DF8053020A800F87C3DFFF759FB0546E7
:10520000E378002BBFD0012DBDD102238DF80730EC
:1052100000238DF806308DF8053020A8012300F812
:105220007C3DFFF745FB0546ADE704F13601012063
:10523000FFF74CFA054600287FF464AD04F13A010B
:105240000220FFF743FA054600287FF45BAD04F126
:105250003E010320FFF73AFA054600287FF452ADDD
:1052600031E600254EE500BF70B504460D46112815
:1052700007D92B2840F285805A2840F2D08104209B
:1052800070BD11287AD8DFE800F00913191F24290E
:105290002E33383C41484F565D646B720020FFF757
:1052A00025FB03460020002D00F020822B6070BDFE
:1052B0000120FFF71BFB03460020F4E70220FFF765
:1052C00015FB03460020EEE7FFF790FC03460020A5
:1052D000E9E7FFF775F803460020E4E7FFF7E8F891
:1052E00003460020DFE7FEF7C7FF03460020DAE7AA
:1052F000FFF748F903460020D5E7B44B1B680020B0
:10530000D1E7FFF745FB03460020CCE7002104204E
:10531000FFF760FB03460020C5E701210420FFF7EB
:1053200059FB03460020BEE700210520FFF752FB92
:1053300003460020B7E701210520FFF74BFB03469A
:105340000020B0E700210620FFF744FB03460020C1
:10535000A9E701210620FFF73DFB03460020A2E755
:1053600000210720FFF736FB034600209BE70121C1
:105370000720FFF72FFB0346002094E700230420BB
:1053800091E7A0F11504162C00F20181DFE814F07A
:10539000170023002F003B00460052005E006A0009
:1053A00076007F00840090009D00AA00B300BC003E
:1053B000C500CE00D700DF00E400E900F300844B15
:1053C000DB68C3F30163022B00F2E480814A52F8E8
:1053D0002330002056E07E4BDB68C3F38163022B51
:1053E00000F2DB807B4A52F8233000204AE0784B01
:1053F000DB68C3F30173022B00F2D280754A52F8C6
:10540000233000203EE0724BDB689B0F022B00F242
:10541000CA80704A52F82330002033E06C4BDB68BE
:10542000C3F30143022B00F2C1806A4A52F82330D1
:10543000002027E0664BDB68C3F38143022B00F2B8
:10544000B880644A52F8233000201BE0604BDB68D0
:10545000C3F30153022B00F2AF805E4A52F82330AF
:1054600000200FE05A4BDB68C3F38153022B00F29C
:10547000A680584A52F82330002003E0FFF7B6FB1D
:1054800003460020002D00F031812B6070BDFFF736
:105490000BFB03460020F5E74F4B9B78DB0902D05E
:1054A00000231846EEE7FFF77FFB03460020E9E7FD
:1054B000494B9B78DB0940F08580454B1B6913F015
:1054C000010340F08D800020DCE7434B9B78DB0933
:1054D00040F08A803E4B1B6913F0020340F0878046
:1054E0000020CFE73C4B9B78DB0940F084804FF4F1
:1054F000FA330020C6E7364B1B6CC3F30013002BB6
:105500007CD14FF48070BDE7314B1B6CC3F3C003FB
:10551000002B76D14FF48070B4E72D4B1B6CC3F396
:105520008003002B70D14FF48070ABE7284B1B6CCD
:10553000C3F34003002B6AD14FF48070A2E7244BE1
:105540001B6C13F0010365D14FF480709AE7FFF7ED
:10555000D3FA4308002095E7FFF704FA034600203A
:1055600090E7FFF7C9FA03461C4A1268120E54D09E
:105570004308002086E7194B1B681B0E02D100234D
:1055800018467FE7FFF7B8FA034600207AE70023C2
:10559000042077E70023184674E70023184671E7D4
:1055A000002318466EE7002318466BE700231846D1
:1055B00068E70023184665E70023184662E70023E2
:1055C00018465FE7002318465CE700BF0408002088
:1055D000008004400808002000D007400060074019
:1055E0004FF47A7300204DE7002318464AE74FF442
:1055F000FA43002046E70023184643E700231846F5
:1056000040E7002318463DE7002318463AE7002309
:10561000184637E70023184634E7002032E72C28E5
:1056200005D804200023002D60D02B6070BDA0F1B0
:105630003903DBB2122B07D82D4A22FA03F313F0F9
:10564000010F18BF0420EDD15A2C4DD0294B33F84F
:105650001420294B53F8223013F0804F33D14FF4EC
:105660008070DFE70120FFF741F9B8BB00234FF45A
:105670008070D8E70020FFF739F90028F6D02DE038
:105680000220FFF733F90028F0D027E016F0080FCA
:1056900006D116F0100F0BD100234FF48070C2E733
:1056A00000212046FFF744FA034616F0100F04D0FD
:1056B00001212046FFF73CFA0346002B14BF0020CF
:1056C0004FF48070AFE70D4B1E5D16F0200FC9D16F
:1056D00016F0400FCED116F0800FD1D116F0180F72
:1056E000D4D1002318469EE704209BE770BD00BF7D
:1056F000410104002814030000500640DC1503009B
:1057000010B4054C20602171A260237363730020E4
:105710005DF8044B704700BF14080020F0B583B05B
:1057200007460E468DF804008DF8051002F0BEFE07
:10573000334B1C7B5C7301238DF80630002C4AD060
:1057400000242F4D04E00134E4B22B7BA34242D964
:10575000AB6853F82430002BF5D01A79022AF2D026
:105760001A68996801A890470028ECD06C73002E45
:10577000E9D140F2031500238DF80630A400204E35
:1057800020E00134E4B23B7BA34212D9BB6853F85A
:105790002430002BF5D01A79012AF2D01A689968C2
:1057A00001A890470028ECD07C73002EE9D14FF47B
:1057B000827502F06DFE284603B0F0BD043C14F182
:1057C000040FF6D0B3681B59002BF7D01A689968FC
:1057D00001A89047F2E70A4D2B6853F82700FFF71E
:1057E0006BFA6F7105460028C5D102238DF806308B
:1057F000034B1B7B002BDCD00024014FC6E700BF0E
:105800001408002008B5FFF72FFD08BD10B4064BA3
:105810001B6853F82040616053F820309A600020E4
:105820005DF8044B704700BF2808002008B5084BFE
:105830001B6853F8203000F00F00064A1077D0772D
:1058400023B15A6812B1197B9868904708BD00BF10
:10585000280800200080004038B5054600F00F04FD
:1058600000222146094800F06FF9094B1B6853F8E4
:10587000253053B1054A1477D477947701221A73EF
:105880005A6812B1197B9868904738BD0080004073
:10589000280800202DE9F04F87B09DF84070119D39
:1058A0000124BC405FFA84FCB5FBFCF60CFB1656E9
:1058B000002E14BF4FF0010A4FF0000A03D05046EB
:1058C00007B0BDE8F08F059304920391804600F085
:1058D0000F06DFF800913146484600F03AF9D9F852
:1058E000003023F08003C9F80030730103F18042D7
:1058F00002F5004B02F51042049810604B4441F24F
:105900001002059898500197009700231A463146D7
:10591000484600F043F9039B032B12D8DFE803F05D
:10592000022D3D4C002241F204032BF8032064B207
:10593000A4B2730103F1804303F5004341F2140262
:105940009C52244C2A463146204600F03FF9012261
:105950003146204600F068F904EB461641F21C027D
:10596000B35A1BB243F002039BB2B3521A4B1B68EB
:1059700053F8283000221A73A1E764B2A4B241F2AE
:1059800004032BF80340730103F1804303F5004344
:10599000002141F214029952D3E764B2A4B241F259
:1059A00004032BF80340730103F1804303F5004324
:1059B00041F214029C52C4E7002241F204032BF886
:1059C0000320730103F1804303F5004341F2140106
:1059D0005A52B6E7008000402808002070B582B017
:1059E0000446079D01959DF818500095FFF752FF5A
:1059F000054610B1284602B070BD04F00F040F4EEA
:105A0000089A2146304600F00FF906EB441641F2A1
:105A10001C03F35A23F008031B041B0C9DF82420DD
:105A2000002A14BF082200221343640104F18044B9
:105A300004F5004441F21C02A352DBE70080004061
:105A400008B5012200F00F01024800F07DF80020A7
:105A500008BD00BF0080004008B5002200F00F0123
:105A6000024800F071F8002008BD00BF008000402F
:105A700010B40F4B1C5C04F07F041C541C5C01F040
:105A80003F0104F0C004214319541B5C03F0BF0321
:105A9000002A14BF402200221A43054B1A541A5CF4
:105AA00042F080021A5400205DF8044B704700BF9A
:105AB0000010024000F00F00400100F1804000F5AE
:105AC000004041F20C03C150704700F00F0040014C
:105AD00000F1804000F5004041F21003C1507047D2
:105AE00008B50A4600F00F01014800F09DF808BD16
:105AF0000080004008B500F00F01024800F0C3F834
:105B000008BD00BF0080004000F00F00430103F11A
:105B1000804303F5004341F21C029B5A23F0080323
:105B20001B041B0C002914BF082200221343400150
:105B300000F1804000F5004041F21C0283527047A2
:105B400000487047008000400AB981767047C176EE
:105B5000704700EB4111002341F208028B5001F520
:105B60008052136041F204028B5241F206028B52C2
:105B700041F20C028B5041F210028B5041F21402A0
:105B80008B5241F216028B5241F218028B5041F2B5
:105B90001C028B5241F21E028B52704710B4DB0084
:105BA000DCB29DF8083003F00703234343EAC22325
:105BB0009DF80420120202F4E06213439BB280318C
:105BC00000EB4111CB805DF8044B7047036813F084
:105BD000800F13D010B400EB411341F208041B599D
:105BE000002B11DB00EB41131B5913F0804F0BD13D
:105BF00022F0404200EB4110025112E000EB411054
:105C000041F20803C250704700EB411041F2080115
:105C1000435823F47F7323F00303C2F309021A43AA
:105C200042505DF8044B704710B400EB411441F250
:105C30001E03E35A13F4004F14D100EB411141F25B
:105C40001E000B5AC2F30E0203F4004313430B521F
:105C500041F216000B5A03F400431A430A525DF84E
:105C6000044B704741F21E00235AC2F3080203F4AA
:105C70007E431343235241F21600235A03F47E431A
:105C80001A432252EBE700EB411241F21E03D35AB2
:105C900013F4004F07D100EB411041F21603C05A34
:105CA000C0F30E00704741F21603D05AC0F308004B
:105CB000704708B50020FFF7B9FD08BD08B5012001
