:020000040800F2
:1000000000400220D5040008C1080008C308000809
:1000100000000000000000000000000000000000E0
:10002000000000000000000000000000C5080008FB
:100030000000000000000000C7080008C908000810
:1000400025050008250500082505000825050008E8
:1000500025050008250500082505000825050008D8
:1000600025050008250500082505000825050008C8
:1000700025050008250500082505000825050008B8
:1000800025050008250500082505000825050008A8
:100090002505000825050008250500082505000898
:1000A000250500082505000825050008D1080008D9
:0C00B000250500082505000825050008AE
:1000BC00002243088B4274D303098B425FD3030A9B
:1000CC008B4244D3030B8B4228D3030C8B420DD3AE
:1000DC00FF22090212BA030C8B4202D3121209023C
:1000EC0065D0030B8B4219D300E0090AC30B8B427A
:1000FC0001D3CB03C01A5241830B8B4201D38B0328
:10010C00C01A5241430B8B4201D34B03C01A5241CC
:10011C00030B8B4201D30B03C01A5241C30A8B420F
:10012C0001D3CB02C01A5241830A8B4201D38B02FA
:10013C00C01A5241430A8B4201D34B02C01A52419E
:10014C00030A8B4201D30B02C01A5241CDD2C30910
:10015C008B4201D3CB01C01A524183098B4201D38C
:10016C008B01C01A524143098B4201D34B01C01A77
:10017C00524103098B4201D30B01C01A5241C308EF
:10018C008B4201D3CB00C01A524183088B4201D35E
:10019C008B00C01A524143088B4201D34B00C01A4A
:1001AC005241411A00D20146524110467047FFE7B6
:1001BC0001B5002000F0F0F802BDC0460029F7D0D0
:1001CC0076E7704703460B437FD4002243088B42EB
:1001DC0074D303098B425FD3030A8B4244D3030BC2
:1001EC008B4228D3030C8B420DD3FF22090212BA87
:1001FC00030C8B4202D31212090265D0030B8B4203
:10020C0019D300E0090AC30B8B4201D3CB03C01AEC
:10021C005241830B8B4201D38B03C01A5241430BC7
:10022C008B4201D34B03C01A5241030B8B4201D3B7
:10023C000B03C01A5241C30A8B4201D3CB02C01A22
:10024C005241830A8B4201D38B02C01A5241430A9A
:10025C008B4201D34B02C01A5241030A8B4201D389
:10026C000B02C01A5241CDD2C3098B4201D3CB0130
:10027C00C01A524183098B4201D38B01C01A5241DF
:10028C0043098B4201D34B01C01A524103098B42E3
:10029C0001D30B01C01A5241C3088B4201D3CB00CE
:1002AC00C01A524183088B4201D38B00C01A5241B1
:1002BC0043088B4201D34B00C01A5241411A00D261
:1002CC0001465241104670475DE0CA0F00D04942CA
:1002DC00031000D34042534000229C4603098B423A
:1002EC002DD3030A8B4212D3FC22890112BA030AC2
:1002FC008B420CD3890192118B4208D38901921144
:10030C008B4204D389013AD0921100E08909C309C8
:10031C008B4201D3CB01C01A524183098B4201D3CA
:10032C008B01C01A524143098B4201D34B01C01AB5
:10033C00524103098B4201D30B01C01A5241C3082D
:10034C008B4201D3CB00C01A524183088B4201D39C
:10035C008B00C01A5241D9D243088B4201D34B00B7
:10036C00C01A5241411A00D20146634652415B10F9
:10037C00104601D34042002B00D5494270476346DA
:10038C005B1000D3404201B5002000F005F802BD1F
:10039C000029F8D016E770477047C046002B11D1E2
:1003AC00002A0FD1002900D1002802D00021C94316
:1003BC00080007B4024802A14018029003BDC046D1
:1003CC00D9FFFFFF03B4684601B5029805F0D6FAD1
:1003DC00019B9E4602B00CBC7047C04610B500296C
:1003EC0003D100F007F8203002E0080000F002F81A
:1003FC0010BDC0461C2101231B04984201D3000CE4
:10040C0010391B0A984201D3000A08391B0998427B
:10041C0001D30009043902A2105C40187047C04691
:10042C0004030202010101010000000000000000B1
:10043C000448054B10B5834203D0044B002B00D06D
:10044C00984710BD10000020100000200000000094
:10045C0006480749091A8B10C90FC91810B549105D
:10046C0003D0044B002B00D0984710BD1000002087
:10047C00100000200000000010B5074C2378002B62
:10048C0009D1FFF7D5FF054B002B02D0044800E043
:10049C0000BF0123237010BD1000002000000000DD
:1004AC00205B0008054B10B5002B03D00449054810
:1004BC0000E000BFFFF7CCFF10BDC04600000000FD
:1004CC0014000020205B00080D48854600F002FA5D
:1004DC000C480D490D4A002302E0D458C450043393
:1004EC00C4188C42F9D30A4A0A4C002301E0136069
:1004FC000432A242FBD305F013FA00F055F8FEE7E4
:10050C00004002200000002010000020845E000843
:10051C001000002074040020FEE710B502F0D2FC9D
:10052C0010BD72B6FEE700B595B03C22002105A8BF
:10053C0005F0EEF91022002101A805F0E9F9802060
:10054C00800003F067FB0A230593F633089300231E
:10055C00099340220A923F3A0B9201320D920E926D
:10056C000F930833109380239B02119380239B04D9
:10057C00129380239B05139305A803F0CFFB00284F
:10058C000ED107230193053B02930023039304939D
:10059C00022101A803F0AAFE002803D115B000BD6A
:1005AC00FFF7BFFFFFF7BDFF10B502F0CBFC03F068
:1005BC005BFB002801D0FFF7B4FFFFF7B4FF00F09E
:1005CC000BF800F04BF800F0D7F800F0BBF802F095
:1005DC0031FB02F0A5FBFCE7F0B589B01422002139
:1005EC0003A805F095F91B4B596B02221143596373
:1005FC00596B0A400192019A5A6B012422435A63A7
:10060C005B6B23400293029BF027BF01124E012229
:10061C003900300002F089FE032303930025049572
:10062C00059403A9300002F0B9FD039704940595D5
:10063C00069503A9300002F0B1FD80235B00039303
:10064C0004950594A02003A9C00502F0A7FD09B0EC
:10065C00F0BDC046001002400004005010B5144814
:10066C00144B0360144B4360002383600122C2606F
:10067C00036143618361C361036203F027F80028BF
:10068C000CD10B48002103F033FA002809D108489B
:10069C00002103F059FA002806D110BDFFF741FFE5
:1006AC00EFE7FFF73EFFF2E7FFF73BFFF5E7C0464A
:1006BC002C00002000540040B57DB11010B59AB04C
:1006CC0004001422002115A805F022F94C22002167
:1006DC0002A805F01DF92268174B9A4201D01AB0F6
:1006EC0010BD2023029302A803F0E0FE00281FD1C6
:1006FC00124C626B02231A436263626B13400093C9
:10070C00009BC0231593AE3B1693002317931893AD
:10071C000633199315A90A4802F040FDE36B8022B9
:10072C0092031343E363E36B13400193019BD6E7FE
:10073C00FFF7F7FEDCE7C046005400400010024013
:10074C000004005010B50948094B036003234360B3
:10075C00084BC360F423FF33836003F01FFA0028B7
:10076C0000D110BDFFF7DDFEFBE7C0468000002086
:10077C0000300040FF0F000010B51948194B036002
:10078C0096239B01436000238360C36003610C22AA
:10079C0042618361C36103624362836204F0EEFCD5
:1007AC00002811D10E48002104F06CFD00280ED158
:1007BC000B48002104F08CFD00280BD1084804F0F4
:1007CC0041FD002809D110BDFFF7ABFEEAE7FFF7AA
:1007DC00A8FEEDE7FFF7A5FEF0E7FFF7A2FEF2E7B4
:1007EC00900000200038014010B59AB0040014228B
:1007FC00002115A805F08CF84C22002102A805F068
:10080C0087F822681B4B9A4201D01AB010BD012305
:10081C00029302A803F04AFE002828D1164B1A6C4A
:10082C008021C9010A431A641A6C0A400092009A8A
:10083C00596B0122114359635B6B13400193019B6C
:10084C00C023DB00159302231693179200231893F1
:10085C001992A02015A9C00502F0A0FC00220121CC
:10086C001B2002F011FC1B2002F012FCCDE7FFF75D
:10087C0058FED3E7003801400010024000B583B0A9
:10088C000B4B196C012211431964196C0A4000922C
:10089C00009ADA6B802149050A43DA63DB6B0B4063
:1008AC000193019BC020C00002F096FB03B000BD79
:1008BC0000100240FEE7FEE77047704710B502F0EB
:1008CC0055FB10BD10B5024803F0BCFF10BDC0466F
:1008DC00900000207047C173052901D00023837359
:1008EC000020704710B582B0041E58D000238373CB
:1008FC000133C3734368002B51D08368002B4ED057
:10090C00FA225200828100686A460632FE2198471C
:10091C00002847D0A368206801AAFF219847002827
:10092C0040D06B46DA88294B9A4240D101AB1B88E8
:10093C00274A944663449BB2012B38D863688022C3
:10094C002068D20005219847002835D063682068BC
:10095C00204A0021984700282ED0A36820686A46B8
:10096C00023200219847002826D0A36820686A46E6
:10097C000521984700281FD06B4602331B88164A66
:10098C0016490B40934205D16B461A888023DB0035
:10099C009A4216D004212000FFF79DFF00E00020B2
:1009AC0002B010BD02212000FFF795FFF8E70321EC
:1009BC002000FFF790FFF3E702212000FFF78BFFE9
:1009CC00EEE70123A3730023E373E9E74954000026
:1009DC00A0DDFFFF2745000027050000FF8FFFFF6C
:1009EC00F0B5CE46474680B585B004000D00160024
:1009FC001F00002800D1A4E0002900D1A4E0002AA7
:100A0C0000D1A4E0002B00D1A4E000230B801380C4
:100A1C003B60837B9846002B2DD08368006802AA2C
:100A2C0000219847002821D0A36820686A46063226
:100A3C0005219847002819D0A368206801AA06212F
:100A4C009847002812D002AB1B88444A44490B40FB
:100A5C00934205D16B46DA888023DB009A4210D092
:100A6C0004212000FFF737FF804604E0022120001C
:100A7C00FFF731FF8046404605B0C0BCB946B046D2
:100A8C00F0BD01AB1B885A0743D41B0747D5A3689D
:100A9C0020680E226A4402219847002845D0A3689A
:100AAC00206803AA0421984700283ED0A368206838
:100ABC000A226A44032198478046002835D003ABAC
:100ACC0000229B5EA2895A439146FA2189001000AC
:100ADC00FFF778FB0E236B441B88E122D201934273
:100AEC0029D8204A914526DBFA225204914522DA74
:100AFC009A00D3189B082B8030800A236B441A88E9
:100B0C0093009B189A009B185B083B600023E373CF
:100B1C00B1E706212000FFF7DEFE8046ABE705219A
:100B2C002000FFF7D8FE8046A5E702212000FFF742
:100B3C00D2FE80469FE707212000FFF7CCFE8046BF
:100B4C0099E70023984696E70023984693E70023FD
:100B5C00984690E7002398468DE7C046270500008D
:100B6C00FF8FFFFF19FC0BFEF0B51300203B11D4D7
:100B7C0004009C400500954056423F233340203BE7
:100B8C0011D40800D84052423F231340D940284387
:100B9C002143F0BD20239B1A0400DC4023000C00F1
:100BAC0094401C43E6E756423F2333402026F61A76
:100BBC000F00B740D8403843E5E7F0B506000023F6
:100BCC000020002108E020252D1B1700EF403D00E0
:100BDC00A240104329430133072B08D8F25CDC00F8
:100BEC002500203DEFD41700AF403D00F0E7F0BDED
:100BFC0070B500210AE020252D1B1E00AE403500EB
:100C0C001600E64034002C4344540131072906D821
:100C1C00CC002500203DEED41C00EC40F4E770BD68
:100C2C0030B50023002404E0C25CCD5C6A40144360
:100C3C000133072BF8D963425C41E0B230BD01703F
:100C4C00090A4170704701700B0A43700B0C8370DA
:100C5C00090EC1707047030000785B781B021843C3
:100C6C007047030000785A78120210439A781204E5
:100C7C001043DB781B0618437047000010B50C00BE
:100C8C00022800D9002093009B185B019B1A590184
:100C9C005B189B009B1A5901CB1A1902C91A4900FF
:100CAC008918C900891861400A0C4A40064B534305
:100CBC00DA0B5A40012313400133C0180321FFF70C
:100CCC007DFAC8B210BDC0462D35EB7F30B505009E
:100CDC0000240C480DE0400080B20133072B07D8EC
:100CEC0002B2002AF7DA400082B207485040F4E71B
:100CFC0001348C4204D22B5D1B0258400023EDE7DB
:100D0C0030BDC046FFFF000021100000F0B5DE46EC
:100D1C0057464E464546E0B59BB0060017919346A4
:100D2C00FFF74BFF05000C0030000830FFF745FFC4
:100D3C000022002302920393704B6B400293704B82
:100D4C006340039300220023049205936D4B4340B0
:100D5C0004936D4B4B4005930022002300920193AA
:100D6C006A4B6B4000936A4B63400193694B434061
:100D7C001593694B4B4016935B461B069946002313
:100D8C0098461893DA464B4619938CE017984044D2
:100D9C00FFF713FF83468946159B43400693169B2A
:100DAC004B400793029C039D0498059924184D41D0
:100DBC000D22FFF7D9FE604008906940099120226E
:100DCC0020002900FFF7D0FE06000F00009C019DBB
:100DDC000698079924184D411022FFF7C5FE604074
:100DEC000A9069400B910A980B9936184F411522BD
:100DFC00FFF7BAFE70400C9079400D910898099954
:100E0C0024184D411122FFF7AFFE60400E9069404F
:100E1C000F91202220002900FFF7A6FE04000D00F0
:100E2C000E980F9936184F410D22FFF79DFE70401A
:100E3C00109079401191202230003900FFF794FE78
:100E4C0006000F000C980D9924184D411022FFF745
:100E5C008BFE6040129069401391129813993618CA
:100E6C004F411522FFF780FE704015907940169186
:100E7C001098119924184D411122FFF775FE60400E
:100E8C00049069400591202220002900FFF76CFE98
:100E9C00009001915B46734002934B467B40039359
:100EAC0008239C46E044534642469B1A072B00D924
:100EBC006CE7D346189B9A46199B994600214646E7
:100ECC00179B9C465F46D0464C460AE02025AD1A3F
:100EDC001800E8400500934042461A4390462C43C4
:100EEC0001317318BB4219D26246D35CCA0015009B
:100EFC00203DEBD41800A8400500ECE77565737035
:100F0C00656D6F736D6F646E61726F646172656E27
:100F1C006567796C7365747962646574A146159B19
:100F2C00424653401C00169B4A4653401D00029AF1
:100F3C00039B0498059912184B41049205930D22BA
:100F4C00FFF712FE0E000022002302920393049A74
:100F5C00059B11004140029110001900734003934E
:100F6C002022FFF701FE04900591009A019B1219B3
:100F7C006B4116001F00102220002900FFF7F4FD22
:100F8C0032003B004640340016004B401D000499D3
:100F9C00059A09196A410091019215222000190045
:100FAC00FFF7E2FD0024002504940595009B019CAD
:100FBC001D004540049520004840059032003B0040
:100FCC000298039912184B4116001F001122FFF7CB
:100FDC00CBFD3200424014003A004A40150020225A
:100FEC0030003900FFF7C0FD02900391009E019F75
:100FFC0036196F410D2220002900FFF7B5FD0023A3
:10100C0000240093019470400090794001912022BB
:10101C0030003900FFF7A8FD06000F00029A039B71
:10102C000498059912184B4114001D001022FFF76B
:10103C009BFD0494059544402000059C4C402100E8
:10104C0036184F411522FFF78FFD00230024029321
:10105C000394340044400294069607973B004B409F
:10106C000393049A059B0098019912184B411400A4
:10107C001D001122FFF778FD22002B0044402600B2
:10108C0014004B401F00202220002900FFF76CFDAC
:10109C004446069D6C4022004C46079D6C40230044
:1010AC000024002500940195FF34444000940191E4
:1010BC0092197B4114001D000D2230003900FFF7FE
:1010CC0053FD00220023049205932600464004960B
:1010DC002B004B400593203220002900FFF744FDE4
:1010EC0006900791009A019B0298039912184B41A4
:1010FC0014001D001022FFF737FD22002B00444086
:10110C002600029203934B401F000699079A8919F7
:10111C007A410C001500152230001900FFF724FD50
:10112C00002200230092019322002B0044400094E3
:10113C00069207934B400193029A039B04980599DE
:10114C0012184B4116001F001122FFF70DFD320043
:10115C003B004640340016004B401D00202230005E
:10116C003900FFF701FD029003910699079A0919BE
:10117C006A410E0017000D2220002900FFF7F4FC35
:10118C0000230024049305943400464004963B004D
:10119C004B400593202220003900FFF7E5FC069018
:1011AC000791029A039B0098019912184B41140065
:1011BC001D001022FFF7D8FC22002B004440260013
:1011CC00029203934B401F000699079A89197A41A2
:1011DC000C001500152230001900FFF7C5FC002289
:1011EC0000230092019322002B00444000940692AD
:1011FC0007934B400193029A039B0498059912188C
:10120C004B4116001F001122FFF7AEFC32003B00D1
:10121C004640340016004B401D002022300039009F
:10122C00FFF7A2FC029003910699079A09196A41EB
:10123C000E0017000D2220002900FFF795FC00235B
:10124C000024049305943400464004963B004B4024
:10125C000593202220003900FFF786FC06900791A9
:10126C00029A039B0098019912184B4114001D001F
:10127C001022FFF779FC22002B004440260002923A
:10128C0003934B401F000699079A89197A410C0069
:10129C001500152230001900FFF766FC0022002310
:1012AC000092019322002B00444000940692079375
:1012BC004B400193029A039B0498059912184B41D9
:1012CC0016001F001122FFF74FFC32003B00464076
:1012DC00340016004B401D00202230003900FFF76F
:1012EC0043FC06000F000699079A09196A410491FC
:1012FC0005920D2220002900FFF736FC0022002366
:10130C0002920393049B059C1A0042400292220015
:10131C004A400392202218002100FFF725FC04907C
:10132C00059134003D000098019924184D4110227C
:10133C00FFF71AFC02000B00624010006B40190012
:10134C00049E059F36184F411522FFF70DFC704087
:10135C00834679408A460298039924184D411122FC
:10136C00FFF702FC6040814669408846202220003D
:10137C002900FFF7F9FB4A46724043467B40504038
:10138C0059405B465840534659401BB0F0BCBB46D5
:10139C00B246A946A046F0BDF8B5CE46474680B544
:1013AC0004001500984600284ED0002A4ED0002B81
:1013BC004ED0167C202E4DD813239946B1443700BD
:1013CC001D378F4201D9002745E03F3303700133AD
:1013DC004370513B83701378C37051880430FFF70E
:1013EC002EFCA988A01DFFF72AFCAB792372EB79A0
:1013FC006372A96820000A30FFF725FCE968200019
:10140C000E30FFF720FC2A7CA274002A15D1494625
:10141C002000FFF75BFC01004B46E018FFF70FFCC8
:10142C00350015352A0021004046FFF76FFC0200FD
:10143C000B006019FFF7DCFB0DE0290011312000D7
:10144C00133004F091FAE2E7002704E0002702E0F1
:10145C00002700E000273800C0BCB946B046F8BDF4
:10146C00F0B5CE46474680B583B006000C001D0093
:10147C00002862D0002962D0002B62D01C2A62D9CD
:10148C000B78522B65D14B78532B64D1887802287A
:10149C0063D18F7C202F57D8403B9846B8443B00F3
:1014AC001D339A4202D04FD201384DE04146200004
:1014BC00FFF70CFC81464346E018FFF7CCFB484590
:1014CC0001D0052040E015239846B844424621003F
:1014DC002800FFF71BFC02000B006846FFF788FB97
:1014EC004346E1186846FFF79BFB002837D0E378AA
:1014FC003370201DFFF7AFFB7080A01DFFF7ABFB17
:10150C00B080237AB371637AF37120000A30FFF74D
:10151C00A8FBB06020000E30FFF7A3FBF06037741F
:10152C00002F01D138000FE03000113021001331B1
:10153C003A0004F019FA002006E0022004E0022030
:10154C0002E0022000E0012003B0C0BCB946B04666
:10155C00F0BD0320F8E70320F6E70420F4E70620AB
:10156C00F2E7002804D000233D2283540132835437
:10157C00704770B504001000002C4AD0002A4AD0E5
:10158C00002B4AD03D22A55C002D09D1522902D056
:10159C000025280070BD6A1C3D23E2546155F8E714
:1015AC00012D10D03C2D19D86A1CD2B23D26A25563
:1015BC006155132A17D03E21615C00292FD08A4235
:1015CC001DD00025E5E75329ECD0522900D0002589
:1015DC003D23E554153323700025DAE72000FFF78F
:1015EC00C0FF0025D5E7A17C202903D81D313E255D
:1015FC006155E0E72000FFF7B4FF0025C9E72100A3
:10160C00FFF72EFF43425841C5B22000FFF7A9FF58
:10161C00BFE70025BDE70025BBE70025B9E700259E
:10162C00B7E710B5031E26D00078002810D05C68F0
:10163C008C4222D19968914210D3891A1F291ED845
:10164C0001228A40D9680A421BD11143D96004E0B7
:10165C000130187059609A60D86010BD511A1F295A
:10166C0005D8DC688C4021000124214300E00121D5
:10167C00D9609A60F1E70020EFE70020EDE7002049
:10168C00EBE70020E9E7002804D000230370436057
:10169C008360C3607047411A002091424041C0B240
:1016AC007047401AC043C00F704701000023052B40
:1016BC0007D89A1D1201505C002803D10133DBB20C
:1016CC00F5E700207047F0B59C4605AC267800275E
:1016DC00002401E00134E4B2052C0FD8A51D2D0126
:1016EC002D5C002D09D025014519AB6E3D01451926
:1016FC00AD6EAB42EED22700ECE72700BC1D2401F7
:10170C0001252554041961603F01C019826602004D
:10171C006C32634613706D300670F0BDF8B5060080
:10172C000F00002409E00022F31851331A7006351B
:10173C002D010023AB550134E4B2052C1BD8250038
:10174C00A31D1B019B5D002BF5D0E1222301F31897
:10175C00996E52003800FFF79EFF0028EBD0230152
:10176C00F3186C331B78F218513212780C2ADAD930
:10177C000C3AD2B2D8E7F8BDF0B5CE46474680B5A4
:10178C0083B00700884691460193002401E00134A0
:10179C00E4B2052C19D8A51D2D017E19EB5D002B8B
:1017AC00F5D073684345F2D12301FB186D331B78D8
:1017BC004B45ECD1E12221017918896E5200019838
:1017CC00FFF769FF0028E2D100E00026300003B0EB
:1017DC00C0BCB946B046F0BD70B504000D0059232D
:1017EC00C65C0233C35C9E420AD0416C19222800AD
:1017FC00FFF751FF002804D05B23E654656400E03A
:10180C00416470BD5823C35C022B06D0C36A0133FC
:10181C00C36254230322C254016458230222C254CB
:10182C00033B0022C254704703005022805C002806
:10183C0008D008329A5C012A05D057229A5C042AF7
:10184C0011D00020704756329A5C023AD2B2012A6B
:10185C0001D90020F6E74F229B5C032B01D000201E
:10186C00F0E70120EEE74B329B5C002B01D000200F
:10187C00E8E70120E6E74E23C05C2D3B9843431E6E
:10188C009841C0B2704770B505000C005823C35C7A
:10189C00013B5A4253410B705B23C35C002B1CD0A1
:1018AC0001235A22AA5C002A19D002221343637026
:1018BC004823E95AA01CFFF7C2F94A23E95A201D14
:1018CC00FFF7BDF94C23E95AA01DFFF7B8F9E96AF7
:1018DC0020000830FFF7B7F970BD0023E1E70022C4
:1018EC00E4E7F0B5D6464F464646C0B5A0B0040076
:1018FC0089461600984628AB1F7829AB1B789A4668
:10190C0013AD34220021280004F002F84B462B7052
:10191C0001236B800133AB80AE7103215046FEF77F
:10192C004DFCE971A36A5A1CA2621593636A169363
:10193C002F74002F08D04346002B05D03A004146A7
:10194C005D20684404F010F82300143313AA3D21E1
:10195C0003A8FFF721FD021E05D0A368206803A988
:10196C009847051E0CD14C22A35A04210B43A352B9
:10197C000025280020B0E0BCBA46B146A846F0BD10
:10198C004C22A35A04218B43A35213AB159A1699DC
:10199C00D879FFF773F95623E054F607E9D513AA63
:1019AC00D3791599127800922A9A2000FFF78BFEB2
:1019BC00DFE7F0B587B004000D0017001E0004AB84
:1019CC0019705823C35C022B20D0002204AB5A7030
:1019DC004823E15A12206844FFF731F9E16A05A85F
:1019EC00FFF731F9002D13D00122002F02D0042370
:1019FC001A43D2B20C9B029301960823009304ABBA
:101A0C0003212000FFF76DFF07B0F0BD0122DDE7D9
:101A1C000322EAE730B585B008AC2478099D02951D
:101A2C005625455D01950094FFF75BFF05B030BD71
:101A3C00F8B504000D0017001E008E225200002184
:101A4C0003F066FF20000ECD0EC00CCD0CC0102292
:101A5C00390003F089FF66620123A3624B330B222A
:101A6C00E252002305E0E21851328021117001335B
:101A7C00DBB2022BF7D92000C030FFF772FDF8BDA6
:101A8C005923C1540133C25470470000F0B5C64607
:101A9C0000B504000E001D005D27C35D9846482369
:101AAC00C1520233C252436800689847E063E5555F
:101ABC00002D1BD14C22A35A08210B43A352002DFD
:101ACC0002D0194B9E4217D84C22A35A01210B432A
:101ADC00A352002D02D0154B9E4219D84C22A35A6A
:101AEC0002210B43A35280BCB846F0BD4C22A35A32
:101AFC0008218B43A352E2E74346002B02D00C4B48
:101B0C009E42E6D94C22A35A01218B43A352E0E713
:101B1C004346002B02D0074B9E42E4D94C22A35AD9
:101B2C0002218B43A352DEE75B2B0000032900004C
:101B3C00232C0000CB290000002A04D04C22835A0D
:101B4C000B43835270474C22835A8B438352F9E7E1
:101B5C0010B50300080050229A5C002A08D0996B3B
:101B6C00FA225200FFF797FD002803D1013000E064
:101B7C00002010BD0020FCE7F0B58FB0040003007E
:101B8C001433C03001AAFFF7F4FC00282FD001ABAE
:101B9C005B88022B2BD101AB9B88012B02D0484ACE
:101BAC00934224D188225200A3580133A350636876
:101BBC002068984705005022A25C002A05D001003D
:101BCC002000FFF7C5FF002813D001AA1278042AC1
:101BDC000DD101AB1B7C082B09D101AB9B7C002BDD
:101BEC0005D0042B03D801ABDB7C032B0BD90FB036
:101BFC00F0BD4C22A35A10210B43A3522900200004
:101C0C00FFF700FEE1E719206844FFF72AF801000E
:101C1C0001AB5A7C2B002000FFF7AEFD061E41D015
:101C2C0029002000FFF794FF00280AD180235B00D5
:101C3C00E35C002B05D082235B00E258049B9A42A4
:101C4C0036D1039A0499601CFF30FFF7EAFC002898
:101C5C00CDD001AF039A0499F879FFF70FF856230A
:101C6C00E054A5638C225200A3580133A350502397
:101C7C00183AFF3AE254BA7C0733E254FA7C083B38
:101C8C00E2543A7D013BE254327BA31851331B786A
:101C9C00F62B12D80833DBB2A4185134237000236E
:101CAC003370A4E78A225200A3580133A3509EE755
:101CBC00601CFF30FFF7E7FCC3E7FF23ECE7C046EF
:101CCC00FFFF000010B504005823C35C012B01D0AA
:101CDC00002010BD5C33C35C002B13D04C23C35AC3
:101CEC00002B11D1FFF734FF00280FD02000FFF795
:101CFC009BFD00280CD02000FFF7BDFD002809D16A
:101D0C000130E6E70020E4E70020E2E70020E0E70E
:101D1C000020DEE70020DCE770B586B004000D0083
:101D2C005823C65C012E0FD0012603A92000FFF713
:101D3C00AAFD01950C23009303AB01223100200076
:101D4C00FFF768FE06B070BDFFF702FF0028ECD06D
:101D5C000136EAE7F8B504000E00FFF7F9FE0700BC
:101D6C002000FFF761FD4C23E55A002D0ED1002F0A
:101D7C0015D0002815D02000FFF77DFD002812D1CA
:101D8C005823E35C022B10D0002700E001275D23D1
:101D9C00E35C002B0BD0ED072BD5002508E00127C9
:101DAC00F5E70127F3E70127F1E70127EFE7002526
:101DBC00FA22216B92003000FFF76DFC00281AD03C
:101DCC00E36801263A007240D2B22068002198479D
:101DDC00E36820683A0001219847E36820682A00EC
:101DEC0002219847E3687540EAB2206803219847BE
:101DFC00F8BD0125DCE7002505E0E368E9B22068C1
:101E0C00012298470135032DF7D9F1E770B582B05F
:101E1C00040043680068984705005F23E35C002BCF
:101E2C0007D15F330122E254206360640300C83B96
:101E3C00636329002000FFF7CFFC29002000FFF787
:101E4C006DFC5D23E35C002B07D09622E16B520006
:101E5C002800FFF720FC00280AD15B23E35C002B51
:101E6C000FD05C22A25C002A00D19BE0002609E086
:101E7C004A23E25E4823E15A00232000FFF706FEC6
:101E8C00EBE700265C22A3545023E35C002B0AD022
:101E9C0029002000FFF75CFE002804D14C22A35A35
:101EAC0010210B43A3525A23E35C002B12D14C3369
:101EBC00E35A14221A420DD19B0775D55823E35CC3
:101ECC00002B07D1E632216B52002800FFF7E3FB11
:101EDC00002869D029002000FFF794FC5E23E35C06
:101EEC00002B16D05823E35C002B12D1FA22216B65
:101EFC0092002800FFF7CFFB00280AD05D23E35C9B
:101F0C00002B06D04C23E35A9B0702D45823012202
:101F1C00E25429002000FFF7D5FE002802D15523FA
:101F2C000022E254002E0CD029002000FFF7CAFE3C
:101F3C00002806D0E36A0133E36255230222E254FF
:101F4C0025645423E65C002E05D0216C2800FFF795
:101F5C00A8FB002837D15523E65C002E0AD02000C0
:101F6C00FFF7A3FB002805D1216C2800FFF799FB94
:101F7C00002844D1002E39D12000FFF796FB002811
:101F8C0034D1616BC8222800FFF785FB00282DD0C7
:101F9C0065635823E35C022B45D029002000FFF732
:101FAC00BBFE23E001266DE75E23E35C002B95D19D
:101FBC00216B19222800FFF76EFB00288ED05E23C0
:101FCC000122E2548AE703239B1BDBB2033E721E01
:101FDC009641F2B2009500212000FFF7EAFC542252
:101FEC00A35C013BA3542B00F03323642900200095
:101FFC00FFF7B0FE23692068984702B070BD5623E6
:10200C00E35C023E721E9641F2B200950221200062
:10201C00FFF7CFFC5522A35C013BA3542B00C33329
:10202C00FF332364E2E75433E35C00950122002183
:10203C002000FFF7BEFCD9E710B5064B186806491F
:10204C00FEF736F8013001E0C0461800431E0028A8
:10205C00FAD110BD0000002020A1070010B500F03F
:10206C0091FF10BD10B586B014000C4814230293D8
:10207C00123B019305AB009301230A00802101F070
:10208C0063FC002808D105AB1A785B781202134365
:10209C002380013006B010BD0020FBE72C0000208F
:1020AC0000B587B0100A05AB18705A700748142297
:1020BC000292123A0192009301230A00802101F04E
:1020CC0073FB43425841C0B207B000BD2C00002046
:1020DC0010B5024801F096FD10BDC04680000020EE
:1020EC0010B5140001F01AF90100013842425041B8
:1020FC00C0B2002C03D001394B1E9941C8B210BD9F
:10210C0010B50A4A5060002313609362084A13709A
:10211C00084A1370A02001221021C00501F005F916
:10212C0001220821044801F000F910BD1803002019
:10213C0082020020810200200004005010B5A02073
:10214C0000221021C00501F0F0F8FFF775FF10BD5B
:10215C0010B5FFF771FFA02001221021C00501F07E
:10216C00E4F8FFF769FF10BD10B501235A40D2B255
:10217C0001F0DBF810BD000010B5032929D8002AA6
:10218C0013D001238B40DBB2154C20780343237012
:10219C0002291FD010D8002916D0012919D180216D
:1021AC0009011048FFF7E0FF13E0012088400C4CB8
:1021BC00237883432370EBE703290AD1802189011B
:1021CC000848FFF7D1FF04E08021C9000548FFF75C
:1021DC00CBFF10BD802149010248FFF7C5FFF8E78E
:1021EC00240100200004005010B582B013000B4CE9
:1021FC00032200920A000100200003F03FFA00289D
:10220C0002D1012002B010BD054AD3680133D3605E
:10221C000120FFF775FF0020F4E7C046B402002050
:10222C0018030020F0B58DB001900091150000F05E
:10223C00A9FE06000027264B02930E22002103A8BC
:10224C0003F066FB1222002107A803F061FBFFF7E5
:10225C0075FF022207A902A8FFF7C6FF041E18D0BB
:10226C0007AB5B781B4A5364FF2B15D0FFF770FF4D
:10227C0000F088FE801BA84203D20137164B9F4208
:10228C00D9D9144A9368013393600220FFF738FFC1
:10229C00002420000DB0F0BD009A002A0AD01621AF
:1022AC0002AB9C466144981CFFF79EFF002804D1AA
:1022BC000400EEE7FFF74CFFEBE7FFF749FF009A4E
:1022CC00162102AB9C466144019803F04DFBE0E7FC
:1022DC0044FF0000180300209F860100F0B589B070
:1022EC0006000C0017001D004B1EDBB20F2B28D86C
:1022FC00102D01D9002025E00278134BDA6301225E
:10230C001A640E9A00210020FFF78CFF002819D0C8
:10231C002200310004A803F027FBFFF70FFF220077
:10232C00694604A8FFF760FF00280BD0FFF710FFE9
:10233C00054B02221A640E9A29003800FFF772FF2F
:10234C0000E0002009B0F0BD1803002030B587B0C4
:10235C00040005A8CD239B00038004AB1B4A1A8004
:10236C0002ABE43AFF3A1A705C7000229A70DA7091
:10237C00302119715A7103329A71DA710523009365
:10238C00002300222E39FFF7A9FF002803D10025D6
:10239C00280007B030BD0523009300230022022142
:1023AC0004A8FFF79BFF0028F1D00523009300231E
:1023BC000022082102A8FFF791FF051EE7D0044B6D
:1023CC005C6200F0DFFD034B1860E1E715020000D2
:1023DC00180300207802002010B5084B1B68002B56
:1023EC0007D0064B9B6A002B03D1044B5B6A9842C7
:1023FC0000D110BDFFF7AAFFFBE7C0461803002071
:10240C0010B584B00400202303931B3B00930333CB
:10241C000200042103A8FFF761FF002807D0A2786F
:10242C00044B9A64A279DA641A6D01321A6504B00D
:10243C0010BDC0461803002010B5A0B06F4B1B6830
:10244C00002B01D120B010BD04216D4800F066FFB7
:10245C00041E07D000F096FD6A4B1B68C01A0928B1
:10246C0000D898E000F08EFD664B1860002C03D06D
:10247C00624A136E013313661EA8FFF7C1FF0028D2
:10248C00E0D01EAB9B7928221A421CD15B4B9B6A75
:10249C00002B03D01EAB9B789B061CD4574B9B6A1E
:1024AC00002B78D11EAB9B7818221A4273D01B07D5
:1024BC001CD5524A936901339361504B586AC0B290
:1024CC00FFF744FFBEE74D4AD3690133D3610520C2
:1024DC00FFF716FEB6E7494B00229A621A690132E1
:1024EC001A61494B1878FFF731FFABE77723049358
:1024FC002D22002105A803F00BFA03A81523038055
:10250C00103B0093033B02AA0221FFF7E7FE0028D1
:10251C0098D002AB1B78302B03D00620FFF7F0FDD0
:10252C0090E7FFF70BFE312211A904A8FFF75CFE20
:10253C00002800D186E7FFF70BFE344B1A78344B9A
:10254C001B789A421FD311AB5A7813001D3BDBB298
:10255C00122BB2D82E4C22702C4B002119702D4806
:10256C004631694403F000FA00F00CFD2A4B186068
:10257C002A4BD8621969227852181A611F4A53697A
:10258C000133536199E7254A536A0133536206209C
:10259C00FFF7B6FD56E7194B9B6A002B1DD11B4B61
:1025AC001A781B4B1B789A4200D04BE700F0EAFCE0
:1025BC001B4B1B68C01A96239B00984200D241E724
:1025CC000E4B1A6A01321A62586A01300321FDF768
:1025DC00F5FDC8B2FFF7BAFE34E700F0D3FC114B9F
:1025EC001B68C01AEF2800D82CE70C4A93690133FA
:1025FC0093610720FFF784FD24E7C04618030020F1
:10260C000004005070020020800200208202002092
:10261C008102002084020020740200208403002028
:10262C00780200207C020020F0B5A3B005000C005D
:10263C0021ABCD2292001A8020AB4D4A1A80662322
:10264C0011932D22002112A803F062F902AA494B22
:10265C0019680291998891809B799371FFF7ECFE30
:10266C00454B1B68002B75D02F2C00D976E01C2C09
:10267C0000D875E0EFF30583002B00D072E03E4BE1
:10268C009B6A002B07D0EB78032B00D06CE0EB7C23
:10269C00002B00D06AE06B7A022B01D900245AE09F
:1026AC000523009300230022022121A8FFF716FE28
:1026BC00002801D100244EE00523009300230022C2
:1026CC00022120A8FFF70AFE0028F3D01EA8FFF76E
:1026DC0097FE0028EED011AE74702200290046201F
:1026EC00684403F041F9FFF729FD312204A93000B9
:1026FC00FFF77AFD041E2ED0FFF72AFD6B7A02A895
:10270C00437005230093002300220721FFF7E6FD09
:10271C00041E20D06F7A28000E30FEF7A2FA0600B5
:10272C0028000A30FEF79DFA020031003800FEF74F
:10273C00A5FA124B187000F025FC114B18600E4BCB
:10274C0001229A626A7A5A620E4B18635A690132F4
:10275C005A6100E00024200023B0F0BD0024FAE709
:10276C000024F8E70024F6E70024F4E70024F2E75D
:10277C0015030000385B00081803002080020020BD
:10278C007C0200208403002010B508001100FFF724
:10279C004BFF10BD10B500F00DFC040000F010FC58
:1027AC00C001444000F012FCC008444000F0EAFBB9
:1027BC006040074B9B68584042034240530C5340C7
:1027CC005A01100058409A4200D010BD0120FCE77D
:1027DC0010E000E030B587B0040005AB12221A708F
:1027EC0042785A7082789A70C278DA700025012D7E
:1027FC003BD8A3780522009202AA042105A8FFF772
:10280C006DFD002832D01A4A936D01339365211D5A
:10281C00A27802A803F06EF8002801D10135E6E792
:10282C00134B00225A669A660023A2789A4211D959
:10283C00032B0FD80E4A516E181D205CDD00A840EA
:10284C0001435166916E02A8C05CA8400143916699
:10285C000133EAE763781B02E2781343044AD36539
:10286C000820FFF74DFC002000E0012007B030BD30
:10287C0018030020F0B5C64600B59EB00400142223
:10288C00002119A803F044F8B44B1A7818AB1A704D
:10289C00B34B9A681692998916AA918014A91A00BA
:1028AC00103260CA60C1AF4A11681291117912AA34
:1028BC0011710EA91A001832E0CAE0C112680A6040
:1028CC000BAA283361CB61C2A74BA84A1A605C6083
:1028DC00A74A9A60A74BA84A5A63A84B5A6B012582
:1028EC002A435A635A6B2A400292029A5A6B022765
:1028FC003A435A635A6B3A400392039A1A6C8021FA
:10290C0049010A431A641B6C0B400493049BA026D8
:10291C00F60501221021300000F007FD984B984677
:10292C0001220821180000F000FD102319931A95BC
:10293C001B9500241C9419A9300000F02FFC0823CF
:10294C0019931B9519A9404600F028FC04231993F0
:10295C001A941B9519A9404600F020FCE02319930A
:10296C001A971B941C941D9419A9300000F016FCA6
:10297C008448854B036082235B0043608460E023C2
:10298C00DB00C3600461446180239B008361C93B0D
:10299C00FF3BC361046244628462313BC3620463E3
:1029AC00446302F0E9FD00280CD1052000F0F0FA98
:1029BC0000220821724800F0B8FC142000F0E8FA5C
:1029CC00002415E00120FFF79BFB1EB080BCB8462D
:1029DC00F0BD0320FFF794FBF7E74833FF33009378
:1029EC00002300222900FFF779FC0028EDD02C19D8
:1029FC00664A944213D8664A155D002D0FD05D4A85
:102A0C0094630134102DE4D8624B1B1B9D42E0D81B
:102A1C005F4BE0181B5D172BDFD01423DFE75B4AFD
:102A2C0094421AD805230093033309AA012118A84C
:102A3C00FFF754FC0028C8D009A94B781B028A78F0
:102A4C0013434C4AD3620B781363D26A524B9A42AB
:102A5C0007D00420FFF754FBB7E70320FFF750FB28
:102A6C00B3E70523009300230022062116A8FFF7E5
:102A7C0035FC0028A9D0052300930023002208214F
:102A8C0014A8FFF72BFC00289FD0052300930023EC
:102A9C000022052112A8FFF721FC002895D007A8D9
:102AAC00FFF7AEFC002800D18FE707AB9B792822FB
:102ABC001A424BD114A8FFF78DFE002800D184E7F1
:102ACC0016A8FFF787FE002800D17EE712A8FFF7B3
:102ADC0081FE002800D178E70EA8FFF77BFE0028C6
:102AEC0000D172E70BA8FFF775FE002800D16CE748
:102AFC0000F048FA294B18600020FFF727FC00284B
:102B0C0000D162E7264B059305230093013B06AAEF
:102B1C00190005A8FFF7E2FB002800D155E7069A3B
:102B2C00144B5A6506AB1B78052B0BD106AB5B78A7
:102B3C00382B07D106AB9B78002B03D106ABDB7887
:102B4C00282B07D00820FFF7DBFA3EE70520FFF71C
:102B5C00D7FA3AE7074B01221A6036E7E05B000828
:102B6C00385B0008E45B00088403002044534552A2
:102B7C00240926201803002080C3C901001002403C
:102B8C0000040050B4020020003001404E0200004E
:102B9C00EC5B00084F020000634400007002002050
:102BAC001201040070B504000D00FFF745FC1B4B2F
:102BBC001B68002B30D01A4B1A781A4B1B789A4290
:102BCC0001D3002029E000F0DDF9174B1B68C01A77
:102BDC00642810D8124B1B78002B19D0104A13788C
:102BEC00591C1170114AD35C2B70114A536B013371
:102BFC005363012011E00A4B0A4A12781A70200024
:102C0C00FEF7AFFC0A4AD36B0133D363002004E018
:102C1C002000FEF7A6FCE1E7002070BD18030020A1
:102C2C008202002081020020740200208402002015
:102C3C008403002070B586B001AC2C4B220023CB52
:102C4C0023C203CB03C2FFF7A5FD0600284B294A7C
:102C5C001A608021284D0022C9002800FFF784FA51
:102C6C008021002209012800FFF77EFA8021002232
:102C7C0049012800FFF778FA8021002289012800F9
:102C8C00FFF772FA1D4A1E4D330021002800FEF793
:102C9C00CFFE0023002200212800FEF7F7FE194882
:102CAC0000230360184B4360184B8360FDF71AFE3A
:102CBC00002803D1164A136801331360114BDA7BD9
:102CCC00144B1A6000F05EF9134B18600120FFF7EB
:102CDC00D1FD124B1B68002B01D006B070BD08480B
:102CEC0001220421FEF728FFF7E7C0466C5B0008C1
:102CFC000400002022092620000400503C5E00083D
:102D0C005401002044010020AD200008712000086F
:102D1C00300100202C0100203C0100201803002071
:102D2C00F0B585B05A4B8C2252009D58802306E09A
:102D3C000F236B4419785648FEF71EFF23005C1EC8
:102D4C00002B06D053480F216944FFF72BFF0028B6
:102D5C00EED14F4B8C2252009B58AB4200D07FE0FF
:102D6C004D4B1B68002B00D180E000F00BF90400E8
:102D7C004A4E012201213000FFF7B2F90500002272
:102D8C0002213000FFF7ACF90200414B290018007A
:102D9C00FEF776FE424B1B68E31A632B32D90023F5
:102DAC0001AA13806A46D38002933E4B9B7B002B77
:102DBC0006D13D4B1B68E31AFA22920093425BD278
:102DCC0001AF384E02AB6A46063239003000FDF7CF
:102DDC0007FE0500F27B354B1A603A88344B1A809B
:102DEC0000284FD1334A1368013313606B46063306
:102DFC0000229A5E01AB198825482B00FEF746FE8F
:102E0C00274B1C60224C2000FFF700F800F0BAF8AA
:102E1C00294BD860A26B1A645822A25C5A644C22CB
:102E2C00A25A9A645022A25CDA644822A25A1A6509
:102E3C005D22A25C5A655A22A25C9A651F4A1278DE
:102E4C00D2B2DA6588225200A2581A668A2252003F
:102E5C00A2585A668C225200A2589A6605B0F0BD50
:102E6C000B4BC23A985CFFF7B7FA79E70848012296
:102E7C000421FEF761FE78E70A48FDF733FD0A4BA3
:102E8C001C609DE700F07EF80D4B1860AEE7C04665
:102E9C0054010020140200201803002000040050EC
:102EAC0040010020440100203C0100202C010020A6
:102EBC002601002030010020840300202401002082
:102ECC002801002010B5064B984200D010BD054AD1
:102EDC0013680133136001F04FFE034B1860F5E7E4
:102EEC0090000020380100203401002010B50400AF
:102EFC00114B1978002901D1012010BDFA20800056
:102F0C00FDF7D6F801000D4B1868FDF7D1F800F06D
:102F1C00CBF800280DD1032C01D90120EDE70130AD
:102F2C0000222100404200F0AFF8054B1C6000204D
:102F3C00E3E70120E1E7C046080000200000002084
:102F4C000C00002010B5084A116880235B000B436D
:102F5C0013600320FFF7CAFF041E02D001242000D7
:102F6C0010BDFDF78BFCFAE700200240034B1B78E9
:102F7C00034A11685B1813607047C04608000020B4
:102F8C0070040020014B18687047C0467004002084
:102F9C0070B50400FFF7F6FF0500631C02D0044B6C
:102FAC001B78E418FFF7EEFF401BA042FAD370BD6C
:102FBC0008000020014B18687047C0469075FF1F31
:102FCC00014B18687047C0469475FF1F014B186879
:102FDC007047C0469875FF1F034A136803490B409E
:102FEC00034313607047C04600000140FFF9FFFF28
:102FFC0070B5002811DB8308134DC0339B005C595E
:10300C0003221040C000FC3216008640B4438901F4
:10301C000A40824022435A5170BD0F230340083BA3
:10302C009B0806339B00094A944663445C68032260
:10303C001040C000FC3215008540AC4389010A40A9
:10304C00824022435A60E7E700E100E000ED00E037
:10305C00013880235B0498420FD2094A506009481A
:10306C00036A1B021B0AC02109060B4303620023DF
:10307C00936007331360002070470120FCE7C046C3
:10308C0010E000E000ED00E010B5FFF7B1FF10BD5F
:10309C00002805DB1F22024001239340014A1360E4
:1030AC007047C04600E100E010B5FFF7D1FF10BD3E
:1030BC0010B5002833D02523C35C022B06D0042383
:1030CC00C36320330022C254012010BD01680A687A
:1030DC0001239A430A6001680A680E24A2430A601D
:1030EC00816C0A680F4C22400A60416C1C220A4019
:1030FC00016C93404B60C36C026D5A60436D002BA6
:10310C0005D01A6822401A60836DC26D5A6025235F
:10311C000122C254013B0022C2540020D5E70120F9
:10312C00D3E7C046FFFEFFFF10B52523C35C022B7F
:10313C0003D00423C363012010BD01680A68012376
:10314C009A430A6001680A680E24A2430A60816CE3
:10315C000A68114C22400A60416C1C220A40016C26
:10316C0093404B60C36C026D5A60436D002B05D0CD
:10317C001A6822401A60836DC26D5A6025230122A1
:10318C00C254013B0022C254836B002B02D09847DF
:10319C000020D1E70020CFE7FFFEFFFFF0B50023B2
:1031AC0059E086685F000324BC40A643CC68BC4051
:1031BC0034438460446894434E683609012232409B
:1031CC009A402243426056E0DE080836B600375873
:1031DC0005321A4092000F249440A7430C69944086
:1031EC0022003A43325059E0042600E00026A64063
:1031FC0034003C43444E1832920094513768EA43F1
:10320C003E00AE434C68E40201D53E002E433E4CDA
:10321C00266067683E0016404C68A40201D53E004B
:10322C002E43394C66608426A7593E0016404C68E4
:10323C00A40301D53E002E43334C8427E65180264F
:10324C00A65932404C68E40301D52A0032432E4D76
:10325C0080242A5101330C682200DA4053D0012219
:10326C009A40250015401442F4D04E680324344093
:10327C00013C012C95D94C6803222240032A08D02A
:10328C00C4685E000322B24094438A68B240224371
:10329C00C2604C6803222240022A95D004685E006A
:1032AC0003221700B740BC434F683A40B240224358
:1032BC0002604C68C02292021442CBD09A081400CF
:1032CC001834A400104EA75903241C40E4000F2608
:1032DC00A640B743A026F605B04287D00B4EB042AD
:1032EC000BD00B4EB0420AD00A4EB04209D00A4E57
:1032FC00B04200D178E7052679E7012677E7022668
:10330C0075E7032673E7F0BD001802400004005077
:10331C0000080050000C00500010005003690B42D4
:10332C0001D0012070470020FCE7002A01D0816108
:10333C0070478162FCE7026893699B0701D5002303
:10334C00936203689A69D20703D49A6901210A43EC
:10335C009A61704710B58905890D12041143194300
:10336C00029B194349004908046862685B0D802080
:10337C00C0000340034803439A4313000B436360AC
:10338C0010BDC046FF63FF03F0B5C64600B5040090
:10339C000D00170001688B69102216001E401A429E
:1033AC0000D175E01023CB610023984600262068DD
:1033BC0083699B0631D4002E2FD16B1CF7D0FFF7FD
:1033CC00E1FDC01BA84201D8002DF0D121684B684B
:1033DC008022D20113404222A25CD2B2886900043E
:1033EC0003D5002B01D1202A0ED123689B699B06A3
:1033FC00DDD4FFF7C7FDC01B1928F6D920234246A0
:10340C001A4390460126D2E74A688023DB01134316
:10341C004B60FFF7B7FD0700E7E7002E01D1202333
:10342C00C3610426434633431E0001252268936979
:10343C00D90504D501210E43FF31D16101255A056F
:10344C0006D50822164322688021C900D1610125C6
:10345C009B051FD502231E43236880229200DA614C
:10346C0001252000FFF767FF226853680B490B40CA
:10347C005360636C3343636441232022E254002382
:10348C002232A354023AA354280080BCB846F0BDA3
:10349C000025CBE7002DF7D0E3E7C04600E800FE9F
:1034AC0070B504000D00160023689B699B0720D49F
:1034BC00320029002000FFF767FF00281BD16B1C8E
:1034CC00F2D0FFF75FFD801BA84201D8002DEBD195
:1034DC0023689B699B07E7D4636C202213436364C6
:1034EC004123E25400232232A354023AA354012074
:1034FC0000E0002070BD0120FCE7F0B5D6464F4639
:10350C0080B583B007000D00160099460A9B9A46B9
:10351C003B689C692C40641B63425C410196B4423D
:10352C0028D1524649463800FFF72EFF002827D1F4
:10353C004B460133ECD0FFF725FD5346C01A4845E6
:10354C0002D84B46002BE3D13B689B692B405B1B9D
:10355C005A425341019A9342DAD17B6C2022134395
:10356C007B644123FA5400232232BB54023ABB54ED
:10357C00012000E0002003B0C0BCBA46B146F0BD4B
:10358C000120F8E770B582B0040015001E008023FE
:10359C00F2B2194800905B042000FFF7DBFE079A9B
:1035AC0006992000FFF77CFF00281ED1012E0ED1BA
:1035BC002368EDB29D62079B0093069B002280213D
:1035CC002000FFF79AFF002813D102B070BD2368CA
:1035DC002A0A9A62079A06992000FFF761FF0028D1
:1035EC0005D12368EDB29D62E5E70120EDE70120EE
:1035FC00EBE70120E9E7C0460020008070B582B0FF
:10360C00040015001E00DAB2184B00930023FFF7DC
:10361C00A1FE079A06992000FFF742FF00281ED151
:10362C00012E0ED12368EDB29D62079B0093069B81
:10363C00002240212000FFF760FF002813D102B0C8
:10364C0070BD23682A0A9A62079A06992000FFF730
:10365C0027FF002805D12368EDB29D62E5E7012024
:10366C00EDE70120EBE70120E9E7C04600200080F0
:10367C0070B504000D00160003E023689B699B06DF
:10368C0012D523689B699B061BD4320029002000AD
:10369C00FFF77AFE002816D1FFF774FC801BA842B6
:1036AC00EBD8002DEDD1E8E7636C20221343636463
:1036BC004123E25400232232A354023AA3540120A2
:1036CC0000E0002070BD0120FCE7000010B5041ED6
:1036DC0060D04123C35C002B48D041232422E25408
:1036EC002268136801218B431360636822682A499E
:1036FC000B4013612268936828490B409360E36880
:10370C00012B39D0A168226884231B020B439360E0
:10371C00E368022B37D02268536821490B40536071
:10372C00226851681F4B0B4353602268D3681B49B6
:10373C000B40D360236962691343A26912022168AA
:10374C001343CB60E369216A22680B431360226840
:10375C00136801210B4313600023636441221F3162
:10376C00A15423630132A354002010BD4033002226
:10377C00C254FCF7A3FFB0E7A168226880231B02A8
:10378C000B439360C4E72268516880231B010B43F1
:10379C005360C5E70120E8E7FFFFFFF0FF7FFFFF65
:1037AC00FFF7FFFF00800002F0B587B00400039123
:1037BC00049205930CAB20CB1F884123C35C202BB8
:1037CC0000D0B3E0002D18D0002F16D04023C35CDE
:1037DC00012B00D1ADE040230122C254FFF7D2FBF4
:1037EC000600802100901923012209022000FFF716
:1037FC0084FE002806D0012099E080239B0063649E
:10380C00012094E041232122E25401331F32E2547F
:10381C000023636465626785636301960E9B009366
:10382C00059B049A03992000FFF7ACFE00280FD1EA
:10383C00638D9BB2FF2B10D9FF2323857F3B002286
:10384C0000925B04FF3203992000FFF783FD21E017
:10385C0040230022E254012069E0628D92B222855D
:10386C008023D2B2002100919B0403992000FFF722
:10387C0071FD0FE0628D92B222858023D2B20021BD
:10388C0000919B0403992000FFF764FD638D9BB2AC
:10389C00002B34D032000E992000FFF701FE0028D7
:1038AC0049D1626A236812789A62636A013363624F
:1038BC00638D013B9BB26385238D013B9BB22385BA
:1038CC00628D92B2002AE1D0002BDFD100960E9BC4
:1038DC00002280212000FFF710FE00282DD1638DDF
:1038EC009BB2FF2BC6D9FF2323857F3B002200927E
:1038FC005B04FF3203992000FFF72CFDC6E7320072
:10390C000E992000FFF7B4FE002818D1236820225E
:10391C00DA6121684B680B4D2B404B604123E2541C
:10392C0000232232A354023AA35400E0022007B031
:10393C00F0BD0220FBE70120F9E70120F7E70120A9
:10394C00F5E7C04600E800FEF0B587B0040003912F
:10395C00049205930CAB20CB1F884123C35C202B16
:10396C0000D0B5E0002D18D0002F16D04023C35C3A
:10397C00012B00D1AFE040230122C254FFF702FB20
:10398C000600802100901923012209022000FFF774
:10399C00B4FD002806D001209BE080239B006364CB
:1039AC00012096E041232222E25401331E32E254DC
:1039BC000023636465626785636301960E9B0093C5
:1039CC00059B049A03992000FFF718FE00280FD1DD
:1039DC00638D9BB2FF2B10D9FF2323857F3B424A7B
:1039EC0000925B04FF2203992000FFF7B3FC21E057
:1039FC0040230022E25401206BE0628D92B22285BA
:103A0C008023D2B2384900919B0403992000FFF720
:103A1C00A1FC0FE0628D92B222858023D2B20021EC
:103A2C0000919B0403992000FFF794FC638D9BB2DB
:103A3C00002B36D000960E9B002204212000FFF7AD
:103A4C005CFD002849D123685A6A636A1A70636A5C
:103A5C0001336362238D013B9BB22385628D013A56
:103A6C0092B26285628D92B2002ADFD0002BDDD13A
:103A7C0000960E9B002280212000FFF73EFD0028BF
:103A8C002DD1638D9BB2FF2BC4D9FF2323857F3BA4
:103A9C00002200925B04FF3203992000FFF75AFCCE
:103AAC00C4E732000E992000FFF7E2FD002818D180
:103ABC0023682022DA6121684B680C4D2B404B6047
:103ACC004123E25400232232A354023AA35400E0CF
:103ADC00022007B0F0BD0220FBE70120F9E701202E
:103AEC00F7E70120F5E7C0460024008000E800FE5F
:103AFC00F0B54123C35C202B20D12033C35C012BB8
:103B0C001ED040240122025541252423435506682A
:103B1C00336893433360066833680A4F3B40336025
:103B2C00066833680B43336001680B6813430B6002
:103B3C0020234355002303550020F0BD0220FCE751
:103B4C000220FAE7FFEFFFFFF0B54123C35C202B07
:103B5C001ED12033C35C012B1CD040240122025502
:103B6C004125242343550668336893433360066824
:103B7C003368094F3B4009021943316001680B68F7
:103B8C0013430B6020234355002303550020F0BD45
:103B9C000220FCE70220FAE7FFF0FFFF70B5041EDD
:103BAC0028D00368144A1A600368144A1A60036820
:103BBC0042685A60036882689A60FFF7E3F905006F
:103BCC002268D3685B070AD0FFF7DCF9401B312869
:103BDC00F6D92368DB685B07F2D003200BE0116990
:103BEC00E368994202D01361002004E0044B136097
:103BFC00002000E0012070BDCCCC00005555000029
:103C0C00AAAA00000368024A1A6000207047C04646
:103C1C00AAAA000010B5104A136810490B400343C0
:103C2C00136080239B00984201D0002010BD0C4BE8
:103C3C001B685800C01840000A49FCF739FA0130DB
:103C4C00054B5B695B0503D5002803D00138F7E70A
:103C5C000020EBE70320E9E700700040FFF9FFFFCD
:103C6C000000002040420F0070B5FFF78BF90400F4
:103C7C00254A116880235B000B431360224B1B68A1
:103C8C005B0506D4FFF77EF9001B0228F6D903204A
:103C9C0070BD1D4D8023DB016B60FFF773F90400D1
:103CAC000023AB60184B9B6838221A4207D0FFF7F1
:103CBC0069F9001B154B9842F4D90320E8E7124B25
:103CCC00C8321A601A60FFF75DF904000E4B1B68CE
:103CDC009B0106D5FFF756F9001B0228F6D90320E5
:103CEC00D6E7094B80225201DA6000229A61013A30
:103CFC001A62074B074A1A60074B1868FFF7F6F869
:103D0C000028C5D00120C3E7001002408813000032
:103D1C00000000200024F4000C00002070B582B0DC
:103D2C00041E00D15EE20368DB0739D5C14A9168F5
:103D3C0038230B40D16803220A40102B26D0082BC5
:103D4C0026D063688022520293427FD0A022D202F6
:103D5C00934200D181E0B74B1A68B7490A401A6008
:103D6C001A68B6490A401A606368002B00D180E0DB
:103D7C00FFF708F90500AF4B1B689B0310D4FFF746
:103D8C0001F9401B6428F6D903202CE2032AD6D172
:103D9C00A84B1B689B0303D56368002B00D124E25E
:103DAC0023689B0731D5A34A916838230B40D1680F
:103DBC0003220A40102B6AD0002B6BD19D4A12684B
:103DCC00520503D5E268002A00D110E299484268F6
:103DDC009B490A40616909020A434260002B0DD1DC
:103DEC00036898490B4021690B4303600368DB0AA5
:103DFC0007221A40944BD340944A1360944B186892
:103E0C00FFF774F8002800D0F3E123681B0700D4F7
:103E1C0081E0884B9A6838231340182B73D0A36920
:103E2C00002B00D1B4E0834A136E01210B431366BF
:103E3C00FFF7A8F805007F4B1B6E9B076BD4FFF7B1
:103E4C00A1F8401B0228F6D90320CCE1794A11686D
:103E5C0080235B020B43136086E7764B1968802244
:103E6C00D2020A431A601968802252020A431A606D
:103E7C007AE7FFF787F805006E4B1B689B038FD51D
:103E8C00FFF780F8401B6428F6D90320ABE1022A27
:103E9C0092D193E7E368002B22D0664A13686949F4
:103EAC000B4021690B431360116880235B000B43AB
:103EBC001360FFF767F805005E4B1B685B0506D4C3
:103ECC00FFF760F8401B0228F6D903208BE1594913
:103EDC004B685B4A13406269120213434B6094E7D0
:103EEC00544A13685B490B401360FFF74BF805000D
:103EFC00504B1B685B0588D5FFF744F8401B022824
:103F0C00F6D903206FE14B4B1B6E9B0703D5A369BE
:103F1C00002B00D16FE123685B0700D4A2E0454B76
:103F2C009A6838231340202B45D0424BDB6BDB00C7
:103F3C004AD4404BDA6B802149050A43DA63DB6BC8
:103F4C000B400193019B0125434B1B68DB053DD5C1
:103F5C00A368012B4ED0052B52D0364BDA6D0121C4
:103F6C008A43DA65DA6D03318A43DA65A368002B7C
:103F7C0050D0FFF707F806002E4BDB6D9B076FD474
:103F8C00FFF700F8801B354B9842F5D903202AE146
:103F9C00284A136E01218B431366FEF7F3FF0500CD
:103FAC00244B1B6E9B07B6D5FEF7ECFF401B02287B
:103FBC00F6D9032017E11F4BDB6D9B0752D5A36885
:103FCC00002B4FD101200EE10025BDE7224A1168DC
:103FDC0080235B000B431360FEF7D4FF06001E4BDF
:103FEC001B68DB05B4D4FEF7CDFF801B0228F6D985
:103FFC000320F8E00F4AD36D01210B43D365B5E7DD
:10400C000C4BDA6D04210A43DA65DA6D03390A4385
:10401C00DA65ABE7FEF7B6FF0600064BDB6D9B07D8
:10402C001ED5FEF7AFFF801B0C4B9842F5D9032031
:10403C00D9E0C04600100240FFFFFEFFFFFFFBFF70
:10404C00FF80FFFFFFC7FFFF0024F40000000020EB
:10405C000C000020FFFEFFFF0070004088130000E2
:10406C00012D19D023689B062FD5E369002B19D09D
:10407C006A4A11688023DB030B431360FEF782FF4F
:10408C000500664B1B681B021FD4FEF77BFF401B11
:10409C000228F6D90320A6E0604AD36B60490B4096
:1040AC00D363DFE75D4A13685E490B401360FEF78C
:1040BC0069FF0500594B1B681B0206D5FEF762FF12
:1040CC00401B0228F6D903208DE0236A002B00D177
:1040DC0093E0524A916838220A40102A5AD0022B97
:1040EC0012D04E4A136850490B401360FEF74AFF3A
:1040FC0004004A4B1B689B0145D5FEF743FF001B90
:10410C000228F6D903206EE0444A136846490B4056
:10411C001360FEF737FF0500404B1B689B0106D56B
:10412C00FEF730FF401B0228F6D903205BE03B4A28
:10413C00D3683E491940636AA06A0343E06A0002EF
:10414C000343206B0343606B0343A06B03430B439C
:10415C00D360116880235B040B431360D168802308
:10416C005B050B43D360FEF70DFF04002B4B1B6864
:10417C009B0106D4FEF706FF001B0228F6D903208C
:10418C0031E000202FE0254AD36829490B40D36049
:10419C00002028E0012B32D0204BDA680323134097
:1041AC00616A8B422DD170231340A16A8B422AD1B4
:1041BC00FE21C9011140E36A1B02994225D1F82363
:1041CC009B031340216B8B4221D1E0231B05134031
:1041DC00616B8B421DD1520F5207A36B9A421AD1BD
:1041EC00002000E0012002B070BD0120FBE701209F
:1041FC00F9E70120F7E70120F5E70020F3E70120BC
:10420C00F1E70120EFE70120EDE70120EBE70120CA
:10421C00E9E70120E7E70120E5E7C046001002408E
:10422C00FFFFFFEFFFFFBFFFFFFFFFFE8C80C11101
:10423C00FCFFFEEE10B52A4B9B6838221A4207D1C0
:10424C00274B1A68D20A072313402648D84010BDC2
:10425C00234B9A6838231340082B3BD0204B9A6889
:10426C0038231340102B0DD01D4B9A683823134064
:10427C00202B31D01A4B9A6838231340182B26D098
:10428C000020E4E7164AD1680D3B0B40D2681209B6
:10429C00072111400131032B0FD01248FBF708FF07
:1042AC000F4BDA68120A7F23134058430C4BD96822
:1042BC00490F0131FBF7FCFEC9E70B48FBF7F8FE91
:1042CC00074BDA68120A7F2313405843EEE7FA20B3
:1042DC00C001BCE70448BAE780200002B7E7C0463B
:1042EC00001002400024F40000127A0070B50400A3
:1042FC000D00002800D1AAE0574B1A680723134081
:10430C008B4221D323689A070ED55B0705D5534AF8
:10431C009168E023DB010B439360504A936850494A
:10432C000B40A1680B4393602368DB0754D563688B
:10433C00012B20D0022B3BD0002B3FD1474A1268D7
:10434C0052051CD401206AE0434A136807218B43B1
:10435C002B431360FEF716FE06003F4B1A6807232B
:10436C001340AB42CED0FEF70DFE801B3D4A90426F
:10437C00F3D9032053E0394A1268920369D53749BF
:10438C008A680720824313438B60FEF7FBFD06000F
:10439C00324B9B6838221A406368DB009A421BD070
:1043AC00FEF7F0FD801B2F4B9842F1D9032036E02D
:1043BC002A4A12689201E2D4012030E0032B05D086
:1043CC00264AD26D9207DAD4012028E0234A126ED5
:1043DC009207D4D4012022E01F4B1A680723134004
:1043EC00AB421DD823685B0706D51C4A93681E494F
:1043FC000B40E1680B439360FFF71CFF174B9A6867
:10440C00120A0F231340194A9B009A581F2313407A
:10441C00D840174B1860174B1868FEF767FD70BD36
:10442C000D4A136807218B432B431360FEF7AAFD3B
:10443C000600094B1A6807231340AB42D2D0FEF793
:10444C00A1FD801B074B9842F3D90320E7E701201D
:10445C00E5E70120E3E7C0460020024000100240DF
:10446C00FFF0FFFF88130000FF8FFFFFA05B000829
:10447C00000000200C000020014B18687047C0465B
:10448C000000002010B5FFF7F7FF064B9A68120BDF
:10449C0007231340044A9B009A581F231340D8400B
:1044AC0010BDC04600100240805B0008F0B583B020
:1044BC00040003689B0362D5AE4BDB6BDB001ED4A0
:1044CC00AC4BDA6B802149050A43DA63DB6B0B409A
:1044DC000193019B0126A84A116880235B000B43C2
:1044EC001360FEF74FFD0500A34B1B68DB0508D4DA
:1044FC00FEF748FD401B0228F6D9032502E00026F2
:10450C00E9E70025002D23D19A4BD96DC0229200EA
:10451C000B001340114210D0226C9A420DD0954AD8
:10452C00D36D96490B40D06D802149020143D16572
:10453C00D16D93480140D165D365DB0710D4002DB4
:10454C0006D18C4AD36D8D490B40216C0B43D3653E
:10455C00012E15D1874AD36B8A490B40D3630FE0E8
:10456C00FEF710FD0700834BDB6D9B07E7D4FEF7CE
:10457C0009FDC01B844B9842F5D90325DFE70025C4
:10458C002368DB0706D57B4A536D03218B43616897
:10459C000B43536523689B0706D5764A536D0C2154
:1045AC008B43A1680B43536523685B0706D5714A9F
:1045BC00536D30218B43E1680B4353652368DB0655
:1045CC0006D56C4A536D71490B4021690B435365F9
:1045DC002368DB0406D5674A536D68490B40616953
:1045EC000B43536523689B0506D5624A536D684996
:1045FC000B40A16A0B43536523685B0506D55D4AE6
:10460C00536D64490B40E16A0B43536523689B0669
:10461C0006D5584A536D60490B40A1690B4353654D
:10462C0023685B0606D5534A536D5C490B40E16920
:10463C000B43536523685B040BD54E4A536D9B00AB
:10464C009B08216B0B435365226B8023DB059A423D
:10465C0062D023681B0306D5464A536D40218B4319
:10466C00616B0B43536523689B020BD5414A536D19
:10467C004B490B40A16B0B435365A26B8023DB03AF
:10468C009A4250D023685B020BD53A4A536D454988
:10469C000B40E16B0B435365E26B80235B049A4246
:1046AC0048D023681B0509D5324A936D03218B43EF
:1046BC00216A0B439365236A012B40D023689B042A
:1046CC0009D52C4A936D0C218B43616A0B4393657E
:1046DC00636A042B39D02368DB010BD5254A936D13
:1046EC002D490B40616C0B439365626C80239B01DD
:1046FC009A4230D023689B010BD51E4A936D1F49FB
:10470C000B40A16C0B439365A26C80235B009A4217
:10471C0028D0280003B0F0BD164AD16880235B0274
:10472C000B43D36095E7134AD16880235B040B439A
:10473C00D360A7E70F4AD1680B43D360B1E7D168C8
:10474C0080235B020B43D360B8E7D16880235B0204
:10475C000B43D360BFE7074AD16880235B040B434C
:10476C00D360C7E7034AD16880235B040B43D36053
:10477C00CFE7C0460010024000700040FFFCFFFF76
:10478C00FFFFFEFFFFFFFFEF88130000FFF3FFFFAB
:10479C00FFFFF3FFFFFFCFFFFFCFFFFFFF3FFFFF49
:1047AC00FFFFBFFFFFFFFFFE30B5EFF310840122C8
:1047BC0082F3108801680B68124D2B400B6084F358
:1047CC001088EFF3108182F31088026893680E4C06
:1047DC002340936081F31088C36E012B06D08C2389
:1047EC002022C2500023C366436730BDEFF3108113
:1047FC0083F31088026813681024A343136081F3B9
:10480C001088ECE7DFFEFFFFFEFFFFEF704710B5EF
:10481C00EFF31081012383F310880268136840249E
:10482C00A343136081F3108888232022C2500023F5
:10483C008367FFF7EBFF10BD10B5806AFBF76DFEC9
:10484C0010BD7047F8B504000268D3691068916810
:10485C00BE4D2B420BD19D0611D5850601D4CD0042
:10486C000DD5636F002B2AD02000984727E0B84D58
:10487C000E002E40294223D1B64D284220D1E56EA0
:10488C00012D00D1A4E0DD0202D54D0200D54AE194
:10489C001A0605D5020600D54CE1090200D549E1FE
:1048AC005A0602D5420600D54BE11A0202D5420047
:1048BC0000D559E1DB0102D5002800DA58E1F8BD3A
:1048CC00DD0707D5C50505D5012717629025625967
:1048DC003A4362519A0709D5CA0707D522680225BF
:1048EC0015628E35625904273A4362515A0709D52D
:1048FC00CA0707D52268042515628C356259022730
:10490C003A4362511A070AD5820601D4002E06D00A
:10491C0022680826166290256259324362511A05A4
:10492C000AD5420108D5226880252D0115629025F3
:10493C0062592026324362519022A258002ABED0DE
:10494C009B0608D5800601D4C90004D5636F002BE3
:10495C0001D0200098479023E25823689B685B069F
:10496C0002D4282313422CD02000FFF71DFF23680C
:10497C009B685B0621D5EFF31081012383F310882C
:10498C002268936840208343936081F310888023CE
:10499C00E358002B0DD0704A9A638023E058FEF741
:1049AC00C3FB002800D18AE78023E058836B98472B
:1049BC0085E72000FBF7B1FD81E72000FBF7ADFD9B
:1049CC007DE72000FBF7A9FD90230022E25076E75B
:1049DC00DD0600D457E7C50600D454E71023136254
:1049EC0023689B685B0662D58023E1580A6853688C
:1049FC009BB2002B4CD05C20205A984248D95E22A6
:104A0C00A3520B681B689B060BD5022323675A33F2
:104A1C00E15A0233E35AC91A89B22000FFF711FF99
:104A2C004DE7EFF31080012383F3108821680A68A7
:104A3C004A4D2A400A6080F31088EFF3108083F30C
:104A4C00108821688A689A438A6080F31088EFF393
:104A5C00108083F3108821688A684235FF35AA4399
:104A6C008A6080F310888C222021A1500022E266FB
:104A7C00EFF3108183F310882268136810208343AE
:104A8C00136081F310888023E058FEF711FBBCE71C
:104A9C005C21615A994200D011E713689B0600D43F
:104AAC000DE7022323672000FFF7CBFE07E75C230B
:104ABC00E35A5E22A15A591A89B2A35A9BB2002B0F
:104ACC0000D1FCE6002900D1F9E6EFF310850123B3
:104ADC0083F3108820680268214E3240026085F30F
:104AEC001088EFF3108583F31088206882681D4EC0
:104AFC003240826085F310888C222020A050002246
:104B0C00E2666267EFF3108083F310882268136803
:104B1C001025AB43136080F3108802232367200019
:104B2C00FFF78FFECBE680235B031362200000F0BF
:104B3C0085FBC4E6A36F002B00D1C0E6200098478C
:104B4C00BDE62000FFF763FEB9E6C0460F08000083
:104B5C00010000102001000445480008FFFEFFFF83
:104B6C00DFFEFFFFFEFFFFEF200000F069FBA6E673
:104B7C00200000F064FBA2E69023C05870470000B0
:104B8C00F8B5040001688368026913434269134352
:104B9C00C26913430A68B048024013430B60226891
:104BAC005368AE490B40E1680B435360A16922681E
:104BBC00AB4B9A4204D0AB4B9A4201D0236A1943B7
:104BCC009368A94803400B4393602268D36A0F2172
:104BDC008B43616A0B43D3622368A44A934219D076
:104BEC00A34A934227D0A34A934235D0A24A934278
:104BFC0000D188E0A14A934200D19DE0A04A9342A3
:104C0C0000D19BE0964A934237D0964A93424CD0BF
:104C1C00102279E09B4A516D03220A40022A5CD093
:104C2C0005D8002A5BD0012A5BD103326CE0032A41
:104C3C0059D1053268E0934A516D0C220A40082A7A
:104C4C0053D005D8002A52D0042A5DD010225BE044
:104C5C000C2A4ED1043A57E08A4A516D30220A4050
:104C6C00202A48D005D8002A47D0102A47D10C3A20
:104C7C004AE0302A45D1283A46E0824A526DC0219A
:104C8C0009010A40802109018A4259D007D8002A1B
:104C9C0058D08021C9008A4256D1042234E0C02168
:104CAC0009018A4252D108222EE0764A526DC02167
:104CBC0089000A400139FF398A4249D007D8002AB5
:104CCC0048D00139FF398A4246D104221CE0C02168
:104CDC0089008A4242D1082216E0022214E0002206
:104CEC0012E0102210E010220EE002220CE0002252
:104CFC000AE0102208E0022206E0002204E0102262
:104D0C0002E0102200E0002255498B4228D0554980
:104D1C008B4225D0E06980231B0298426AD0042A7A
:104D2C0000D1E1E000D9BEE0002A00D1C2E0022AA5
:104D3C0000D0B6E05448C1E00022E5E70022E3E7EA
:104D4C000222E1E70022DFE71022DDE71022DBE799
:104D5C000222D9E70022D7E71022D5E71022D3E7A9
:104D6C00042A43D007D8002A0CD0022A01D1464D80
:104D7C000EE00120BEE0082A02D180252D0207E0BA
:104D8C000120B7E0FFF77EFB0500002D00D1AEE05F
:104D9C00626A3E4B5200D75A39002800FBF788F95B
:104DAC00666873009B19834200D9A2E033038342E7
:104DBC0000D2A8E03A00002328000021FBF7EEFA0D
:104DCC00050E0B022B43020270080021801859417A
:104DDC0032000023FBF7E2FA2D4BC2182D4B9A42FE
:104DEC0000D992E02368D860002083E0FFF722FA14
:104DFC000500CAE7042A51D007D8002A09D0022A94
:104E0C0001D121480AE0012074E0082A06D00120D3
:104E1C0070E0FFF737FB002800D178E0626A1B4B8B
:104E2C005200D15AFBF744F9400061684B08C01896
:104E3C00FBF73EF90200103A174B9A4200D968E092
:104E4C0082B20F239A434008083B03401343226865
:104E5C00D36000204EE0C046F369FFCFFFCFFFFFC9
:104E6C000080004000840040FFF4FF110038014036
:104E7C000044004000480040004C004000500040FE
:104E8C00003C0140001002400024F4004C5E00087D
:104E9C0000FDFFFFFFFC0F00EFFF0000FFF7CAF95A
:104EAC00B9E7012026E0082A02D18020000205E0A3
:104EBC0001201FE0FFF7E6FA00282CD0626A184B9D
:104ECC005200D15AFBF7F4F861684B08C018FBF795
:104EDC00EFF80200103A134B9A421ED823680004D4
:104EEC00000CD860002005E0FFF7A4F9E4E70020EF
:104EFC0000E0012001236A22A352023AA3520023AC
:104F0C006367A367F8BD0120F4E70120F2E70020F6
:104F1C00F0E70120EEE70020ECE70120EAE7C046CD
:104F2C004C5E0008EFFF0000836A1B0706D5026881
:104F3C0053682C490B40816B0B435360836ADB072E
:104F4C0006D50268536828490B40C16A0B4353606D
:104F5C00836A9B0706D50268536824490B40016B92
:104F6C000B435360836A5B0706D50268536820497C
:104F7C000B40416B0B435360836ADB0606D502681A
:104F8C0093681C490B40C16B0B439360836A9B066F
:104F9C0006D50268936818490B40016C0B4393606B
:104FAC00836A5B060BD50268536814490B40416C4D
:104FBC000B435360426C80235B039A420AD0836A92
:104FCC001B0606D5026853680D490B40C16C0B4398
:104FDC0053607047026853680A490B40816C0B435D
:104FEC005360ECE7FF7FFFFFFFFFFDFFFFFFFEFFBE
:104FFC00FFFFFBFFFFEFFFFFFFDFFFFFFFFFEFFFF9
:10500C00FFFFF7FFFFFF9FFFF8B5CE46474680B581
:10501C0006000D0017009946089B98463368DC691A
:10502C002C40641B63425C41BC4233D14346013388
:10503C00F4D0FDF7A7FF4B46C01A40452FD8434686
:10504C00002B2ED0326813685B07E7D5802DE5D096
:10505C00402DE3D0D3691B0710D4D3691B05DDD5D4
:10506C0080231B0113623000FFF79EFB902320224C
:10507C00F2500C3B0022F25403200CE00824146282
:10508C003000FFF791FB9023F4500C3B0022F254BC
:10509C00012000E00020C0BCB946B046F8BD03209A
:1050AC00F9E70320F7E7000030B583B00400902344
:1050BC000022C250FDF766FF050023681B681B0722
:1050CC0010D423681B685B072BD420238822A350A1
:1050DC000432A3500023E3662367083AA35400204C
:1050EC0003B030BD8021234B0093030000228903C1
:1050FC002000FFF789FF0028E3D0EFF31081012394
:10510C0083F310882268136880208343136081F333
:10511C00108888232022E250043B0022E2547D3880
:10512C00DEE78021134B00932B000022C9032000E3
:10513C00FFF76AFF0028C8D0EFF31080012282F33A
:10514C00108821680B680C4D2B400B6080F3108885
:10515C00EFF3108082F3108821688B6893438B6087
:10516C0080F310888C231F32E250083B0022E2545B
:10517C000320B5E7FFFFFF01DFFEFFFF10B5041EA4
:10518C0030D08823C358002B22D088232422E2500D
:10519C002268136801218B431360A36A002B1DD175
:1051AC002000FFF7EDFC012811D0226853680E494E
:1051BC000B405360226893682A218B4393602268CA
:1051CC00136829390B4313602000FFF76DFF10BDE6
:1051DC0084330022C254FBF707FBD6E72000FFF70D
:1051EC00A3FEDDE70120F2E7FFB7FFFFF8B50400EF
:1051FC00436E002B05D101336A228352023A83524B
:10520C00F8BD026895686D0E07231D409268520F19
:10521C001340084FF85CC000074EF15CFAF7D2FF60
:10522C006A23E052785DC000715DFAF7CBFF68230A
:10523C00E052E5E76C5E0008645E0008704770475A
:10524C007047000070B58423C35C012B15D08424F7
:10525C0001260655882524234351026813681168DA
:10526C00B1431160064A13400022426601680B608C
:10527C00202343510255002070BD0220FCE7C0469C
:10528C00FFFFFFDFF8B504000A008423C35C012B89
:10529C001BD084250120605588262423A351236824
:1052AC001F6819688143196020688368DB00D9087E
:1052BC00114381602000FFF799FF23681F602023B2
:1052CC00A351002363550020F8BD0220FCE7000029
:1052DC00F8B504000B008422825C012A1BD08425C3
:1052EC000120605588262422A25122681768116873
:1052FC00814311602268916808480140194391600C
:10530C002000FFF773FF23681F602023A3510023A5
:10531C0063550020F8BD0220FCE7C046FFFFFFF1FB
:10532C00F0B5D6464F464646C0B582B006000D00D5
:10533C0090461F00FDF726FE0A9B181A8146B944B9
:10534C00FDF720FE82462C4B1B685B011B0D4A4669
:10535C005343019333689C682C40641B63425C414B
:10536C00444542D07B1CF5D0FDF70CFE5346C01AC9
:10537C00484504D2019B002B33D19946EAE73268A9
:10538C005368E0218B435360726882235B009A421E
:10539C000CD0B26A80239B019A4216D05D23012265
:1053AC00F254013B0022F25403201FE0B368802228
:1053BC001202934203D08022D2009342E9D1326888
:1053CC00136840218B431360E3E7326813680B4981
:1053DC000B4013603268116880239B010B431360F0
:1053EC00DCE7019B013B0193B4E7002002B0E0BC79
:1053FC00BA46B146A846F0BD00000020FFDFFFFF13
:10540C00F0B5DE4657464E464546E0B583B007003C
:10541C000D00160098466B460022DA70FDF7B2FDBF
:10542C000C9B181A40448146FDF7ACFD82463B6844
:10543C009B46344B1B689A00D218D3009B1A1B0D49
:10544C004A465343019302E04346013311D13B6872
:10545C009C682C40B4424DD0C023DB009D42F3D15C
:10546C00002EF1D15B461B7BDBB26A46D370D3783E
:10547C00EAE7FDF787FD5346C01A484504D2019B65
:10548C00002B33D19946E2E73A685368E0218B430D
:10549C0053607A6882235B009A420CD0BA6A8023EC
:1054AC009B019A4216D05D230122FA54013B002243
:1054BC00FA5403201FE0BB6880221202934203D0EF
:1054CC008022D2009342E9D13A68136840218B4381
:1054DC001360E3E73A6813680B490B4013603A68B2
:1054EC00116880239B010B431360DCE7019B013B9C
:1054FC000193ACE7002003B0F0BCBB46B246A94612
:10550C00A046F0BD00000020FFDFFFFF70B582B0A9
:10551C0004000D001600C02100922B00002249014E
:10552C00FFF76EFF002818D100962B000022802177
:10553C002000FFF7F5FE002816D1C02100962B00A5
:10554C000022C9002000FFF75BFF00280AD0236E61
:10555C00202213432366032004E0236E20221343EE
:10556C002366032002B070BD236E202213432366F2
:10557C000320F7E77047000070B5041E00D178E0F7
:10558C00436A002B07D142680533FF339A4205D09A
:10559C000023C36102E00023036143610023A36283
:1055AC005D33E35C002B5AD05D230222E254226867
:1055BC00136840218B431360E368E022D2009342CE
:1055CC0054D90022F02109018B4205D0E021C900F9
:1055DC008B4201D00023A3626368822149000B40F7
:1055EC00A1688420000201400B4320690221014084
:1055FC000B436069012108400343A0698025AD007D
:10560C0028400343E569382028400343256A80205D
:10561C0028400343A06A8025AD0128402568034338
:10562C002B60608B04230340656A102028400343E1
:10563C00656B082028400343E068F0252D012840C5
:10564C0003432068134343602268D3690A4803402C
:10565C00D361002323665D33E154002070BD5C33BD
:10566C000022E2542000FFF785FF9DE780225201C3
:10567C00A8E70120F2E7C046FFF7FFFFF0B5CE46E2
:10568C0000B582B00400894601921F00089DFDF709
:10569C0079FC06005D23E35CD9B26268012B0BD068
:1056AC0082235B009A4200D011E1A368002B00D04A
:1056BC0012E1042900D011E14B46002B00D10FE17F
:1056CC00019B002B00D10DE1002F00D10CE15C23DC
:1056DC00E35C012B00D109E15C230122E25401338C
:1056EC00E35C042B02D05D230432E25400232366D6
:1056FC00019A22644622A752023AA7524A46A26352
:10570C00E787A787E3642365E268E023DB009A421E
:10571C0023D92268536876490B40536023681A6872
:10572C00520603D41A6840210A431A60E268E02347
:10573C00DB009A425BD96368002B01D0012F0AD1A0
:10574C00A26B23681288DA60A36B0233A363E38F26
:10575C00013B9BB2E38701272DE02268516880232F
:10576C005B010B435360D9E7A36B1B88D360A36B1E
:10577C000233A363E38F013B9BB2E38700272268CC
:10578C009368DB0710D54623E35A9BB2002B0BD052
:10579C00D268236C1A80236C023323644622A35AEA
:1057AC00013B9BB2A3520127FDF7ECFB801BA842E7
:1057BC0001D36B1C13D1E38F9BB2002B04D1463366
:1057CC00E35A9BB2002B69D0226893689B07D6D50D
:1057DC00E38F9BB2002BD2D0012FD0D1C4E75D2335
:1057EC000122E254013B0022E254032070E0636882
:1057FC00002B01D0012F0AD1A26B236812781A73E7
:10580C00A36B0133A363E38F013B9BB2E3870127B7
:10581C001DE022689368DB0710D54623E35A9BB240
:10582C00002B0BD0236C127B1A70236C0133236476
:10583C004622A35A013B9BB2A3520127FDF7A2FBC0
:10584C00801BA84201D36B1C20D1002D1ED0E38FEE
:10585C009BB2002B04D14633E35A9BB2002B1DD0D4
:10586C00226893689B07D4D5E38F9BB2002BD0D0D2
:10587C00012FCED1A36B1B781373A36B0133A363DE
:10588C00E38F013B9BB2E3870027C2E75D23012234
:10589C00E254013B0022E254032019E032002900BB
:1058AC002000FFF733FE00280AD15D230122E254C9
:1058BC00013B0022E254236E002B09D0012007E0AB
:1058CC00202323663C330022E254012000E0022016
:1058DC0002B080BCB946F0BD0220F9E70220F7E720
:1058EC000120F5E70120F3E70120F1E70220EFE7C3
:1058FC00FFEFFFFF30B500240139A24201D1002097
:10590C0005E0035D01340D5DAB42F6D0581B30BD94
:10591C0003008218934200D1704719700133F9E7E4
:10592C0070B500260C4C0D4D641BA410A64209D179
:10593C00002600F0EFF80A4C0A4D641BA410A64296
:10594C0005D170BDB300EB5898470136EEE7B300B4
:10595C00EB5898470136F2E77C5E00087C5E000845
:10596C00805E00087C5E0008002310B59A4200D1CE
:10597C0010BDCC5CC4540133F8E70000F0B55746B9
:10598C004E464546DE46E0B504000D00924699466B
:10599C0083B08B4230D82DD049465046FAF71EFDC5
:1059AC00290006002000FAF719FD331A9846203B0F
:1059BC0034D49B4653465A46934042461F005346A6
:1059CC0093401E00AF423BD8AF4200D179E05B461A
:1059DC00A41BBD41002B00DA76E0002200230092CC
:1059EC00019301235A46934001930123424693406D
:1059FC00009329E08242CFD9002200230092019328
:105A0C000C9B002B01D01C605D600098019903B0C9
:105A1C00F0BCBB46B246A946A046F0BD42469B46EA
:105A2C0020239B1A5246DA40414613004A468A40CC
:105A3C00170042461F43534693401E00AF42C3D942
:105A4C0000220023009201934346002BD8D0FB0781
:105A5C0072081A4346467B080EE0AB4201D1A242C3
:105A6C000CD8A41A9D41012024196D410021013E3E
:105A7C0024184D41002E06D0AB42EED9013E24191C
:105A8C006D41002EF8D1009801995B4600196941CF
:105A9C00002B24DB2B005A464446D3402A00E2401C
:105AAC001C005B461500002B2ADB26009E403300B1
:105ABC0026004746BE403200801A99410090019161
:105ACC009EE7A342BCD882E74246202300219B1AC2
