:020000040800F2
:10000000004002201D060008290A00082B0A0008EB
:1000100000000000000000000000000000000000E0
:100020000000000000000000000000002D0A000891
:1000300000000000000000002F0A0008310A00083C
:100040006D0600086D0600086D0600086D060008C4
:100050006D0600086D0600086D0600086D060008B4
:100060006D0600086D0600086D0600086D060008A4
:100070006D0600086D0600086D0600086D06000894
:100080006D0600086D0600086D0600086D06000884
:100090006D0600086D0600086D0600086D06000874
:1000A0006D0600086D0600086D060008390A000894
:0C00B0006D0600086D0600086D060008D3
:1000BC0010B5064C2378002B07D1054B002B02D032
:1000CC00044800E000BF0123237010BD0C00002089
:1000DC000000000020480008044B10B5002B03D092
:1000EC000349044800E000BF10BDC04600000000FA
:1000FC001000002020480008002243088B4274D3D3
:10010C0003098B425FD3030A8B4244D3030B8B420C
:10011C0028D3030C8B420DD3FF22090212BA030C15
:10012C008B4202D31212090265D0030B8B4219D3F6
:10013C0000E0090AC30B8B4201D3CB03C01A524116
:10014C00830B8B4201D38B03C01A5241430B8B425E
:10015C0001D34B03C01A5241030B8B4201D30B0347
:10016C00C01A5241C30A8B4201D3CB02C01A52416E
:10017C00830A8B4201D38B02C01A5241430A8B4231
:10018C0001D34B02C01A5241030A8B4201D30B021A
:10019C00C01A5241CDD2C3098B4201D3CB01C01A34
:1001AC00524183098B4201D38B01C01A524143093E
:1001BC008B4201D34B01C01A524103098B4201D32C
:1001CC000B01C01A5241C3088B4201D3CB00C01A99
:1001DC00524183088B4201D38B00C01A5241430811
:1001EC008B4201D34B00C01A5241411A00D2014636
:1001FC00524110467047FFE701B5002000F0F0F8BF
:10020C0002BDC0460029F7D076E7704703460B4382
:10021C007FD4002243088B4274D303098B425FD3F3
:10022C00030A8B4244D3030B8B4228D3030C8B421F
:10023C000DD3FF22090212BA030C8B4202D3121205
:10024C00090265D0030B8B4219D300E0090AC30BDA
:10025C008B4201D3CB03C01A5241830B8B4201D387
:10026C008B03C01A5241430B8B4201D34B03C01A70
:10027C005241030B8B4201D30B03C01A5241C30AE8
:10028C008B4201D3CB02C01A5241830A8B4201D359
:10029C008B02C01A5241430A8B4201D34B02C01A43
:1002AC005241030A8B4201D30B02C01A5241CDD2E8
:1002BC00C3098B4201D3CB01C01A524183098B4233
:1002CC0001D38B01C01A524143098B4201D34B011C
:1002DC00C01A524103098B4201D30B01C01A52417F
:1002EC00C3088B4201D3CB00C01A524183088B4206
:1002FC0001D38B00C01A524143088B4201D34B00EF
:10030C00C01A5241411A00D2014652411046704760
:10031C005DE0CA0F00D04942031000D34042534065
:10032C0000229C4603098B422DD3030A8B4212D325
:10033C00FC22890112BA030A8B420CD38901921157
:10034C008B4208D3890192118B4204D389013AD094
:10035C00921100E08909C3098B4201D3CB01C01A69
:10036C00524183098B4201D38B01C01A524143097C
:10037C008B4201D34B01C01A524103098B4201D36A
:10038C000B01C01A5241C3088B4201D3CB00C01AD7
:10039C00524183088B4201D38B00C01A5241D9D2EF
:1003AC0043088B4201D34B00C01A5241411A00D270
:1003BC000146634652415B10104601D34042002B6C
:1003CC0000D54942704763465B1000D3404201B5EB
:1003DC00002000F005F802BD0029F8D016E77047A0
:1003EC007047C046002B11D1002A0FD1002900D133
:1003FC00002802D00021C943080007B4024802A11A
:10040C004018029003BDC046D9FFFFFF03B46846F5
:10041C0001B5029800F006F8019B9E4602B00CBC98
:10042C007047C046F0B557464E464546DE46E0B5E9
:10043C0004000D009246994683B08B4230D82DD0E3
:10044C004946504600F0BAF829000600200000F09A
:10045C00B5F8331A9846203B9B4633D45A4653463C
:10046C00934042461F00534693401E00AF423AD879
:10047C00AF4200D178E05B46A41BBD41002B00DAF3
:10048C0075E0002200230092019301235A46934009
:10049C000193012342469340009328E08242CFD936
:1004AC0000220023009201930C9B002B01D01C60B6
:1004BC005D600098019903B0F0BCBB46B246A946FA
:1004CC00A046F0BD424620239B1A5246DA404146D4
:1004DC0013004A468A40170042461F435346934036
:1004EC001E00AF42C4D90022002300920193434660
:1004FC00002BD9D0FB0772081A4346467B080EE046
:10050C00AB4201D1A2420CD8A41A9D41012024195E
:10051C006D410021013E24184D41002E06D0AB4206
:10052C00EED9013E24196D41002EF8D100980199A5
:10053C005B4600196941002B24DB2B005A464446CC
:10054C00D3402A00E2401C005B461500002B2ADB3E
:10055C0026009E40330026004746BE403200801ADB
:10056C009941009001919FE7A342BCD883E7424692
:10057C00202300219B1A0022009101920122DA40D3
:10058C00019286E7424620239B1A2A0046469A404F
:10059C002300F340444613432A00E2401C005B4610
:1005AC001500002BD4DA42462F002023260097405A
:1005BC009B1ADE403B003343CDE7C04610B5002903
:1005CC0003D100F007F8203002E0080000F002F838
:1005DC0010BDC0461C2101231B04984201D3000C02
:1005EC0010391B0A984201D3000A08391B0998429A
:1005FC0001D30009043902A2105C40187047C046B0
:10060C0004030202010101010000000000000000CF
:10061C000D48854600F012FA0C480D490D4A00238E
:10062C0002E0D458C4500433C4188C42F9D30A4A9B
:10063C000A4C002301E013600432A242FBD304F005
:10064C00B3F800F070F8FEE7004002200000002034
:10065C000C0000200C4900080C000020D8070020DA
:10066C00FEE710B501F0DCFC10BD10B501F0E2FCAA
:10067C0010BD000082B0094A516B0223194351632B
:10068C00526B13400193019B054BB02292019A616E
:10069C00802252019A6272B6FEE7C04600100240F8
:1006AC000004005000B595B03C22002105A804F0D0
:1006BC00A8F81022002101A804F0A3F880208000E3
:1006CC0002F0FCF80A230593F633089300230993F0
:1006DC0040220A923F3A0B9201320D920E920F93E6
:1006EC000833109380239B02119380239B04129355
:1006FC0080239B05139305A802F00AF900280ED15C
:10070C0007230193053B02930023039304930221D7
:10071C0001A802F0E5FB002803D115B000BDFFF7DE
:10072C00A9FFFFF7A7FF10B501F0BAFCFFF7BAFF5E
:10073C0000F076F800F00AF800F0D2F800F0B6F805
:10074C0001F0E0FB01F02EFCFCE7000070B5104856
:10075C00104B0360002343608360C360012101746C
:10076C004174837408254561022282610D24C461A1
:10077C00026245628262C462026341638363C36343
:10078C0001F01CFE002800D170BDFFF773FFFBE7E2
:10079C00280000200064004010B59AB00400142218
:1007AC00002115A804F02DF84C22002102A804F019
:1007BC0028F82268174B9A4201D01AB010BD80233A
:1007CC009B04029302A802F06BFC00281FD1124B71
:1007DC00D96B802040010143D963DA6B024000924F
:1007EC00009A596B0222114359635B6B13400193BE
:1007FC00019BC0239B001593169200231793033380
:10080C001893199315A9054801F054FFD5E7FFF784
:10081C0031FFDCE70064004000100240000400508F
:10082C00F0B589B01422002103A803F0EAFF1D4B98
:10083C005A6B012422435A635A6B22400192019A4B
:10084C00596B0222114359635B6B1A400292029B53
:10085C00A027FF0501220121380001F0EDFFB02196
:10086C00114E01228901300001F0E6FF80210022A7
:10087C004901300001F0E0FF039404940025059534
:10088C00069503A9380001F015FFF0239B01039393
:10089C0004940595069503A9300001F00BFF09B0EF
:1008AC00F0BDC046001002400004005010B50848CE
:1008BC00084B036003234360074BC360074B836003
:1008CC0001F0C0FF002800D110BDFFF7D3FEFBE7FD
:1008DC008C00002000300040FF0F0000E7030000F8
:1008EC0010B51948194B036096239B0143600023F4
:1008FC008360C36003610C2242618361C361036244
:10090C004362836203F090FD002811D100210E4850
:10091C0003F0FCFE00280ED100210B4803F01CFF55
:10092C0000280BD1084803F0D1FE002809D110BDD6
:10093C00FFF7A0FEEAE7FFF79DFEEDE7FFF79AFE53
:10094C00F0E7FFF797FEF2E79C000020003801402B
:10095C0010B59AB004001422002115A803F051FF21
:10096C004C22002102A803F04CFF22681B4B9A4238
:10097C0001D01AB010BD0123029302A802F090FB23
:10098C00002828D1164B196C8020C0010143196432
:10099C001A6C02400092009A596B01221143596360
:1009AC005B6B13400193019BC023DB001593022367
:1009BC0016931792002318931992A02015A9C0051D
:1009CC0001F078FE002201211B2001F0ADFB1B2061
:1009DC0001F0DAFBCDE7FFF74DFED3E7003801401D
:1009EC000010024000B583B00B4B196C012211436F
:1009FC001964196C0A400092009ADA6B802149053F
:100A0C000A43DA63DB6B0B400193019BC020C000EF
:100A1C0001F07EFB03B000BD00100240FEE7FEE7D4
:100A2C007047704710B501F04FFB10BD10B5024870
:100A3C0002F002FD10BDC0469C0000207047F0B5CE
:100A4C0020235B42D31811D404009C400500954030
:100A5C0056423F233340203B11D40800D840524229
:100A6C003F231A40D14028432143F0BD20239B1A39
:100A7C000400DC4023000C0094401C43E6E7564283
:100A8C003F2333402026F61A0F00B740D840384396
:100A9C00E5E7F0B5060000230020002108E0202542
:100AAC002D1B1700EF403D00A2401043294301339A
:100ABC00072B09D8F25CDC0020256D426519EED4B9
:100ACC001700AF403D00EFE7F0BD70B500210AE024
:100ADC0020252D1B1E00AE4035001600E6403400CC
:100AEC002C4344540131072907D8CC0020256D42F2
:100AFC006519EDD41C00EC40F3E770BD30B5002354
:100B0C00002404E0C25CCD5C6A4014430133072B23
:100B1C00F8D963425C41E0B230BD0170090A417002
:100B2C00704701700B0A43700B0C8370090EC17077
:100B3C007047037840780002184370470300007830
:100B4C005A78120210439A7812041043DB781B0671
:100B5C001843704710B50C00022800D900209300F0
:100B6C009B185B019B1A59015B189B009B1A59013E
:100B7C00CB1A1902C91A49008918C9008918614091
:100B8C000A0C4A4006495143CA0B4A400121114004
:100B9C00013140180321FFF735FBC8B210BDC04628
:100BAC002D35EB7F30B505000C0000210B480DE016
:100BBC00400080B20133072B07D802B2002AF7DAC3
:100BCC00400082B206485040F4E70131A14204D201
:100BDC006B5C1B0258400023EDE730BDFFFF0000AB
:100BEC0021100000F0B5DE4657464E464546E0B5AE
:100BFC009BB0060017919346FFF74BFF05000C00C6
:100C0C0030000830FFF745FF0022002302920393C7
:100C1C00714B6B400293714B634003930022002392
:100C2C00049205936E4B434004936E4B4B400593DB
:100C3C0000220023009201936B4B6B4000936B4B93
:100C4C00634001936A4B434015936A4B4B40169398
:100C5C005B461B069946002398461893DA464B468A
:100C6C0019938CE017984044FFF713FF834689468D
:100C7C00159B43400693169B4B400793029C039D88
:100C8C000498059924184D410D22FFF7D8FE6040B9
:100C9C00089069400991202220002900FFF7CFFE1F
:100CAC0006000F00009C019D0698079924184D41E1
:100CBC001022FFF7C4FE60400A9069400B910A981D
:100CCC000B9936184F411522FFF7B9FE70400C9066
:100CDC0079400D910898099924184D411122FFF77C
:100CEC00AEFE60400E9069400F912022200029003A
:100CFC00FFF7A5FE04000D000E980F9936184F4112
:100D0C000D22FFF79CFE704010907940119120222B
:100D1C0030003900FFF793FE06000F000C980D9978
:100D2C0024184D411022FFF78AFE60401290694052
:100D3C0013911298139936184F411522FFF77FFE25
:100D4C0070401590794016911098119924184D41C6
:100D5C001122FFF774FE6040049069400591202237
:100D6C0020002900FFF76BFE009001915B46734059
:100D7C0002934B467B40039308239C46E044534626
:100D8C0042469B1A072B00D96CE7D346189B9A4610
:100D9C00199B994600214646179B9C465F46D046B8
:100DAC004C460AE02025AD1A1800E8400500934097
:100DBC0042461A4390462C4301317318BB421BD256
:100DCC006246D35CCA0020256D425519EAD418003E
:100DDC00A8400500EBE7C04675657370656D6F73D1
:100DEC006D6F646E61726F646172656E6567796C4C
:100DFC007365747962646574A146159B42465340D1
:100E0C001C00169B4A4653401D00029A039B0498F3
:100E1C00059912184B41049205930D22FFF70FFE12
:100E2C000E000022002302920393049A059B1100EA
:100E3C004140029110001900734003932022FFF7E8
:100E4C00FEFD04900591009A019B12196B4116004E
:100E5C001F00102220002900FFF7F1FD32003B009B
:100E6C004640340016004B401D000499059A0919A0
:100E7C006A4100910192152220001900FFF7DFFD55
:100E8C000024002504940595009B019C1D00454001
:100E9C00049520004840059032003B0002980399CD
:100EAC0012184B4116001F001122FFF7C8FD32002B
:100EBC00424014003A004A4015002022300039000C
:100ECC00FFF7BDFD02900391009E019F36196F4103
:100EDC000D2220002900FFF7B2FD0023002400930F
:100EEC00019470400090794001912022300039002B
:100EFC00FFF7A5FD06000F00029A039B04980599C5
:100F0C0012184B4114001D001022FFF798FD049499
:100F1C00059544402000059C4C40210036184F415B
:100F2C001522FFF78CFD0023002402930394340058
:100F3C0044400294069607973B004B400393049A57
:100F4C00059B0098019912184B4114001D001122A9
:100F5C00FFF775FD22002B004440260014004B4087
:100F6C001F00202220002900FFF769FD4446069D42
:100F7C006C4022004C46079D6C4023000024002549
:100F8C0000940195FF3444400094019192197B41E7
:100F9C0014001D000D2230003900FFF750FD002217
:100FAC000023049205932600464004962B004B40E8
:100FBC000593203220002900FFF741FD0690079190
:100FCC00009A019B0298039912184B4114001D00C2
:100FDC001022FFF734FD22002B0044402600029221
:100FEC0003934B401F000699079A89197A410C000C
:100FFC001500152230001900FFF721FD00220023F7
:10100C000092019322002B00444000940692079317
:10101C004B400193029A039B0498059912184B417B
:10102C0016001F001122FFF70AFD32003B0046405C
:10103C00340016004B401D00202230003900FFF711
:10104C00FEFC029003910699079A09196A410E0059
:10105C0017000D2220002900FFF7F1FC00230024CB
:10106C00049305943400464004963B004B40059392
:10107C00202220003900FFF7E2FC06900791029A2B
:10108C00039B0098019912184B4114001D0010226B
:10109C00FFF7D5FC22002B0044402600029203935C
:1010AC004B401F000699079A89197A410C001500CC
:1010BC00152230001900FFF7C2FC00220023009219
:1010CC00019322002B0044400094069207934B405E
:1010DC000193029A039B0498059912184B41160030
:1010EC001F001122FFF7ABFC32003B0046403400DE
:1010FC0016004B401D00202230003900FFF79FFCEA
:10110C00029003910699079A09196A410E0017007B
:10111C000D2220002900FFF792FC002300240493E9
:10112C0005943400464004963B004B400593202226
:10113C0020003900FFF783FC06900791029A039B6D
:10114C000098019912184B4114001D001022FFF752
:10115C0076FC22002B0044402600029203934B4065
:10116C001F000699079A89197A410C00150015225F
:10117C0030001900FFF763FC00220023009201935A
:10118C0022002B0044400094069207934B4001939D
:10119C00029A039B0498059912184B4116001F00E4
:1011AC001122FFF74CFC32003B0046403400160085
:1011BC004B401D00202230003900FFF740FC060098
:1011CC000F000699079A09196A41049105920D229C
:1011DC0020002900FFF733FC002200230292039326
:1011EC00049B059C1A004240029222004A40039242
:1011FC00202218002100FFF722FC049005913400F6
:10120C003D000098019924184D411022FFF717FC5E
:10121C0002000B00624010006B401900049E059FF9
:10122C0036184F411522FFF70AFC7040834679406F
:10123C008A460298039924184D411122FFF7FFFBAF
:10124C006040814669408846202220002900FFF733
:10125C00F6FB4A46724043467B40504059405B4641
:10126C005840534659401BB0F0BCBB46B246A94649
:10127C00A046F0BDF8B5CE46474680B50400150033
:10128C00984600284ED0002A4ED0002B4ED0167C0B
:10129C00202E4DD813239946B14437001D378F4269
:1012AC0001D9002745E03F33037001334370513BB4
:1012BC0083701378C37051880430FFF72EFCA98813
:1012CC00A01DFFF72AFCAB792372EB796372A96836
:1012DC0020000A30FFF725FCE96820000E30FFF7EC
:1012EC0020FC2A7CA274002A15D149462000FFF765
:1012FC0059FC01004B46E018FFF70FFC3500153583
:10130C002A0021004046FFF76DFC02000B0060191B
:10131C00FFF7DBFB0DE0290011312000133003F047
:10132C0067FAE2E7002704E0002702E0002700E06C
:10133C0000273800C0BCB946B046F8BDF0B5CE4663
:10134C00474680B583B006000C001D00002862D013
:10135C00002962D0002B62D01C2A62D90B78522B48
:10136C0065D14B78532B64D18878022863D18F7C5C
:10137C00202F57D8403B9846B8443B001D339A4227
:10138C0002D04FD201384DE041462000FFF70AFC55
:10139C0081464346E018FFF7CCFB484501D00520B9
:1013AC0040E015239846B844424621002800FFF738
:1013BC0019FC02000B006846FFF787FB4346E11857
:1013CC006846FFF79BFB002837D0E3783370201D6D
:1013DC00FFF7AFFB7080A01DFFF7ABFBB080237A4B
:1013EC00B371637AF37120000A30FFF7A7FBB0608A
:1013FC0020000E30FFF7A2FBF0603774002F01D1F4
:10140C0038000FE030001130210013313A0003F0A6
:10141C00EFF9002006E0022004E0022002E00220A6
:10142C0000E0012003B0C0BCB946B046F0BD0320BB
:10143C00F8E70320F6E70420F4E70620F2E700289B
:10144C0004D000233D22835401328354704770B57D
:10145C0004001000002C4AD0002A4AD0002B4AD09D
:10146C003D22A55C002D09D1522902D0002528006F
:10147C0070BD6A1C3D23E2546155F8E7012D10D074
:10148C003C2D19D86A1CD2B23D26A2556155132A9F
:10149C0017D03E21615C00292FD08A421DD0002537
:1014AC00E5E75329ECD0522900D000253D23E55423
:1014BC00153323700025DAE72000FFF7C0FF002565
:1014CC00D5E7A17C202903D81D313E256155E0E7E5
:1014DC002000FFF7B4FF0025C9E72100FFF72EFF1E
:1014EC0043425841C5B22000FFF7A9FFBFE70025D2
:1014FC00BDE70025BBE70025B9E70025B7E710B528
:10150C00031E27D00078002811D05C688C4223D1B0
:10151C009968914211D38A1A1F2A1FD80121914030
:10152C000A00D9680A421BD10A43DA6004E0013090
:10153C00187059609A60D86010BD511A1F2905D8CF
:10154C00DC688C4021000124214300E00121D9609A
:10155C009A60F1E70020EFE70020EDE70020EBE7D1
:10156C000020E9E7002804D0002303704360836067
:10157C00C360704770B504000D00012303700B7835
:10158C00437049880230FFF7C8FA2B7923716B79C5
:10159C00002B0BD00123AA79002A09D00222134375
:1015AC0063712989A01DFFF7B8FA70BD0023F2E71B
:1015BC000022F4E770B504001500FFF7B2FA201D05
:1015CC002900FFF7AEFA70BD411A0020914240414C
:1015DC00C0B27047401AC043C00F704770B50400CA
:1015EC0015001E005523C1540133C2540A000021BA
:1015FC000068236998472A000121206823699847CD
:10160C006369206832000121984770BD10B5040051
:10161C004E23C25A114380221143C1520A33012274
:10162C00C254436B8363002351328354023204212E
:10163C008154033283540022002100686369984767
:10164C000123002200212000FFF7C8FF10BD037802
:10165C00013BDBB2012B01D900207047037C002B2E
:10166C0004D0437C012B03D00020F6E70020F4E7E4
:10167C000120F2E70378022B03D0032B09D00020C2
:10168C007047027C002AF8D0407C43425841C0B2DB
:10169C00F6E7037C002B04D0437C002B03D0002006
:1016AC00EEE70020ECE70120EAE710B55823C35C15
:1016BC00002B0AD15233C35C022B02D801335222C5
:1016CC0083545223C35C022B00D810BD4E22835A84
:1016DC0020218B43835254234C3AC2540023013AA9
:1016EC001F39FFF77BFFF0E770B504000D00416375
:1016FC0000235222835483649C30FFF733FF58231A
:10170C00E35C002B06D0A36BAB4203D05023E35A0F
:10171C00002B00D070BD58330022E2540A3B20321B
:10172C00E25206331F3AE254533B002200212000C0
:10173C00FFF754FFEEE7000030B583B004000A0059
:10174C00416B6846FFF736FF08236A460649206856
:10175C00E568A847002804D14E22A35A40210B4328
:10176C00A35203B030BDC04611050000F0B5C6460B
:10177C0000B582B0040015000B7C072B07D9582349
:10178C00C35C002B03D15433C35C022B03D002B0D7
:10179C0080BCB846F0BD15310800FFF7CFF9060044
:1017AC00A36C8342F3D0A0644C27E35B0133E35377
:1017BC0054230322E254533B984656334246E25498
:1017CC006435656400212068636998473100200006
:1017DC00FFF7B2FF31006846FFF7A3F9E15B01A800
:1017EC00FFF79BF95323E35C6A4693716B464246C1
:1017FC00DA71E568206808236A460149A847C6E7FC
:10180C0012050000F0B5C64600B59EB004000F00EE
:10181C0090461E0011AD34220021280002F0F1FF89
:10182C002F7002236B80013BAB805233E35CEB7176
:10183C00236B5A1C22631393E36A14932E74002EA9
:10184C0008D04346002B05D0320041465520684451
:10185C0002F0CEFF23001C3311AA3D2101A8FFF793
:10186C0009FD021E05D001A92068A3689847051E32
:10187C0005D1002528001EB080BCB846F0BD11ABC8
:10188C00139A1499D879FFF765F95323E054F1E7CB
:10189C0010B582B004006B4619705423C35C6946C2
:1018AC004B705523C35C002B17D001235621615C70
:1018BC00002914D002210B4369468B704E23E35C44
:1018CC00CB70110001A8FFF72CF908236A460421FC
:1018DC002000FFF797FF02B010BD0023E6E70021C0
:1018EC00E9E730B587B004005423C25C03AB1A702F
:1018FC004E22825A5A80C36B002B07D05823C35CEC
:10190C00002B03D101231A4303AB5A805323E35C0E
:10191C0003A90B715523E35C4B715623E35C8B716C
:10192C004C23E35A0B8101A8FFF724FEA2210823C4
:10193C0001AAC9002068E568A847002806D14E22F4
:10194C00A35A40210B43A35207B030BD4E22A35AD9
:10195C0040218B43A352F7E7F8B504000D001700A4
:10196C001E00AC22002102F04CFF20000ECD0EC058
:10197C000ECD0EC02B68036004301022390002F02B
:10198C0037FFE6620123236320005A30FFF757FD2F
:10199C00F8BD000070B58EB0040003001C335A3043
:1019AC0001AAFFF754FD00282FD001AB5B88012B57
:1019BC002BD101AB9B88022B02D0594A934224D1E4
:1019CC00206863689847050001AB1E78731EDBB274
:1019DC00012B1CD9032E18D101AB1B7C082B14D165
:1019EC0001AB5B7C022B01D0002B0ED19C23E35C62
:1019FC00002B03D0049B626B93422AD001A8FFF703
:101A0C0039FE00280CD1012E1FD00EB070BD01ABD9
:101A1C001B7C0C2BDED101AB5B7C012BDAD8E5E710
:101A2C0002212000FFF7F2FD01ADE879039A049939
:101A3C00FFF790F85323E054AB79DB07E5D5AA68A0
:101A4C0029782000FFF724FFDFE704992000FFF737
:101A5C004BFE039A049920009C30FFF750FD0028A0
:101A6C00D3D001A8FFF7F3FD002807D101AB1B78F9
:101A7C00032B04D101AB5B7C022B00D1E56301AEDF
:101A8C00F079039A0499FFF765F85323E05430007A
:101A9C00FFF7F0FD002818D101AB1E78012E23D0E2
:101AAC0001A8FFF7D4FD002835D1032E11D101ABCD
:101ABC001B7C002B0DD001AB5B7C022B09D12A00C7
:101ACC0001A92000FFF752FE03E002212000FFF7DE
:101ADC009DFD01AB9B79DB0797D501AB039A197878
:101AEC002000FFF7D5FE90E71B7C002BD8D001AB74
:101AFC005B7C002BD4D152330022E2540633E35CDE
:101B0C009342E6D101235432A35400221100200049
:101B1C00FFF764FDDDE72000FFF7C7FDD9E7C046FE
:101B2C00FFFF000010B5002A08D15022835A8B43C6
:101B3C008352023A835A8B43835210BD5022835AEC
:101B4C000B438352FFF762FDF7E770B504000068A2
:101B5C006368984705005923E35C002B0FD1593378
:101B6C000122E254013BE35C002B39D054230332B5
:101B7C00E254533B002200212000FFF72FFD582395
:101B8C00E35C002B09D1E16B002906D0FA2252004C
:101B9C002800FFF719FD00282CD15723E35C002BFC
:101BAC0013D0616C2800FFF715FD00280DD05723CA
:101BBC000022E25400212068636998475823E35CB3
:101BCC00002B02D154330222E2543222216C280021
:101BDC00FFF7FAFC002812D1A3692068984770BD62
:101BEC0054230122E254533B002200212000FFF732
:101BFC00F5FCC4E704212000FFF708FDCDE72564C0
:101C0C002000FFF76EFEE7E710B5024800F04EFE2D
:101C1C0010BDC0468C00002070B58AB00D001600B7
:101C2C001C002422002101A802F0EBFD082C02D09C
:101C3C0000200AB070BD019508230493320001A95D
:101C4C00034800F00DFD43425841C0B2F1E7C046D5
:101C5C002800002010B5EFF30583002B03D10029D9
:101C6C0001D03D2905D90E4A9369013393610020B7
:101C7C0010BD8AB2782301000A4802F0E2FA00286B
:101C8C0005D0074A9369013393610020F0E7044CB7
:101C9C0063690133636100F023FA20630120E7E7F5
:101CAC003C0600209C00002010B508001100FFF736
:101CBC00D1FF10BD10B500F013FA10BD10B5D21A3B
:101CCC00531E9A41D2B200F0B7FD10BD10B50029D9
:101CDC0006D18031002349010548FFF7EFFF10BD05
:101CEC008021002389010248FFF7E8FFF7E7C0468F
:101CFC000004005010B5002906D180310123C90021
:101D0C000548FFF7DBFF10BD8021012309010248C4
:101D1C00FFF7D4FFF7E7C0460004005010B500F001
:101D2C00E5F9040000F0E8F9C001444000F0EAF9DC
:101D3C00C008444000F0D4F96040074B9B68584001
:101D4C0043035840430C43405A01100058409A42F8
:101D5C0000D010BD0120FCE710E000E010B5094AEE
:101D6C008C23D358202B00D010BD012206490548E6
:101D7C0002F044FC0028F7D0044A936A01339362C2
:101D8C00F2E7C0469C000020300100203C060020F9
:101D9C0010B5044B044A1A605860044A9A60FFF765
:101DAC00DDFF10BD3C06002044534552120926208D
:101DBC00F8B5174B1B889EB20133FF251D40154B00
:101DCC001F78154C22697F231340E3186C331F7066
:101DDC0023690133236100F083F9E0620F4B1B8808
:101DEC009BB2AB420BD00E4B9F550B4BDA6AB60035
:101DFC000C4BF250064B1D80FFF7B0FFF8BD064AA6
:101E0C00536A01335362084B01221A70F4E7C0463F
:101E1C0034020020300100203C0600203802002053
:101E2C00340100203C0200203602002070B5040072
:101E3C000D00EFF3108672B6FFF790FF204B1B7866
:101E4C00002B1FD11F4B1B889BB21F4A128892B2CA
:101E5C009A4227D01D4AD25C2A7099001C4A8D5890
:101E6C000133FF221340174A138086F3108800F0C9
:101E7C0037F9401B642819D8164A536B0133536346
:101E8C00012070BD104B1B889BB20E4A13800C4B6B
:101E9C0000221A702000FFF7D2FA0E4A936B01331E
:101EAC009363CFE786F310880020EAE72000FFF762
:101EBC00C6FA084AD36B0133D3630020E1E7C0466E
:101ECC0036020020380200203402002034010020A9
:101EDC003C0200203C06002010B5074CE36901339E
:101EEC00E361064801F010FF2062054B01221A70D5
:101EFC00FFF734FF10BDC0463C0600209C000020BC
:101F0C003602002030B591B009AC214B220023CB16
:101F1C0023C223CB23C21B6813601822002103A801
:101F2C0002F06FFCA020002300220121C005FFF766
:101F3C00C5FE0023039304930222059201320692FC
:101F4C000793144B0893144D03A9280000F028FBA9
:101F5C000123009302220221280000F050FBFFF71E
:101F6C00DDFE03000D4A21000D48FFF7F5FC2800AB
:101F7C0000F060FB002804D10220FFF709FF11B02C
:101F8C0030BD012240210648FFF7CCFDF4E7C046E6
:101F9C0038480008FF07000028000020B44800085B
:101FAC002807002010B582B0802305E06B46D97954
:101FBC001848FFF7EFFC23005C1E002B06D06B4685
:101FCC00D91D1548FFF732FF0028EFD1114C200026
:101FDC00FFF7BBFD00F084F8104BD860E26B1A647D
:101FEC005422A25C5A644E22A25A9A645523E35C92
:101FFC00002B0BD00123074956228A5C002A07D0FC
:10200C0002221343054AD36502B010BD0023F2E748
:10201C000022F6E728070020820700203C0600205B
:10202C0010B5034B834200D010BDFFF7C1FEFBE798
:10203C009C00002010B5034B834200D010BDFFF76D
:10204C004BFFFBE79C00002010B50400114B1978E6
:10205C00002901D1012010BDFA208000FEF74CF8B8
:10206C0001000D4B1868FEF747F800F099F80028AE
:10207C000DD1032C01D90120EDE701300022210004
:10208C00404200F051F8054B1C600020E3E70120B2
:10209C00E1E7C046040000200000002008000020FA
:1020AC0010B5084A116880235B000B4313600320B2
:1020BC00FFF7CAFF041E02D00124200010BDFEF75A
:1020CC0091FCFAE700200240034B1B78034A11688D
:1020DC005B1813607047C04604000020D407002032
:1020EC00014B18687047C046D4070020014B186894
:1020FC007047C0469075FF1F014B18687047C0466B
:10210C009475FF1F014B18687047C0469875FF1FE8
:10211C00034A136803490B40034313607047C046DE
:10212C0000000140FFF9FFFF70B5002811DB8308A8
:10213C00134EC0339B009D5903242040C000FF2246
:10214C0014008440A54389010A4082402A439A51D5
:10215C0070BD0F230340083B9B0806339B00094AC4
:10216C00944663445C6803221040C000FC321500A6
:10217C008540AC4389010A40824022435A60E7E71C
:10218C0000E100E000ED00E0002805DB1F23184013
:10219C001E3B8340014A13607047C04600E100E0DB
:1021AC00013880235B0498420FD2094A50600948D9
:1021BC00036A1B021B0AC02109060B43036200239E
:1021CC00936007331360002070470120FCE7C04682
:1021DC0010E000E000ED00E010B5002833D025231E
:1021EC00C35C022B06D00423C36320330022C254E9
:1021FC00012010BD01680A6801239A430A60016836
:10220C000A680E24A2430A60816C0A680F4C2240B3
:10221C000A601C22416C0A40016C93404B60C36CF9
:10222C00026D5A60436D002B05D01A6822401A606B
:10223C00836DC26D5A6025230122C254013B0022DA
:10224C00C2540020D5E70120D3E7C046FFFEFFFFB4
:10225C0010B52523C35C022B03D00423C3630120D8
:10226C0010BD01680A6801239A430A6001680A6874
:10227C000E24A2430A60816C0A68114C22400A6049
:10228C001C22416C0A40016C93404B60C36C026D84
:10229C005A60436D002B05D01A6822401A60836D7A
:1022AC00C26D5A6025230122C254013B0022C25444
:1022BC00836B002B02D098470020D1E70020CFE79A
:1022CC00FFFEFFFF30B50468184B9C4223D0184921
:1022DC0001648022A358174D2B40456B2D042B43D2
:1022EC00A3500B00703343640568AB58124C234069
:1022FC00846B24062343AB500B00B0338364D83378
:10230C00C36498239B00CB1803659E239B00CB18BA
:10231C0043650B0003E00949DAE7002204C3D42229
:10232C0092008A189A42F8D830BDC0460068004026
:10233C0000B40040FFFFE0FFFFFFFFF050B700408C
:10234C00F0B51F004B68002B1AD10D698B681D432B
:10235C000B689B041D430B6A1C06CB691C438B69E1
:10236C001C434B691C43CB681B041C43466DFB0090
:10237C00DB19DB00F618356074600836002015E0B8
:10238C000D698B681D430B681D438023DB051D43C2
:10239C00E1E71418E3781B06A5782D042B43647829
:1023AC0024022343145C234308C60430024BCC683C
:1023BC001B5D8342EDD8F0BDC448000870B5041E07
:1023CC0000D1E1E05C23C35C002B19D02268936937
:1023DC0010218B439361FFF783FE050023689A69F4
:1023EC00120713D5FFF77CFE401B0A28F6D9236E83
:1023FC000122134323665C230232E254012070BD98
:10240C005D330022C254FEF7C7F9DFE79A69012158
:10241C000A439A61FFF764FE050023689A69D207A4
:10242C000DD4FFF75DFE401B0A28F6D9236E01225E
:10243C00134323665C230232E2540120DFE79A69DE
:10244C0002210A439A61514B22689A4243D0237C61
:10245C00012B44D02268936940210B439361637C28
:10246C00012B42D02268936949490B409361A37CAC
:10247C00012B41D02268916980235B010B4393614E
:10248C002268936943490B40A1680B43936122680E
:10249C009369A4218B4393612268136994398B430C
:1024AC001361E368012B2DD0002B30D0022B54D0BC
:1024BC002268936980210B439361226813697039F8
:1024CC000B431361E368032B21D12268936910310C
:1024DC000B4393611BE0304B62681A60B7E72268CC
:1024EC00936940218B439361B9E7226891698023FA
:1024FC00DB010B439361BAE72268936927490B40D0
:10250C009361BDE7226893690C390B439361A3690E
:10251C00013B5B06E269013A12021343226A013A5B
:10252C0013436269013A120421681343CB61C0233F
:10253C009B00A2689A4216D02168C0228B58E06B8F
:10254C0003438B502000FFF7BDFE0023A3652366D9
:10255C005C330122E254002051E722689369202168
:10256C000B439361D3E7A36A013BE26A013A12027F
:10257C001343226B013A12011343626A013A1204AB
:10258C0021681343CB60D7E7012038E70064004093
:10259C00FFBFFFFFFFFCFFFF00650040FFEFFFFFE9
:1025AC0010B55C23C35C013BDBB2012B05D9036E78
:1025BC00022213430366012010BD0B68002B0FD1C0
:1025CC008B689B07CA68D20613430A69120413432B
:1025DC004A691343006C4A68920083500020EBE771
:1025EC00CB685A070B691A438B689B074C692343CA
:1025FC00406C4968C90041180A604B60EEE770B541
:10260C005C24045D012C05D0036E04221343036685
:10261C00012070BD05687F3428593F26B04309015D
:10262C00920011435B001943049B19430143295148
:10263C000020EEE75C23C35C012B05D0036E042263
:10264C0013430366012070475B330222C2540268B5
:10265C00936901218B439361002303660020F2E709
:10266C0070B504005C23C35C022B1CD10368C4202E
:10267C001858800206D5226E80239B0013432366D4
:10268C00012015E0C4201B581B0C03251D402B00FA
:10269C002000FFF755FE0123AB40CC2221688B5064
:1026AC00A365002004E0036E082213430366012097
:1026BC0070BD0000F0B500235AE084685F0003266B
:1026CC00BE40B4432600CC68BC40344384604468AC
:1026DC0094434A681609012232409A4022434260D0
:1026EC0056E0DC080834A400265805321A40920043
:1026FC000F279740BE430F6997403A003243225050
:10270C005AE0042600E00026A64034003C43454E27
:10271C001832920094513468EA432600AE434F6855
:10272C00FF0201D52C4326003E4C2660646826002F
:10273C0016404F68BF0201D52C432600394C666009
:10274C008426A459260016404F68BF0301D52C439C
:10275C002600344C8427E6518026A45922404E682A
:10276C00F60301D52A0022432E4D80242A51013331
:10277C000C682200DA4054D001229A402500154002
:10278C001442F4D003244E683440013C012C94D9FB
:10279C0003224C682240032A09D0C2685E0003243D
:1027AC00B440A24314008A68B2402243C2600322A0
:1027BC004C682240022A94D004685E000322170061
:1027CC00B740BC434F683A40B24022430260C0223B
:1027DC0092024C681442CAD09A0814001834A4000F
:1027EC00104EA75903261E40F4000F26A640B743EF
:1027FC00A026F605B04286D00B4EB0420BD00B4E45
:10280C00B0420AD00A4EB04209D00A4EB04200D1B2
:10281C0077E7052678E7012676E7022674E7032694
:10282C0072E7F0BD00180240000400500008005090
:10283C00000C005000100050002A01D0816170473C
:10284C008162FCE770B5041E28D00368144A1A6034
:10285C000368144A1A60036842685A600368826805
:10286C009A60FFF73DFC05002368DA6852070AD02E
:10287C00FFF736FC401B3128F6D92368DB685B0771
:10288C00F2D003200BE01969E268914202D01A6180
:10289C00002004E0044A1A60002000E0012070BD12
:1028AC00CCCC000055550000AAAA00000368024ACF
:1028BC001A6000207047C046AAAA000010B5104A42
:1028CC00136810490B400343136080239B0098420C
:1028DC0001D0002010BD0C4B1B685800C0184000E4
:1028EC000A49FDF709FC0130054B5B695B0503D513
:1028FC00002803D00138F7E70020EBE70320E9E7D5
:10290C0000700040FFF9FFFF0000002040420F0064
:10291C0070B582B0041E00D15EE20368DB0739D5C6
:10292C00C14A916838230B40D16803220A40102B0E
:10293C0026D0082B26D063688022520293427FD087
:10294C00A022D202934200D181E0B74B1A68B7495A
:10295C000A401A601A68B6490A401A606368002B6C
:10296C0000D180E0FFF7BCFB0500AF4B1B689B035D
:10297C0010D4FFF7B5FB401B6428F6D903202CE2DA
:10298C00032AD6D1A84B1B689B0303D56368002B85
:10299C0000D124E223689B0731D5A34A93683821E0
:1029AC000B40D16803220A40102B6AD0002B6BD14C
:1029BC009D4A1268520503D5E268002A00D110E244
:1029CC00994842689B490A40616909020A4342607E
:1029DC00002B0DD1036898490B4021690B43036010
:1029EC000368DB0A07221A40944BD340944A1360C5
:1029FC00944B1868FFF728FB002800D0F3E12368FC
:102A0C001B0700D481E0884B9A6838231340182B9D
:102A1C0073D0A369002B00D1B4E0834A136E01215B
:102A2C000B431366FFF75CFB05007F4B1B6E9B078C
:102A3C006BD4FFF755FB401B0228F6D90320CCE1E1
:102A4C00794A116880235B020B43136086E7764B4F
:102A5C0019688022D2020A431A6019688022520235
:102A6C000A431A607AE7FFF73BFB05006E4B1B68C5
:102A7C009B038FD5FFF734FB401B6428F6D903204A
:102A8C00ABE1022A92D193E7E368002B22D0664A8D
:102A9C00136869490B4021690B431360116880234B
:102AAC005B000B431360FFF71BFB05005E4B1B68C1
:102ABC005B0506D4FFF714FB401B0228F6D9032054
:102ACC008BE159494B685B4A13406269120213430C
:102ADC004B6094E7544A13685B490B401360FFF753
:102AEC00FFFA0500504B1B685B0588D5FFF7F8FA19
:102AFC00401B0228F6D903206FE14B4B1B6E9B0742
:102B0C0003D5A369002B00D16FE123685B0700D4C8
:102B1C00A2E0454B9A6838231340202B45D0424BFA
:102B2C00DB6BDB004AD4404AD16B8020400501436B
:102B3C00D163D36B03400193019B0125434B1B686D
:102B4C00DB053DD5A368012B4ED0052B52D0364B5F
:102B5C00DA6D01218A43DA65DA6D03318A43DA656D
:102B6C00A368002B50D0FFF7BBFA06002E4BDB6D91
:102B7C009B076FD4FFF7B4FA801B354B9842F5D9FD
:102B8C0003202AE1284A136E01218B431366FFF7B9
:102B9C00A7FA0500244B1B6E9B07B6D5FFF7A0FACE
:102BAC00401B0228F6D9032017E11F4BDB6D9B0756
:102BBC0052D5A368002B4FD101200EE10025BDE7B3
:102BCC00224A116880235B000B431360FFF788FADD
:102BDC0006001E4B1B68DB05B4D4FFF781FA801B83
:102BEC000228F6D90320F8E00F4AD36D01210B43DC
:102BFC00D365B5E70C4BDA6D04210A43DA65DA6D5F
:102C0C0003390A43DA65ABE7FFF76AFA0600064BAD
:102C1C00DB6D9B071ED5FFF763FA801B0C4B9842AC
:102C2C00F5D90320D9E0C04600100240FFFFFEFF9B
:102C3C00FFFFFBFFFF80FFFFFFC7FFFF0024F40037
:102C4C000000002008000020FFFEFFFF0070004085
:102C5C0088130000012D19D023689B062FD5E3693A
:102C6C00002B19D06A4A11688023DB030B431360D5
:102C7C00FFF736FA0500664B1B681B021FD4FFF7E3
:102C8C002FFA401B0228F6D90320A6E0604AD36B2A
:102C9C0060490B40D363DFE75D4A13685E490B4024
:102CAC001360FFF71DFA0500594B1B681B0206D574
:102CBC00FFF716FA401B0228F6D903208DE0236A91
:102CCC00002B00D193E0524A916838220A40102A16
:102CDC005AD0022B12D04E4A136850490B40136045
:102CEC00FFF7FEF904004A4B1B689B0145D5FFF723
:102CFC00F7F9001B0228F6D903206EE0444A13684A
:102D0C0046490B401360FFF7EBF90500404B1B687D
:102D1C009B0106D5FFF7E4F9401B0228F6D90320E6
:102D2C005BE03B4AD3683E491940636AA06A03439F
:102D3C00E06A00020343206B0343606B0343A06B08
:102D4C0003430B43D360116880235B040B43136074
:102D5C00D16880235B050B43D360FFF7C1F90400F6
:102D6C002B4B1B689B0106D4FFF7BAF9001B0228FA
:102D7C00F6D9032031E000202FE0254AD3682949F9
:102D8C000B40D360002028E0012B32D0204BDA68B6
:102D9C0003231340616A8B422DD170231340A16A27
:102DAC008B422AD1FE21C9011140E36A1B029942D0
:102DBC0025D1F8239B031340216B8B4221D1E023B7
:102DCC001B051340616B8B421DD1520F5207A36B35
:102DDC009A421AD1002000E0012002B070BD0120FF
:102DEC00FBE70120F9E70120F7E70120F5E70020D8
:102DFC00F3E70120F1E70120EFE70120EDE70120E7
:102E0C00EBE70120E9E70120E7E70120E5E7C04611
:102E1C0000100240FFFFFFEFFFFFBFFFFFFFFFFEB1
:102E2C008C80C111FCFFFEEE10B52A4B9B6838223A
:102E3C001A4207D1274B1A68D20A07231340264897
:102E4C00D84010BD234B9A6838231340082B3BD035
:102E5C00204B9A6838231340102B0DD01D4B9A68C9
:102E6C0038231340202B31D01A4B9A683823134047
:102E7C00182B26D00020E4E7164AD1680D3B0B40F6
:102E8C00D2681209072111400131032B0FD01248CF
:102E9C00FDF732F90F4BDA68120A7F2313405843BF
:102EAC000C4BD968490F0131FDF726F9C9E70B48DE
:102EBC00FDF722F9074BDA68120A7F2313405843B7
:102ECC00EEE7FA20C001BCE70448BAE78020000214
:102EDC00B7E7C046001002400024F40000127A004C
:102EEC0070B504000D00002800D1AAE0574B1A68F9
:102EFC00072313408B4221D323689A070ED55B0717
:102F0C0005D5534A9168E023DB010B439360504A8B
:102F1C00936850490B40A1680B4393602368DB070F
:102F2C0054D56368012B20D0022B3BD0002B3FD112
:102F3C00474A126852051CD401206AE0434A1368C0
:102F4C0007218B432B431360FFF7CAF806003F4B56
:102F5C001A6807231340AB42CED0FFF7C1F8801B91
:102F6C003D4A9042F3D9032053E0394A1268920348
:102F7C0069D537498A680720824313438B60FFF772
:102F8C00AFF80600324B9B6838221A406368DB00AE
:102F9C009A421BD0FFF7A4F8801B2F4B9842F1D913
:102FAC00032036E02A4A12689201E2D4012030E074
:102FBC00032B05D0264AD26D9207DAD4012028E0E3
:102FCC00234A126E9207D4D4012022E01F4B1A68B8
:102FDC0007231340AB421DD823685B0706D51C4A58
:102FEC0093681E490B40E1680B439360FFF71CFF8D
:102FFC00174B9A68120A0F2313409B00184A9A58D1
:10300C001F231340D840174B1860174B1868FFF755
:10301C001BF870BD0D4A136807218B432B431360BB
:10302C00FFF75EF80600094B1A6807231340AB4202
:10303C00D2D0FFF755F8801B074B9842F3D90320E9
:10304C00E7E70120E5E70120E3E7C0460020024066
:10305C0000100240FFF0FFFF88130000FF8FFFFFFE
:10306C00544800080000002008000020014B18689C
:10307C007047C0460000002010B5FFF7F7FF064B65
:10308C009A68120B072313409B00044A9A581F237B
:10309C001340D84010BDC0460010024094480008B0
:1030AC00F0B583B0040003689B0362D5AE4BDB6BB9
:1030BC00DB001ED4AC4AD16B802040050143D163A8
:1030CC00D36B03400193019B0126A84A116880230E
:1030DC005B000B431360FFF703F80500A34B1B6861
:1030EC00DB0508D4FEF7FCFF401B0228F6D90325AC
:1030FC0002E00026E9E70025002D23D19A4BD96D7B
:10310C00C02292000B001340114210D0226C9A4244
:10311C000DD0954AD36D96490B40D06D8021490254
:10312C000143D165D16D93480140D165D365DB076F
:10313C0010D4002D06D18C4AD36D8D490B40216CD7
:10314C000B43D365012E15D1874AD36B8A490B40AB
:10315C00D3630FE0FEF7C4FF0700834BDB6D9B07C7
:10316C00E7D4FEF7BDFFC01B844B9842F5D903256D
:10317C00DFE700252368DB0706D57B4A536D032167
:10318C008B4361680B43536523689B0706D5764ACE
:10319C00536D0C218B43A1680B43536523685B076C
:1031AC0006D5714A536D30218B43E1680B4353654F
:1031BC002368DB0606D56C4A536D71490B402169B7
:1031CC000B4353652368DB0406D5674A536D684986
:1031DC000B4061690B43536523689B0506D5624A16
:1031EC00536D68490B40A16A0B43536523685B051B
:1031FC0006D55D4A536D64490B40E16A0B43536538
:10320C0023689B0606D5584A536D60490B40A1694B
:10321C000B43536523685B0606D5534A536D5C49D3
:10322C000B40E1690B43536523685B040BD54E4A95
:10323C00536D9B009B08216B0B4353658023DB056F
:10324C00226B9A4262D023681B0306D5464A536D03
:10325C0040218B43616B0B43536523689B020BD559
:10326C00414A536D4B490B40A16B0B435365802373
:10327C00DB03A26B9A4250D023685B020BD53A4A0F
:10328C00536D45490B40E16B0B43536580235B0445
:10329C00E26B9A4248D023681B0509D5324A936DDC
:1032AC0003218B43216A0B439365236A012B40D086
:1032BC0023689B0409D52C4A936D0C218B43616ABE
:1032CC000B439365636A042B39D02368DB010BD560
:1032DC00254A936D2D490B40616C0B4393658023FC
:1032EC009B01626C9A4230D023689B010BD51E4A1D
:1032FC00936D1F490B40A16C0B439365A26C80230B
:10330C005B009A4228D0280003B0F0BD164AD16861
:10331C0080235B020B43D36095E7134AD16880236B
:10332C005B040B43D360A7E70F4AD1680B43D36010
:10333C00B1E7D16880235B020B43D360B8E7D16857
:10334C0080235B020B43D360BFE7074AD16880231D
:10335C005B040B43D360C7E7034AD16880235B044B
:10336C000B43D360CFE7C046001002400070004012
:10337C00FFFCFFFFFFFFFEFFFFFFFFEF88130000C6
:10338C00FFF3FFFFFFFFF3FFFFFFCFFFFFCFFFFFB9
:10339C00FF3FFFFFFFFFBFFFFFFFFFFE30B5EFF367
:1033AC001084012282F3108801680B68124D2B40A7
:1033BC000B6084F31088EFF3108182F3108802689D
:1033CC0093680E4C2340936081F31088C36E012BDD
:1033DC0006D08C232022C2500023C366436730BD25
:1033EC00EFF3108183F31088026813681024A34351
:1033FC00136081F31088ECE7DFFEFFFFFEFFFFEFA9
:10340C00704710B5EFF31081012383F31088026825
:10341C0013684024A343136081F31088882320226F
:10342C00C25000238367FFF7EBFF10BD10B5806A15
:10343C00FDF71BF910BD7047F8B504000268D3699D
:10344C0010689568BA491E000E400B4205D19906CA
:10345C0003D581062CD4E9002AD4002E07D0B54917
:10346C002E000E400D4229D1B349084226D1E16EFF
:10347C00012900D1AAE0D90202D5690200D550E198
:10348C001A0605D5020600D560E12A0200D55DE1D9
:10349C005A0602D5420600D55FE11A0202D5420057
:1034AC0000D55EE1DB0102D5002800DA5DE1F8BD54
:1034BC00636F002BFBD020009847F8E7D90707D59E
:1034CC00C10505D501271762902162583A43625015
:1034DC009A0709D5EA0707D52268022111628E31B5
:1034EC00625804273A4362505A0709D5EA0707D5B0
:1034FC002268042111628C31625802273A436250CF
:10350C001A070AD5820601D4002E06D02268082696
:10351C00166290216258324362501A050AD5420154
:10352C0008D5226880210901116290216258202659
:10353C00324362509022A258002AB8D09B0608D57C
:10354C00830601D4EB0004D5636F002B01D020005F
:10355C0098479023E25823689B685B0602D4282383
:10356C0013422CD02000FFF719FF23689B685B06E1
:10357C0021D5EFF31081012383F31088226893681F
:10358C0040208343936081F310888023E358002B01
:10359C000DD06A4A9A638023E058FEF759FE002842
:1035AC0000D184E78023E058836B98477FE72000A5
:1035BC00FDF75BF87BE72000FDF757F877E7200075
:1035CC00FDF753F890230022E25070E7D90600D49F
:1035DC0051E7C10600D44EE71023136223689B68A1
:1035EC005B0662D58023E1580A6853689BB2002BB6
:1035FC004CD05C20205A984248D95E22A3520B68CA
:10360C001B689B060BD5022323675A33E15A0233FE
:10361C00E35AC91A89B22000FFF70DFF47E7EFF311
:10362C001080012383F3108821680A68444D2A40D6
:10363C000A6080F31088EFF3108083F31088216800
:10364C008A689A438A6080F31088EFF3108083F3C2
:10365C00108821688A684235FF35AA438A6080F356
:10366C0010888C222021A1500022E266EFF31081F9
:10367C0083F310882268136810208343136081F34E
:10368C0010888023E058FEF7A7FDBCE75C21615A47
:10369C00994200D00BE713689B0600D407E702237E
:1036AC0023672000FFF7C7FE01E75C23E15A0233D2
:1036BC00E25A891A89B2E35A9BB2002B00D1F6E682
:1036CC00002900D1F3E6EFF31085012383F3108872
:1036DC00206802681B4E3240026085F31088EFF3BD
:1036EC00108583F3108820688268174E3240826000
:1036FC0085F310888C222020A0500022E26662679D
:10370C00EFF3108083F31088226813681025AB4305
:10371C00136080F31088022323672000FFF78BFED1
:10372C00C5E680235B031362200000F0CBFFBEE6EE
:10373C000F080000010000102001000439340008BB
:10374C00FFFEFFFFDFFEFFFFFEFFFFEFA36F002B6F
:10375C0000D1ACE620009847A9E62000FFF751FE07
:10376C00A5E6200000F0B0FFA1E6200000F0ABFFC2
:10377C009DE6C04610B56023C35A8C228258222A7B
:10378C0005D00268936908210B43936110BD026850
:10379C00526ADBB21340826D1370836D0133836503
:1037AC005E22835A013B9BB28352835A9BB2002BFD
:1037BC00ECD1EFF3108C5D3A82F3108801680B6842
:1037CC00244C23400B608CF31088EFF3108C82F3A5
:1037DC00108801688B6893438B608CF310888C2362
:1037EC001F32C25000234367036703681A4A93428F
:1037FC0011D01A4A93420ED05B681B020BD5EFF323
:10380C001081012383F3108802681368144C234041
:10381C00136081F31088C36E012B17D10023C3668C
:10382C00EFF31084013383F3108801680B681022C6
:10383C0093430B6084F310880368D9690A4200D063
:10384C001A625C23C15AFFF7F6FD9FE7FCF709FFEC
:10385C009CE7C046DFFEFFFF008000400084004074
:10386C00FFFFFFFB10B56023C25A2C33C358222B29
:10387C0005D00268936908210B43936110BD03685E
:10388C005B6A1340826D1380836D023383655E2205
:10389C00835A013B9BB28352835A9BB2002BEDD1CE
:1038AC00EFF3108C5D3A82F3108801680B68244C9E
:1038BC0023400B608CF31088EFF3108C82F310888C
:1038CC0001688B6893438B608CF310888C231F32B8
:1038DC00C25000234367036703681A4A934211D00E
:1038EC00194A93420ED05B681B020BD5EFF3108183
:1038FC00012383F3108802681368144C234013606F
:10390C0081F31088C36E012B17D10023C366EFF32C
:10391C001084013383F3108801680B6810229343E1
:10392C000B6084F310880368D9690A4200D01A62CC
:10393C005C23C15AFFF77FFDA0E7FCF792FE9DE7E1
:10394C00DFFEFFFF0080004000840040FFFFFFFB14
:10395C00F0B5C64600B582B004006023C35A01938B
:10396C000368DD691A6890469F688C228258222A67
:10397C0007D09A6908210A439A6102B080BCB84604
:10398C00F0BD6823C65A08E09023E358002B41D1C0
:10399C005E23E35A9BB2002B43D0002E00D18EE065
:1039AC00AB0600D48BE023685B6A6A46127913403D
:1039BC00A26D1370A36D0133A3655E22A35A013B64
:1039CC009BB2A3522368DD696A07E1D0EA0708D5E8
:1039DC004246D20505D5012119629022A3580B430A
:1039EC00A350AB0709D5FB0707D5236802221A623F
:1039FC008E32A35804210B43A3506B07C4D5FB078D
:103A0C00C2D5236804221A628C32A35802210B43BC
:103A1C00A350B9E72000FCF728FE90230022E250C7
:103A2C00B6E7EFF31080012282F3108821680B684F
:103A3C00374D2B400B6080F31088EFF3108182F32D
:103A4C0010882268936833480340936081F3108890
:103A5C008C232022E25000236367236723682E4ABD
:103A6C00934211D02D4A93420ED05B681B020BD5AA
:103A7C00EFF31081012383F3108822681368284820
:103A8C000340136081F31088E36E012B3CD10023BB
:103A9C00E366EFF31080013383F3108821680B6821
:103AAC00102293430B6080F310882368D9690A4273
:103ABC0000D01A625C23E15A2000FFF7BCFC5E23A5
:103ACC00E35A9BB2002B00D157E76822A25A9A42C4
:103ADC0000D852E7EFF31080012282F3108821689E
:103AEC008B68104D2B408B6080F310880E4B6367F6
:103AFC00EFF3108182F310882268136820200343AF
:103B0C00136081F3108838E72000FCF7AAFDD6E794
:103B1C00FFFEFFFFFEFFFFEF00800040008400402F
:103B2C00FFFFFFFBFFFFFFEF81370008F8B5CE4624
:103B3C00474680B504006023C55A0368DF691A68DC
:103B4C0090469A6891468C228258222A07D09A690C
:103B5C0008210A439A61C0BCB946B046F8BD682337
:103B6C00C65A08E09023E358002B41D15E23E35A58
:103B7C009BB2002B43D0002E00D18EE0BB0600D4AC
:103B8C008BE023685B6A2B40A26D1380A36D02331C
:103B9C00A3655E22A35A013B9BB2A3522368DF6943
:103BAC007A07E3D0FA0708D54246D20505D501219C
:103BBC0019629022A3580B43A350BB070AD54B465E
:103BCC00DB0707D5236802221A628E32A358042120
:103BDC000B43A3507B07C5D54B46DB07C2D52368E7
:103BEC0004221A628C32A35802210B43A350B9E76A
:103BFC002000FCF73AFD90230022E250B6E7EFF3E9
:103C0C001080012282F3108821680B68374D2B40FD
:103C1C000B6080F31088EFF3108182F31088226818
:103C2C00936833480340936081F310888C232022DF
:103C3C00E25000236367236723682E4A934211D016
:103C4C002D4A93420ED05B681B020BD5EFF310810B
:103C5C00012383F3108822681368284803401360FB
:103C6C0081F31088E36E012B3CD10023E366EFF364
:103C7C001080013383F3108821680B681022934362
:103C8C000B6080F310882368D9690A4200D01A624D
:103C9C005C23E15A2000FFF7CEFB5E23E35A9BB274
:103CAC00002B00D157E76822A25A9A4200D852E75B
:103CBC00EFF31080012282F3108821688B68104D7D
:103CCC002B408B6080F310880E4B6367EFF31081F1
:103CDC0082F310882268136820200343136081F359
:103CEC00108838E72000FCF7BCFCD6E7FFFEFFFF8E
:103CFC00FEFFFFEF0080004000840040FFFFFFFB51
:103D0C00FFFFFFEF713800089023C0587047000088
:103D1C00F8B50400016883680269134342691343D0
:103D2C00C26913430A68AA48024013430B60226815
:103D3C005368A8490B40E1680B435360A1692268A2
:103D4C00A54B9A4204D0A54B9A4201D0236A194341
:103D5C009368A34803400B4393602268D36A0F21F6
:103D6C008B43616A0B43D36222689E4B9A421AD0F2
:103D7C009D4B9A425CD09D4B9A426AD09C4B9A4286
:103D8C0000D1BDE09B4B9A4200D1BBE09A4B9A42CA
:103D9C0000D1B9E0904B9A426CD0904B9A4200D132
:103DAC0080E010230EE0954B596D03230B40022B42
:103DBC0000D18FE038D8002B00D18DE0012B00D042
:103DCC008CE0033384498A4200D1AFE083498A42B4
:103DDC0000D1ABE0E06980221202904200D119E1DF
:103DEC00042B00D15AE100D94AE1002B00D14EE15D
:103DFC00022B00D042E18248636A5B00814A995AE7
:103E0C00FCF77AF963685B08C0186168FCF774F911
:103E1C000200103A7C4B9A4200D94AE12368000414
:103E2C00000CD8600020BFE0032B59D10533C9E743
:103E3C00724B596D0C230B40082B53D005D8002B1B
:103E4C0052D0042BBED01023BCE70C2B4ED1043B1C
:103E5C00B8E76A4B596D30230B40202B48D005D85E
:103E6C00002B47D0102B47D10C3BABE7302B45D167
:103E7C00283BA7E7614B5B6DC02109010B408021FA
:103E8C0009018B4242D007D8002B41D08021C900B8
:103E9C008B423FD1042395E7C02109018B423BD1D2
:103EAC0008238FE7554B5B6DC02189000B4001390E
:103EBC00FF398B4232D007D8002B31D00139FF3972
:103ECC008B422FD104237DE7C02189008B422BD15B
:103EDC00082377E7022375E7002373E7102371E7C4
:103EEC0010236FE702236DE700236BE7102369E7CC
:103EFC00022367E7002365E7102363E7102361E7DC
:103F0C0000235FE700235DE700235BE7022359E70B
:103F1C00002357E7102355E7102353E7022351E7FB
:103F2C0000234FE710234DE710234BE7042B4BD016
:103F3C0034D8002B41D0022B2ED1314D636A5B005B
:103F4C00304A9F5A39002800FCF7D6F8666873008F
:103F5C009B19834200D9A4E03303834200D2A2E030
:103F6C003A00002328000021FCF73CFA050E0B0256
:103F7C002B430202700800218018594132000023A3
:103F8C00FCF730FA214BC218214B9A4200D98CE035
:103F9C002368D860002007E0012005E0082B02D13F
:103FAC0080252D02CAE7012001236A22A352023A7E
:103FBC00A35200236367A367F8BDFFF75DF8050004
:103FCC00002DBBD10020EFE7FEF72EFF0500F7E731
:103FDC00F369FFCFFFCFFFFF00800040008400405B
:103FEC00FFF4FF110038014000440040004800403D
:103FFC00004C004000500040003C014000100240CA
:10400C000024F400D4480008EFFF000000FDFFFF7F
:10401C00FFFC0F00042B2ED023D8002B25D0022B15
:10402C001DD12548636A5B00244A995AFCF764F851
:10403C00400063685B08C0186168FCF75DF802001B
:10404C00103A1F4B9A4232D882B20F239A4340083F
:10405C00083B184010432368D8600020A4E70120D7
:10406C00A2E7082BDED001209EE7FFF705F8002819
:10407C00D8D1002098E7FEF7D7FEF8E7012093E7A8
:10408C00082B02D180200002B6E601208CE7FEF757
:10409C00F3FF002800D0AFE6002085E7FEF7C4FE52
:1040AC00F7E7012080E701207EE701207CE7012073
:1040BC007AE7012078E7C0460024F400D4480008D1
:1040CC00EFFF0000836A1B0706D5026853682C4972
:1040DC000B40816B0B435360836ADB0706D5026888
:1040EC00536828490B40C16A0B435360836A9B0792
:1040FC0006D50268536824490B40016B0B4353608F
:10410C00836A5B0706D50268536820490B40416BF4
:10411C000B435360836ADB0606D5026893681C491F
:10412C000B40C16B0B439360836A9B0606D50268F8
:10413C00936818490B40016C0B439360836A5B06D0
:10414C000BD50268536814490B40416C0B43536008
:10415C0080235B03426C9A420AD0836A1B0606D505
:10416C00026853680D490B40C16C0B435360704798
:10417C00026853680A490B40816C0B435360ECE7AF
:10418C00FF7FFFFFFFFFFDFFFFFFFEFFFFFFFBFFBA
:10419C00FFEFFFFFFFDFFFFFFFFFEFFFFFFFF7FF6B
:1041AC00FFFF9FFFF8B5CE46474680B506000D00D1
:1041BC0017009946089B98463368DC692C40641BB1
:1041CC0063425C41BC4233D143460133F4D0FDF72A
:1041DC0087FF4B46C01A40452FD84346002B2ED0A4
:1041EC0033681A685207E7D5802DE5D0402DE3D00F
:1041FC00DA69120710D4DA691205DDD580221201B2
:10420C001A623000FFF7CAF890232022F2500C3BC0
:10421C000022F25403200CE008241C623000FFF74B
:10422C00BDF89023F4500C3B0022F254012000E026
:10423C000020C0BCB946B046F8BD0320F9E7032006
:10424C00F7E7F0B5C64600B582B004000D00904605
:10425C001E008823C358202B6ED1002900D170E09A
:10426C00002A00D16FE080235B0182689A4204D15E
:10427C000369002B01D1CB0767D490230022E250B5
:10428C00083B2132E250FDF72BFF07005423424636
:10429C00E2520233E25280235B01A2689A4202D0BE
:1042AC000023984619E02369002B30D00023984650
:1042BC0013E088232022E25003203EE02A78236872
:1042CC009A6201358823E258673B1340212B3ED17B
:1042DC003533E25A013A92B2E2525623E35A9BB278
:1042EC00002B17D000963B00002280212000FFF706
:1042FC0059FF0028DDD1002DE0D143461B882268F0
:10430C00DB05DB0D936202239C46E044DAE7A8460A
:10431C000025E2E700963B00002240212000FFF739
:10432C0041FF002803D188232022E25005E0882396
:10433C002022E250032000E0022002B080BCB846EC
:10434C00F0BD0120F9E70120F7E70120F5E7012096
:10435C00F3E7000030B583B0040090230022C25074
:10436C00FDF7BEFE050022681268130710D42368FF
:10437C001B685B072BD420238822A3500432A35044
:10438C000023E3662367083AA354002003B030BD32
:10439C008021234B00930300002289032000FFF7A8
:1043AC0001FF0028E3D0EFF31081012383F3108881
:1043BC002268136880208343136081F3108888235C
:1043CC002022E250043B0022E2547D38DEE78021BB
:1043DC00134B00932B000022C9032000FFF7E2FED1
:1043EC000028C8D0EFF31080012282F310882168D6
:1043FC000B680C4D2B400B6080F31088EFF3108092
:10440C0082F3108821688B6893438B6080F310884B
:10441C008C231F32E250083B0022E2540320B5E704
:10442C00FFFFFF01DFFEFFFF10B5041E30D0882315
:10443C00C358002B22D088232422E2502268136810
:10444C0001218B431360A36A002B1DD12000FFF7C1
:10445C005FFC012811D0226853680E490B40536051
:10446C00226893682A218B43936022681368293948
:10447C000B4313602000FFF76DFF10BD8433002247
:10448C00C254FCF765FAD6E72000FFF71BFEDDE708
:10449C000120F2E7FFB7FFFF10B581655C23C25224
:1044AC000233C252002343678368802149018B4247
:1044BC0008D0002B15D10369002B0ED16033FF21DE
:1044CC00C15215E00369002B03D160334649C15238
:1044DC000EE06023FF21C1520AE060237F21C1520C
:1044EC0006E0802149058B4231D060230021C15266
:1044FC0090230021C150043B2231C150EFF3108CAA
:10450C00012484F3108801688B6823438B608CF33F
:10451C00108880239B05416E994223D080235B0138
:10452C0082689A424CD0314B43670369002B4DD0C3
:10453C00EFF31081012383F3108802681068203395
:10454C00FF330343136081F31088002010BD03690F
:10455C00002B03D160337F21C152C9E760233F2177
:10456C00C152C5E76823C35A9342D7D880235B0155
:10457C0082689A421ED01E4B43670369002B0BD0F6
:10458C00EFF31081012383F3108802681468FF3362
:10459C002343136081F31088EFF31081012383F31D
:1045AC0010880268906880235B050343936081F355
:1045BC001088CAE70369002BDDD10E4B4367DCE79B
:1045CC000369002BAFD10C4B4367AEE7EFF31081BF
:1045DC00012383F3108802681368202003431360BF
:1045EC0081F31088B1E7C046FF0100008137000855
:1045FC005D390008393B00087138000870B58C2310
:10460C00C358202B29D1002929D0002A29D0802356
:10461C005B0184689C4204D10369002B01D1CB0758
:10462C0021D40023C3660368104CA34212D0104C53
:10463C00A3420FD05B681B020CD5EFF3108C012347
:10464C0083F31088046825688023DB042B432360E4
:10465C008CF31088FFF720FF00E0022070BD0120D2
:10466C00FCE70120FAE70120F8E7C0460080004093
:10467C0000840040F8B50400436E002B05D10133D3
:10468C006A228352023A8352F8BD026895686D0E15
:10469C0007231D409268520F1340084FF85CC0006E
:1046AC00074EF15CFBF7B2FD6A23E052785DC00067
:1046BC00715DFBF7ABFD6823E052E5E7F4480008B9
:1046CC00EC480008704770477047000070B58423B1
:1046DC00C35C012B15D08424012606558825242380
:1046EC004351026813681168B1431160064A1340C4
:1046FC000022426601680B602023435102550020C2
:10470C0070BD0220FCE7C046FFFFFFDFF8B50400D8
:10471C000A008423C35C012B1BD084250120605527
:10472C0088262423A35123681F68196881431960C4
:10473C0020688368DB00D908114381602000FFF7F3
:10474C0099FF23681F602023A35100236355002089
:10475C00F8BD0220FCE70000F8B504000B00842231
:10476C00825C012A1BD084250120605588262422D6
:10477C00A251226817681168814311602268916800
:10478C0008480140194391602000FFF773FF23682C
:10479C001F602023A351002363550020F8BD022085
:1047AC00FCE7C046FFFFFFF170B500260C4D0D4C29
:1047BC00641BA410A64209D1002600F02BF80A4D68
:1047CC000A4C641BA410A64205D170BDB300EB5873
:1047DC0098470136EEE7B300EB5898470136F2E7FD
:1047EC000449000804490008044900080849000865
:1047FC00002310B59A4200D110BDCC5CC4540133D7
:10480C00F8E703008218934200D170471970013306
:10481C00F9E70000F8B5C046F8BC08BC9E467047E6
:0C482C00F8B5C046F8BC08BC9E467047BA
:1048380000000000C11C0008B51C0008251C000869
:10484800011D0008D91C0008151C00080000000004
:104858000000000000000000000000000000000050
:10486800000000000000000000000000010000003F
:104878000200000003000000040000000600000021
:104888000700000008000000090000000000000008
:10489800000000000000000000000000010000000F
:1048A8000200000003000000040000006368616E5D
:1048B80067652D746869732D6B65792100010203A2
:1048C80004050607080C10141820304001000200E7
:1048D8000400060008000A000C0010002000400038
:1048E800800000010804020408010101010101031C
:0448F80007010000B4
:0848FC0034BBFF7F0100000046
:04490400E5000008C2
:04490800BD000008E6
:0C490C000024F400010000000400000082
:040000050800061DCC
:00000001FF
