:020000040800F2
:100000000040022005450008811B0008831B0008F2
:1000100000000000000000000000000000000000E0
:10002000000000000000000000000000851B000828
:100030000000000000000000871B0008891B00086A
:100040005545000855450008554500085545000828
:100050005545000855450008554500085545000818
:100060005545000855450008554500085545000808
:1000700055450008554500085545000855450008F8
:1000800055450008554500085545000855450008E8
:1000900055450008554500085545000855450008D8
:1000A000554500085545000855450008911B0008B6
:0C00B0005545000855450008554500085E
:1000BC0010B5064C2378002B07D1054B002B02D032
:1000CC00044800E000BF0123237010BD0C00002089
:1000DC0000000000C4450008044B10B5002B03D0F1
:1000EC000349044800E000BF10BDC04600000000FA
:1000FC0010000020C445000802B4714649084900AC
:10010C00095C49008E4402BC7047C04603B471467A
:10011C00490840004900095E49008E4403BC704701
:10012C00002243088B4274D303098B425FD3030A2A
:10013C008B4244D3030B8B4228D3030C8B420DD33D
:10014C00FF22090212BA030C8B4202D312120902CB
:10015C0065D0030B8B4219D300E0090AC30B8B4209
:10016C0001D3CB03C01A5241830B8B4201D38B03B7
:10017C00C01A5241430B8B4201D34B03C01A52415C
:10018C00030B8B4201D30B03C01A5241C30A8B429F
:10019C0001D3CB02C01A5241830A8B4201D38B028A
:1001AC00C01A5241430A8B4201D34B02C01A52412E
:1001BC00030A8B4201D30B02C01A5241CDD2C309A0
:1001CC008B4201D3CB01C01A524183098B4201D31C
:1001DC008B01C01A524143098B4201D34B01C01A07
:1001EC00524103098B4201D30B01C01A5241C3087F
:1001FC008B4201D3CB00C01A524183088B4201D3EE
:10020C008B00C01A524143088B4201D34B00C01AD9
:10021C005241411A00D20146524110467047FFE745
:10022C0001B5002000F0F0F802BDC0460029F7D05F
:10023C0076E7704703460B437FD4002243088B427A
:10024C0074D303098B425FD3030A8B4244D3030B51
:10025C008B4228D3030C8B420DD3FF22090212BA16
:10026C00030C8B4202D31212090265D0030B8B4292
:10027C0019D300E0090AC30B8B4201D3CB03C01A7C
:10028C005241830B8B4201D38B03C01A5241430B57
:10029C008B4201D34B03C01A5241030B8B4201D347
:1002AC000B03C01A5241C30A8B4201D3CB02C01AB2
:1002BC005241830A8B4201D38B02C01A5241430A2A
:1002CC008B4201D34B02C01A5241030A8B4201D319
:1002DC000B02C01A5241CDD2C3098B4201D3CB01C0
:1002EC00C01A524183098B4201D38B01C01A52416F
:1002FC0043098B4201D34B01C01A524103098B4273
:10030C0001D30B01C01A5241C3088B4201D3CB005D
:10031C00C01A524183088B4201D38B00C01A524140
:10032C0043088B4201D34B00C01A5241411A00D2F0
:10033C0001465241104670475DE0CA0F00D0494259
:10034C00031000D34042534000229C4603098B42C9
:10035C002DD3030A8B4212D3FC22890112BA030A51
:10036C008B420CD3890192118B4208D389019211D3
:10037C008B4204D389013AD0921100E08909C30958
:10038C008B4201D3CB01C01A524183098B4201D35A
:10039C008B01C01A524143098B4201D34B01C01A45
:1003AC00524103098B4201D30B01C01A5241C308BD
:1003BC008B4201D3CB00C01A524183088B4201D32C
:1003CC008B00C01A5241D9D243088B4201D34B0047
:1003DC00C01A5241411A00D20146634652415B1089
:1003EC00104601D34042002B00D54942704763466A
:1003FC005B1000D3404201B5002000F005F802BDAF
:10040C000029F8D016E770477047C046D0400B0063
:10041C00D1409C46203AD340184352426346934005
:10042C00184370479140030090409C46203A9340FB
:10043C00194352426346D34019437047002B11D1E4
:10044C00002A0FD1002900D1002802D00021C94375
:10045C00080007B4024802A14018029003BDC04630
:10046C00A9FFFFFF03B4684601B5029800F006F837
:10047C00019B9E4602B00CBC7047C046F0B5574677
:10048C004E464546DE46E0B504000D0092469946C0
:10049C0083B08B4230D82DD04946504600F0BAF884
:1004AC0029000600200000F0B5F8331A9846203BCE
:1004BC009B4633D45A465346934042461F005346FC
:1004CC0093401E00AF423AD8AF4200D178E05B4671
:1004DC00A41BBD41002B00DA75E000220023009222
:1004EC00019301235A4693400193012342469340C2
:1004FC00009328E08242CFD900220023009201937E
:10050C000C9B002B01D01C605D600098019903B01E
:10051C00F0BCBB46B246A946A046F0BD42462023DD
:10052C009B1A5246DA40414613004A468A4017004D
:10053C0042461F43534693401E00AF42C4D900228B
:10054C000023009201934346002BD9D0FB0772087D
:10055C001A4346467B080EE0AB4201D1A2420CD8AE
:10056C00A41A9D41012024196D410021013E24183B
:10057C004D41002E06D0AB42EED9013E24196D41FF
:10058C00002EF8D1009801995B4600196941002BA7
:10059C0024DB2B005A464446D3402A00E2401C0080
:1005AC005B461500002B2ADB26009E4033002600FC
:1005BC004746BE403200801A9941009001919FE756
:1005CC00A342BCD883E74246202300219B1A002279
:1005DC00009101920122DA40019286E742462023E3
:1005EC009B1A2A0046469A402300F3404446134384
:1005FC002A00E2401C005B461500002BD4DA424670
:10060C002F002023260097409B1ADE403B003343EB
:10061C00CDE7C04610B5002903D100F007F8203013
:10062C0002E0080000F002F810BDC0461C210123B6
:10063C001B04984201D3000C10391B0A984201D3B9
:10064C00000A08391B09984201D30009043902A297
:10065C00105C40187047C0460403020201010101FE
:10066C000000000000000000F0B589B01422002149
:10067C0003A803F098FF02200124F027194B1A4E0F
:10068C00596BBF01014359635A6B39000240019207
:10069C00019A5A6B300022435A635B6B2200234051
:1006AC0002930025029B01F073FC0323300003A985
:1006BC0003930495059401F0ADFB300003A9039757
:1006CC0004940595069501F0A5FB8023A0205B0002
:1006DC0003A9C00503930495059401F09BFB09B095
:1006EC00F0BDC046001002400004005010B5134B82
:1006FC00134C01222360134B200063600023E26043
:10070C00A36023616361A361E361236201F0C6FD11
:10071C00002801D000F035F90021200001F03EFC4A
:10072C00002801D000F02DF90021200001F05CFC24
:10073C00002801D000F025F910BDC046005400403F
:10074C0028000020B57DB11010B504009AB0142219
:10075C00002102A803F027FF4C22002107A803F078
:10076C0022FF174B22689A4227D1202307A8079310
:10077C0002F018F8002801D000F003F90221114C06
:10078C001148626B0A436263636B0B400093009BDE
:10079C00C0230293AE3B0393002302A90493059359
:1007AC000633069301F036FB8021E26B89030A4382
:1007BC00E263E36B0B400193019B1AB010BDC04682
:1007CC0000540040001002400004005010B5041EFC
:1007DC0017D04368181E14D0A068002811D0FA2234
:1007EC005200A281802205212068D2009847002166
:1007FC00884204D06368034A2068984701000120AE
:10080C00084010BD27050000F0B585B004001E009F
:10081C0000910192002803D10025280005B0F0BDFD
:10082C00009B002BF8D0019B002BF5D0002EF3D0B1
:10083C0002AB9A1C02210068A36898470028EBD0F1
:10084C0004212068A36803AA98470028E4D002ABCF
:10085C009F1D3A0003212068A3689847051EDBD032
:10086C0002AB5A880523FA215343009A9B08138044
:10087C0002AB04229B5EA08989005843FFF7DAFC87
:10088C00019B3A881880192353435B083360C4E7F3
:10089C000848094B10B5036003234360074BC36042
:1008AC00074B836001F018FF002801D000F069F8B5
:1008BC0010BDC0467C00002000300040FF0F00003F
:1008CC00E703000010B594B03C22002105A803F00A
:1008DC006AFE1022002101A803F065FE8020800032
:1008EC0001F034FF0A230593F63308930023099390
:1008FC000F930833109380239B02119380239B0446
:10090C0040221293802302240A929B053F3A05A8A9
:10091C000B920D940E94139302F0F0F8002801D072
:10092C0072B6FEE7072303900490210001A80193FF
:10093C00029402F07FFB002801D072B6FEE714B0DF
:10094C0010BD10B503F094FD02F07EF8002801D024
:10095C0072B6FEE7FFF7B6FFFFF786FEFFF7C6FE9F
:10096C0001F01AF9FFF794FF01F002F801F070F8AA
:10097C00FCE710B501F0A8F810BD10B501F0C4F8F3
:10098C0010BD72B6FEE7F8B500240700260025005E
:10099C00385DE2000021FFF745FD013406430D43AD
:1009AC00082CF5D130002900F8BD0170090A4170FE
:1009BC0070470B0A017043700B0C090E8370C170E9
:1009CC0070474278017883781202C07811431B0477
:1009DC000B43000618437047030010B50800022BA8
:1009EC0000D900230849514301224140080C4140E1
:1009FC0006484143C80B4840104080180321C018DA
:100A0C00FFF714FCC8B210BDB979379E2D35EB7FBA
:100A1C00030030B541180A4C0A488B4200D130BD56
:100A2C001A7812025040082205B2400080B2002D04
:100A3C0000DA6040013A002AF6D10133EDE7C046F6
:100A4C0021100000FFFF0000F0B5A5B004001592C6
:100A5C001F91FFF798FF070020000E000830FFF7EA
:100A6C0092FF274B159A7B401293264B944673406A
:100A7C001393254B050043400093244B24484B40D3
:100A8C000193244B244C7B400493244B45407340EE
:100A9C000593159B4C401B061E9300231793159B27
:100AAC0016931F9B63442393009A019B12981399EE
:100ABC0080185941009B019ADB0C52031343009E92
:100ACC00019A4B400393D20C7603039B3243424072
:100ADC0002925B04D20B1A43039B2292DA0B029B09
:100AEC0018915B041A43169B19902192072B00D97D
:100AFC00B1E10723159E9E43F7007F4210E0C046EC
:100B0C0075657370656D6F736D6F646E61726F6414
:100B1C00736574796172656E626465746567796C0E
:100B2C00159BB34200D92FE204980599179B6B4093
:100B3C001E001E9B350C63401F00801979411C045C
:100B4C0032041B0C2C431A4342404C402700189C87
:100B5C00199D1600A4197D41D20A7B0513436B40E5
:100B6C00FA0A760501931643029A039B80185941A1
:100B7C00219B664043400293229B00964B4003937B
:100B8C00029A039BA4185D410E000700029B029A77
:100B9C00D80C039B520359030143694003910098FD
:100BAC00019936184F41DB0C00991A43624023001F
:100BBC000C0C0199029209040C4301992A000D0CAA
:100BCC0000997C4009040D4375402800210012183F
:100BDC004B4104920593EA0A630513436805E20A44
:100BEC001043049A029942400092059A49045A40D3
:100BFC00029B039CF6186741029B0192DA0B039B44
:100C0C00FF245B041343039A7B40D20B0A437240CC
:100C1C00029204981799039341400A0005981E9973
:100C2C007C4041400B002000029C039D12196B413B
:100C3C003100029CE70C039CE50C6603029C3E43CE
:100C4C0064032C43544002945E401C001500009A2F
:100C5C00019B80185941009B03961E0C019B1B04A1
:100C6C001E43019B4E401F0C009B01961B041F430F
:100C7C0047400097009A019BA4185D41F30A049425
:100C8C0005957A051A43049BFD0A5340009374059D
:100C9C00059B2C4363400193029B039CC01861414C
:100CAC00029B029CDA0B039B64045B041343039AC0
:100CBC004B40D20B224342401F00049C059D160062
:100CCC00A4197D410A0003007903F00C014376035B
:100CDC00F80C0643664069400296039128002100F7
:100CEC00009C019D12196B41009C260C019C240454
:100CFC002643019C5E40270C009C350024042743AE
:100D0C0057403C000019694104900591F80A71059F
:100D1C0001437C05F00A0443049860400090059858
:100D2C00029C484001900298039912184B41029979
:100D3C006404C80B03991E004904014303985940ED
:100D4C00C00B204350400D00040004980599001975
:100D5C00694117006B03E20C13434B40EA0C64032C
:100D6C0003931443009A019B92197B4144400294D3
:100D7C0005000C0000990E0C019909040E43019911
:100D8C005E400F0C0099019609040F4357400097E1
:100D9C000098019924184D4126002F0000990098C5
:100DAC00CD0A019940054C05C90A084370400090D2
:100DBC000298039912184B412C437C4001940299E0
:100DCC00CC0B039949040C4303995C40CD0B02995D
:100DDC00039449040D43554002951C000298039955
:100DEC0015003B00320012184B4102990298CF0CAF
:100DFC00039940034E033743C90C08433900504054
:100E0C0059400F00009A019B0600A4185D41009BFD
:100E1C003200190C019B1B041943019B6940180CEF
:100E2C00009B1B0418433B0012196B416040C50A20
:100E3C004C054005C90A2C430843F50B790429439A
:100E4C007604FD0B50405C402E437040614058408E
:100E5C00514025B0F0BD239B169A981AFFF793FDCD
:100E6C0003006B4006930B0063400793069B079CA3
:100E7C008C46209004980599C0186141069B069CED
:100E8C001A0C079B24041B041343079A4B40120CA7
:100E9C002243424008920993189C199D089A099B79
:100EAC0012196B41089C089EE50A099C760564059D
:100EBC002C43099D5C40ED0A354355400A950B9433
:100ECC00029C039D00196941219C1A9144400C9489
:100EDC00229C1B904C400D940C980D9912184B4170
:100EEC000C99C80C61030143E00C0C9C5940640341
:100EFC00204350400E900F911C930A980B991D9211
:100F0C001A9A1B9B12184B410A990A9C080C0B99B4
:100F1C002404090401430B985940000C2043504011
:100F2C0010901191109C119D1C981D9900196941EC
:100F3C00109C109EE50A119C760564052C43119DAE
:100F4C004C40ED0A35430E9E0F9F92197B410E9E2D
:100F5C000493F70B0F9E059276043E4321960F9F48
:100F6C000E9EFF0B76043743219E57405E40209B1C
:100F7C0000974340129363464B401393169B019684
:100F8C00083B454016938FE51F9BF200985D0021AE
:100F9C00D219FFF747FA179B0136034317931E9B91
:100FAC000B431E93BCE5C046F7B504001500061EA6
:100FBC00009350D0161E4ED01E1E4CD0177C00260F
:100FCC00202F48D83E001D368E4246D8522303703F
:100FDC0001334370513B83701378C3705388037192
:100FEC001B0A4371938883711B0AC3719379037233
:100FFC00D379437291680A30FFF7DBFC2000E96873
:10100C000E30FFF7D6FC2A7CA274002A05D02900EA
:10101C0020001131133003F0BDFA3D0013352900C7
:10102C002000FFF7F5FC65192870000A68703D0078
:10103C001535210000982A00FFF706FD00270090C7
:10104C0001916419FA0000980199FFF7DFF9E05556
:10105C000137082FF6D13000FEBD0026FBE7F0B5B6
:10106C0087B006000C0002250193002819D0002936
:10107C0017D0002B15D0013D1C2A12D90B78023544
:10108C00522B0ED14B78532B0BD18D78022D63D173
:10109C008F7C202F05D83B001D339A4204D000D200
:1010AC00013D280007B0F0BD3D001335290020009C
:1010BC00FFF7AEFC625D65196B7805251B021343C7
:1010CC009842EED13B00153301981A00210002938F
:1010DC00FFF7BAFC002501900391EA0001980399EF
:1010EC00FFF794F904AB58550135082DF5D10025BF
:1010FC002B00029AA21804A8D15CC05C01334140B9
:10110C000D43082BF7D1002D24D12000E3780A30B1
:10111C003370637922791B0213437380E379A279CC
:10112C001B021343B380237AB371637AF371FFF715
:10113C0048FCB06020000E30FFF743FC3774F060C1
:10114C00002FAED0300021003A001331113003F0E3
:10115C0021FAA6E70625A4E70425A2E7002805D076
:10116C00020000233D323E3013700370704770B59F
:10117C0005001000002D01D100240DE0002AFBD049
:10118C00002BF9D02E003D363478002C06D1522994
:10119C00F2D1012333702970200070BD012C08D1CD
:1011AC0053290CD052394B425941522331702B7078
:1011BC00E2E73C2C03D92800FFF7D0FFDCE7621CE8
:1011CC00D2B232702955132A06D1A97C2029F2D823
:1011DC002C001D313E34217029003E310978002944
:1011EC00CAD08A42C8D12900FFF739FF4442444192
:1011FC002800E4B2FFF7B2FFCEE7030030B50028B9
:10120C0007D00078002805D10130187059609A6019
:10121C00D86030BD5C688C4218D19968914209D273
:10122C00541A01211F2C02D8DD68A5402943D9602E
:10123C009A60EEE7891A1F2908D801228A4011000A
:10124C00DA68114202D10A43DA60E2E70020E0E7F3
:10125C00002804D00023037043608360C360704790
:10126C00F0B50E00A3B0029328AB1F7829AB05ADE7
:10127C001B7804000021019228003422039303F010
:10128C0092F902232E700126AB80019B0398AB715F
:10129C0003216E80FEF7CAFF1520A36AE9719A1923
:1012AC00AB60636A0299EB6004ABA262C0183A00AF
:1012BC002F7403F06FF923002A003D21143312A878
:1012CC00FFF772FE270002004837002805D10423DF
:1012DC003A8813433B8023B0F0BD2068A36812A961
:1012EC0098470028F3D004223B88E96893433B805D
:1012FC00E879AA68FFF770FB23004F331870019B45
:10130C003342E8D0A968EA790025260028005C362B
:10131C003378002B0DD0AB1D1B01E3185B68B7684D
:10132C009F4200D205000130C0B210360628EFD122
:10133C00280000012418230001205C3318702A9B1C
:10134C002166636668342270C5E7F0B587B01E006D
:10135C006B461974030051331B781700023B5A4239
:10136C0053416A4604005374831D12200D006844D7
:10137C00D98FFFF71AFBE16A05A8FFF71AFB0122C8
:10138C00002D00D10232002F01D004231A430C9BF4
:10139C0003210293082320000093019604ABFFF76E
:1013AC005FFF07B0F0BD0000F8B5170086220400FF
:1013BC0052000D0000211E0003F0F5F8230007CDAC
:1013CC0007C3200006CD06C314303900102203F0E9
:1013DC00E1F80123A3622300054A4A336662200028
:1013EC001A808022BC309A70FFF7B8FEF8BDC04658
:1013FC008080FFFF03005233533019700270704726
:10140C0030B5841DE1870234E28702005632137036
:10141C00483001240288002B02D00A4DA9420AD878
:10142C0014430480002B02D0074B994205D80323A8
:10143C001343038030BDA2430280022203889343EE
:10144C00F7E7C0465B2B000003290000836B0020EC
:10145C00834203D0C91A024B8B4240417047C046AD
:10146C00B70B00000300F0B58FB001AD04002A00EB
:10147C001433BC30FFF77BFE00285AD06B88022B4C
:10148C0057D1AB88012B02D0334A934251D16368B8
:10149C00206898470100060020002700FFF7D6FFC0
:1014AC00FC37002809D13B78002B06D07B68EA6812
:1014BC00934202D03800FFF7CBFE3800AA68E968E7
:1014CC00FFF79BFE002834D0E879AA68E968FFF79B
:1014DC0083FA23004F3318702B78A663042B2FD17B
:1014EC002B7C072B25D923001920AA7C50331A708A
:1014FC006844FFF766FA220000235C321178002959
:10150C0019D05168884216D19A1D1201A218127A6C
:10151C00FF20A21811004A310978F62901D80831A8
:10152C00C8B24A32107000221B01E3185C331A70E7
:10153C00A6630FB0F0BD01331032062BDED1F8E7F5
:10154C0004229343012BF4D12B7C002BF1D06B7C28
:10155C0050342370EDE7C046FFFF0000F0B50400E7
:10156C008DB0636800689847230058331A780500DB
:10157C00002A06D101321A700300C83B2063206494
:10158C006363230052331A78023304931B7893421B
:10159C0000D032E12564049B2200197800235532D7
:1015AC00994202D00120137843401170220026008A
:1015BC005332069211784D360432002900D024E1C2
:1015CC0021004831098889070CD52100513109784F
:1015DC00002900D019E1FA20216B4000691A8142E0
:1015EC0000D317E11178002906D1216B691A18294B
:1015FC0000D820E10121117022005132117800290C
:10160C0000D018E121005631097800290FD02100B3
:10161C004831098889070AD401211170002B06D0A2
:10162C0029002000FFF712FF002800D00DE13278CE
:10163C00002A00D112E1E36BEB1A00D50EE1032373
:10164C009B1A033A511E8A41DBB200212000D2B210
:10165C000095FFF77AFE3378013B33702B001E3375
:10166C00E363260023005C36BC33059333001A7801
:10167C00002A47D1059A10339A42F8D1636BEB1AC2
:10168C00C72B3FD9290020006563FFF7DFFE431EFF
:10169C009841230051331B780700013B5A425341B8
:1016AC0004AA1375049B16201A78069B01371B7825
:1016BC00591E8B415B00134304AA5375A31D80185C
:1016CC00D98FFFF772F923000833D98F0AA8FFF7D7
:1016DC006CF923001A204833198804ABC018FFF7A3
:1016EC0064F9E16A0BA8FFF764F9230002954F3304
:1016FC001B78012201930C2339000093200009ABC5
:10170C00FFF7AEFDE1210020C9003378002B11D08A
:10171C00B368EB1A8B420DD3337BE3181A004A32B1
:10172C00177800220C2F02D93A000C3AD2B24A3365
:10173C001A703070059B1036B342E6D12900200098
:10174C00FFF784FE23004833198802230B400493CF
:10175C002300513301261B78002904D1002802D024
:10176C009E1E724256412200563217780022974232
:10177C0001D001328A4301210A40059222005032E5
:10178C0012788B4200D085E0023AD1B200228B4213
:10179C005241431E98410021E3680240206898475B
:1017AC00E368069323680793002E05D0FA212800DE
:1017BC00FEF7B6FC012606400127320039000798D7
:1017CC00069B3A409847E3680221059A206898479F
:1017DC00E36826680593049B002B5FD07D212800CD
:1017EC00FEF79EFC020003213000059B3A4098470F
:1017FC002369206898470DB0F0BD236CEB1A182BA9
:10180C0000D8C8E6049B1A70C4E62100513109784F
:10181C00022905D0E16A0131E16203213170E563EF
:10182C002100022051310870002003390870127811
:10183C00824200D1FBE6002B00D1F8E623005133A5
:10184C001B78012B00D1EBE6F1E6E36A02220133AF
:10185C00E36223004E331A70E563E8E626004E3649
:10186C003278002A00D1FCE6E36BEB1A00D5F8E6DF
:10187C002300023A511E8A414F331B78022120006B
:10188C00D2B20095FFF761FD3378013B33702B002A
:10189C003C33E5E6043A53425A417AE72300483395
:1018AC001A88A0E7142330B587B0029305AD123B1C
:1018BC0001931400013B0A0007488021009500F0B9
:1018CC0029FE0023984203D12B885BBA2380012385
:1018DC00180007B030BDC046280000207FB505AB0E
:1018EC005A70100A0A0014211870029112390191D1
:1018FC0000937E310123044800F02EFD43425841F1
:10190C00C0B207B000BDC0462800002010B5024888
:10191C0000F014FF10BDC0467C000020782310B5E9
:10192C00034892B202F0A2FB43425841C0B210BD30
:10193C00C001002010B502F0BBFD10BD0800130063
:10194C0010B503290AD8012280215A40FEF7D4FB96
:10195C000207090BC900054800F01AFB10BD09016C
:10196C00F9E74901F7E78901F5E7C04600040050A3
:10197C00F0B587B001AC22002B4B23CB23C203CB99
:10198C0003C202F09BFD050002F09EFD070002F071
:10199C00A1FD060002F08CFD244B68409B68FF0102
:1019AC005840F6087840704043035840430C584068
:1019BC0001264301984201D05840060080210122A3
:1019CC001B48C90000F0E4FA8021012218480901E3
:1019DC0000F0DEFA802101221548490100F0D8FA06
:1019EC00802101221248890100F0D2FA114D3300F6
:1019FC0021002800104AFFF7D7FC002328001A000A
:101A0C001900FFF7FDFC00230C4803600C4B4360EE
:101A1C000C4B8360FEF7DAFE01220B490B4802F0F7
:101A2C00C5FC07B0F0BDC046DC45000810E000E086
:101A3C0000040050A0000020F04500088C0000209D
:101A4C00E9180008B1180008BC010020C0010020F2
:101A5C00F7B502F02DFD01210500174800F092FAB0
:101A6C0004000221144800F08DFA013C631E9C41D5
:101A7C00421E53425A41E1B2104CD2B22000FFF741
:101A8C00B9FC0F4E3368EB1A632B10D96B469F1CB5
:101A9C0069463A0001AB0B48FEF7B6FE00217A5EB0
:101AAC006946030009882000FFF7AAFC356003484B
:101ABC00FFF754FDF7BDC04600040050A000002005
:101ACC009C0000208C0000200A4B70B5040098424A
:101ADC000FD1094A094D1368297801331360084B5B
:101AEC0008481970FFF7BEFC01222900200002F003
:101AFC005DFC70BDC0010020B8010020BC010020BD
:101B0C00B4010020A0000020094B10B5040098423D
:101B1C000CD1084A13680133136002F081F8064BAC
:101B2C00012218600549200002F040FC10BDC0469F
:101B3C00C0010020AC010020B0010020BC0100203D
:101B4C0007B501200A4B196C0143196480211A6CEA
:101B5C00490502400092009ADA6BBF300A43DA63FF
:101B6C00DB6BC0000B400193019B02F0B9FC07BD7D
:101B7C0000100240FEE7FEE77047704710B502F018
:101B8C008BFC10BD10B5024801F0E2FB10BDC04645
:101B9C00C00100207047000010B5184B184C0C22E7
:101BAC00236096239B01636000232000A360E36005
:101BBC0023616261A361E36123626362A36202F049
:101BCC002DFB002801D0FEF7DCFE0021200001F0E7
:101BDC003BFB002801D0FEF7D4FE0021200001F0D1
:101BEC0057FB002801D0FEF7CCFE200001F00EFBC5
:101BFC00002801D0FEF7C5FE10BDC04600380140DC
:101C0C00C001002030B504009BB01422002102A8B2
:101C1C0002F0C9FC4C22002107A802F0C4FC1B4BAB
:101C2C0022689A4230D1012307A8079300F0BAFD2D
:101C3C00002801D0FEF7A5FE80200124144BC00122
:101C4C00196C0025014319641A6C02A90240009218
:101C5C00009A5A6BA02022435A635B6BC005234049
:101C6C000193019BC023DB00029302230494039392
:101C7C000595069400F0CEF81B202A00210000F0F8
:101C8C0009F81B2000F030F81BB030BD00380140C3
:101C9C000010024030B5FF2503242A000440E40064
:101CAC00A24089012940D243A140C3B200280ADBDB
:101CBC00C0240B4B80088000C018A40003591A40A4
:101CCC001143015130BD0F200340083B05489B08D0
:101CDC009B001B18D86902401143D961F2E7C0463A
:101CEC0000E100E000ED00E0002805DB1F231840B8
:101CFC001E3B8340014A13607047C04600E100E080
:101D0C008022431E5204012093420DD2C021074A67
:101D1C0007485360036A09061B021B0A0B43036244
:101D2C0000200723906013607047C04610E000E06D
:101D3C0000ED00E00300F0B50120002B09D0981D48
:101D4C00C27F5C1D022A05D00422DA630023012025
:101D5C00E377F0BD01220E2619685F6C0D68954380
:101D6C000D600D68B5430D609D6C0D4E29683140BA
:101D7C0029601C253D40AA40196C4A60DA6C196D2B
:101D8C0051605A6D002A05D01168314011609A6D6E
:101D9C00DB6D53600123C3770020E077D9E7C046A1
:101DAC00FFFEFFFF70B5841DE27F0123022A03D0E2
:101DBC000422C263180070BD0E250268466C1168BF
:101DCC00994311601168A9431160826C104D116820
:101DDC00294011601C2131408B40026C5360C36C54
:101DEC00026D5A60436D002B05D01A682A401A60A8
:101DFC00836DC26D5A600123E3770024431DDC77A9
:101E0C00826B1300A242D5D090472300D2E7C04684
:101E1C00FFFEFFFF544AF0B58218541EA241002366
:101E2C0087B0043205920A681400DC4001D107B077
:101E3C00F0BD01242500A4469D4014002C400294C2
:101E4C002A4200D18EE003244A685E0001922240AF
:101E5C00B440E4430394541E64452AD88768039C19
:101E6C002740CC68B4403C43674684604468AC432C
:101E7C002500019C24093C409C402C434460C568CF
:101E8C00039C25408C68B4402C43C460022A12D1B8
:101E9C00DC080725A4000419276A04940F241D40AC
:101EAC00AD00AC40A7430C69AC402743049C2762AF
:101EBC0001E0032AE3D1B2400468039D25402A4384
:101ECC000260C022019C920214424BD003261D00DA
:101EDC00264A9C08A4003540A418B5400F22AA40FD
:101EEC00276E9743BC46A0270022FF05B8420CD0B2
:101EFC001F4F0132B84208D01E4F0132B84204D0F5
:101F0C001D4F3200B84200D0059AAA4065462A43BC
:101F1C002266164C029A2668029D019FD2433543D5
:101F2C00FF0201D43500154025606668029D019FB3
:101F3C003543BF0201D43500154065600F4C029D3E
:101F4C00E66F019F3543BF0301D435001540E567AB
:101F5C000B4C029EE56F019F2E43FF0301D41540ED
:101F6C002E00E66701335EE700F0FFAF0018024079
:101F7C000004005000080050000C005008180240EB
:101F8C000418024000690840431E9841C0B27047D3
:101F9C00002A01D0816170478162FCE7F0B5040032
:101FAC004134227803000F000220D6B2202A18D127
:101FBC001D0040352A78012A13D0242222701B6878
:101FCC00233A1968074891431960196801400020A9
:101FDC00196019683943196019680A431A60267028
:101FEC002870F0BDFFEFFFFF0200F0B5413214780E
:101FFC000300E5B20220202C17D11C0040342678B7
:10200C00012E12D0223010701B6823381E68074F27
:10201C0086431E601E6809023E40314319601968F0
:10202C0008431860002015702070F0BDFFF0FFFF12
:10203C0003689A69920701D500229A620122996974
:10204C00114202D199690A439A61704730B5039CD9
:10205C0000682343120489051A43890D054B456812
:10206C000A43640D1C435200A54352082A434260A4
:10207C0030BDC046FF63FF03F7B5150002680E00C4
:10208C00916910230F0004001F40002019420ED04C
:10209C002027D3610090019023689A693A4264D159
:1020AC00019A002A32D004270120009B1F43802173
:1020BC00236849009A690A4202D00120D96107437A
:1020CC008021C9000A4203D00820D9610743073890
:1020DC00802189000A424DD00222D9611743200089
:1020EC00FFF7A6FF2268254953680B405360230075
:1020FC002022606C4133074367641A70220000236E
:10210C004232403413700120237035E0721CC4D06D
:10211C0002F0CEF9401BB04201D8002EBCD12200F7
:10212C002368423258681178CAB2802194469A6961
:10213C0009020A420CD08022D201104208D1614619
:10214C00202905D059680A435A6002F0B1F90500FC
:10215C0023689B693B429FD102F0AAF9401B1928C6
:10216C00F6D901230097019396E7019A002A9AD198
:10217C00DF6198E70028B2D1FEBDC04600E800FE42
:10218C00F8B504000D001600022723689B693B423A
:10219C0001D00020F8BD320029002000FFF76CFFB1
:1021AC00002818D16B1CF0D002F082F9801BA842D9
:1021BC0001D8002DE9D123689B691A003A403B42B3
:1021CC00E3D12021636C0B4363642300403441331F
:1021DC0019705A7022700120DCE7F8B504000D006C
:1021EC0017001E0023689B692B405B1B5A4253410E
:1021FC00BB4201D00020F8BD31002000069AFFF749
:10220C003BFF00281ED1731CECD002F051F9069B49
:10221C00C01AB04201D8002EE4D123689B692B4030
:10222C005B1B5A425341BB42DCD12022636C1343EB
:10223C006364230041331A7022000023423240347D
:10224C00137023700120D6E7F8B504000E001700B8
:10225C00202523689B692B4201D00020F8BD3A0051
:10226C0031002000FFF708FF002815D102F020F9FB
:10227C00C01BB04201D8002EEBD123689B691A0019
:10228C002A402B42E5D1636C2B436364230040341A
:10229C0041331D705A7022700120DFE770B50400C5
:1022AC000120002C4FD0250041352B78DAB2002BC1
:1022BC0005D12300403320001A70FEF745FA242381
:1022CC0001212B70236820481A68A6688A431A607B
:1022DC0061681E4A0A401A619A68E16802409A6075
:1022EC00012908D18022120232439A605968184A97
:1022FC00114059600AE08422120232439A6002298A
:10230C00F4D18022596812010A435A605A68114963
:10231C0011435960DA6861690240DA602269002071
:10232C000A43A16909020A43DA60216AE2690A4395
:10233C001A60012219680A431A60202360642B700A
:10234C0020634234207070BDFF7FFFFFFFFFFFF062
:10235C00FFF7FFFF00800002F0B589B004930EABCD
:10236C00039204CB04001B880592069303004133AF
:10237C0007931B780F000220109E202B08D1002AF7
:10238C0002D0069B002B05D180239B0063640120A7
:10239C0009B0F0BD230040331A780220012AF7D08F
:1023AC0001221A7002F084F8802105000090192394
:1023BC00012220000902FFF710FF0028E7D121239A
:1023CC00079A390013702300423307934023079A6E
:1023DC001370059B60646362069B606363856B4648
:1023EC001A7C4A4B2000009380235B04FFF72EFEDF
:1023FC002A0031002000FFF7C3FE002826D1049AE2
:10240C002368012A16D16A46127B80219A62200029
:10241C00330000220095FFF7E0FE002816D1638DF3
:10242C00FF2B17D88023628D9B0492B22285D2B2E7
:10243C00009014E0039A3100120A9A6220002A00DC
:10244C00FFF79EFE002801D12368DCE7002340340F
:10245C0023709CE7FF22802322855B0400903900C7
:10246C002000FFF7F3FD2A0031002000FFF788FE63
:10247C00002800D08BE7636A2268197801339162D7
:10248C006362638D228D013B9BB26385013A638D40
:10249C0092B22285002B17D0002A15D1330080214F
:1024AC0020000095FFF799FE002800D06FE7638DA0
:1024BC00FF2B23D9FF2323858023FF2200905B046D
:1024CC0039002000FFF7C2FD638D002BCBD12A0011
:1024DC0031002000FFF7B8FE002800D057E720217C
:1024EC0023680B4DD9615A682A405A602300413346
:1024FC001970079B40341870207049E78023628D57
:10250C009B0492B22285D2B20090D9E700200080C1
:10251C0000E800FEF0B589B004930EAB039204CB37
:10252C0004001B88059206930300413307931B7824
:10253C000F000220109E202B08D1002A02D0069BEF
:10254C00002B05D180239B006364012009B0F0BDF2
:10255C00230040331A780220012AF7D001221A7086
:10256C0001F0A6FF80211923009005000122200014
:10257C000902FFF732FE031EE7D1222207990A70E7
:10258C00220042320792402207990A70059A606431
:10259C006262069A4D4962856A466063127C20002D
:1025AC0000913900FFF752FD2A0031002000FFF79F
:1025BC00E7FD002827D1049A2368012A17D16A461F
:1025CC00127B40219A622000330000220095FFF715
:1025DC0004FE002817D1628D3D4BFF2A17D8628D5F
:1025EC0092B2228500938023D2B29B0414E0039A0A
:1025FC003100120A9A6220002A00FFF7C1FD002860
:10260C0001D12368DBE70023403423709DE7FF22D0
:10261C002285009380235B0439002000FFF716FD10
:10262C0033000022042120000095FFF7D6FD00287E
:10263C0000D08AE72368626A5B6A1370636A228D32
:10264C0001336362638D013A013B9BB26385638DF9
:10265C0092B22285002B17D0002A15D1330080218D
:10266C0020000095FFF7B9FD002800D06DE7638DC1
:10267C00FF2B23D9FF2323858023FF2200905B04AB
:10268C0039002000FFF7E2FC638D002BC8D12A0033
:10269C0031002000FFF7D8FD002800D055E720219D
:1026AC0023680C4DD9615A682A405A602300413383
:1026BC001970079B40341870207047E78023628D97
:1026CC009B0492B22285D2B20090D9E70020008000
:1026DC000024008000E800FE70B504000120002CEE
:1026EC0017D02368124A07251A60124A1A606268CA
:1026FC005A60A2689A6001F0DBFE06002368DA6873
:10270C00100028402A4205D11969E26891420CD088
:10271C001A6170BD01F0CCFE801B3128EED9236804
:10272C00DB682B42EAD00320F3E7034A1A60F0E798
:10273C00CCCC000055550000AAAA00000368024A40
:10274C0000201A607047C046AAAA000010B5114CB0
:10275C001149236802000B400343236080230020AF
:10276C009B009A420ED10D4B0D4918680623584315
:10277C00FDF7D6FC8022431CD20061690800104092
:10278C00114200D110BD002B01D0013BF5E7032015
:10279C00F8E7C04600700040FFF9FFFF0000002082
:1027AC0040420F00F0B504002368002085B09B0365
:1027BC003CD58022974D5205EB6B0090134208D10B
:1027CC00EB6B1343EB63EB6B13400393039B012302
:1027DC0000938027904E7F0033683B43336001F0B9
:1027EC0067FE019033683B4212D0EA6DC0231100A2
:1027FC009B008A4E19401A4203D0236C994200D098
:10280C00E9E0EB6D00201E40236C1E43EE6506E0F4
:10281C0001F04EFE019BC01A0228E3D90320009B55
:10282C00012B03D1EB6B7E4A1340EB632368DA0771
:10283C0006D5032577494A6DAA4365682A434A653C
:10284C009A0706D50C2573494A6DAA43A5682A43F5
:10285C004A655A0706D530256E494A6DAA43E56884
:10286C002A434A65DA0606D56A496E4D4A6D2A40F6
:10287C0025692A434A65DA0406D56649674D4A6DCF
:10288C002A4065692A434A659A0506D56149664D11
:10289C004A6D2A40A56A2A434A655A0506D55D4900
:1028AC00624D4A6D2A40E56A2A434A659A0606D566
:1028BC0058495F4D4A6D2A40A5692A434A655A0614
:1028CC0006D554495B4D4A6D2A40E5692A434A6551
:1028DC005A040FD54F49256B4A6D920092082A4332
:1028EC004A658022D205954204D18022CD685202DD
:1028FC002A43CA601A0306D5402546494A6DAA43A5
:10290C00656B2A434A659A020FD542494A4E4A6D75
:10291C00A56B32402A434A658022D203954204D1EA
:10292C008022CD6852042A43CA605A020DD5394D13
:10293C00424E696DE26B3140114369658021490457
:10294C008A4202D1E9680A43EA601A050DD50326CA
:10295C003049256A8A6DB2432A438A65012D04D118
:10296C008022CD6852022A43CA609A040DD50C26E7
:10297C002849656A8A6DB2432A438A65042D04D1BD
:10298C008022CD6852022A43CA6080256D042B42F6
:10299C000DD02049264F8A6D666C3A4032438A65C9
:1029AC0080229201964202D1CA681543CD609B01E8
:1029BC000FD5184AA16C936D184C23400B439365AB
:1029CC0080235B00994204D18023D1685B040B43C4
:1029DC00D36005B0F0BD8023EA6DE86D11005B0299
:1029EC000343EB65EB6D164831400340EB65E9653D
:1029FC00D30700D405E701F05BFD07000222EB6D65
:102A0C00134200D0FDE601F053FD0E4BC01B984263
:102A1C00F4D903E70010024000700040FFFCFFFFF8
:102A2C00FFFFFFEFFFF3FFFFFFFFF3FFFFFFCFFF02
:102A3C00FFCFFFFFFF3FFFFFFFFFBFFFFFFFFFFECB
:102A4C00FFFFFEFF8813000070B501F031FD8023FD
:102A5C0080260500244C5B002268F600134323609B
:102A6C00236833422BD08023DB01636001F020FD0F
:102A7C00002305003826A360A368334226D18023A7
:102A8C005B002360236001F013FD80260500B60473
:102A9C0023681A00324033421FD180235B01E3606C
:102AAC0001235B42A2612362104A114B1A60114B45
:102ABC00186801F0B5FC431E9841C0B205E001F066
:102ACC00F7FC401B0228CBD9032070BD01F0F0FCB1
:102ADC00094B401B9842CFD9F6E701F0E9FC401BAB
:102AEC000228D5D9F0E7C046001002400024F400BB
:102AFC00000000200800002088130000F0B504003E
:102B0C0085B0002827D00368DB0714D423689B0703
:102B1C0062D423681B0700D5C7E023685B0700D588
:102B2C00F8E023689B0600D566E1236A002B00D0F1
:102B3C00A5E1002029E03822BB4DAB681340EA68C0
:102B4C00102B0AD1D243930709D12B689B03DDD5F7
:102B5C006368002BDAD1012017E0082BF5D0802216
:102B6C0063685202934212D12A6813432B6001F01E
:102B7C009FFC80270600BF022B683B42C6D101F0A8
:102B8C0097FC801B6428F7D9032005B0F0BDA02169
:102B9C00C9028B4208D180232968DB020B432B60CE
:102BAC002B681A432A60E2E72A68A0490A402A6087
:102BBC002A689F490A402A60002BD8D101F078FC82
:102BCC0080270600BF022B683B429FD001F070FCAF
:102BDC00801B6428F7D9D7E73823934DAA68134094
:102BEC00EA68102B28D103210A40022A26D12A6830
:102BFC00520502D5E268002AADD0696862698D4839
:102C0C00120201400A436A60002B0DD12B688A4ADC
:102C1C001340226913432B602B68884A9B045B0F7B
:102C2C00DA401300864A1360864B186801F0F8FBF3
:102C3C00002800D16DE78EE7002BD8D0E368002B7D
:102C4C0020D02B687C4A802713402269FF00134355
:102C5C002B6080232A685B0013432B6001F028FC57
:102C6C0006002B683B4207D06A68636971491B02F6
:102C7C000A4013436B604CE701F01AFC801B0228DE
:102C8C00EFD981E72B68704A802713402B6001F045
:102C9C000FFC0600FF002B683B4200D139E701F026
:102CAC0007FC801B0228F6D96EE738225E4DAB6814
:102CBC001340182B08D12B6E9B0700D42DE7A3696A
:102CCC00002B00D029E746E7A2690123002A10D087
:102CDC002A6E022713432B6601F0EAFB06002B6ECB
:102CEC003B4200D019E701F0E3FB801B0228F6D928
:102CFC004AE72A6E02279A432A6601F0D9FB06009E
:102D0C002B6E3B4200D108E701F0D2FB801B02285E
:102D1C00F6D939E73822444DAB681340202B08D143
:102D2C00EB6D9B0700D4FCE6A368002B00D0F8E603
:102D3C0011E780220021EB6B52050091134208D160
:102D4C00EB6B1343EB63EB6B13400393039B01237C
:102D5C00009380273D4E7F0033683B4215D0A3681B
:102D6C00012B22D1EA6D1343EB6501F0A1FB022785
:102D7C000600EB6D3B4238D0009B012B00D0D0E617
:102D8C00EB6B334A1340EB63CBE633683B43336066
:102D9C0001F08EFB019033683B42E0D101F088FBDF
:102DAC00019BC01A0228F6D9EEE6EA6D052B05D177
:102DBC00013B1343EB65EA6D0123D4E701218A4300
:102DCC00EA65EA6D03318A43EA65002BCDD101F047
:102DDC006FFB02270600EB6D3B42CDD001F068FB88
:102DEC001C4B801B9842F6D9CEE601F061FB194BC7
:102DFC00801B9842BDD9C7E6E3690B4D002B2BD045
:102E0C0080232A68DB0313432B6001F051FB8027DE
:102E1C0006003F042B683B4200D086E601F048FBDD
:102E2C00801B0228F6D9AFE600100240FFFFFEFF20
:102E3C00FFFFFBFFFF80FFFFFFC7FFFF0024F40035
:102E4C000000002008000020FFFEFFFF0070004083
:102E5C00FFFFFFEF881300002B684E4A80271340BA
:102E6C002B6001F025FB06003F042B683B4200D190
:102E7C005BE601F01DFB801B0228F6D984E63821A5
:102E8C00454DAA680A40102A55D0444A022B3AD123
:102E9C002B68802713402B6001F00AFB0600BF044F
:102EAC002B683B4229D1A16A636AEA680B433C490F
:102EBC0080260A401343226BB6041343626B134300
:102ECC00A26B1343E26A12021343EB6080232A685D
:102EDC005B0413432B608023EA685B051343EB60B0
:102EEC0001F0E6FA04002B68334200D021E601F031
:102EFC00DFFA001B0228F6D946E601F0D9FA801B4E
:102F0C000228CDD940E62B68802613402B6001F0B7
:102F1C00CFFA0400B6042B6818003040334204D1B9
:102F2C00EB68204A1340EB602FE601F0C1FA001B5E
:102F3C000228F0D928E61800012B00D125E603223F
:102F4C00EB68616A1A408A4200D004E67022A16ADA
:102F5C001A408A4200D0FEE5FE21E26AC9011940FE
:102F6C001202914200D0F6E5F822216B92031A402E
:102F7C008A4200D0EFE5E022616B12051A408A42CA
:102F8C0000D0E8E5A26B5B0F5B07934200D1D0E564
:102F9C00E1E5C046FFFFBFFF00100240FFFFFFFE50
:102FAC008C80C111FCFFFEEE382370B51E4CA2685C
:102FBC001A4205D123681D489B045B0FD84070BD95
:102FCC00A2681A40082A2AD0A2681A40102A1AD1DC
:102FDC00E368E168DB434906490F7F2501319B0714
:102FEC000CD1E36812481B0A1D40FDF799F8E16803
:102FFC006843490F0131FDF793F8E0E7E3680B48AC
:10300C001B0A1D40F1E7A2681A40202A09D0A268C9
:10301C0000201340182BD2D1FA20C001CFE704486E
:10302C00CDE780200002CAE7001002400024F40023
:10303C0000127A00F7B504000D00002801D1012020
:10304C00FEBD07274A4E33683B408B422AD321688A
:10305C008B073BD4CB0748D4072733683B40AB42A4
:10306C000AD93368BB432B43336001F021FA01903A
:10307C0033683B40AB426BD123683E4D5B076FD44A
:10308C00FFF792FFAB683C4A1B051B0F9B009B583C
:10309C001F221340D840394B1860394B186801F087
:1030AC00BFF9CDE73368BB430B43336001F000FA43
:1030BC00019033683B40AB42C9D001F0F9F9019B58
:1030CC00C01A304B9842F4D90320B9E7294A4B0770
:1030DC0004D5E0239068DB010343936093682A488E
:1030EC000340A06803439360B4E76268214F012A50
:1030FC0019D13B689B03A2D50721BB688B431343B3
:10310C00BB6001F0D5F901903823BA681A406368A6
:10311C00DB009A42A0D001F0CBF9019BC01A194BED
:10312C009842F1D9D0E7022A03D13B689B01E3D442
:10313C0085E7002A03D13B685B05DDD47FE70223DA
:10314C00032A03D1396E1942D6D178E7F96DFAE723
:10315C0001F0AEF9019BC01A0A4B984288D9B3E72B
:10316C00AB680A4A1340E2681343AB6088E7C04679
:10317C000020024000100240004600080000002021
:10318C000800002088130000FFF0FFFFFF8FFFFFF7
:10319C00064B074A9B685B045B0F9B009B581F22E6
:1031AC001340044A1068D8407047C04600100240D3
:1031BC004046000800000020F8B5436E0400002BC8
:1031CC0002D10D4B8366F8BD03680C4E9F689B685B
:1031DC000B4D5B0FF05CE95CC000FDF72BF8230096
:1031EC006A3318803B015B0FF05CE95CC000FDF7B3
:1031FC0021F868342080E6E70100010068460008E9
:10320C0060460008704770477047000070B50400B6
:10321C008434227803000220012A11D01D002422BC
:10322C00012688352A601A6811681068B04310604E
:10323C000448014000205866202311602B60207048
:10324C0070BDC046FFFFFFDFF8B5040025008435D4
:10325C002A7808000223012A18D00121260029709F
:10326C002268883622333360176813688B431360E7
:10327C009368DB00D908014391602000FFF79CFFA5
:10328C0023681F602023336000232B701800F8BDC7
:10329C00F8B5050084352B7804000A000220012BB8
:1032AC0018D0260024230138287088363360236810
:1032BC001F681968814319609968074801401143D8
:1032CC0020009960FFF778FF236800201F602023FF
:1032DC0033602870F8BDC046FFFFFFF130B5EFF347
:1032EC001084012282F310880168134D0B682B4067
:1032FC000B6084F31088EFF3108182F3108802685E
:10330C000E4C93682340936081F31088C36E012B9D
:10331C000AD1EFF3108183F310881024026813682C
:10332C00A343136081F31088030020228C331A60AE
:10333C000023C366436730BDDFFEFFFFFEFFFFEFD8
:10334C00704710B5806AFDF718FB10BD7047000080
:10335C00F7B50168C24DCB6904000A6888682B4236
:10336C0010D120252B4200D19AE0802676051540FD
:10337C000640354300D193E0636F2000002B00D052
:10338C0083E083E0B74D0540AC466646B64D15402C
:10339C00354300D184E001252B4207D0D60505D555
:1033AC0026000D62903637683D43356025000226B5
:1033BC0090350195334207D0C50705D5019D0E62A6
:1033CC002F68B6193E432E600426334209D0C50738
:1033DC0007D527000E6290373E68350002262E4333
:1033EC003E60082633420AD02027654617402F43FB
:1033FC0005D027000E6290373D682E433E60802733
:10340C0026003F0190363B4206D0550104D50F6291
:10341C0020213768394331603168002936D02021AA
:10342C000B420AD01140802252051040014304D0B7
:10343C00636F002B01D0200098472268019B402726
:10344C001B68966828223E40134020001E4322D061
:10345C00FFF744FF23689B683B4218D0EFF31081C1
:10346C00012383F31088250004CD9368BB4393603C
:10347C0081F31088E86F002809D07C4B8363FEF73A
:10348C0091FC002802D0E86F836B9847F7BD2000B1
:10349C00FDF773FAFAE7FDF770FA019B1E60F5E78A
:1034AC00E56E012D00D0A3E01026334200D19FE041
:1034BC00324200D19CE00E62896823004022080051
:1034CC005C331B88104011425DD0201DC16F0F680A
:1034DC00796889B200294CD099424AD223005E33D4
:1034EC001980396820230F001F400197194232D1EF
:1034FC00EFF3108785F3108821685D4E0968314021
:10350C002668316087F31088EFF3108C85F31088F0
:10351C002768B968A943B9608CF31088EFF3108C55
:10352C0085F310882768B9689143B9608CF31088CB
:10353C0022008C321360019BE366EFF3108185F35C
:10354C00108822680F351368AB43136081F3108821
:10355C00C06FFEF7EFFB02232200236723005C32CF
:10356C005E331B881188C91A89B22000FFF7EEFE62
:10357C008CE7994200D089E73B689B0600D485E72D
:10358C0002232367F1E722005E321188128889B288
:10359C00002A00D17AE7591A89B2002900D175E7BF
:1035AC00EFF3108785F310882268324E136833408E
:1035BC00136087F31088EFF3108785F31088226867
:1035CC002D4E93683340936087F31088230020229C
:1035DC008C331A60E0666067EFF3108085F3108817
:1035EC00102522681368AB43136080F31088C7E77B
:1035FC0080256D032B4206D0460204D520000D62B7
:10360C00FFF700FE42E780210B4207D080252D04F6
:10361C0011402840084301D0A36FAEE640210B4275
:10362C0016D00A4214D0EFF31080012383F31088D4
:10363C00226813688B43136080F3108823002022C8
:10364C0088331A6000232000A367FFF779FE1DE77B
:10365C00190213D5510011D52000FFF7D5FD15E740
:10366C000F08000001000010200100044F33000877
:10367C00FFFEFFFFDFFEFFFFFEFFFFEFDB0100D4CD
:10368C0004E7002A00DB01E72000FFF7BCFDFDE6A4
:10369C0001008C310A68F8B50368222A60D1020057
:1036AC0060325B6A12881340826D13700200836D66
:1036BC005E32013383651388013B9BB21380138800
:1036CC009CB2002B48D1EFF31086013383F31088A2
:1036DC000568264F2A683A402A6086F31088EFF373
:1036EC00108683F310880568AA689A43AA6086F34B
:1036FC00108820220A6002681D49446704678A42C8
:10370C0010D01C498A420DD0526812020AD5EFF330
:10371C00108183F310880268174C136823401360E0
:10372C0081F31088C36E012B17D10022C266EFF310
:10373C00108483F3108801680F330A689A430A6077
:10374C0084F310880268D169194200D01362030017
:10375C005C331988FFF7FAFDF8BDFDF70AF9FBE7B2
:10376C00082299690A439A61F6E7C046DFFEFFFF1B
:10377C000080004000840040FFFFFFFB02008C3201
:10378C001168F8B5036822295FD104006034596AC6
:10379C002488836D214019800100023383655E31DA
:1037AC000B88013B9BB20B800B889CB2002B48D141
:1037BC00EFF31086013383F310880568254F2968D1
:1037CC003940296086F31088EFF3108683F3108854
:1037DC000568A9689943A96086F3108820211160B7
:1037EC0002681D49446704678A4210D01B498A420B
:1037FC000DD0526812020AD5EFF3108183F31088B2
:10380C000268174C13682340136081F31088C36E51
:10381C00012B17D10022C266EFF3108483F31088BA
:10382C0001680F330A689A430A6084F310880268AF
:10383C00D169194200D0136203005C331988FFF779
:10384C0085FDF8BDFDF795F8FBE7082299690A4359
:10385C009A61F6E7DFFEFFFF008000400084004025
:10386C00FFFFFFFBF0B5036885B0DD691A689E6841
:10387C00029202008C3212680400222A00D0CEE0A0
:10388C00030060331B880193030068331B88039388
:10389C00039B002B00D198E020231D4200D194E023
:1038AC002368019A5B6A1340A26D13702200A36D0A
:1038BC005E320133A3651388013B9BB2138007234F
:1038CC002268D5691D422DD0063B1D4208D00299B5
:1038DC00C90505D5210013629031086803430B60BC
:1038EC0002231D4208D0F10706D521001362903146
:1038FC000868DB1803430B6004231D4208D0F10752
:10390C0006D51362220090321168023B0B43136000
:10391C00270090373B68002B04D02000FDF72DF8D2
:10392C0000233B6023005E331B8899B2002BAFD180
:10393C00EFF31085013383F3108820683A4E026848
:10394C003240026085F31088EFF3108583F3108802
:10395C002068364E82683240826085F310882200DF
:10396C0020208C32106061672167226830498A42BE
:10397C0010D030498A420DD0526812020AD5EFF3AA
:10398C00108183F3108822682B481368034013605E
:10399C0081F31088E36E012B3DD10022E266EFF338
:1039AC00108083F3108821680F330A689A430A60E9
:1039BC0080F310882268D169194200D01362230069
:1039CC005C3320001988FFF7C1FC23005E331B8891
:1039DC009AB2002B1DD0230068331B88934218D950
:1039EC00EFF31080012282F310882168134D8B684D
:1039FC002B408B6080F31088114B6367EFF31081C1
:103A0C0082F310882023226810680343136081F32B
:103A1C00108805B0F0BD2000FCF7ABFFD5E70822FD
:103A2C0099690A439A61F4E7FFFEFFFFFEFFFFEF7F
:103A3C000080004000840040FFFFFFFBFFFFFFEF12
:103A4C009D360008F0B5036885B0DD691A689E687C
:103A5C00029202008C3212680400222A00D0CCE0C0
:103A6C00030060331B880193030068331B880393A6
:103A7C00039B002B00D196E020231D4200D192E045
:103A8C0023680198596AA26D01401180210002320D
:103A9C00A2655E310A88013A92B20A800722DD697A
:103AAC0015422DD0063A154208D00299C90505D504
:103ABC0021001A629031086802430A600222154202
:103ACC0008D0F10706D521001A62903108689218C7
:103ADC0002430A600422154208D0F10706D51A6287
:103AEC0022000223903211680B4313602700903799
:103AFC003B68002B04D02000FCF73FFF00233B6009
:103B0C0023005E331B8899B2002BB1D1EFF31085E3
:103B1C00013383F3108820683A4E02683240026009
:103B2C0085F31088EFF3108583F310882068364EE8
:103B3C0082683240826085F31088220020208C320B
:103B4C00106061672167226830498A4210D0304981
:103B5C008A420DD0526812020AD5EFF3108183F31A
:103B6C00108822682B4813680340136081F3108877
:103B7C00E36E012B3DD10022E266EFF3108083F35C
:103B8C00108821680F330A689A430A6080F3108802
:103B9C002268D169194200D0136223005C332000E3
:103BAC001988FFF7D3FB23005E331B889AB2002BD6
:103BBC001DD0230068331B88934218D9EFF3108073
:103BCC00012282F310882168134D8B682B408B6087
:103BDC0080F31088114B6367EFF3108182F3108828
:103BEC002023226810680343136081F3108805B00A
:103BFC00F0BD2000FCF7BDFED5E7082299690A4309
:103C0C009A61F4E7FFFEFFFFFEFFFFEF008000402C
:103C1C0000840040FFFFFFFBFFFFFFEF8937000828
:103C2C009030006870470000F8B504002569A16861
:103C3C00036829436569C269294318689E4D11437D
:103C4C0028400143196059689C48A5690140E06807
:103C5C0001439B485960834204D09A498B4201D05E
:103C6C00216A0D439968984E314029430F2599607C
:103C7C00D96AA943656A2943D96294498B4216D102
:103C8C000321934B00205B6D0B40013B9149022BB0
:103C9C0015D980231B029A4200D0A7E0082821D80E
:103CAC00FCF72AFADD20A220D0202020E2008A494D
:103CBC008B4206D10C21864B5B6D0B408749C85C4F
:103CCC00E7E787498B4217D130208149496D014084
:103CDC00202900D1B9E007D8002900D1E2E0102951
:103CEC0000D1ABE001204BE03029FBD18020000259
:103CFC00824200D08AE0B7E07A498B4200D1AAE038
:103D0C0079498B4200D1A6E078498B4200D1A2E0E0
:103D1C00834217D1C02280216D4B12015B6D0901CA
:103D2C0013408B4232D008D8002B24D08022D200F2
:103D3C009342D7D1FFF738F91FE09342D2D18026B6
:103D4C00360224E05F4901208B4219D1C020802526
:103D5C005F498000496DAD000140A94216D007D8DB
:103D6C00002900D19EE080235B009942E2D0B9E7A4
:103D7C008142E4D0B6E7FFF70BFA061E07D100200C
:103D8C005B4BA36600236367A367F8BD594E636A58
:103D9C00594A5B009F5A30003900FCF7C1F90323E4
:103DAC0065686B4383429DD82B0383429AD30023CF
:103DBC003A0030001900FCF741FB0027060E0B02FD
:103DCC00334302026E0892197B41100019002A003D
:103DDC003B00FCF733FB494BC218494B9A4200D9C4
:103DEC0080E72368D860CAE7424A3DE0082800D93A
:103DFC0078E7FCF78BF91B0077FF2E0077FF20008C
:103E0C0077FF77FF77FF090080200002636A3A4A48
:103E1C005B00995AFCF784F965686B08C018290097
:103E2C00FCF77EF90200374B103AD7E7FFF7B0F9F1
:103E3C000028A4D0EAE7FFF7B7F8F9E780231B02C4
:103E4C009A42F8D1FFF7B0F80BE080231B029A429C
:103E5C00CAD02848DAE780231B029A42E6D1FFF742
:103E6C0097F9021E00D18AE7636A23495B001000B0
:103E7C00595AFCF755F9656840006B08C0182900C1
:103E8C00FCF74EF902001F4B103A9A4200D929E771
:103E9C000F23020000079A4393B2400F2268184385
:103EAC00D0606CE707498B4200D164E78023002087
:103EBC001B029A429DD1D2E7F369FFCFFFCFFFFFE0
:103ECC000080004000840040FFF4FF1100380140E6
:103EDC000010024070460008004400407346000881
:103EEC0000480040004C004000500040003C0140A5
:103EFC00010001000024F4008046000800FDFFFFD3
:103F0C00FFFC0F00EFFF0000836A30B51A0706D5DF
:103F1C000168284C4A682240846B22434A60DA07C5
:103F2C0006D50168244C4A682240C46A22434A6080
:103F3C009A0706D50168214C4A682240046B22433B
:103F4C004A605A0706D501681D4C4A682240446BEA
:103F5C0022434A60DA0606D501681A4C8A68224068
:103F6C00C46B22438A609A0606D50168164C8A688F
:103F7C002240046C22438A605A0610D50168134D06
:103F8C004A68446C2A4022434A608022520394427D
:103F9C0005D14A680E4C2240846C22434A601B06B1
:103FAC0006D502680B4953680B40C16C0B43536038
:103FBC0030BDC046FF7FFFFFFFFFFDFFFFFFFEFF91
:103FCC00FFFFFBFFFFEFFFFFFFDFFFFFFFFFEFFF39
:103FDC00FFFF9FFFFFFFF7FFF7B504000D00170071
:103FEC0000932268D3692B405B1B59424B41BB4267
:103FFC0001D0002027E0089B0133F3D000F058FAE1
:10400C00009BC01A089B98422ED8002B2CD0042160
:10401C0023681A680A42E4D02A003C31403A8A43A9
:10402C00DFD0DA69082611003140019132420BD001
:10403C0020001E62FFF752F9230090331E6000230C
:10404C00012084342370FEBD8022D96912011142F3
:10405C00C7D01A622000FFF741F9230020229033C9
:10406C001A60019B843423700320ECE7F0B5070041
:10407C0087B0883705933B6804000D0016000220BA
:10408C00202B02D1002902D1012007B0F0BD002A5B
:10409C00FAD08023A2685B019A4204D12369002BD9
:1040AC0001D1CB07F0D42300002290331A602123D6
:1040BC003B6000F0FDF9230054331E8002331E8058
:1040CC0003938023A268002604905B019A4204D1DA
:1040DC002369B34201D12E001D00230056331B88E7
:1040EC009AB2002B0CD1059B200000934021049B1D
:1040FC00FFF772FF2023883423600028C5D00CE022
:10410C00059B0022009380212000049BFFF764FF95
:10411C00002804D02023883423600320B5E72268CC
:10412C00002D10D133880236DB05DB0D9362212282
:10413C003B6813409342A7D1039B039A1B88013B16
:10414C009BB21380C9E72B7801359362EFE700002F
:10415C000300F7B50027040090331F6000F0A8F9A6
:10416C002600236805001B6884361B071CD580219C
:10417C00284B3A000093890303002000FFF72CFF23
:10418C00B84211D0EFF31081012383F31088802003
:10419C00226813688343136081F3108820238834CA
:1041AC00236037700320FEBD270023688C371B6803
:1041BC005B0725D58021174B0022009320002B0094
:1041CC00C903FFF709FF00281AD0EFF31080012272
:1041DC0082F310882168104D0B682B400B6080F324
:1041EC001088EFF3108082F3108821688B6893435A
:1041FC008B6080F3108820233B6000233370D1E761
:10420C00220000202023883213603B60E066206788
:10421C003070C8E7FFFFFF01DFFEFFFF70B5041E23
:10422C0001D1012070BD050088352B68002B04D10D
:10423C00020084321370FDF7E5FC2423012122686F
:10424C002B6013688B431360A36A002B02D02000F1
:10425C00FFF75AFE2000FFF7E7FC0128E1D02368A6
:10426C0007495A6820000A402A215A609A688A43F2
:10427C009A60012219680A431A60FFF769FFD1E7B7
:10428C00FFB7FFFF030070B50024802581658168AE
:10429C005C331A805A806D0144670433A9424BD1B8
:1042AC000169A14246D13C49198003000021903399
:1042BC0019602231043B1960EFF31084012383F35E
:1042CC00108801688D682B438B6084F310888025DF
:1042DC008021466E84680369AD054901AE423DD12B
:1042EC00050068352D88954238D82C4A8C4203D16C
:1042FC002B4A002B00D0294A4267002B0BD0EFF33E
:10430C001081012383F310880268FF331468234360
:10431C00136081F31088EFF31081012383F310886D
:10432C00802302685B0590680343936081F31088D7
:10433C00002070BDFF21B7E7002904D101690029D5
:10434C00F8D07F21B0E780256D05A94204D1016921
:10435C000029F6D03F21A7E71C80A6E7114A8C4222
:10436C0003D1114A002B00D00E4A42670122002BC8
:10437C000AD0EFF3108182F31088902302685B005F
:10438C00106803431360D1E7EFF3108182F31088B8
:10439C00026820231068F4E7FF0100007138000860
:1043AC00513A00089D3600088937000803008C3309
:1043BC0070B51C680223202C2BD1013B002928D07E
:1043CC00002A26D0802384685B019C4205D10369B6
:1043DC00002B02D1013319421BD100230E4CC366B2
:1043EC000368A34212D00D4CA3420FD05B681B0292
:1043FC000CD5EFF31085012383F310888023046818
:10440C00DB0426683343236085F31088FFF73AFFFB
:10441C000300180070BDC0460080004000840040BE
:10442C0070B5104B05001978002901D1012070BD21
:10443C00FA208000FBF774FE0B4B01001868FBF7A9
:10444C006FFEFDF75DFC041EF0D1032DEED80200CB
:10445C00012029004042FDF71DFC044B20001D608B
:10446C00E5E7C04604000020000000200800002002
:10447C008023084A5B00116810B50B4303201360BE
:10448C00FFF7CEFF041E03D1FDF75AFB200010BD31
:10449C000124FBE700200240034A044B11681B78FF
:1044AC005B1813607047C0465402002004000020C3
:1044BC00014B18687047C04654020020014B186825
:1044CC007047C0469075FF1F014B18687047C04677
:1044DC009475FF1F014B18687047C0469875FF1FF5
:1044EC00034A044913680B40034313607047C046EA
:1044FC0000000140FFF9FFFF0D488546FDF74AFB20
:10450C000C480D490D4A002302E0D458C450043322
:10451C00C4188C42F9D30A4A0A4C002301E01360F8
:10452C000432A242FBD300F011F8FCF70AFAFEE7C2
:10453C0000400220000000200C000020A8460008CB
:10454C000C00002058020020FEE7000070B5002689
:10455C000C4D0D4C641BA410A64209D1002600F092
:10456C002BF80A4D0A4C641BA410A64205D170BD51
:10457C00B300EB5898470136EEE7B300EB58984779
:10458C000136F2E7A0460008A0460008A046000845
:10459C00A4460008002310B59A4200D110BDCC5C93
:1045AC00C4540133F8E703008218934200D17047DA
:1045BC0019700133F9E70000F8B5C046F8BC08BC27
:1045CC009E467047F8B5C046F8BC08BC9E4670477E
:1045DC0000000000411900082919000849190008B9
:1045EC00191900086368616E67652D746869732D0D
:1045FC006B65792100000000000000000000000045
:10460C00000000000000000000000000000000009E
:10461C000000000001000000020000000300000088
:10462C000400000006000000070000000800000065
:10463C000900000000000000000000000000000065
:10464C000000000001000000020000000300000058
:10465C000400000008040204080101010101010327
:10466C0007010000040208001010100410101002C2
:10467C0010101008010002000400060008000A00D7
:0C468C000C001000200040008000000125
:08469800F0BDFF7F01000000EE
:0446A000E500000829
:0446A400BD0000084D
:0C46A8000024F4000100000004000000E9
:0400000508004505A5
:00000001FF
