:020000040800F2
:10000000004002201D060008210A0008230A0008FB
:1000100000000000000000000000000000000000E0
:10002000000000000000000000000000250A000899
:100030000000000000000000270A0008290A00084C
:100040006D0600086D0600086D0600086D060008C4
:100050006D0600086D0600086D0600086D060008B4
:100060006D0600086D0600086D0600086D060008A4
:100070006D0600086D0600086D0600086D06000894
:100080006D0600086D0600086D0600086D06000884
:100090006D0600086D0600086D0600086D06000874
:1000A0006D0600086D0600086D060008310A00089C
:0C00B0006D0600086D0600086D060008D3
:1000BC0010B5064C2378002B07D1054B002B02D032
:1000CC00044800E000BF0123237010BD0C00002089
:1000DC0000000000244E0008044B10B5002B03D088
:1000EC000349044800E000BF10BDC04600000000FA
:1000FC0010000020244E0008002243088B4274D3C9
:10010C0003098B425FD3030A8B4244D3030B8B420C
:10011C0028D3030C8B420DD3FF22090212BA030C15
:10012C008B4202D31212090265D0030B8B4219D3F6
:10013C0000E0090AC30B8B4201D3CB03C01A524116
:10014C00830B8B4201D38B03C01A5241430B8B425E
:10015C0001D34B03C01A5241030B8B4201D30B0347
:10016C00C01A5241C30A8B4201D3CB02C01A52416E
:10017C00830A8B4201D38B02C01A5241430A8B4231
:10018C0001D34B02C01A5241030A8B4201D30B021A
:10019C00C01A5241CDD2C3098B4201D3CB01C01A34
:1001AC00524183098B4201D38B01C01A524143093E
:1001BC008B4201D34B01C01A524103098B4201D32C
:1001CC000B01C01A5241C3088B4201D3CB00C01A99
:1001DC00524183088B4201D38B00C01A5241430811
:1001EC008B4201D34B00C01A5241411A00D2014636
:1001FC00524110467047FFE701B5002000F0F0F8BF
:10020C0002BDC0460029F7D076E7704703460B4382
:10021C007FD4002243088B4274D303098B425FD3F3
:10022C00030A8B4244D3030B8B4228D3030C8B421F
:10023C000DD3FF22090212BA030C8B4202D3121205
:10024C00090265D0030B8B4219D300E0090AC30BDA
:10025C008B4201D3CB03C01A5241830B8B4201D387
:10026C008B03C01A5241430B8B4201D34B03C01A70
:10027C005241030B8B4201D30B03C01A5241C30AE8
:10028C008B4201D3CB02C01A5241830A8B4201D359
:10029C008B02C01A5241430A8B4201D34B02C01A43
:1002AC005241030A8B4201D30B02C01A5241CDD2E8
:1002BC00C3098B4201D3CB01C01A524183098B4233
:1002CC0001D38B01C01A524143098B4201D34B011C
:1002DC00C01A524103098B4201D30B01C01A52417F
:1002EC00C3088B4201D3CB00C01A524183088B4206
:1002FC0001D38B00C01A524143088B4201D34B00EF
:10030C00C01A5241411A00D2014652411046704760
:10031C005DE0CA0F00D04942031000D34042534065
:10032C0000229C4603098B422DD3030A8B4212D325
:10033C00FC22890112BA030A8B420CD38901921157
:10034C008B4208D3890192118B4204D389013AD094
:10035C00921100E08909C3098B4201D3CB01C01A69
:10036C00524183098B4201D38B01C01A524143097C
:10037C008B4201D34B01C01A524103098B4201D36A
:10038C000B01C01A5241C3088B4201D3CB00C01AD7
:10039C00524183088B4201D38B00C01A5241D9D2EF
:1003AC0043088B4201D34B00C01A5241411A00D270
:1003BC000146634652415B10104601D34042002B6C
:1003CC0000D54942704763465B1000D3404201B5EB
:1003DC00002000F005F802BD0029F8D016E77047A0
:1003EC007047C046002B11D1002A0FD1002900D133
:1003FC00002802D00021C943080007B4024802A11A
:10040C004018029003BDC046D9FFFFFF03B46846F5
:10041C0001B5029800F006F8019B9E4602B00CBC98
:10042C007047C046F0B557464E464546DE46E0B5E9
:10043C0004000D009246994683B08B4230D82DD0E3
:10044C004946504600F0BAF829000600200000F09A
:10045C00B5F8331A9846203B9B4633D45A4653463C
:10046C00934042461F00534693401E00AF423AD879
:10047C00AF4200D178E05B46A41BBD41002B00DAF3
:10048C0075E0002200230092019301235A46934009
:10049C000193012342469340009328E08242CFD936
:1004AC0000220023009201930C9B002B01D01C60B6
:1004BC005D600098019903B0F0BCBB46B246A946FA
:1004CC00A046F0BD424620239B1A5246DA404146D4
:1004DC0013004A468A40170042461F435346934036
:1004EC001E00AF42C4D90022002300920193434660
:1004FC00002BD9D0FB0772081A4346467B080EE046
:10050C00AB4201D1A2420CD8A41A9D41012024195E
:10051C006D410021013E24184D41002E06D0AB4206
:10052C00EED9013E24196D41002EF8D100980199A5
:10053C005B4600196941002B24DB2B005A464446CC
:10054C00D3402A00E2401C005B461500002B2ADB3E
:10055C0026009E40330026004746BE403200801ADB
:10056C009941009001919FE7A342BCD883E7424692
:10057C00202300219B1A0022009101920122DA40D3
:10058C00019286E7424620239B1A2A0046469A404F
:10059C002300F340444613432A00E2401C005B4610
:1005AC001500002BD4DA42462F002023260097405A
:1005BC009B1ADE403B003343CDE7C04610B5002903
:1005CC0003D100F007F8203002E0080000F002F838
:1005DC0010BDC0461C2101231B04984201D3000C02
:1005EC0010391B0A984201D3000A08391B0998429A
:1005FC0001D30009043902A2105C40187047C046B0
:10060C0004030202010101010000000000000000CF
:10061C000D48854600F00EFA0C480D490D4A002392
:10062C0002E0D458C4500433C4188C42F9D30A4A9B
:10063C000A4C002301E013600432A242FBD304F005
:10064C00B5FB00F06CF8FEE7004002200000002033
:10065C000C000020845100080C000020CC0300206A
:10066C00FEE710B502F000F910BD000082B0094A97
:10067C00516B022319435163526B13400193019B3D
:10068C00054BB02292019A61802252019A6272B695
:10069C00FEE7C046001002400004005000B595B0C3
:1006AC003C22002105A804F0AEFB1022002101A879
:1006BC0004F0A9FB8020800002F054FD0A2305936E
:1006CC00F63308930023099340220A923F3A0B9287
:1006DC0001320D920E920F930833109380239B02DC
:1006EC00119380239B04129380239B05139305A8DD
:1006FC0002F062FD00280ED107230193053B029303
:10070C00002303930493022101A803F03DF8002871
:10071C0003D115B000BDFFF7A9FFFFF7A7FF10B578
:10072C0002F0D0F8FFF7BAFF00F076F800F00AF804
:10073C0000F0D2F800F0B6F801F0CEFF02F028F885
:10074C00FCE7000070B51048104B036000234360B9
:10075C008360C36001210174417483740825456171
:10076C00022282610D24C461026245628262C4620B
:10077C00026341638363C36302F044FA002800D12F
:10078C0070BDFFF773FFFBE72800002000640040FA
:10079C0010B59AB004001422002115A804F033FB04
:1007AC004C22002102A804F02EFB2268174B9A421F
:1007BC0001D01AB010BD80239B04029302A803F051
:1007CC00C3F800281FD1124BD96B80204001014384
:1007DC00D963DA6B02400092009A596B02221143E2
:1007EC0059635B6B13400193019BC0239B001593D2
:1007FC0016920023179303331893199315A90548E0
:10080C0002F0A4FBD5E7FFF731FFDCE70064004002
:10081C000010024000040050F0B589B014220021F1
:10082C0003A804F0F0FA1D4B5A6B012422435A63BF
:10083C005A6B22400192019A596B0222114359635F
:10084C005B6B1A400292029BA027FF05012201213B
:10085C00380002F044FCB021114E01228901300015
:10086C0002F03DFC802100224901300002F037FCEF
:10087C000394049400250595069503A9380002F00D
:10088C0065FBF0239B01039304940595069503A93E
:10089C00300002F05BFB09B0F0BDC0460010024016
:1008AC000004005010B50948094B03600323436052
:1008BC00084BC360F423FF33836002F017FC00285D
:1008CC0000D110BDFFF7D2FEFBE7C0468C00002024
:1008DC0000300040FF0F000010B51948194B0360A1
:1008EC0096239B01436000238360C36003610C2249
:1008FC0042618361C36103624362836203F092FECF
:10090C00002811D100210E4803F010FF00280ED151
:10091C0000210B4803F030FF00280BD1084803F0EE
:10092C00E5FE002809D110BDFFF7A0FEEAE7FFF7AE
:10093C009DFEEDE7FFF79AFEF0E7FFF797FEF2E773
:10094C009C0000200038014010B59AB0040014221D
:10095C00002115A804F057FA4C22002102A804F03B
:10096C0052FA22681B4B9A4201D01AB010BD0123D7
:10097C00029302A802F0E8FF002828D1164B196C4C
:10098C008020C001014319641A6C02400092009A45
:10099C00596B0122114359635B6B13400193019B0B
:1009AC00C023DB0015930223169317920023189390
:1009BC001992A02015A9C00502F0C8FA0022012145
:1009CC001B2001F0D5FF1B2002F002F8CDE7FFF74A
:1009DC004DFED3E7003801400010024000B583B053
:1009EC000B4B196C012211431964196C0A400092CB
:1009FC00009ADA6B802149050A43DA63DB6B0B4002
:100A0C000193019BC020C00001F0A6FF03B000BD04
:100A1C0000100240FEE7FEE77047704710B501F08A
:100A2C0065FF10BD10B5024803F05AF910BDC04661
:100A3C009C0000207047F0B520235B42D31811D4E2
:100A4C0004009C400500954056423F233340203B18
:100A5C0011D40800D84052423F231A40D1402843B9
:100A6C002143F0BD20239B1A0400DC4023000C0022
:100A7C0094401C43E6E756423F2333402026F61AA7
:100A8C000F00B740D8403843E5E7F0B50600002327
:100A9C000020002108E020252D1B1700EF403D0011
:100AAC00A240104329430133072B09D8F25CDC0028
:100ABC0020256D426519EED41700AF403D00EFE7DD
:100ACC00F0BD70B500210AE020252D1B1E00AE40A4
:100ADC0035001600E64034002C43445401310729FC
:100AEC0007D8CC0020256D426519EDD41C00EC40D4
:100AFC00F3E770BD30B50023002404E0C25CCD5C8C
:100B0C006A4014430133072BF8D963425C41E0B2CD
:100B1C0030BD0170090A4170704701700B0A4370B7
:100B2C000B0C8370090EC17070470378407800027B
:100B3C0018437047030000785A78120210439A78D1
:100B4C0012041043DB781B061843704710B50C00D9
:100B5C00022800D9002093009B185B019B1A5901B5
:100B6C005B189B009B1A5901CB1A1902C91A490030
:100B7C008918C900891861400A0C4A40064951433A
:100B8C00CA0B4A4001211140013140180321FFF7E3
:100B9C0039FBC8B210BDC0462D35EB7F30B5050012
:100BAC000C0000210B480DE0400080B20133072BF4
:100BBC0007D802B2002AF7DA400082B20648504049
:100BCC00F4E70131A14204D26B5C1B0258400023B4
:100BDC00EDE730BDFFFF000021100000F0B5DE4650
:100BEC0057464E464546E0B59BB0060017919346D6
:100BFC00FFF74BFF05000C0030000830FFF745FFF6
:100C0C000022002302920393714B6B400293714BB1
:100C1C006340039300220023049205936E4B4340E0
:100C2C0004936E4B4B4005930022002300920193DA
:100C3C006B4B6B4000936B4B634001936A4B43408F
:100C4C0015936A4B4B4016935B461B069946002343
:100C5C0098461893DA464B4619938CE01798404403
:100C6C00FFF713FF83468946159B43400693169B5B
:100C7C004B400793029C039D0498059924184D4101
:100C8C000D22FFF7D8FE60400890694009912022A0
:100C9C0020002900FFF7CFFE06000F00009C019DED
:100CAC000698079924184D411022FFF7C4FE6040A6
:100CBC000A9069400B910A980B9936184F411522EE
:100CCC00FFF7B9FE70400C9079400D910898099986
:100CDC0024184D411122FFF7AEFE60400E90694082
:100CEC000F91202220002900FFF7A5FE04000D0023
:100CFC000E980F9936184F410D22FFF79CFE70404D
:100D0C00109079401191202230003900FFF793FEAA
:100D1C0006000F000C980D9924184D411022FFF776
:100D2C008AFE6040129069401391129813993618FC
:100D3C004F411522FFF77FFE7040159079401691B8
:100D4C001098119924184D411122FFF774FE604040
:100D5C00049069400591202220002900FFF76BFECA
:100D6C00009001915B46734002934B467B4003938A
:100D7C0008239C46E044534642469B1A072B00D955
:100D8C006CE7D346189B9A46199B99460021464618
:100D9C00179B9C465F46D0464C460AE02025AD1A70
:100DAC001800E8400500934042461A4390462C43F5
:100DBC0001317318BB421BD26246D35CCA0020259A
:100DCC006D425519EAD41800A8400500EBE7C0465F
:100DDC0075657370656D6F736D6F646E61726F6442
:100DEC006172656E6567796C73657479626465743C
:100DFC00A146159B424653401C00169B4A46534045
:100E0C001D00029A039B0498059912184B410492F9
:100E1C0005930D22FFF70FFE0E0000220023029215
:100E2C000393049A059B1100414002911000190094
:100E3C00734003932022FFF7FEFD04900591009A66
:100E4C00019B12196B4116001F0010222000290073
:100E5C00FFF7F1FD32003B004640340016004B40DA
:100E6C001D000499059A09196A41009101921522F5
:100E7C0020001900FFF7DFFD0024002504940595E0
:100E8C00009B019C1D0045400495200048400590A6
:100E9C0032003B000298039912184B4116001F00B8
:100EAC001122FFF7C8FD3200424014003A004A40BC
:100EBC001500202230003900FFF7BDFD0290039190
:100ECC00009E019F36196F410D2220002900FFF76B
:100EDC00B2FD0023002400930194704000907940EF
:100EEC000191202230003900FFF7A5FD06000F000C
:100EFC00029A039B0498059912184B4114001D008B
:100F0C001022FFF798FD0494059544402000059CA1
:100F1C004C40210036184F411522FFF78CFD002361
:100F2C0000240293039434004440029406960797DD
:100F3C003B004B400393049A059B009801991218AF
:100F4C004B4114001D001122FFF775FD22002B00F0
:100F5C004440260014004B401F0020222000290092
:100F6C00FFF769FD4446069D6C4022004C46079DE8
:100F7C006C4023000024002500940195FF3444406C
:100F8C000094019192197B4114001D000D22300038
:100F9C003900FFF750FD0022002304920593260030
:100FAC00464004962B004B4005932032200029002C
:100FBC00FFF741FD06900791009A019B0298039957
:100FCC0012184B4114001D001022FFF734FD2200B3
:100FDC002B0044402600029203934B401F000699BD
:100FEC00079A89197A410C00150015223000190056
:100FFC00FFF721FD002200230092019322002B0019
:10100C0044400094069207934B400193029A039B31
:10101C000498059912184B4116001F001122FFF776
:10102C000AFD32003B004640340016004B401D00C8
:10103C00202230003900FFF7FEFC02900391069944
:10104C00079A09196A410E0017000D222000290089
:10105C00FFF7F1FC00230024049305943400464070
:10106C0004963B004B400593202220003900FFF7EB
:10107C00E2FC06900791029A039B009801991218C2
:10108C004B4114001D001022FFF7D5FC22002B0051
:10109C0044402600029203934B401F000699079A86
:1010AC0089197A410C001500152230001900FFF740
:1010BC00C2FC002200230092019322002B0044402A
:1010CC000094069207934B400193029A039B049859
:1010DC00059912184B4116001F001122FFF7ABFCAB
:1010EC0032003B004640340016004B401D002022CD
:1010FC0030003900FFF79FFC029003910699079A84
:10110C0009196A410E0017000D2220002900FFF773
:10111C0092FC00230024049305943400464004966A
:10112C003B004B400593202220003900FFF783FC45
:10113C0006900791029A039B0098019912184B4153
:10114C0014001D001022FFF776FC22002B004440F7
:10115C002600029203934B401F000699079A8919A7
:10116C007A410C001500152230001900FFF763FCC2
:10117C00002200230092019322002B004440009493
:10118C00069207934B400193029A039B049805998E
:10119C0012184B4116001F001122FFF74CFC3200B5
:1011AC003B004640340016004B401D00202230000E
:1011BC003900FFF740FC06000F000699079A091941
:1011CC006A41049105920D2220002900FFF733FC9F
:1011DC000022002302920393049B059C1A004240B8
:1011EC00029222004A400392202218002100FFF7AD
:1011FC0022FC0490059134003D00009801992418BC
:10120C004D411022FFF717FC02000B00624010004A
:10121C006B401900049E059F36184F411522FFF7AD
:10122C000AFC7040834679408A4602980399241838
:10123C004D411122FFF7FFFB604081466940884613
:10124C00202220002900FFF7F6FB4A467240434655
:10125C007B40504059405B465840534659401BB068
:10126C00F0BCBB46B246A946A046F0BDF8B5CE468A
:10127C00474680B504001500984600284ED0002A39
:10128C004ED0002B4ED0167C202E4DD813239946D1
:10129C00B14437001D378F4201D9002745E03F3359
:1012AC00037001334370513B83701378C3705188C2
:1012BC000430FFF72EFCA988A01DFFF72AFCAB79A0
:1012CC002372EB796372A96820000A30FFF725FCC2
:1012DC00E96820000E30FFF720FC2A7CA274002A5B
:1012EC0015D149462000FFF759FC01004B46E01888
:1012FC00FFF70FFC350015352A0021004046FFF79B
:10130C006DFC02000B006019FFF7DBFB0DE0290000
:10131C0011312000133003F06DFDE2E7002704E0EB
:10132C00002702E0002700E000273800C0BCB946C7
:10133C00B046F8BDF0B5CE46474680B583B0060042
:10134C000C001D00002862D0002962D0002B62D056
:10135C001C2A62D90B78522B65D14B78532B64D154
:10136C008878022863D18F7C202F57D8403B984631
:10137C00B8443B001D339A4202D04FD201384DE0A5
:10138C0041462000FFF70AFC81464346E018FFF770
:10139C00CCFB484501D0052040E015239846B844C5
:1013AC00424621002800FFF719FC02000B0068469A
:1013BC00FFF787FB4346E1186846FFF79BFB0028C5
:1013CC0037D0E3783370201DFFF7AFFB7080A01D82
:1013DC00FFF7ABFBB080237AB371637AF371200013
:1013EC000A30FFF7A7FBB06020000E30FFF7A2FB1E
:1013FC00F0603774002F01D138000FE0300011304D
:10140C00210013313A0003F0F5FC002006E0022025
:10141C0004E0022002E0022000E0012003B0C0BC86
:10142C00B946B046F0BD0320F8E70320F6E70420E8
:10143C00F4E70620F2E7002804D000233D22835471
:10144C0001328354704770B504001000002C4AD050
:10145C00002A4AD0002B4AD03D22A55C002D09D190
:10146C00522902D00025280070BD6A1C3D23E2548D
:10147C006155F8E7012D10D03C2D19D86A1CD2B259
:10148C003D26A2556155132A17D03E21615C0029D7
:10149C002FD08A421DD00025E5E75329ECD05229E4
:1014AC0000D000253D23E554153323700025DAE7E1
:1014BC002000FFF7C0FF0025D5E7A17C202903D829
:1014CC001D313E256155E0E72000FFF7B4FF0025F4
:1014DC00C9E72100FFF72EFF43425841C5B2200057
:1014EC00FFF7A9FFBFE70025BDE70025BBE70025F7
:1014FC00B9E70025B7E710B5031E27D00078002800
:10150C0011D05C688C4223D19968914211D38A1A0C
:10151C001F2A1FD8012191400A00D9680A421BD109
:10152C000A43DA6004E00130187059609A60D860A0
:10153C0010BD511A1F2905D8DC688C4021000124EC
:10154C00214300E00121D9609A60F1E70020EFE728
:10155C000020EDE70020EBE70020E9E7002804D0AD
:10156C000023037043608360C360704770B5040050
:10157C000D00012303700B78437049880230FFF78C
:10158C00C8FA2B7923716B79002B0BD00123AA7924
:10159C00002A09D00222134363712989A01DFFF789
:1015AC00B8FA70BD0023F2E70022F4E770B504002E
:1015BC001500FFF7B2FA201D2900FFF7AEFA70BD37
:1015CC00411A002091424041C0B27047401AC043BA
:1015DC00C00F704770B5040015001E005923C1548C
:1015EC000133C2540A0000210068236998472A007D
:1015FC000121206823699847636920683200012122
:10160C00984770BD10B504005223C25A1143802272
:10161C001143C1520A330122C254436B836300232A
:10162C0055328354023204218154033283540022F4
:10163C0000210068636998470123002200212000E3
:10164C00FFF7C8FF10BD10B5040008005C23E35C75
:10165C00002B0AD15E33E35C002B06D0FA22520039
:10166C00216CFFF7ADFF002800D110BD0421200034
:10167C00FFF7C8FFF9E70378013BDBB2012B01D977
:10168C0000207047037C002B04D0437C012B03D03B
:10169C000020F6E70020F4E70120F2E70378022BA4
:1016AC0003D0032B09D000207047027C002AF8D00D
:1016BC00407C43425841C0B2F6E7037C002B04D077
:1016CC00437C002B03D00020EEE70020ECE7012048
:1016DC00EAE710B55C23C35C002B1FD15433C35A0B
:1016EC00002B1BD15633C35C022B02D8013356227C
:1016FC0083545623C35C022B10D95222835A2021C7
:10170C008B4383525B23C35C002B02D15833503A7A
:10171C00C254002301220121FFF75CFF10BD10B55C
:10172C004163002356228354C364A030FFF716FF95
:10173C0010BDF0B5C64600B59EB004000F00904633
:10174C001E0011AD34220021280003F05CFB2F7029
:10175C0002236B80013BAB805633E35CEB71236B54
:10176C005A1C22631393E36A14932E74002E08D030
:10177C004346002B05D0320041465520684403F007
:10178C0039FB23001C3311AA3D2101A8FFF76EFD84
:10179C00021E05D001A92068A3689847051E05D133
:1017AC00002528001EB080BCB846F0BD11AB139AC2
:1017BC001499D879FFF7CAF95723E054F1E710B51B
:1017CC0082B004006B4619705823C35C69464B7099
:1017DC005923C35C002B17D001235A21615C0029CB
:1017EC0014D002210B4369468B705223E35CCB70FF
:1017FC00110001A8FFF791F908236A460421200083
:10180C00FFF797FF02B010BD0023E6E70021E9E7E0
:10181C00F8B504000D0017001E00B022002103F0E3
:10182C00F2FA20000ECD0EC00ECD0EC02B68036058
:10183C0004301022390003F0DDFAE6620123236341
:10184C0020005F30FFF7F7FD00220021206863695C
:10185C0098470123002200212000FFF7BBFEF8BDB2
:10186C0010B5002A08D15422835A8B438352023A72
:10187C00835A8B43835210BD5422835A0B43835299
:10188C00FFF7C0FEF7E7000030B583B004000A0094
:10189C00416B6846FFF78AFE08236A4606492068B2
:1018AC00E568A847002801D003B030BD01224021D3
:1018BC002000FFF7D5FFF7E71105000070B582B0E7
:1018CC00040015000B7C072B0BD95C23C35C002B8D
:1018DC0007D15433C35A002B03D15833C35C022BAA
:1018EC0001D002B070BD15310800FFF723F90600D6
:1018FC00E36C8342F5D2E0645022A35A0133A35225
:10190C0058234D3AE2540333023AE2546435A56449
:10191C00002120686369984731002000FFF7B4FF6D
:10192C005C23E35C002BDCD131006846FFF7F5F853
:10193C005023E15A01A8FFF7ECF85723E35C6A4601
:10194C0093710123D371073305492068E568A847D3
:10195C000028C6D1012240212000FFF781FFC0E7FB
:10196C0012050000F0B58FB0040003001C335F308B
:10197C0001AAFFF768FD002800D1B7E001AB5B8836
:10198C00012B00D0B2E001AB9B88022B03D06D4A37
:10199C00934200D0AAE020686368984705000100D4
:1019AC002000FFF750FE01AB1E78731EDBB2012B3B
:1019BC0071D9032E00D099E001AB1B7C082B00D011
:1019CC0094E001AB5B7C022B02D0002B00D08DE0AD
:1019DC00A023E75C002F03D0049B626B93420CD0D6
:1019EC0001A8FFF75BFE00285ED1012E7ED1002FEF
:1019FC006FD104992000FFF792FEA023E35C002B2B
:101A0C0009D0A823E358039A9A4204D801A8FFF7F7
:101A1C0045FE00286AD0039A04992000A030FFF7F5
:101A2C006AFD002862D025645E230122E25401A8DD
:101A3C00FFF721FE002807D101AB1B78032B04D143
:101A4C0001AB5B7C022B00D1E56301AEF079039A0C
:101A5C000499FFF77BF85723E0543000FFF71EFE84
:101A6C0000283BD101AB1E78012E41D001A8FFF715
:101A7C0002FE00285BD1032E34D101AB1B7C002B62
:101A8C0030D001AB5B7C022B2CD12A0001A92000A9
:101A9C00FFF714FF26E001AB1B7C0C2B89D101ABAB
:101AAC005B7C012B85D893E702212000FFF7AAFD70
:101ABC0001ADE879039A0499FFF748F85723E054ED
:101ACC00AB79DB0712D5AA6829782000FFF777FEDF
:101ADC000CE002212000FFF795FD8AE7022120008F
:101AEC00FFF790FD01AB9B79DB0724D40FB0F0BD61
:101AFC001B7C002BBAD001AB5B7C002BB6D15A33CC
:101B0C00E35A002B0ED156230022E2540633E35C39
:101B1C009342E7D101215823E1540B002000FFF739
:101B2C0059FDDFE702212000FFF76CFDEBE72000F9
:101B3C00FFF7CFFDD6E701AB039A19782000FFF72A
:101B4C003EFED3E7FFFF000030B587B004005823FA
:101B5C00C35C03AA13705221415A51805E22825CED
:101B6C00002A07D05C22825C002A03D1023BDBB244
:101B7C00012B1AD95723E35C03A90B715923E35C9E
:101B8C004B715A23E35C8B715023E35A0B8101A8F0
:101B9C00FFF7ECFCA221082301AAC9002068E56824
:101BAC00A847002806D007B030BD0123194303AB6A
:101BBC005980DFE7012240212000FFF751FEF2E7B8
:101BCC0070B5040000686368984705005D23E35C0A
:101BDC00002B0FD15D330122E254013BE35C002B5F
:101BEC002FD058230332E254573B0022002120000F
:101BFC00FFF7F0FC29002000FFF725FD5B23E35CD9
:101C0C00002B13D0A16C2800FFF7E0FC00280DD0AE
:101C1C005B230022E25400212068636998475C230F
:101C2C00E35C002B02D158330222E2543222616C65
:101C3C002800FFF7C5FC00280DD1A3692068984740
:101C4C0070BD58230122E254573B00220121200091
:101C5C00FFF7C0FCCEE765642000FFF775FFECE7EB
:101C6C0010B5024801F076FA10BDC0468C00002079
:101C7C0070B58AB00D0016001C002422002101A8AA
:101C8C0003F0C1F8082C02D000200AB070BD0195F9
:101C9C0008230493320001A9034801F005F94342DB
:101CAC005841C0B2F1E7C0462800002010B50A4ADE
:101CBC005060002313609362084A1370084A137033
:101CCC00A02001221021C00501F009FA01220821EF
:101CDC00044801F004FA10BD70010020320100200C
:101CEC00300100200004005010B5D21A531E9A4146
:101CFC00D2B201F0F4F910BD10B5002906D1803133
:101D0C00002349010548FFF7EFFF10BD8021002398
:101D1C0089010248FFF7E8FFF7E7C04600040050CE
:101D2C0010B5002906D180310123C9000548FFF701
:101D3C00DBFF10BD8021012309010248FFF7D4FF0E
:101D4C00F7E7C0460004005010B500F0DBFD10BDF5
:101D5C0000B583B01300022200920A00010008486B
:101D6C0002F0E8FE002802D1012003B000BD054AB4
:101D7C00D3680133D3600120FFF798FF0020F4E70C
:101D8C00C801002070010020F0B58DB001900091C9
:101D9C00150000F0B7FD060000272E4B02930E2213
:101DAC00002103A803F02FF8002307930E22002133
:101DBC0008A803F028F8A02000221021C00501F08B
:101DCC008EF9022207A902A8FFF7C2FF041E1CD03D
:101DDC0007AB5B78204A5364FF2B19D0A02001225B
:101DEC001021C00501F07BF900F08CFD801BA8428E
:101DFC0003D20137194B9F42CFD9174A936801334D
:101E0C0093600220FFF752FF002420000DB0F0BDBC
:101E1C00009B002B09D09AB2162102AB9C46614460
:101E2C00981CFFF795FF002811D0A020012210214B
:101E3C00C00501F054F9009B002BE6D01A001621C6
:101E4C0002AB9C466144019802F0D4FFDDE704002C
:101E5C00DBE7C04644FF0000700100209F860100B4
:101E6C00F0B589B006000C0017001D004B1EDBB24C
:101E7C000F2B30D8102D01D900202DE00278174BF4
:101E8C00DA6301221A640E9A00210020FFF77CFF0E
:101E9C00002821D02200310004A802F0ABFFA020C2
:101EAC0000221021C00501F01AF9A2B2694604A85B
:101EBC00FFF74EFF00280FD0A02001221021C005F3
:101ECC0001F00DF9054B02221A640E9A2900380014
:101EDC00FFF75AFF00E0002009B0F0BD70010020B0
:101EEC0030B587B0040005A8CD239B00038004AB5C
:101EFC001B4A1A8002ABE43AFF3A1A705C7000225B
:101F0C009A70DA70302119715A7103329A71DA7140
:101F1C0005230093002300222E39FFF7A1FF002890
:101F2C0003D10025280007B030BD05230093002302
:101F3C000022022104A8FFF793FF0028F1D005230B
:101F4C00009300230022082102A8FFF789FF051E39
:101F5C00E7D0044B5C6200F0D5FC034B1860E1E762
:101F6C0015020000700100206801002010B5084B1C
:101F7C001B68002B07D0064B9B6A002B03D1044B2C
:101F8C005B6A984200D110BDFFF7AAFFFBE7C04681
:101F9C007001002010B584B00400202303931B3B78
:101FAC00009303330200042103A8FFF759FF002814
:101FBC0007D0A278044B9A64A279DA641A6D0132C4
:101FCC001A6504B010BDC0467001002010B5A0B059
:101FDC006A4B1B68002B01D120B010BD042168484E
:101FEC0001F076F8002820D0644B9B6A002B00D0BF
:101FFC00B3E0644B1A78644B1B789A42ECD100F036
:10200C0081FC624B1B68C01A96239B009842E3D359
:10201C005A4B1A6A01321A62586A01300321FEF7D0
:10202C00F1F8C8B2FFF75CFFD6E71EA8FFF7B2FFC6
:10203C000028D1D01EAB9B7928221A421CD14F4BC1
:10204C009B6A002B03D01EAB9B789B061CD44B4B7E
:10205C009B6A002BC8D11EAB9B7818221A42C3D0A6
:10206C001B071CD5454A936901339361434B586A4E
:10207C00C0B2FFF735FFAFE7404AD3690133D361F4
:10208C000520FFF713FEA7E73C4B00229A621A6962
:10209C0001321A613E4B1878FFF722FF9CE7772339
:1020AC0004932D22002105A802F0ADFE03A81523F0
:1020BC000380103B0093033B02AA0221FFF7D0FEE2
:1020CC00002800D188E702AB1B78302B03D0062008
:1020DC00FFF7ECFD80E7A02000221021C00500F0E6
:1020EC00FEFF312211A904A8FFF732FE002800D10F
:1020FC0072E7A02001221021C00500F0F0FF214B57
:10210C001A78214B1B789A421FD311AB5A781300C3
:10211C001D3BDBB2122BA9D81B4C2270194B002192
:10212C001970463169441B4802F064FE00F0EAFB6A
:10213C00194B1860194BD8621969227852181A6118
:10214C000E4A53690133536190E7144A536A0133C1
:10215C0053620620FFF7AAFD3EE700F0D3FB104BBD
:10216C001B68C01AEF2800D836E70C4A9369013374
:10217C0093610720FFF79AFD2EE7C04670010020FF
:10218C0000040050320100203001002068010020C2
:10219C003101002038010020340100202C020020E5
:1021AC006C010020F0B5A3B005000C0021ABCD22D2
:1021BC0092001A8020AB514A1A80662311932D226B
:1021CC00002112A802F01FFE02AA4D4B19680291C1
:1021DC00998891809B799371FFF7F8FE494B1B68A6
:1021EC00002B7DD02F2C00D97EE01C2C00D87DE05C
:1021FC00EFF30583002B00D07AE0424B9B6A002B57
:10220C0007D0EB78032B00D074E0EB7C002B00D0D4
:10221C0072E06B7A022B01D9002462E00523009353
:10222C0000230022022121A8FFF71AFE002801D169
:10223C00002456E00523009300230022022120A84D
:10224C00FFF70EFE0028F3D01EA8FFF7A3FE002810
:10225C00EED011AE7470220029004620684402F0C2
:10226C00C9FDA02000221021C00500F038FF31224A
:10227C0004A93000FFF76CFD041E32D0A02001220F
:10228C001021C00500F02BFF02A86B7A43700523C8
:10229C000093002300220721FFF7E2FD041E20D04B
:1022AC006F7A28000E30FEF745FC060028000A3035
:1022BC00FEF740FC020031003800FEF747FC124BE1
:1022CC00187000F01FFB114B18600E4B01229A6224
:1022DC006A7A5A620E4B18635A6901325A6100E0ED
:1022EC000024200023B0F0BD0024FAE70024F8E716
:1022FC000024F6E70024F4E70024F2E715030000BD
:10230C003C4E000870010020310100206C010020BF
:10231C002C02002010B508001100FFF743FF041E2B
:10232C0001D0200010BD012204210248FFF798FAC9
:10233C00F7E7C0461803002010B500F0FBFA0400C4
:10234C0000F0FEFAC001444000F000FBC00844401D
:10235C0000F0D8FA6040074B9B6858404303584044
:10236C00430C43405A01100058409A4200D010BD13
:10237C000120FCE710E000E0F0B5C64600B598B0CF
:10238C0004001422002113A802F03DFD9D4B1A7885
:10239C0012AB1A709C4B9A681092998910AA918072
:1023AC000EAA103303CB03C2984B1A680C921A79FD
:1023BC000CAB1A71964B974A1A605C60964A9A60FD
:1023CC00964B974A5A63974B5A6B01252A435A638B
:1023DC005A6B2A400392039A5A6B022632435A6371
:1023EC005A6B32400492049A1A6C802149010A43B8
:1023FC001A641B6C0B400593059BA027FF0501225B
:10240C001021380000F06BFE874B98460122082102
:10241C00180000F064FE10231393149515950024F6
:10242C00169413A9380000F091FD08231393159509
:10243C0013A9404600F08AFD0423139314941595B8
:10244C0013A9404600F082FDE023139314961594D3
:10245C001696179413A9380000F078FD7348744B46
:10246C00036082235B0043608460E023DB00C36075
:10247C000461446180239B008361D93BFF3BC361B2
:10248C00046244628462213BC3620463446302F0CD
:10249C00CFFA00280CD1012000F03AFA00220821D2
:1024AC00614800F01CFE0E2000F032FA002415E00A
:1024BC000120FFF7FBFB18B080BCB846F0BD032031
:1024CC00FFF7F4FBF7E74833FF33009300230022B8
:1024DC002900FFF7C5FC0028EDD02C19554A944271
:1024EC0013D8554A155D002D0FD04C4A9463013416
:1024FC00102DE4D8514B1B1B9D42E0D84E4BE018DD
:10250C001B5D172BDFD01423DFE74A4A94421AD8FD
:10251C000523009303330AAA012112A8FFF7A0FC9C
:10252C000028C8D00AA94B781B028A7813433B4A6F
:10253C00D3620B781363D26A414B9A4207D00420C2
:10254C00FFF7B4FBB7E70320FFF7B0FBB3E70523B6
:10255C00009300230022062110A8FFF781FC00281D
:10256C00A9D0052300930023002208210EA8FFF711
:10257C0077FC00289FD0052300930023002205211F
:10258C000CA8FFF76DFC002895D008A8FFF702FDFA
:10259C00002800D18FE708AB9B7928221A4229D159
:1025AC000020FFF79DFC002800D184E7254B069303
:1025BC0005230093013B07AA190006A8FFF750FC5E
:1025CC00002800D177E7154B079A5A6507AB1B78A3
:1025DC00052B0BD107AB5B78382B07D107AB9B785E
:1025EC00002B03D107ABDB78282B07D00820FFF793
:1025FC005DFB60E70520FFF759FB5CE7074B012209
:10260C001A6058E7D04E00083C4E0008D44E000823
:10261C002C02002044534552190926207001002039
:10262C0080C3C9010010024000040050C801002002
:10263C00003001404E020000EC4E00084F0200003A
:10264C00634400001201040070B504000D00FFF794
:10265C00BDFC1B4B1B68002B30D01A4B1A781A4B45
:10266C001B789A4201D3002029E000F04BF9174B5C
:10267C001B68C01A642810D8124B1B78002B19D079
:10268C00104A1378591C1170114AD35C2B70114AE3
:10269C00536B01335363012011E00B4B1A78094B38
:1026AC001A702000FEF7C7FE0A4AD36B0133D363BE
:1026BC00002004E02000FEF7BEFEE1E7002070BD24
:1026CC007001002032010020300100203401002074
:1026DC00380100202C02002030B591B009AC264BFB
:1026EC001833220023CB23C223CB23C21B681360D5
:1026FC001822002103A802F086FBA0200023002250
:10270C000121C005FFF7F0FA002303930493022282
:10271C000592013206920793184B0893184D03A9A2
:10272C00280000F061FB0123009302220221280003
:10273C0000F089FBFFF700FE0300124A210012484B
:10274C00FFF766F8280000F099FB002808D102205A
:10275C00FFF712FE0D4B1B68002B07D011B030BDDC
:10276C00012240210848FFF77BF8F0E70122042101
:10277C000548FFF775F8F1E73C4E0008FF0700002D
:10278C0028000020DC4E00081803002070010020F7
:10279C0030B58DB02F4AA823D55869462E4800F085
:1027AC00ACFB002802D1059B002B04D00122402158
:1027BC002848FFF755F82748FFF702FA802306E070
:1027CC002F236B4419782348FFF7CCF823005C1EA9
:1027DC00002B06D02F2169442048FFF735FF002835
:1027EC00EED11C4AA823D358AB4223D11C4B1B68F7
:1027FC00002B24D0174C2000FFF7E2F900F082F8F0
:10280C00184BD860E26B1A645822A25C5A645222AC
:10281C00A25A9A645923E35C002B16D001230D496C
:10282C005A228A5C002A12D0022213430D4AD36525
:10283C000DB030BD5723D05CFFF798FBD6E70122D3
:10284C0004210448FFF70CF8D4E70023E7E7002243
:10285C00EBE7C04618030020280000207703002077
:10286C00700100202C0200207047000010B50400FD
:10287C00114B1978002901D1012010BDFA208000DC
:10288C00FDF73AFC01000D4B1868FDF735FC00F024
:10289C00ABF800280DD1032C01D90120EDE7013054
:1028AC0000222100404200F063F8054B1C60002020
:1028BC00E3E70120E1E7C04604000020000000200F
:1028CC000800002010B5084A116880235B000B43F8
:1028DC0013600320FFF7CAFF041E02D0012420005E
:1028EC0010BDFEF77BF8FAE700200240034B1B7883
:1028FC00034A11685B1813607047C046040000203F
:10290C00C8030020014B18687047C046C80300205C
:10291C0070B50400FFF7F6FF0500631C02D0044BF2
:10292C001B78E418FFF7EEFF401BA042FAD370BDF2
:10293C0004000020014B18687047C0469075FF1FBB
:10294C00014B18687047C0469475FF1F014B1868FF
:10295C007047C0469875FF1F034A136803490B4024
:10296C00034313607047C04600000140FFF9FFFFAE
:10297C0070B5002811DB8308134EC0339B009D59A2
:10298C0003242040C000FF2214008440A543890189
:10299C000A4082402A439A5170BD0F230340083BE2
:1029AC009B0806339B00094A944663445C680322E7
:1029BC001040C000FC3215008540AC4389010A4030
:1029CC00824022435A60E7E700E100E000ED00E0BE
:1029DC00002805DB1F2318401E3B8340014A13606F
:1029EC007047C04600E100E0013880235B04984248
:1029FC000FD2094A50600948036A1B021B0AC02106
:102A0C0009060B4303620023936007331360002015
:102A1C0070470120FCE7C04610E000E000ED00E04C
:102A2C0010B5002833D02523C35C022B06D0042319
:102A3C00C36320330022C254012010BD01680A6810
:102A4C0001239A430A6001680A680E24A2430A60B3
:102A5C00816C0A680F4C22400A601C22416C0A40AF
:102A6C00016C93404B60C36C026D5A60436D002B3C
:102A7C0005D01A6822401A60836DC26D5A602523F6
:102A8C000122C254013B0022C2540020D5E7012090
:102A9C00D3E7C046FFFEFFFF10B52523C35C022B16
:102AAC0003D00423C363012010BD01680A6801230D
:102ABC009A430A6001680A680E24A2430A60816C7A
:102ACC000A68114C22400A601C22416C0A40016CBD
:102ADC0093404B60C36C026D5A60436D002B05D064
:102AEC001A6822401A60836DC26D5A602523012238
:102AFC00C254013B0022C254836B002B02D0984776
:102B0C000020D1E70020CFE7FFFEFFFF30B50468BF
:102B1C00184B9C4223D0184901648022A358174DAE
:102B2C002B40456B2D042B43A3500B007033436497
:102B3C000568AB58124C2340846B24062343AB50DE
:102B4C000B00B0338364D833C36498239B00CB1839
:102B5C0003659E239B00CB1843650B0003E00949DA
:102B6C00DAE7002204C3D42292008A189A42F8D8D9
:102B7C0030BDC0460068004000B40040FFFFE0FFDD
:102B8C00FFFFFFF050B70040F0B51F004B68002B63
:102B9C001AD10D698B681D430B689B041D430B6A8E
:102BAC001C06CB691C438B691C434B691C43CB68CB
:102BBC001B041C43466DFB00DB19DB00F61835606B
:102BCC0074600836002015E00D698B681D430B6896
:102BDC001D438023DB051D43E1E71418E3781B0636
:102BEC00A5782D042B43647824022343145C2343DF
:102BFC0008C60430024BCC681B5D8342EDD8F0BD97
:102C0C003C51000870B5041E00D1E1E05C23C35CAC
:102C1C00002B19D02268936910218B439361FFF725
:102C2C0071FE050023689A69120713D5FFF76AFE37
:102C3C00401B0A28F6D9236E0122134323665C231A
:102C4C000232E254012070BD5D330022C254FDF704
:102C5C009FFDDFE79A6901210A439A61FFF752FE53
:102C6C00050023689A69D2070DD4FFF74BFE401B71
:102C7C000A28F6D9236E0122134323665C23023201
:102C8C00E2540120DFE79A6902210A439A61514B11
:102C9C0022689A4243D0237C012B44D0226893694A
:102CAC0040210B439361637C012B42D022689369D2
:102CBC0049490B409361A37C012B41D02268916957
:102CCC0080235B010B4393612268936943490B405A
:102CDC00A1680B43936122689369A4218B43936190
:102CEC002268136994398B431361E368012B2DD04F
:102CFC00002B30D0022B54D02268936980210B43D7
:102D0C0093612268136970390B431361E368032BD9
:102D1C0021D12268936910310B4393611BE0304B36
:102D2C0062681A60B7E72268936940218B4393610C
:102D3C00B9E7226891698023DB010B439361BAE701
:102D4C002268936927490B409361BDE72268936918
:102D5C000C390B439361A369013B5B06E269013AB1
:102D6C0012021343226A013A13436269013A1204B4
:102D7C0021681343CB61C0239B00A2689A4216D0F2
:102D8C002168C0228B58E06B03438B502000FFF767
:102D9C00BDFE0023A36523665C330122E2540020B0
:102DAC0051E72268936920210B439361D3E7A36A0F
:102DBC00013BE26A013A12021343226B013A1201FF
:102DCC001343626A013A120421681343CB60D7E7BC
:102DDC00012038E700640040FFBFFFFFFFFCFFFF4E
:102DEC0000650040FFEFFFFF10B55C23C35C013BA7
:102DFC00DBB2012B05D9036E0222134303660120BB
:102E0C0010BD0B68002B0FD18B689B07CA68D206CC
:102E1C0013430A69120413434A691343006C4A684A
:102E2C00920083500020EBE7CB685A070B691A43DA
:102E3C008B689B074C692343406C4968C900411857
:102E4C000A604B60EEE770B55C24045D012C05D084
:102E5C00036E042213430366012070BD05687F34A2
:102E6C0028593F26B0430901920011435B001943D6
:102E7C00049B1943014329510020EEE75C23C35CFA
:102E8C00012B05D0036E0422134303660120704707
:102E9C005B330222C2540268936901218B43936114
:102EAC00002303660020F2E770B504005C23C35CCA
:102EBC00022B1CD10368C4201858800206D5226E40
:102ECC0080239B0013432366012015E0C4201B586C
:102EDC001B0C03251D402B002000FFF755FE012382
:102EEC00AB40CC2221688B50A365002004E0036E1C
:102EFC00082213430366012070BD03685B6C072234
:102F0C00100018400860180A02404A6018221A4043
:102F1C008A60580901221040C86098091040086165
:102F2C00D80910404861D80A10408861180B10402D
:102F3C00C861580B10400862980B02404A621B0C87
:102F4C007F2213408B62002070470000F0B50023F5
:102F5C005AE084685F000326BE40B4432600CC6868
:102F6C00BC4034438460446894434A681609012287
:102F7C0032409A402243426056E0DC080834A400F8
:102F8C00265805321A4092000F279740BE430F690E
:102F9C0097403A00324322505AE0042600E00026C3
:102FAC00A64034003C43454E18329200945134688C
:102FBC00EA432600AE434F68FF0201D52C4326009E
:102FCC003E4C26606468260016404F68BF0201D54F
:102FDC002C432600394C66608426A45926001640E2
:102FEC004F68BF0301D52C432600344C8427E6518F
:102FFC008026A45922404E68F60301D52A002243AC
:10300C002E4D80242A5101330C682200DA4054D012
:10301C0001229A40250015401442F4D003244E6836
:10302C003440013C012C94D903224C682240032AE1
:10303C0009D0C2685E000324B440A24314008A681D
:10304C00B2402243C26003224C682240022A94D030
:10305C0004685E0003221700B740BC434F683A4037
:10306C00B24022430260C02292024C681442CAD081
:10307C009A0814001834A400104EA75903261E40B9
:10308C00F4000F26A640B743A026F605B04286D022
:10309C000B4EB0420BD00B4EB0420AD00A4EB0428F
:1030AC0009D00A4EB04200D177E7052678E7012611
:1030BC0076E7022674E7032672E7F0BD001802409B
:1030CC000004005000080050000C0050001000508C
:1030DC0003690B4201D0012070470020FCE7002A55
:1030EC0001D0816170478162FCE7000070B5041E5D
:1030FC0028D00368144A1A600368144A1A600368DB
:10310C0042685A60036882689A60FFF7FBFB05000F
:10311C002368DA6852070AD0FFF7F4FB401B31280A
:10312C00F6D92368DB685B07F2D003200BE0196942
:10313C00E268914202D01A61002004E0044A1A604D
:10314C00002000E0012070BDCCCC000055550000E3
:10315C00AAAA00000368024A1A6000207047C04601
:10316C00AAAA000010B5104A136810490B4003437B
:10317C00136080239B00984201D0002010BD0C4BA3
:10318C001B685800C01840000A49FCF7B5FF013015
:10319C00054B5B695B0503D5002803D00138F7E7C5
:1031AC000020EBE70320E9E700700040FFF9FFFF88
:1031BC000000002040420F0070B582B0041E00D108
:1031CC005EE20368DB0739D5C14A916838230B40AE
:1031DC00D16803220A40102B26D0082B26D0636816
:1031EC008022520293427FD0A022D202934200D17D
:1031FC0081E0B74B1A68B7490A401A601A68B64999
:10320C000A401A606368002B00D180E0FFF77AFB5C
:10321C000500AF4B1B689B0310D4FFF773FB401BDF
:10322C006428F6D903202CE2032AD6D1A84B1B68BC
:10323C009B0303D56368002B00D124E223689B0712
:10324C0031D5A34A936838210B40D16803220A4038
:10325C00102B6AD0002B6BD19D4A1268520503D5F6
:10326C00E268002A00D110E2994842689B490A4062
:10327C00616909020A434260002B0DD10368984929
:10328C000B4021690B4303600368DB0A07221A40D9
:10329C00944BD340944A1360944B1868FFF7E6FAAA
:1032AC00002800D0F3E123681B0700D481E0884B91
:1032BC009A6838231340182B73D0A369002B00D1C4
:1032CC00B4E0834A136E01210B431366FFF71AFB1C
:1032DC0005007F4B1B6E9B076BD4FFF713FB401B4A
:1032EC000228F6D90320CCE1794A116880235B02CD
:1032FC000B43136086E7764B19688022D2020A438F
:10330C001A601968802252020A431A607AE7FFF7A2
:10331C00F9FA05006E4B1B689B038FD5FFF7F2FA89
:10332C00401B6428F6D90320ABE1022A92D193E723
:10333C00E368002B22D0664A136869490B40216967
:10334C000B431360116880235B000B431360FFF782
:10335C00D9FA05005E4B1B685B0506D4FFF7D2FA61
:10336C00401B0228F6D903208BE159494B685B4A74
:10337C0013406269120213434B6094E7544A13687A
:10338C005B490B401360FFF7BDFA0500504B1B68FF
:10339C005B0588D5FFF7B6FA401B0228F6D9032047
:1033AC006FE14B4B1B6E9B0703D5A369002B00D120
:1033BC006FE123685B0700D4A2E0454B9A68382381
:1033CC001340202B45D0424BDB6BDB004AD4404AE8
:1033DC00D16B802040050143D163D36B0340019333
:1033EC00019B0125434B1B68DB053DD5A368012BD5
:1033FC004ED0052B52D0364BDA6D01218A43DA655B
:10340C00DA6D03318A43DA65A368002B50D0FFF7DD
:10341C0079FA06002E4BDB6D9B076FD4FFF772FA1F
:10342C00801B354B9842F5D903202AE1284A136EAC
:10343C0001218B431366FFF765FA0500244B1B6EC5
:10344C009B07B6D5FFF75EFA401B0228F6D903207E
:10345C0017E11F4BDB6D9B0752D5A368002B4FD197
:10346C0001200EE10025BDE7224A116880235B0094
:10347C000B431360FFF746FA06001E4B1B68DB0577
:10348C00B4D4FFF73FFA801B0228F6D90320F8E0EA
:10349C000F4AD36D01210B43D365B5E70C4BDA6DA5
:1034AC0004210A43DA65DA6D03390A43DA65ABE7BE
:1034BC00FFF728FA0600064BDB6D9B071ED5FFF7BE
:1034CC0021FA801B0C4B9842F5D90320D9E0C04659
:1034DC0000100240FFFFFEFFFFFFFBFFFF80FFFF1E
:1034EC00FFC7FFFF0024F4000000002008000020AC
:1034FC00FFFEFFFF0070004088130000012D19D063
:10350C0023689B062FD5E369002B19D06A4A1168F2
:10351C008023DB030B431360FFF7F4F90500664BC4
:10352C001B681B021FD4FFF7EDF9401B0228F6D9CC
:10353C000320A6E0604AD36B60490B40D363DFE7FE
:10354C005D4A13685E490B401360FFF7DBF9050019
:10355C00594B1B681B0206D5FFF7D4F9401B0228F8
:10356C00F6D903208DE0236A002B00D193E0524A58
:10357C00916838220A40102A5AD0022B12D04E4A97
:10358C00136850490B401360FFF7BCF904004A4B19
:10359C001B689B0145D5FFF7B5F9001B0228F6D92E
:1035AC0003206EE0444A136846490B401360FFF752
:1035BC00A9F90500404B1B689B0106D5FFF7A2F942
:1035CC00401B0228F6D903205BE03B4AD3683E49F6
:1035DC001940636AA06A0343E06A00020343206B4C
:1035EC000343606B0343A06B03430B43D36011682D
:1035FC0080235B040B431360D16880235B050B4372
:10360C00D360FFF77FF904002B4B1B689B0106D49A
:10361C00FFF778F9001B0228F6D9032031E00020CF
:10362C002FE0254AD36829490B40D360002028E0BD
:10363C00012B32D0204BDA6803231340616A8B4292
:10364C002DD170231340A16A8B422AD1FE21C901CE
:10365C001140E36A1B02994225D1F8239B031340C6
:10366C00216B8B4221D1E0231B051340616B8B42F4
:10367C001DD1520F5207A36B9A421AD1002000E0C1
:10368C00012002B070BD0120FBE70120F9E7012009
:10369C00F7E70120F5E70020F3E70120F1E701202F
:1036AC00EFE70120EDE70120EBE70120E9E701203E
:1036BC00E7E70120E5E7C04600100240FFFFFFEFFF
:1036CC00FFFFBFFFFFFFFFFE8C80C111FCFFFEEE72
:1036DC0010B52A4B9B6838221A4207D1274B1A681F
:1036EC00D20A072313402648D84010BD234B9A68B2
:1036FC0038231340082B3BD0204B9A6838231340B7
:10370C00102B0DD01D4B9A6838231340202B31D031
:10371C001A4B9A6838231340182B26D00020E4E764
:10372C00164AD1680D3B0B40D26812090721114093
:10373C000131032B0FD01248FCF7DEFC0F4BDA687B
:10374C00120A7F23134058430C4BD968490F01319F
:10375C00FCF7D2FCC9E70B48FCF7CEFC074BDA6848
:10376C00120A7F2313405843EEE7FA20C001BCE74E
:10377C000448BAE780200002B7E7C04600100240B8
:10378C000024F40000127A0070B504000D0000282B
:10379C0000D1AAE0574B1A68072313408B4221D360
:1037AC0023689A070ED55B0705D5534A9168E02329
:1037BC00DB010B439360504A936850490B40A1685E
:1037CC000B4393602368DB0754D56368012B20D02F
:1037DC00022B3BD0002B3FD1474A126852051CD418
:1037EC0001206AE0434A136807218B432B43136083
:1037FC00FFF788F806003F4B1A6807231340AB42CB
:10380C00CED0FFF77FF8801B3D4A9042F3D90320BE
:10381C0053E0394A1268920369D537498A68072000
:10382C00824313438B60FFF76DF80600324B9B68A5
:10383C0038221A406368DB009A421BD0FFF762F80B
:10384C00801B2F4B9842F1D9032036E02A4A12688C
:10385C009201E2D4012030E0032B05D0264AD26D30
:10386C009207DAD4012028E0234A126E9207D4D4AE
:10387C00012022E01F4B1A6807231340AB421DD8CE
:10388C0023685B0706D51C4A93681E490B40E16808
:10389C000B439360FFF71CFF174B9A68120A0F2318
:1038AC0013409B00184A9A581F231340D840174BBB
:1038BC001860174B1868FEF7D9FF70BD0D4A1368D6
:1038CC0007218B432B431360FFF71CF80600094BB1
:1038DC001A6807231340AB42D2D0FFF713F8801BB2
:1038EC00074B9842F3D90320E7E70120E5E70120D5
:1038FC00E3E7C0460020024000100240FFF0FFFF4B
:10390C0088130000FF8FFFFF704E0008000000209E
:10391C0008000020014B18687047C04600000020CA
:10392C0010B5FFF7F7FF064B9A68120B07231340ED
:10393C009B00044A9A581F231340D84010BDC04620
:10394C0000100240B04E0008F0B583B004000368CC
:10395C009B0362D5AE4BDB6BDB001ED4AC4AD16B48
:10396C00802040050143D163D36B03400193019B3D
:10397C000126A84A116880235B000B431360FEF7F5
:10398C00C1FF0500A34B1B68DB0508D4FEF7BAFF8B
:10399C00401B0228F6D9032502E00026E9E70025A2
:1039AC00002D23D19A4BD96DC02292000B001340ED
:1039BC00114210D0226C9A420DD0954AD36D964983
:1039CC000B40D06D802149020143D165D16D9348E4
:1039DC000140D165D365DB0710D4002D06D18C4A8C
:1039EC00D36D8D490B40216C0B43D365012E15D142
:1039FC00874AD36B8A490B40D3630FE0FEF782FFF3
:103A0C000700834BDB6D9B07E7D4FEF77BFFC01BE6
:103A1C00844B9842F5D90325DFE700252368DB07A3
:103A2C0006D57B4A536D03218B4361680B43536569
:103A3C0023689B0706D5764A536D0C218B43A168EE
:103A4C000B43536523685B0706D5714A536D3021D0
:103A5C008B43E1680B4353652368DB0606D56C4A40
:103A6C00536D71490B4021690B4353652368DB048B
:103A7C0006D5674A536D68490B4061690B43536522
:103A8C0023689B0506D5624A536D68490B40A16AB1
:103A9C000B43536523685B0506D55D4A536D64493A
:103AAC000B40E16A0B43536523689B0606D5584AC5
:103ABC00536D60490B40A1690B43536523685B064A
:103ACC0006D5534A536D5C490B40E1690B43536572
:103ADC0023685B040BD54E4A536D9B009B08216BEE
:103AEC000B4353658023DB05226B9A4262D023681B
:103AFC001B0306D5464A536D40218B43616B0B4328
:103B0C00536523689B020BD5414A536D4B490B40BF
:103B1C00A16B0B4353658023DB03A26B9A4250D0FD
:103B2C0023685B020BD53A4A536D45490B40E16B58
:103B3C000B43536580235B04E26B9A4248D02368A5
:103B4C001B0509D5324A936D03218B43216A0B4324
:103B5C009365236A012B40D023689B0409D52C4A1A
:103B6C00936D0C218B43616A0B439365636A042B41
:103B7C0039D02368DB010BD5254A936D2D490B40B9
:103B8C00616C0B43936580239B01626C9A4230D02D
:103B9C0023689B010BD51E4A936D1F490B40A16CEA
:103BAC000B439365A26C80235B009A4228D02800BB
:103BBC0003B0F0BD164AD16880235B020B43D3607F
:103BCC0095E7134AD16880235B040B43D360A7E7C6
:103BDC000F4AD1680B43D360B1E7D16880235B02F5
:103BEC000B43D360B8E7D16880235B020B43D360EF
:103BFC00BFE7074AD16880235B040B43D360C7E758
:103C0C00034AD16880235B040B43D360CFE7C046E3
:103C1C000010024000700040FFFCFFFFFFFFFEFFA2
:103C2C00FFFFFFEF88130000FFF3FFFFFFFFF3FF21
:103C3C00FFFFCFFFFFCFFFFFFF3FFFFFFFFFBFFFE8
:103C4C00FFFFFFFE30B5EFF31084012282F31088E2
:103C5C0001680B68124D2B400B6084F31088EFF356
:103C6C00108182F31088026893680E4C2340936095
:103C7C0081F31088C36E012B06D08C232022C250F6
:103C8C000023C366436730BDEFF3108183F31088C4
:103C9C00026813681024A343136081F31088ECE7C7
:103CAC00DFFEFFFFFEFFFFEF704710B5EFF3108153
:103CBC00012383F31088026813684024A343136024
:103CCC0081F3108888232022C25000238367FFF7DA
:103CDC00EBFF10BD10B5806AFCF7C3FC10BD70473C
:103CEC00F8B504000268D36910689568BA491E00DB
:103CFC000E400B4205D1990603D581062CD4E90060
:103D0C002AD4002E07D0B5492E000E400D4229D1E1
:103D1C00B349084226D1E16E012900D1AAE0D902AB
:103D2C0002D5690200D550E11A0605D5020600D568
:103D3C0060E12A0200D55DE15A0602D5420600D5A3
:103D4C005FE11A0202D5420000D55EE1DB0102D52B
:103D5C00002800DA5DE1F8BD636F002BFBD020007A
:103D6C009847F8E7D90707D5C10505D5012717628C
:103D7C00902162583A4362509A0709D5EA0707D551
:103D8C002268022111628E31625804273A43625034
:103D9C005A0709D5EA0707D52268042111628C312C
:103DAC00625802273A4362501A070AD5820601D498
:103DBC00002E06D0226808261662902162583243E3
:103DCC0062501A050AD5420108D5226880210901E2
:103DDC001162902162582026324362509022A258E0
:103DEC00002AB8D09B0608D5830601D4EB0004D575
:103DFC00636F002B01D0200098479023E258236872
:103E0C009B685B0602D4282313422CD02000FFF7BA
:103E1C0019FF23689B685B0621D5EFF31081012302
:103E2C0083F310882268936840208343936081F366
:103E3C0010888023E358002B0DD06A4A9A638023A4
:103E4C00E058FEF729FE002800D184E78023E058D3
:103E5C00836B98477FE72000FCF703FC7BE720008F
:103E6C00FCF7FFFB77E72000FCF7FBFB902300221D
:103E7C00E25070E7D90600D451E7C10600D44EE7F2
:103E8C001023136223689B685B0662D58023E1587C
:103E9C000A6853689BB2002B4CD05C20205A984285
:103EAC0048D95E22A3520B681B689B060BD50223D4
:103EBC0023675A33E15A0233E35AC91A89B22000F4
:103ECC00FFF70DFF47E7EFF31080012383F3108812
:103EDC0021680A68444D2A400A6080F31088EFF389
:103EEC00108083F3108821688A689A438A6080F373
:103EFC001088EFF3108083F3108821688A684235AC
:103F0C00FF35AA438A6080F310888C222021A150AF
:103F1C000022E266EFF3108183F3108822681368A5
:103F2C0010208343136081F310888023E058FEF740
:103F3C0077FDBCE75C21615A994200D00BE713680E
:103F4C009B0600D407E7022323672000FFF7C7FE78
:103F5C0001E75C23E15A0233E25A891A89B2E35A27
:103F6C009BB2002B00D1F6E6002900D1F3E6EFF36B
:103F7C001085012383F31088206802681B4E3240A1
:103F8C00026085F31088EFF3108583F310882068A6
:103F9C008268174E3240826085F310888C22202074
:103FAC00A0500022E2666267EFF3108083F3108862
:103FBC00226813681025AB43136080F3108802232A
:103FCC0023672000FFF78BFEC5E680235B0313629B
:103FDC00200000F087FBBEE60F0800000100001077
:103FEC0020010004E13C0008FFFEFFFFDFFEFFFFA5
:103FFC00FEFFFFEFA36F002B00D1ACE6200098472B
:10400C00A9E62000FFF751FEA5E6200000F06CFBAE
:10401C00A1E6200000F067FB9DE6C046F8B5040061
:10402C00016883680269134342691343C2691343ED
:10403C000A68AA48024013430B6022685368A849D7
:10404C000B40E1680B435360A1692268A54B9A426F
:10405C0004D0A54B9A4201D0236A19439368A34814
:10406C0003400B4393602268D36A0F218B43616A30
:10407C000B43D36222689E4B9A421AD09D4B9A42B4
:10408C005CD09D4B9A426AD09C4B9A4200D1BDE0C9
:10409C009B4B9A4200D1BBE09A4B9A4200D1B9E0BB
:1040AC00904B9A426CD0904B9A4200D180E01023F6
:1040BC000EE0954B596D03230B40022B00D18FE082
:1040CC0038D8002B00D18DE0012B00D08CE00333CD
:1040DC0084498A4200D1AFE083498A4200D1ABE0E7
:1040EC00E06980221202904200D119E1042B00D128
:1040FC005AE100D94AE1002B00D14EE1022B00D04D
:10410C0042E18248636A5B00814A995AFBF7F4FFEB
:10411C0063685B08C0186168FBF7EEFF0200103A99
:10412C007C4B9A4200D94AE123680004000CD86009
:10413C000020BFE0032B59D10533C9E7724B596DF1
:10414C000C230B40082B53D005D8002B52D0042B3A
:10415C00BED01023BCE70C2B4ED1043BB8E76A4B06
:10416C00596D30230B40202B48D005D8002B47D05D
:10417C00102B47D10C3BABE7302B45D1283BA7E7A5
:10418C00614B5B6DC02109010B40802109018B4201
:10419C0042D007D8002B41D08021C9008B423FD19F
:1041AC00042395E7C02109018B423BD108238FE7FB
:1041BC00554B5B6DC02189000B400139FF398B4297
:1041CC0032D007D8002B31D00139FF398B422FD197
:1041DC0004237DE7C02189008B422BD1082377E78C
:1041EC00022375E7002373E7102371E710236FE7B1
:1041FC0002236DE700236BE7102369E7022367E7CF
:10420C00002365E7102363E7102361E700235FE7D2
:10421C0000235DE700235BE7022359E7002357E700
:10422C00102355E7102353E7022351E700234FE7F0
:10423C0010234DE710234BE7042B4BD034D8002B25
:10424C0041D0022B2ED1314D636A5B00304A9F5A0C
:10425C0039002800FBF750FF666873009B198342F6
:10426C0000D9A4E03303834200D2A2E03A00002339
:10427C0028000021FCF7B6F8050E0B022B430202B6
:10428C00700800218018594132000023FCF7AAF86D
:10429C00214BC218214B9A4200D98CE02368D8607C
:1042AC00002007E0012005E0082B02D180252D021B
:1042BC00CAE7012001236A22A352023AA352002327
:1042CC006367A367F8BDFFF72BFB0500002DBBD17F
:1042DC000020EFE7FFF7FCF90500F7E7F369FFCFE4
:1042EC00FFCFFFFF0080004000840040FFF4FF116F
:1042FC00003801400044004000480040004C0040A1
:10430C0000500040003C0140001002400024F4002A
:10431C004C510008EFFF000000FDFFFFFFFC0F00F9
:10432C00042B2ED023D8002B25D0022B1DD12548B1
:10433C00636A5B00244A995AFBF7DEFE400063680F
:10434C005B08C0186168FBF7D7FE0200103A1F4BE0
:10435C009A4232D882B20F239A434008083B184045
:10436C0010432368D8600020A4E70120A2E7082BA3
:10437C00DED001209EE7FFF7D3FA0028D8D1002029
:10438C0098E7FFF7A5F9F8E7012093E7082B02D18E
:10439C0080200002B6E601208CE7FFF7C1FA002866
:1043AC0000D0AFE6002085E7FFF792F9F7E7012090
:1043BC0080E701207EE701207CE701207AE70120DD
:1043CC0078E7C0460024F4004C510008EFFF0000D1
:1043DC00836A1B0706D5026853682C490B40816B16
:1043EC000B435360836ADB0706D502685368284980
:1043FC000B40C16A0B435360836A9B0706D5026866
:10440C00536824490B40016B0B435360836A5B0771
:10441C0006D50268536820490B40416B0B4353602F
:10442C00836ADB0606D5026893681C490B40C16B96
:10443C000B439360836A9B0606D502689368184900
:10444C000B40016C0B439360836A5B060BD50268CF
:10445C00536814490B40416C0B43536080235B033E
:10446C00426C9A420AD0836A1B0606D502685368CE
:10447C000D490B40C16C0B43536070470268536885
:10448C000A490B40816C0B435360ECE7FF7FFFFF45
:10449C00FFFFFDFFFFFFFEFFFFFFFBFFFFEFFFFF37
:1044AC00FFDFFFFFFFFFEFFFFFFFF7FFFFFF9FFFA8
:1044BC00F8B5CE46474680B506000D001700994664
:1044CC00089B98463368DC692C40641B63425C4152
:1044DC00BC4233D143460133F4D0FEF713FA4B46BA
:1044EC00C01A40452FD84346002B2ED033681A688B
:1044FC005207E7D5802DE5D0402DE3D0DA691207BD
:10450C0010D4DA691205DDD5802212011A6230004E
:10451C00FFF798FB90232022F2500C3B0022F25420
:10452C0003200CE008241C623000FFF78BFB902367
:10453C00F4500C3B0022F254012000E00020C0BCDF
:10454C00B946B046F8BD0320F9E70320F7E70000B1
:10455C0030B583B0040090230022C250FEF7D2F98C
:10456C00050022681268130710D423681B685B07C8
:10457C002BD420238822A3500432A3500023E366BB
:10458C002367083AA354002003B030BD8021234B8D
:10459C0000930300002289032000FFF789FF002805
:1045AC00E3D0EFF31081012383F3108822681368A2
:1045BC0080208343136081F3108888232022E250EB
:1045CC00043B0022E2547D38DEE78021134B00933C
:1045DC002B000022C9032000FFF76AFF0028C8D077
:1045EC00EFF31080012282F3108821680B680C4DC8
:1045FC002B400B6080F31088EFF3108082F310884F
:10460C0021688B6893438B6080F310888C231F3256
:10461C00E250083B0022E2540320B5E7FFFFFF0104
:10462C00DFFEFFFF10B5041E30D08823C358002BCB
:10463C0022D088232422E2502268136801218B4364
:10464C001360A36A002B1DD12000FFF7E7FC0128A3
:10465C0011D0226853680E490B405360226893684E
:10466C002A218B4393602268136829390B4313600A
:10467C002000FFF76DFF10BD84330022C254FCF7FD
:10468C0063F9D6E72000FFF7A3FEDDE70120F2E790
:10469C00FFB7FFFFF8B50400436E002B05D10133C3
:1046AC006A228352023A8352F8BD026895686D0EF5
:1046BC0007231D409268520F1340084FF85CC0004E
:1046CC00074EF15CFBF7A2FD6A23E052785DC00057
:1046DC00715DFBF79BFD6823E052E5E76C51000828
:1046EC0064510008704770477047000070B5842310
:1046FC00C35C012B15D08424012606558825242360
:10470C004351026813681168B1431160064A1340A3
:10471C000022426601680B602023435102550020A1
:10472C0070BD0220FCE7C046FFFFFFDFF8B50400B8
:10473C000A008423C35C012B1BD084250120605507
:10474C0088262423A35123681F68196881431960A4
:10475C0020688368DB00D908114381602000FFF7D3
:10476C0099FF23681F602023A35100236355002069
:10477C00F8BD0220FCE70000F8B504000B00842211
:10478C00825C012A1BD084250120605588262422B6
:10479C00A2512268176811688143116022689168E0
:1047AC0008480140194391602000FFF773FF23680C
:1047BC001F602023A351002363550020F8BD022065
:1047CC00FCE7C046FFFFFFF1F0B5D6464F46464624
:1047DC00C0B582B006000D0090461F00FEF792F89F
:1047EC000A9B181A8146B944FEF78CF882462E4B68
:1047FC001B685B011B0D4A465343019333689C684D
:10480C002C40641B63425C41444545D07B1CF5D075
:10481C00FEF778F85346C01A484507D24B46002B92
:10482C0004D0019B002B33D19946E7E732685368DB
:10483C00E0218B43536082235B0072689A420CD058
:10484C0080239B01B26A9A4216D05D230122F25456
:10485C00013B0022F25403201FE0B36880221202B5
:10486C00934203D08022D2009342E9D1326813687C
:10487C0040218B431360E3E7326813680B490B400C
:10488C0013603268116880239B010B431360DCE7D3
:10489C00019B013B0193B1E7002002B0E0BCBA469A
:1048AC00B146A846F0BDC04600000020FFDFFFFF68
:1048BC00F0B5DE4657464E464546E0B583B0070098
:1048CC000D00160098466B460022DA70FEF71AF8B7
:1048DC000C9B181A40448146FEF714F882463B683C
:1048EC009B46364B1A6893009A18D3009B1A1B0DE3
:1048FC004A465343019302E04346013311D13B68CE
:10490C009C682C40B44250D0C023DB009D42F3D1B4
:10491C00002EF1D15B461B7BDBB26A46D370D37899
:10492C00EAE7FDF7EFFF5346C01A484507D24B465E
:10493C00002B04D0019B002B33D19946DFE73A685A
:10494C005368E0218B43536082235B007A689A4260
:10495C000CD080239B01BA6A9A4216D05D230122A7
:10496C00FA54013B0022FA5403201FE0BB6880225A
:10497C001202934203D08022D2009342E9D13A68CA
:10498C00136840218B431360E3E73A6813680C49C2
:10499C000B4013603A68116880239B010B43136032
:1049AC00DCE7019B013B0193A9E7002003B0F0BCBD
:1049BC00BB46B246A946A046F0BDC046000000204A
:1049CC00FFDFFFFF70B582B004000D001600C021A0
:1049DC0000922B0000224901FFF76AFF002818D132
:1049EC0000962B00002280212000FFF7EDFE00280E
:1049FC0016D1C02100962B000022C9002000FFF721
:104A0C0057FF00280AD0236E20221343236603206D
:104A1C0004E0236E202213432366032002B070BDF2
:104A2C00236E2022134323660320F7E77047000010
:104A3C0070B5041E00D178E0436A002B07D1053312
:104A4C00FF3342689A4205D00023C36102E0002381
:104A5C00036143610023A3625D33E35C002B5AD0F6
:104A6C005D230222E2542268136840218B431360B9
:104A7C00E368E022D200934254D90022F0210901CC
:104A8C008B4205D0E021C9008B4201D00023A362E8
:104A9C0082235B0061680B4084210902A0680140FD
:104AAC000B430221206901400B430121606908403E
:104ABC00034380208000A569284003433820E56922
:104ACC00284003438020256A28400343802080012E
:104ADC00A56A2840034320680360608B04230340CD
:104AEC001020656A284003430820656B2840034367
:104AFC00F0200001E568284003432068134343601D
:104B0C002268D3690A480340D361002323665D33CE
:104B1C00E154002070BD5C330022E2542000FFF70A
:104B2C0085FF9DE780225201A8E70120F2E7C046ED
:104B3C00FFF7FFFFF0B5CE4600B582B00400894602
:104B4C0001921F00089DFDF7DDFE06005D23E35C6E
:104B5C00D9B26268012B0BD082235B009A4200D041
:104B6C0011E1A368002B00D012E1042900D011E15F
:104B7C004B46002B00D10FE1019B002B00D10DE126
:104B8C00002F00D10CE15C23E35C012B00D109E187
:104B9C005C230122E2540133E35C042B02D05D233D
:104BAC000432E25400232366019A22644622A7525F
:104BBC00023AA7524A46A263E787A787E3642365B4
:104BCC00E023DB00E2689A4223D9226853687649D5
:104BDC000B40536023681A68520603D41A684021AC
:104BEC000A431A60E023DB00E2689A425BD96368EF
:104BFC00002B01D0012F0AD12368A26B1288DA6036
:104C0C00A36B0233A363E38F013B9BB2E3870127C2
:104C1C002DE02268516880235B010B435360D9E778
:104C2C00A26B1288DA60A36B0233A363E38F013BA0
:104C3C009BB2E387002723689A68D20710D54622D7
:104C4C00A25A92B2002A0BD0DB68226C1380236C20
:104C5C00023323644622A35A013B9BB2A352012781
:104C6C00FDF750FE801BA84201D36B1C13D1E38FC0
:104C7C009BB2002B04D14633E35A9BB2002B69D074
:104C8C0023689A689207D6D5E28F92B2002AD2D0C6
:104C9C00012FD0D1C4E75D230122E254013B002255
:104CAC00E254032070E06368002B01D0012F0AD17D
:104CBC00A36B1B7822681373A36B0133A363E38F7D
:104CCC00013B9BB2E38701271DE023689A68D2075A
:104CDC0010D54622A25A92B2002A0BD01B7B226C12
:104CEC001370236C013323644622A35A013B9BB2FD
:104CFC00A3520127FDF706FE801BA84201D36B1CB3
:104D0C0020D1002D1ED0E38F9BB2002B04D1463353
:104D1C00E35A9BB2002B1DD023689A689207D4D516
:104D2C00E28F92B2002AD0D0012FCED1A26B127892
:104D3C001A73A36B0133A363E38F013B9BB2E3872D
:104D4C000027C2E75D230122E254013B0022E2541A
:104D5C00032019E0320029002000FFF733FE002861
:104D6C000AD15D230122E254013B0022E254236E5E
:104D7C00002B09D0012007E0202323663C330022BE
:104D8C00E254012000E0022002B080BCB946F0BD24
:104D9C000220F9E70220F7E70120F5E70120F3E70D
:104DAC000120F1E70220EFE7FFEFFFFF70B50026CF
:104DBC000C4D0D4C641BA410A64209D1002600F02A
:104DCC002BF80A4D0A4C641BA410A64205D170BDE9
:104DDC00B300EB5898470136EEE7B300EB58984711
:104DEC000136F2E77C5100087C5100087C51000828
:104DFC0080510008002310B59A4200D110BDCC5C44
:104E0C00C4540133F8E703008218934200D1704771
:104E1C0019700133F9E70000F8B5C046F8BC08BCBE
:104E2C009E467047F8B5C046F8BC08BC9E46704715
:104E3C0031003000300000001112020D0030000073
:104E4C00110104000538002800000000551D000861
:104E5C00212300087D1C00082D1D0008051D0008DD
:104E6C006D1C0008000000000000000000000000A5
:104E7C000000000000000000000000000000000026
:104E8C000000000001000000020000000300000010
:104E9C0004000000060000000700000008000000ED
:104EAC0009000000000000000000000000000000ED
:104EBC0000000000010000000200000003000000E0
:104ECC00040000000100000011220101100000008C
:104EDC006368616E67652D746869732D6B657921E4
:104EEC000702010001C9C380081300082021670BC9
:104EFC000005110001005205110001036010112082
:104F0C000C0003000702710005C9C38000000511E5
:104F1C0020010C460C11200818010008038000B079
:104F2C00100D11200922004E068DB9000002C00B95
:104F3C001120072C00120023015CA0051120013563
:104F4C00E20D11200938111111001A200000280C53
:104F5C0011200842A403D603007B01800511200117
:104F6C004E2205112001510A1011210C007E641BE8
:104F7C00BA580BDDCED6E6F6001011210C0C03034B
:104F8C0015F03F007E641BBA580B1011210C18DD74
:104F9C00CED6E6F600030315F03F000511220103FF
:104FAC003D0B112307002C0E0B040C73030C11404A
:104FBC000800370900001B4F20FE083200000000DB
:104FCC0000000005175610CAF005171310CAF0059B
:104FDC00110001010005110001036006110102001E
:104FEC000518051101010328081102040002040A26
:104FFC00090D11100900081400FF31000000000910
:10500C001111050001B42B00000B111207008401D3
:10501C0008FFFF00021011120C08000000401400E1
:10502C000706AA0000001011120C1400000000006A
:10503C00000000000000001011120C200000000005
:10504C0000000000000000000D1112092C000000EF
:10505C000000000000001011200C00030007017775
:10506C000005C9C3800000051120010C540C11204F
:10507C00081801000803800030100D1120092202CD
:10508C000900FBA900FC02000B1120072C00128068
:10509C00150DE9E00511200135E20D11200938113B
:1050AC007272001A4000002B0D11200942A403D685
:1050BC00030025018040051120014C000511200141
:1050CC004E4005112001510A1011210C00FFBA0F9E
:1050DC0051CFA9C9FC1B1E0F011011210C0CFCFD9A
:1050EC0015FF000FFFBA0F51CFA91011210C18C9D1
:1050FC00FC1B1E0F01FCFD15FF000F081122040004
:10510C00087F003D0B112307002C0E0B040C7303BE
:10511C001011300C00000000000000000000000026
:10512C00000C11400800380E147A1B4F20FE0000B2
:10513C000001020304050607080C10141820304067
:10514C00010002000400060008000A000C00100018
:10515C002000400080000001080402040801010145
:08516C0001010103070100002D
:08517400BCB2FF7F0100000046
:04517C00E500000842
:04518000BD00000866
:0C5184000024F400010000000400000002
:040000050800061DCC
:00000001FF
