:020000040800F2
:10000000004002201D060008090A00080B0A00082B
:1000100000000000000000000000000000000000E0
:100020000000000000000000000000000D0A0008B1
:1000300000000000000000000F0A0008110A00087C
:100040006D0600086D0600086D0600086D060008C4
:100050006D0600086D0600086D0600086D060008B4
:100060006D0600086D0600086D0600086D060008A4
:100070006D0600086D0600086D0600086D06000894
:100080006D0600086D0600086D0600086D06000884
:100090006D0600086D0600086D0600086D06000874
:1000A0006D0600086D0600086D060008190A0008B4
:0C00B0006D0600086D0600086D060008D3
:1000BC0010B5064C2378002B07D1054B002B02D032
:1000CC00044800E000BF0123237010BD1000002085
:1000DC0000000000CC5A0008044B10B5002B03D0D4
:1000EC000349044800E000BF10BDC04600000000FA
:1000FC0014000020CC5A0008002243088B4274D311
:10010C0003098B425FD3030A8B4244D3030B8B420C
:10011C0028D3030C8B420DD3FF22090212BA030C15
:10012C008B4202D31212090265D0030B8B4219D3F6
:10013C0000E0090AC30B8B4201D3CB03C01A524116
:10014C00830B8B4201D38B03C01A5241430B8B425E
:10015C0001D34B03C01A5241030B8B4201D30B0347
:10016C00C01A5241C30A8B4201D3CB02C01A52416E
:10017C00830A8B4201D38B02C01A5241430A8B4231
:10018C0001D34B02C01A5241030A8B4201D30B021A
:10019C00C01A5241CDD2C3098B4201D3CB01C01A34
:1001AC00524183098B4201D38B01C01A524143093E
:1001BC008B4201D34B01C01A524103098B4201D32C
:1001CC000B01C01A5241C3088B4201D3CB00C01A99
:1001DC00524183088B4201D38B00C01A5241430811
:1001EC008B4201D34B00C01A5241411A00D2014636
:1001FC00524110467047FFE701B5002000F0F0F8BF
:10020C0002BDC0460029F7D076E7704703460B4382
:10021C007FD4002243088B4274D303098B425FD3F3
:10022C00030A8B4244D3030B8B4228D3030C8B421F
:10023C000DD3FF22090212BA030C8B4202D3121205
:10024C00090265D0030B8B4219D300E0090AC30BDA
:10025C008B4201D3CB03C01A5241830B8B4201D387
:10026C008B03C01A5241430B8B4201D34B03C01A70
:10027C005241030B8B4201D30B03C01A5241C30AE8
:10028C008B4201D3CB02C01A5241830A8B4201D359
:10029C008B02C01A5241430A8B4201D34B02C01A43
:1002AC005241030A8B4201D30B02C01A5241CDD2E8
:1002BC00C3098B4201D3CB01C01A524183098B4233
:1002CC0001D38B01C01A524143098B4201D34B011C
:1002DC00C01A524103098B4201D30B01C01A52417F
:1002EC00C3088B4201D3CB00C01A524183088B4206
:1002FC0001D38B00C01A524143088B4201D34B00EF
:10030C00C01A5241411A00D2014652411046704760
:10031C005DE0CA0F00D04942031000D34042534065
:10032C0000229C4603098B422DD3030A8B4212D325
:10033C00FC22890112BA030A8B420CD38901921157
:10034C008B4208D3890192118B4204D389013AD094
:10035C00921100E08909C3098B4201D3CB01C01A69
:10036C00524183098B4201D38B01C01A524143097C
:10037C008B4201D34B01C01A524103098B4201D36A
:10038C000B01C01A5241C3088B4201D3CB00C01AD7
:10039C00524183088B4201D38B00C01A5241D9D2EF
:1003AC0043088B4201D34B00C01A5241411A00D270
:1003BC000146634652415B10104601D34042002B6C
:1003CC0000D54942704763465B1000D3404201B5EB
:1003DC00002000F005F802BD0029F8D016E77047A0
:1003EC007047C046002B11D1002A0FD1002900D133
:1003FC00002802D00021C943080007B4024802A11A
:10040C004018029003BDC046D9FFFFFF03B46846F5
:10041C0001B5029800F006F8019B9E4602B00CBC98
:10042C007047C046F0B557464E464546DE46E0B5E9
:10043C0004000D009246994683B08B4230D82DD0E3
:10044C004946504600F0BAF829000600200000F09A
:10045C00B5F8331A9846203B9B4633D45A4653463C
:10046C00934042461F00534693401E00AF423AD879
:10047C00AF4200D178E05B46A41BBD41002B00DAF3
:10048C0075E0002200230092019301235A46934009
:10049C000193012342469340009328E08242CFD936
:1004AC0000220023009201930C9B002B01D01C60B6
:1004BC005D600098019903B0F0BCBB46B246A946FA
:1004CC00A046F0BD424620239B1A5246DA404146D4
:1004DC0013004A468A40170042461F435346934036
:1004EC001E00AF42C4D90022002300920193434660
:1004FC00002BD9D0FB0772081A4346467B080EE046
:10050C00AB4201D1A2420CD8A41A9D41012024195E
:10051C006D410021013E24184D41002E06D0AB4206
:10052C00EED9013E24196D41002EF8D100980199A5
:10053C005B4600196941002B24DB2B005A464446CC
:10054C00D3402A00E2401C005B461500002B2ADB3E
:10055C0026009E40330026004746BE403200801ADB
:10056C009941009001919FE7A342BCD883E7424692
:10057C00202300219B1A0022009101920122DA40D3
:10058C00019286E7424620239B1A2A0046469A404F
:10059C002300F340444613432A00E2401C005B4610
:1005AC001500002BD4DA42462F002023260097405A
:1005BC009B1ADE403B003343CDE7C04610B5002903
:1005CC0003D100F007F8203002E0080000F002F838
:1005DC0010BDC0461C2101231B04984201D3000C02
:1005EC0010391B0A984201D3000A08391B0998429A
:1005FC0001D30009043902A2105C40187047C046B0
:10060C0004030202010101010000000000000000CF
:10061C000D48854600F002FA0C480D490D4A00239E
:10062C0002E0D458C4500433C4188C42F9D30A4A9B
:10063C000A4C002301E013600432A242FBD305F004
:10064C00FBF900F055F8FEE7004002200000002006
:10065C0010000020305E0008100000207004002004
:10066C00FEE710B502F0C6FC10BD72B6FEE700B591
:10067C0095B03C22002105A805F019FA10220021A2
:10068C0001A805F014FA8020800003F053FB0A2324
:10069C000593F63308930023099340220A923F3ABC
:1006AC000B9201320D920E920F930833109380230C
:1006BC009B02119380239B04129380239B0513931D
:1006CC0005A803F0BBFB00280ED107230193053BC3
:1006DC000293002303930493022101A803F096FED6
:1006EC00002803D115B000BDFFF7BFFFFFF7BDFF1A
:1006FC0010B502F0BFFC03F047FB002801D0FFF758
:10070C00B4FFFFF7B4FF00F00BF800F04BF800F06B
:10071C00D7F800F0BBF802F027FB02F09BFBFCE7DC
:10072C00F0B589B01422002103A805F0C0F91B4BC9
:10073C00596B022211435963596B0A400192019A79
:10074C005A6B012422435A635B6B23400293029B36
:10075C00F027BF01124E01223900300002F077FE63
:10076C000323039300250495059403A9300002F09C
:10077C00A5FD039704940595069503A9300002F096
:10078C009DFD80235B00039304950594A02003A991
:10079C00C00502F093FD09B0F0BDC0460010024048
:1007AC000004005010B51448144B0360144B436004
:1007BC00002383600122C260036143618361C361D2
:1007CC00036203F013F800280CD100210A4803F04F
:1007DC001FFA002809D10021074803F045FA002828
:1007EC0006D110BDFFF741FFEFE7FFF73EFFF2E741
:1007FC00FFF73BFFF5E7C0462C00002000540040FB
:10080C00B57DB11010B59AB004001422002115A8C2
:10081C0005F04DF94C22002102A805F048F9226898
:10082C00174B9A4201D01AB010BD2023029302A894
:10083C0003F0CCFE00281FD1124C626B02231A432A
:10084C006263626B13400093009BC0231593AE3B15
:10085C0016930023179318930633199315A90A4876
:10086C0002F02CFDE26B802189030A43E263E36B07
:10087C000B400193019BD6E7FFF7F7FEDCE7C04680
:10088C0000540040001002400004005010B509480C
:10089C00094B036003234360084BC360F423FF330D
:1008AC00836003F00BFA002800D110BDFFF7DDFECA
:1008BC00FBE7C0468000002000300040FF0F000026
:1008CC0010B51948194B036096239B014360002314
:1008DC008360C36003610C2242618361C361036264
:1008EC004362836204F0E4FC002811D100210E481D
:1008FC0004F062FD00280ED100210B4804F082FDAB
:10090C0000280BD1084804F037FD002809D110BD90
:10091C00FFF7ABFEEAE7FFF7A8FEEDE7FFF7A5FE52
:10092C00F0E7FFF7A2FEF2E790000020003801404C
:10093C0010B59AB004001422002115A805F0B7F8E0
:10094C004C22002102A805F0B2F822681B4B9A42F7
:10095C0001D01AB010BD0123029302A803F036FE99
:10096C00002828D1164B196C8020C0010143196452
:10097C001A6C02400092009A596B01221143596380
:10098C005B6B13400193019BC023DB001593022387
:10099C0016931792002318931992A02015A9C0053D
:1009AC0002F08CFC002201211B2002F0B9FB1B2061
:1009BC0002F0E6FBCDE7FFF758FED3E70038014025
:1009CC000010024000B583B00B4B196C012211438F
:1009DC001964196C0A400092009ADA6B802149055F
:1009EC000A43DA63DB6B0B400193019BC020C00010
:1009FC0002F08AFB03B000BD00100240FEE7FEE7E8
:100A0C007047704710B502F049FB10BD10B5024895
:100A1C0003F0A8FF10BDC046900000207047C173C2
:100A2C00052901D0002383730020704710B582B0D4
:100A3C00041E03D0002383730133C373002C00D135
:100A4C006BE06368002B00D169E0A368002B00D138
:100A5C0067E0FA225200A2816A460632FE21206823
:100A6C009847002844D001AAFF212068A368984722
:100A7C0000283DD06B46DA882B4B9A423ED101AB15
:100A8C001B882A4A944663449BB2012B36D8802299
:100A9C00D2000521206863689847002833D0244A87
:100AAC00002120686368984700282CD06B469A1C5C
:100ABC0000212068A3689847002824D06A460521A5
:100ACC002068A368984700281DD06B4602331B880A
:100ADC00184A19490B40934205D16B461A8880235A
:100AEC00DB009A4214D004212000FFF798FF03E0AA
:100AFC0002212000FFF793FF02B010BD032120005C
:100B0C00FFF78DFFF8E702212000FFF788FFF3E7DE
:100B1C000123A3730023E373EEE70020ECE700202E
:100B2C00EAE70020E8E7C04649540000A0DDFFFFDB
:100B3C002745000027050000FF8FFFFFF0B5CE46CC
:100B4C00474680B585B004000D0016001F00002834
:100B5C0000D1A4E0002900D1A4E0002A00D1A4E037
:100B6C00002B00D1A4E000230B8013803B60837B1F
:100B7C009846002B2DD002AA00210068A368984744
:100B8C00002821D06B469A1D05212068A368984740
:100B9C00002819D001AA06212068A36898470028CC
:100BAC0012D002AB1B88444A44490B40934205D1F6
:100BBC006B46DA888023DB009A4210D00421200097
:100BCC00FFF72DFF804604E002212000FFF727FFEE
:100BDC008046404605B0C0BCB946B046F0BD01AB3E
:100BEC001B885A0743D41B0747D50E226A4402219F
:100BFC002068A3689847002845D003AA04212068E0
:100C0C00A368984700283ED00A226A440321206832
:100C1C00A36898478046002835D003AB00229B5E22
:100C2C00A2895A439146FA2189001000FFF7EEFA87
:100C3C000E236B441B88E122D201934229D8204A0F
:100C4C00914526DBFA225204914522DA9A00D318F8
:100C5C009B082B8030800A236B441A8893009B18C6
:100C6C009A009B185B083B600023E373B1E70621F5
:100C7C002000FFF7D4FE8046ABE705212000FFF7EC
:100C8C00CEFE8046A5E702212000FFF7C8FE804675
:100C9C009FE707212000FFF7C2FE804699E700235B
:100CAC00984696E70023984693E70023984690E7EA
:100CBC00002398468DE7C04627050000FF8FFFFFF5
:100CCC0019FC0BFEF0B520235B42D31811D40400A1
:100CDC009C400500954056423F233340203B11D4A5
:100CEC000800D84052423F231A40D14028432143A8
:100CFC00F0BD20239B1A0400DC4023000C00944020
:100D0C001C43E6E756423F2333402026F61A0F00D9
:100D1C00B740D8403843E5E7F0B506000023002083
:100D2C00002108E020252D1B1700EF403D00A240BC
:100D3C00104329430133072B09D8F25CDC00202532
:100D4C006D426519EED41700AF403D00EFE7F0BDE2
:100D5C0070B500210AE020252D1B1E00AE40350089
:100D6C001600E64034002C4344540131072907D8BF
:100D7C00CC0020256D426519EDD41C00EC40F3E746
:100D8C0070BD30B50023002404E0C25CCD5C6A4029
:100D9C0014430133072BF8D963425C41E0B230BDF8
:100DAC000170090A4170704701700B0A43700B0CFB
:100DBC008370090EC17070470378407800021843A5
:100DCC007047030000785A78120210439A78120484
:100DDC001043DB781B0618437047000010B50C005D
:100DEC00022800D9002093009B185B019B1A590123
:100DFC005B189B009B1A5901CB1A1902C91A49009E
:100E0C008918C900891861400A0C4A4006495143A7
:100E1C00CA0B4A4001211140013140180321FFF750
:100E2C00F1F9C8B210BDC0462D35EB7F30B50500C9
:100E3C000C0000210B480DE0400080B20133072B61
:100E4C0007D802B2002AF7DA400082B206485040B6
:100E5C00F4E70131A14204D26B5C1B025840002321
:100E6C00EDE730BDFFFF000021100000F0B5DE46BD
:100E7C0057464E464546E0B59BB006001791934643
:100E8C00FFF74AFF05000C0030000830FFF744FF65
:100E9C000022002302920393714B6B400293714B1F
:100EAC006340039300220023049205936E4B43404E
:100EBC0004936E4B4B400593002200230092019348
:100ECC006B4B6B4000936B4B634001936A4B4340FD
:100EDC0015936A4B4B4016935B461B0699460023B1
:100EEC0098461893DA464B4619938CE01798404471
:100EFC00FFF712FF83468946159B43400693169BCA
:100F0C004B400793029C039D0498059924184D416E
:100F1C000D22FFF7D7FE604008906940099120220E
:100F2C0020002900FFF7CEFE06000F00009C019D5B
:100F3C000698079924184D411022FFF7C3FE604014
:100F4C000A9069400B910A980B9936184F4115225B
:100F5C00FFF7B8FE70400C9079400D9108980999F4
:100F6C0024184D411122FFF7ADFE60400E906940F0
:100F7C000F91202220002900FFF7A4FE04000D0091
:100F8C000E980F9936184F410D22FFF79BFE7040BB
:100F9C00109079401191202230003900FFF792FE19
:100FAC0006000F000C980D9924184D411022FFF7E4
:100FBC0089FE60401290694013911298139936186B
:100FCC004F411522FFF77EFE704015907940169127
:100FDC001098119924184D411122FFF773FE6040AF
:100FEC00049069400591202220002900FFF76AFE39
:100FFC00009001915B46734002934B467B400393F8
:10100C0008239C46E044534642469B1A072B00D9C2
:10101C006CE7D346189B9A46199B99460021464685
:10102C00179B9C465F46D0464C460AE02025AD1ADD
:10103C001800E8400500934042461A4390462C4362
:10104C0001317318BB421BD26246D35CCA00202507
:10105C006D425519EAD41800A8400500EBE7C046CC
:10106C0075657370656D6F736D6F646E61726F64AF
:10107C006172656E6567796C7365747962646574A9
:10108C00A146159B424653401C00169B4A465340B2
:10109C001D00029A039B0498059912184B41049267
:1010AC0005930D22FFF70EFE0E0000220023029284
:1010BC000393049A059B1100414002911000190002
:1010CC00734003932022FFF7FDFD04900591009AD5
:1010DC00019B12196B4116001F00102220002900E1
:1010EC00FFF7F0FD32003B004640340016004B4049
:1010FC001D000499059A09196A4100910192152263
:10110C0020001900FFF7DEFD00240025049405954E
:10111C00009B019C1D004540049520004840059013
:10112C0032003B000298039912184B4116001F0025
:10113C001122FFF7C7FD3200424014003A004A402A
:10114C001500202230003900FFF7BCFD02900391FE
:10115C00009E019F36196F410D2220002900FFF7D8
:10116C00B1FD00230024009301947040009079405D
:10117C000191202230003900FFF7A4FD06000F007A
:10118C00029A039B0498059912184B4114001D00F8
:10119C001022FFF797FD0494059544402000059C10
:1011AC004C40210036184F411522FFF78BFD0023D0
:1011BC00002402930394340044400294069607974B
:1011CC003B004B400393049A059B0098019912181D
:1011DC004B4114001D001122FFF774FD22002B005F
:1011EC004440260014004B401F0020222000290000
:1011FC00FFF768FD4446069D6C4022004C46079D57
:10120C006C4023000024002500940195FF344440D9
:10121C000094019192197B4114001D000D223000A5
:10122C003900FFF74FFD002200230492059326009E
:10123C00464004962B004B40059320322000290099
:10124C00FFF740FD06900791009A019B02980399C5
:10125C0012184B4114001D001022FFF733FD220021
:10126C002B0044402600029203934B401F0006992A
:10127C00079A89197A410C001500152230001900C3
:10128C00FFF720FD002200230092019322002B0087
:10129C0044400094069207934B400193029A039B9F
:1012AC000498059912184B4116001F001122FFF7E4
:1012BC0009FD32003B004640340016004B401D0037
:1012CC00202230003900FFF7FDFC029003910699B3
:1012DC00079A09196A410E0017000D2220002900F7
:1012EC00FFF7F0FC002300240493059434004640DF
:1012FC0004963B004B400593202220003900FFF759
:10130C00E1FC06900791029A039B00980199121830
:10131C004B4114001D001022FFF7D4FC22002B00BF
:10132C0044402600029203934B401F000699079AF3
:10133C0089197A410C001500152230001900FFF7AD
:10134C00C1FC002200230092019322002B00444098
:10135C000094069207934B400193029A039B0498C6
:10136C00059912184B4116001F001122FFF7AAFC19
:10137C0032003B004640340016004B401D0020223A
:10138C0030003900FFF79EFC029003910699079AF2
:10139C0009196A410E0017000D2220002900FFF7E1
:1013AC0091FC0023002404930594340046400496D9
:1013BC003B004B400593202220003900FFF782FCB4
:1013CC0006900791029A039B0098019912184B41C1
:1013DC0014001D001022FFF775FC22002B00444066
:1013EC002600029203934B401F000699079A891915
:1013FC007A410C001500152230001900FFF762FC31
:10140C00002200230092019322002B004440009400
:10141C00069207934B400193029A039B04980599FB
:10142C0012184B4116001F001122FFF74BFC320023
:10143C003B004640340016004B401D00202230007B
:10144C003900FFF73FFC06000F000699079A0919AF
:10145C006A41049105920D2220002900FFF732FC0D
:10146C000022002302920393049B059C1A00424025
:10147C00029222004A400392202218002100FFF71A
:10148C0021FC0490059134003D000098019924182A
:10149C004D411022FFF716FC02000B0062401000B9
:1014AC006B401900049E059F36184F411522FFF71B
:1014BC0009FC7040834679408A46029803992418A7
:1014CC004D411122FFF7FEFB604081466940884682
:1014DC00202220002900FFF7F5FB4A4672404346C4
:1014EC007B40504059405B465840534659401BB0D6
:1014FC00F0BCBB46B246A946A046F0BDF8B5CE46F8
:10150C00474680B504001500984600284ED0002AA6
:10151C004ED0002B4ED0167C202E4DD8132399463E
:10152C00B14437001D378F4201D9002745E03F33C6
:10153C00037001334370513B83701378C37051882F
:10154C000430FFF72DFCA988A01DFFF729FCAB790F
:10155C002372EB796372A96820000A30FFF724FC30
:10156C00E96820000E30FFF71FFC2A7CA274002AC9
:10157C0015D149462000FFF759FC01004B46E018F5
:10158C00FFF70EFC350015352A0021004046FFF709
:10159C006DFC02000B006019FFF7DAFB0DE029006F
:1015AC0011312000133004F079FAE2E7002704E04F
:1015BC00002702E0002700E000273800C0BCB94635
:1015CC00B046F8BDF0B5CE46474680B583B00600B0
:1015DC000C001D00002862D0002962D0002B62D0C4
:1015EC001C2A62D90B78522B65D14B78532B64D1C2
:1015FC008878022863D18F7C202F57D8403B98469F
:10160C00B8443B001D339A4202D04FD201384DE012
:10161C0041462000FFF70AFC81464346E018FFF7DD
:10162C00CBFB484501D0052040E015239846B84433
:10163C00424621002800FFF719FC02000B00684607
:10164C00FFF786FB4346E1186846FFF79AFB002834
:10165C0037D0E3783370201DFFF7AEFB7080A01DF0
:10166C00FFF7AAFBB080237AB371637AF371200081
:10167C000A30FFF7A6FBB06020000E30FFF7A1FB8D
:10168C00F0603774002F01D138000FE030001130BA
:10169C00210013313A0004F001FA002006E0022088
:1016AC0004E0022002E0022000E0012003B0C0BCF4
:1016BC00B946B046F0BD0320F8E70320F6E7042056
:1016CC00F4E70620F2E7002804D000233D228354DF
:1016DC0001328354704770B504001000002C4AD0BE
:1016EC00002A4AD0002B4AD03D22A55C002D09D1FE
:1016FC00522902D00025280070BD6A1C3D23E254FB
:10170C006155F8E7012D10D03C2D19D86A1CD2B2C6
:10171C003D26A2556155132A17D03E21615C002944
:10172C002FD08A421DD00025E5E75329ECD0522951
:10173C0000D000253D23E554153323700025DAE74E
:10174C002000FFF7C0FF0025D5E7A17C202903D896
:10175C001D313E256155E0E72000FFF7B4FF002561
:10176C00C9E72100FFF72EFF43425841C5B22000C4
:10177C00FFF7A9FFBFE70025BDE70025BBE7002564
:10178C00B9E70025B7E710B5031E27D0007800286D
:10179C0011D05C688C4223D19968914211D38A1A7A
:1017AC001F2A1FD8012191400A00D9680A421BD177
:1017BC000A43DA6004E00130187059609A60D8600E
:1017CC0010BD511A1F2905D8DC688C40210001245A
:1017DC00214300E00121D9609A60F1E70020EFE796
:1017EC000020EDE70020EBE70020E9E7002804D01B
:1017FC000023037043608360C3607047411A00206C
:10180C0091424041C0B27047401AC043C00F70476C
:10181C0001000023052B07D89A1D1201505C0028EB
:10182C0003D10133DBB2F5E700207047F0B59C46DD
:10183C0005AC26780027002401E00134E4B2052C25
:10184C000FD8A51D2D012D5C002D09D025014519A2
:10185C00AB6E3D014519AD6EAB42EED22700ECE705
:10186C002700BC1D240101252554041961603F018A
:10187C00C019826602006C32634613706D300670BC
:10188C00F0BDF8B506000F00002409E00022F318A3
:10189C0051331A7006352D010023AB550134E4B2D7
:1018AC00052C1BD82500A31D1B019B5D002BF5D01F
:1018BC00E1222301F318996E52003800FFF79EFFC6
:1018CC000028EBD02301F3186C331B78F21851323B
:1018DC0012780C2ADAD90C3AD2B2D8E7F8BDF0B5A6
:1018EC00CE46474680B583B00700884691460193A3
:1018FC00002401E00134E4B2052C19D8A51D2D01FA
:10190C007E19EB5D002BF5D073684345F2D12301B2
:10191C00FB186D331B784B45ECD1E1222101791872
:10192C00896E52000198FFF769FF0028E2D100E0B0
:10193C000026300003B0C0BCB946B046F0BD70B54F
:10194C0004000D005923C65C0233C35C9E420AD0CE
:10195C001922416C2800FFF751FF002804D05B23AB
:10196C00E654656400E0416470BD5823C35C022BEF
:10197C0006D0C36A0133C36254230322C2540164E8
:10198C0058230222C254033B0022C2547047030066
:10199C005022805C002808D008329A5C012A05D0BD
:1019AC0057229A5C042A11D00020704756329A5C58
:1019BC00023AD2B2012A01D90020F6E74F229B5CF1
:1019CC00032B01D00020F0E70120EEE74B329B5CAB
:1019DC00002B01D00020E8E70120E6E74E23C05C95
:1019EC002D3B9843431E9841C0B2704770B505001B
:1019FC000C005823C35C013B5A4253410B705B23D0
:101A0C00C35C002B1CD001235A22AA5C002A19D0DB
:101A1C000222134363704823E95AA01CFFF7C0F954
:101A2C004A23E95A201DFFF7BBF94C23E95AA01DA4
:101A3C00FFF7B6F9E96A20000830FFF7B5F970BD79
:101A4C000023E1E70022E4E7F0B5D6464F464646D0
:101A5C00C0B5A0B0040089461600984628AB1F7884
:101A6C0029AB1B789A4613AD34220021280004F0D0
:101A7C001EF84B462B7001236B800133AB80AE718B
:101A8C0003215046FEF7BEFBE971A36A5A1CA26201
:101A9C001593636A16932F74002F08D04346002BBE
:101AAC0005D03A0041465D20684403F0F7FF23005F
:101ABC00143313AA3D2103A8FFF720FD021E05D005
:101ACC0003A92068A3689847051E0CD14C22A35A81
:101ADC0004210B43A3520025280020B0E0BCBA46D9
:101AEC00B146A846F0BD4C22A35A04218B43A35205
:101AFC0013AB159A1699D879FFF770F95623E05461
:101B0C00F307E9D513AAD3791599127800922A9A7A
:101B1C002000FFF78BFEDFE7F0B587B004000D0067
:101B2C0017001E0004AB19705823C35C022B20D085
:101B3C00002204AB5A704823E15A12206844FFF784
:101B4C002FF9E16A05A8FFF72FF9002D13D0012218
:101B5C00002F02D004231A43D2B20C9B029301969D
:101B6C000823009304AB03212000FFF76DFF07B09F
:101B7C00F0BD0122DDE70322EAE730B585B008AC01
:101B8C002478099D02955625455D01950094FFF733
:101B9C005BFF05B030BDF8B504000D0017001E004A
:101BAC008E225200002103F082FF20000ECD0EC0C9
:101BBC000CCD0CC01022390003F070FF66620123BB
:101BCC00A3624B330B22E252002305E0E2185132A0
:101BDC00802111700133DBB2022BF7D92000C03009
:101BEC00FFF771FDF8BD5923C1540133C25470473E
:101BFC00F0B5C64600B504000E001D005D27C35DA0
:101C0C0098464823C1520233C25200686368984711
:101C1C00E063E555002D1BD14C22A35A08210B4340
:101C2C00A352002D02D0194B9E4217D84C22A35A16
:101C3C0001210B43A352002D02D0154B9E4219D803
:101C4C004C22A35A02210B43A35280BCB846F0BDD0
:101C5C004C22A35A08218B43A352E2E74346002BA4
:101C6C0002D00C4B9E42E6D94C22A35A01218B4345
:101C7C00A352E0E74346002B02D0074B9E42E4D927
:101C8C004C22A35A02218B43A352DEE75B2B0000AC
:101C9C0003290000232C0000CB290000002A04D0CB
:101CAC004C23C25A1143C15270474C22835A8B4366
:101CBC008352F9E710B50300080050229A5C002A01
:101CCC0008D0FA22996B5200FFF798FD002803D137
:101CDC00013000E0002010BD0020FCE7F0B58FB013
:101CEC00040003001433C03001AAFFF7F4FC0028F1
:101CFC0030D001AB5B88022B2CD101AB9B88012B24
:101D0C0002D0484A934225D188225200A35801336D
:101D1C00A35020686368984705005022A25C002AF3
:101D2C0005D001002000FFF7C5FF002814D001AA40
:101D3C001278042A0ED101AB1B7C082B0AD101AB03
:101D4C009B7C002B06D0042B04D801ABDB7C013A26
:101D5C0093430BD00FB0F0BD4C22A35A10210B4370
:101D6C00A35229002000FFF700FEE0E71920684489
:101D7C00FFF727F8010001AB5A7C2B002000FFF77E
:101D8C00AEFD061E41D029002000FFF793FF00286E
:101D9C000AD180235B00E35C002B05D082235B001F
:101DAC00E358049A934236D1039A0499601CFF308D
:101DBC00FFF7E9FC0028CDD001AFF879039A04991C
:101DCC00FFF70CF85623E054A5638C225200A3585D
:101DDC000133A3505023183AFF3AE254BA7C07332C
:101DEC00E254FA7C083BE2543A7D013BE254307BEE
:101DFC00231851331B78F62B12D80833DBB2241876
:101E0C005134237000233370A4E78A225200A35864
:101E1C000133A3509EE7601CFF30FFF7E7FCC3E7DC
:101E2C00FF23ECE7FFFF000010B504005823C35C50
:101E3C00012B01D0002010BD5C33C35C002B13D0F0
:101E4C004C23C35A002B11D1FFF734FF00280FD0BD
:101E5C002000FFF79CFD00280CD02000FFF7BEFDF2
:101E6C00002809D10130E6E70020E4E70020E2E792
:101E7C000020E0E70020DEE70020DCE770B586B04C
:101E8C0004000D005823C65C012E0FD0012603A9B7
:101E9C002000FFF7ABFD01950C23009303AB01224F
:101EAC0031002000FFF769FE06B070BDFFF702FF9E
:101EBC000028ECD00136EAE7F8B504000E00FFF775
:101ECC00F9FE07002000FFF762FD4C23E55A002DB8
:101EDC000ED1002F15D0002815D02000FFF77EFD65
:101EEC00002812D15823E35C022B10D0002700E00D
:101EFC0001275D23E35C002B0BD0EB072BD50025D2
:101F0C0008E00127F5E70127F3E70127F1E70127AF
:101F1C00EFE70025FA229200216B3000FFF76EFCF0
:101F2C0000281AD001263A007240D2B20021206853
:101F3C00E36898473A0001212068E36898472A0033
:101F4C0002212068E3689847E3687540EAB220688C
:101F5C0003219847F8BD0125DCE7002505E0E9B22F
:101F6C0001222068E36898470135032DF7D9F1E782
:101F7C0070B582B0040000686368984705005F2361
:101F8C00E35C002B07D15F330122E25420636064D1
:101F9C000300C83B636329002000FFF7D0FC290035
:101FAC002000FFF76EFC5D23E35C002B07D096222C
:101FBC005200E16B2800FFF721FC00280AD15B23BB
:101FCC00E35C002B0FD05C22A25C002A00D19BE0CA
:101FDC00002609E04A23E25E4823E15A0023200050
:101FEC00FFF706FEEBE700265C22A3545023E35CCC
:101FFC00002B0AD029002000FFF75CFE002804D13A
:10200C004C22A35A10210B43A3525A23E35C002BFE
:10201C0012D14C33E35A14221A420DD19B0775D5B9
:10202C005823E35C002B07D1E6325200216B2800C9
:10203C00FFF7E4FB002869D029002000FFF795FC8E
:10204C005E23E35C002B16D05823E35C002B12D1EB
:10205C00FA229200216B2800FFF7D0FB00280AD04F
:10206C005D23E35C002B06D04C23E35A9B0702D480
:10207C0058230122E25429002000FFF7D5FE002846
:10208C0002D155230022E254002E0CD0290020004E
:10209C00FFF7CAFE002806D0E36A0133E36255233A
:1020AC000222E25425645423E65C002E05D0216CF8
:1020BC002800FFF7A9FB002837D15523E65C002E3A
:1020CC000AD02000FFF7A4FB002805D1216C2800C2
:1020DC00FFF79AFB002844D1002E39D12000FFF7DE
:1020EC0097FB002834D1C822616B2800FFF786FBD0
:1020FC0000282DD065635823E35C022B45D02900C2
:10210C002000FFF7BBFE23E001266DE75E23E35CB6
:10211C00002B95D11922216B2800FFF76FFB0028AB
:10212C008ED05E230122E2548AE703239B1BDBB291
:10213C00033E721E9641F2B2009500212000FFF77B
:10214C00EBFC5422A35C013BA3542B00F03323641F
:10215C0029002000FFF7B0FE23692068984702B0E1
:10216C0070BD5623E35C023E721E9641F2B200959E
:10217C0002212000FFF7D0FC5522A35C013BA354A5
:10218C002B00C333FF332364E2E75433E35C009545
:10219C00012200212000FFF7BFFCD9E710B5064B48
:1021AC0018680649FDF7A8FF013001E0C046180089
:1021BC00431E0028FAD110BD0000002020A107000A
:1021CC0010B500F077FF10BD10B586B014000A00F2
:1021DC0014230293123B019305AB0093012380213E
:1021EC00074801F041FC002808D105A90A78120221
:1021FC004B7813432380013006B010BD0020FBE761
:10220C002C00002000B587B0100A05AB18705A706E
:10221C000A001421029112390191009301237E319D
:10222C00034801F051FB43425841C0B207B000BD16
:10223C002C00002010B5024801F074FD10BDC04602
:10224C008000002010B5140001F0FAF801000138EC
:10225C0042425041C0B2002C03D001394B1E99416F
:10226C00C8B210BD10B50A4A5060002313609362C7
:10227C00084A1370084A1370A02001221021C005CF
:10228C0001F0E5F801220821044801F0E0F810BD46
:10229C00B0020020720200207002002000040050E6
:1022AC0010B5A02000221021C00501F0D0F8FFF7D6
:1022BC0075FF10BD10B5FFF771FFA0200122102192
:1022CC00C00501F0C4F8FFF769FF10BD10B501237C
:1022DC005A40D2B201F0BBF810BD000010B5032972
:1022EC0008D8002A13D001238B40DBB2154C207880
:1022FC000343237002291FD010D8002916D00129BE
:10230C0019D1802109011048FFF7E0FF13E00120EB
:10231C0088400C4C237883432370EBE703290AD1C4
:10232C00802189010848FFF7D1FF04E08021C90012
:10233C000548FFF7CBFF10BD802149010248FFF78C
:10234C00C5FFF8E7580200200004005000B583B028
:10235C001300032200920A000100084803F030FA2F
:10236C00002802D1012003B000BD054AD368013317
:10237C00D3600120FFF776FF0020F4E71403002060
:10238C00B0020020F0B58DB001900091150000F066
:10239C0091FE06000027284B02930E22002103A871
:1023AC0003F085FB002307930E22002108A803F0FD
:1023BC007EFBFFF775FF022207A902A8FFF7C6FFF5
:1023CC00041E18D007AB5B781C4A5364FF2B15D046
:1023DC00FFF770FF00F06EFE801BA84203D201379E
:1023EC00174B9F42D7D9154A93680133936002204B
:1023FC00FFF738FF002420000DB0F0BD009B002B30
:10240C0009D09AB2162102AB9C466144981CFFF786
:10241C009DFF00280DD0FFF74DFF009B002BEAD04D
:10242C001A00162102AB9C466144019803F036FB5E
:10243C00E1E70400DFE7C04644FF0000B0020020E3
:10244C009F860100F0B589B006000C0017001D0036
:10245C004B1EDBB20F2B28D8102D01D9002025E004
:10246C000278134BDA6301221A640E9A00210020C1
:10247C00FFF788FF002819D02200310004A803F0D0
:10248C000DFBFFF70DFFA2B2694604A8FFF75EFF34
:10249C0000280BD0FFF70EFF054B02221A640E9A90
:1024AC0029003800FFF76EFF00E0002009B0F0BDF6
:1024BC00B002002030B587B0040005A8CD239B00E6
:1024CC00038004AB1B4A1A8002ABE43AFF3A1A7041
:1024DC005C7000229A70DA70302119715A710332D3
:1024EC009A71DA7105230093002300222E39FFF72D
:1024FC00A9FF002803D10025280007B030BD052313
:10250C00009300230022022104A8FFF79BFF002860
:10251C00F1D00523009300230022082102A8FFF725
:10252C0091FF051EE7D0044B5C6200F0C3FD034B2A
:10253C001860E1E715020000B0020020A80200209C
:10254C0010B5084B1B68002B07D0064B9B6A002B61
:10255C0003D1044B5B6A984200D110BDFFF7AAFF70
:10256C00FBE7C046B002002010B584B00400202365
:10257C0003931B3B009303330200042103A8FFF7D2
:10258C0061FF002807D0A278044B9A64A279DA6420
:10259C001A6D01321A6504B010BDC046B00200209D
:1025AC0010B5A0B06F4B1B68002B01D120B010BD33
:1025BC0004216D4800F044FF041E07D000F07AFDA2
:1025CC006A4B1B68C01A092800D898E000F072FD0D
:1025DC00664B1860002C03D0624A136E01331366ED
:1025EC001EA8FFF7C1FF0028E0D01EAB9B79282264
:1025FC001A421CD15B4B9B6A002B03D01EAB9B7801
:10260C009B061CD4574B9B6A002B78D11EAB9B7836
:10261C0018221A4273D01B071CD5524A93690133F6
:10262C009361504B586AC0B2FFF744FFBEE74D4A66
:10263C00D3690133D3610520FFF714FEB6E7494B8C
:10264C0000229A621A6901321A61494B1878FFF715
:10265C0031FFABE7772304932D22002105A803F06B
:10266C0026FA03A815230380103B0093033B02AA10
:10267C000221FFF7E7FE002898D002AB1B78302B25
:10268C0003D00620FFF7EEFD90E7FFF709FE31229D
:10269C0011A904A8FFF75AFE002800D186E7FFF71E
:1026AC0009FE344B1A78344B1B789A421FD311AB6A
:1026BC005A7813001D3BDBB2122BB2D82E4C227071
:1026CC002C4B00211970463169442C4803F0E6F973
:1026DC0000F0F0FC2A4B18602A4BD862196922785A
:1026EC0052181A611F4A53690133536199E7254AFD
:1026FC00536A013353620620FFF7B4FD56E7194BBA
:10270C009B6A002B1DD11B4B1A781B4B1B789A42D2
:10271C0000D04BE700F0CEFC1B4B1B68C01A962375
:10272C009B00984200D241E70E4B1A6A01321A62A2
:10273C00586A01300321FDF765FDC8B2FFF7BAFEF8
:10274C0034E700F0B7FC114B1B68C01AEF2800D817
:10275C002CE70C4A9369013393610720FFF782FD44
:10276C0024E7C046B0020020000400506C02002098
:10277C0071020020720200207002002078020020FA
:10278C007402002080030020A8020020AC0200206C
:10279C00F0B5A3B005000C0021ABCD2292001A803D
:1027AC0020AB4D4A1A80662311932D22002112A8CA
:1027BC0003F07DF902AA494B19680291998891801E
:1027CC009B799371FFF7ECFE454B1B68002B75D082
:1027DC002F2C00D976E01C2C00D875E0EFF3058384
:1027EC00002B00D072E03E4B9B6A002B07D0EB789D
:1027FC00032B00D06CE0EB7C002B00D06AE06B7AF2
:10280C00022B01D900245AE0052300930023002257
:10281C00022121A8FFF716FE002801D100244EE06A
:10282C000523009300230022022120A8FFF70AFEB3
:10283C000028F3D01EA8FFF797FE0028EED011AEAB
:10284C007470220029004620684403F027F9FFF732
:10285C0027FD312204A93000FFF778FD041E2ED08D
:10286C00FFF728FD02A86B7A437005230093002321
:10287C0000220721FFF7E6FD041E20D06F7A280006
:10288C000E30FEF79EFA060028000A30FEF799FA81
:10289C00020031003800FEF7A1FA124B187000F05C
:1028AC0009FC114B18600E4B01229A626A7A5A622B
:1028BC000E4B18635A6901325A6100E00024200063
:1028CC0023B0F0BD0024FAE70024F8E70024F6E773
:1028DC000024F4E70024F2E715030000E45A000892
:1028EC00B002002071020020AC0200208003002006
:1028FC0010B508001100FFF74BFF10BD10B500F02C
:10290C00F1FB040000F0F4FBC001444000F0F6FBC6
:10291C00C008444000F0CEFB6040074B9B68584019
:10292C0043035840430C43405A01100058409A420C
:10293C0000D010BD0120FCE710E000E030B587B0FE
:10294C00040005AB12221A7042785A7082789A7081
:10295C00C278DA700025012D21D8A37805220092C7
:10296C0002AA042105A8FFF76DFD002818D00D4A16
:10297C00936D01339365211DA27802A803F080F8B2
:10298C00002801D10135E6E763781B02E278134396
:10299C00044AD3650820FFF765FC002000E0012005
:1029AC0007B030BDB0020020F0B5C64600B59EB0F1
:1029BC0004001422002119A803F079F8B44B1A78FA
:1029CC0018AB1A70B34B9A681692998916AA918013
:1029DC0014A91A00103221CA21C1AF4A11681291F0
:1029EC00117912AA11710EA91A00183261CA61C1AB
:1029FC0012680A600BAA283323CB23C2A74BA84A20
:102A0C001A605C60A74A9A60A74BA84A5A63A84B05
:102A1C005A6B01252A435A635A6B2A400292029A36
:102A2C005A6B02273A435A635A6B3A400392039A01
:102A3C001A6C802149010A431A641B6C0B400493E5
:102A4C00049BA026F60501221021300000F0FFFCAB
:102A5C00984B984601220821180000F0F8FC10232E
:102A6C0019931A951B9500241C9419A9300000F099
:102A7C0025FC082319931B9519A9404600F01EFC50
:102A8C00042319931A941B9519A9404600F016FCBF
:102A9C00E02319931A971B941C941D9419A93000C8
:102AAC0000F00CFC8448854B036082235B00436080
:102ABC008460E023DB00C3600461446180239B00DD
:102ACC008361C93BFF3BC361046244628462313B56
:102ADC00C3620463446302F0F1FD00280CD10520AD
:102AEC0000F0EEFA00220821724800F0B0FC14202D
:102AFC0000F0E6FA002415E00120FFF7B3FB1EB04E
:102B0C0080BCB846F0BD0320FFF7ACFBF7E74833B9
:102B1C00FF330093002300222900FFF793FC0028C9
:102B2C00EDD02C19664A944213D8664A155D002DD7
:102B3C000FD05D4A94630134102DE4D8624B1B1BFB
:102B4C009D42E0D85F4BE0181B5D172BDFD01423A0
:102B5C00DFE75B4A94421AD805230093033309AA92
:102B6C00012118A8FFF76EFC0028C8D009A94B78E2
:102B7C001B028A7813434C4AD3620B781363D26AD4
:102B8C00524B9A4207D00420FFF76CFBB7E70320A7
:102B9C00FFF768FBB3E7052300930023002206210F
:102BAC0016A8FFF74FFC0028A9D00523009300239B
:102BBC000022082114A8FFF745FC00289FD005230C
:102BCC00009300230022052112A8FFF73BFC0028EC
:102BDC0095D007A8FFF7C8FC002800D18FE707ABFA
:102BEC009B7928221A424BD114A8FFF7A7FE002884
:102BFC0000D184E716A8FFF7A1FE002800D17EE7DC
:102C0C0012A8FFF79BFE002800D178E70EA8FFF76B
:102C1C0095FE002800D172E70BA8FFF78FFE002865
:102C2C0000D16CE700F046FA294B18600020FFF742
:102C3C0041FC002800D162E7264B05930523009345
:102C4C00013B06AA190005A8FFF7FCFB002800D1E0
:102C5C0055E7154B069A5A6506AB1B78052B0BD11D
:102C6C0006AB5B78382B07D106AB9B78002B03D1D6
:102C7C0006ABDB78282B07D00820FFF7F3FA3EE7EA
:102C8C000520FFF7EFFA3AE7074B01221A6036E707
:102C9C008C5B0008E45A0008905B0008800300205D
:102CAC004453455222092620B002002080C3C9019A
:102CBC0000100240000400501403002000300140BA
:102CCC004E020000A85B00084F02000063440000A5
:102CDC006C0200201201040070B504000D00FFF717
:102CEC005FFC1B4B1B68002B30D01A4B1A781A4B0D
:102CFC001B789A4201D3002029E000F0DBF9174B36
:102D0C001B68C01A642810D8124B1B78002B19D0E2
:102D1C00104A1378591C1170114AD35C2B70114A4C
:102D2C00536B01335363012011E00B4B1A78094BA1
:102D3C001A702000FEF7C7FC0A4AD36B0133D36329
:102D4C00002004E02000FEF7BEFCE1E7002070BD8F
:102D5C00B0020020720200207002002074020020D9
:102D6C00780200208003002070B586B001AC2C4B9B
:102D7C003433220023CB23C203CB03C2FFF7BEFDA7
:102D8C000600284B284A1A608021284D0022C900D1
:102D9C002800FFF79BFA8021002209012800FFF789
:102DAC0095FA8021002249012800FFF78FFA802133
:102DBC00002289012800FFF789FA1D4D33001D4AB6
:102DCC0021002800FEF7E7FE002300220021280046
:102DDC00FEF70EFF184800230360184B4360184B96
:102DEC008360FDF723FE002803D1164A13680133D4
:102DFC001360114BDA7B144B1A6000F05BF9134B28
:102E0C0018600120FFF7D0FD114B1B68002B01D07F
:102E1C0006B070BD012204210548FEF73FFFF7E71D
:102E2C00E45A000804000020220926200004005067
:102E3C003C010020985B00082401002011220008AE
:102E4C00D52100085C020020600200203401002023
:102E5C00B0020020F0B585B0594A8C235B00D558E0
:102E6C00983B06E00F236B4419785548FEF736FF64
:102E7C0023005C1E002B06D00F2169445148FFF73C
:102E8C002BFF0028EED14E4A8C235B00D358AB426B
:102E9C0000D07EE04C4B1B68002B00D17EE000F094
:102EAC0009F90400494E012201213000FFF7CAF94B
:102EBC000500002202213000FFF7C4F902002900AE
:102ECC003F48FEF790FE424B1B68E31A632B32D946
:102EDC00002301AA13806A46D38002933D4B9B7B4F
:102EEC00002B06D13C4B1B68E31AFA22920093424A
:102EFC005AD201AE374F02AB6A4606323100380067
:102F0C00FDF71CFE0500FA7B344B1A603288344BFB
:102F1C001A8000284ED1334A1368013313606B4674
:102F2C00063300229A5E01AB19882B002448FEF769
:102F3C005FFE274B1C60224C2000FFF719F800F0B5
:102F4C00B9F8294BD860A26B1A645822A25C5A6457
:102F5C004C22A25A9A645022A25CDA644822A25AE9
:102F6C001A655D22A25C5A655A22A25C9A651F4AB8
:102F7C001278D2B2DA6588225200A2581A668A22D6
:102F8C005200A2585A668C225200A2589A6605B07A
:102F9C00F0BD5623D05CFFF7D3FA7BE70122042166
:102FAC000748FEF77BFE7AE70A48FDF73FFD0A4B20
:102FBC001C609EE700F07EF80D4B1860AFE7C04632
:102FCC003C010020FC010020B00200200004005055
:102FDC003801002024010020340100206002002070
:102FEC00680200205C0200208003002058020020B0
:102FFC006402002010B5064B984200D010BD054A63
:10300C0013680133136001F04BFE034B1860F5E7B6
:10301C0090000020780300207C03002010B50400F1
:10302C00114B1978002901D1012010BDFA20800024
:10303C00FDF762F801000D4B1868FDF75DF800F024
:10304C00ABF800280DD1032C01D90120EDE701309C
:10305C0000222100404200F063F8054B1C60002068
:10306C00E3E70120E1E7C046080000200000002053
:10307C000C00002010B5084A116880235B000B433C
:10308C0013600320FFF7CAFF041E02D001242000A6
:10309C0010BDFDF797FCFAE700200240034B1B78AC
:1030AC00034A11685B1813607047C0460800002083
:1030BC006C040020014B18687047C0466C0400205B
:1030CC0070B50400FFF7F6FF0500631C02D0044B3B
:1030DC001B78E418FFF7EEFF401BA042FAD370BD3B
:1030EC0008000020014B18687047C0469075FF1F00
:1030FC00014B18687047C0469475FF1F014B186848
:10310C007047C0469875FF1F034A136803490B406C
:10311C00034313607047C04600000140FFF9FFFFF6
:10312C0070B5002811DB8308134EC0339B009D59EA
:10313C0003242040C000FF2214008440A5438901D1
:10314C000A4082402A439A5170BD0F230340083B2A
:10315C009B0806339B00094A944663445C6803222F
:10316C001040C000FC3215008540AC4389010A4078
:10317C00824022435A60E7E700E100E000ED00E006
:10318C00002805DB1F2318401E3B8340014A1360B7
:10319C007047C04600E100E0013880235B04984290
:1031AC000FD2094A50600948036A1B021B0AC0214E
:1031BC0009060B430362002393600733136000205E
:1031CC0070470120FCE7C04610E000E000ED00E095
:1031DC0010B5002833D02523C35C022B06D0042362
:1031EC00C36320330022C254012010BD01680A6859
:1031FC0001239A430A6001680A680E24A2430A60FC
:10320C00816C0A680F4C22400A601C22416C0A40F7
:10321C00016C93404B60C36C026D5A60436D002B84
:10322C0005D01A6822401A60836DC26D5A6025233E
:10323C000122C254013B0022C2540020D5E70120D8
:10324C00D3E7C046FFFEFFFF10B52523C35C022B5E
:10325C0003D00423C363012010BD01680A68012355
:10326C009A430A6001680A680E24A2430A60816CC2
:10327C000A68114C22400A601C22416C0A40016C05
:10328C0093404B60C36C026D5A60436D002B05D0AC
:10329C001A6822401A60836DC26D5A602523012280
:1032AC00C254013B0022C254836B002B02D09847BE
:1032BC000020D1E70020CFE7FFFEFFFFF0B5002391
:1032CC005AE084685F000326BE40B4432600CC68F5
:1032DC00BC4034438460446894434A681609012214
:1032EC0032409A402243426056E0DC080834A40085
:1032FC00265805321A4092000F279740BE430F699B
:10330C0097403A00324322505AE0042600E000264F
:10331C00A64034003C43454E183292009451346818
:10332C00EA432600AE434F68FF0201D52C4326002A
:10333C003E4C26606468260016404F68BF0201D5DB
:10334C002C432600394C66608426A459260016406E
:10335C004F68BF0301D52C432600344C8427E6511B
:10336C008026A45922404E68F60301D52A00224338
:10337C002E4D80242A5101330C682200DA4054D09F
:10338C0001229A40250015401442F4D003244E68C3
:10339C003440013C012C94D903224C682240032A6E
:1033AC0009D0C2685E000324B440A24314008A68AA
:1033BC00B2402243C26003224C682240022A94D0BD
:1033CC0004685E0003221700B740BC434F683A40C4
:1033DC00B24022430260C02292024C681442CAD00E
:1033EC009A0814001834A400104EA75903261E4046
:1033FC00F4000F26A640B743A026F605B04286D0AF
:10340C000B4EB0420BD00B4EB0420AD00A4EB0421B
:10341C0009D00A4EB04200D177E7052678E701269D
:10342C0076E7022674E7032672E7F0BD0018024027
:10343C000004005000080050000C00500010005018
:10344C0003690B4201D0012070470020FCE7002AE1
:10345C0001D0816170478162FCE703689A69920729
:10346C0001D500229A6203689A69D20703D49A693B
:10347C0001210A439A61704710B58905890D120420
:10348C0011431943029B19434900490804686268B7
:10349C005B0D8020C0000340024803439A43114354
:1034AC00616010BDFF63FF03F0B5C64600B50400B4
:1034BC000D00170001688B69102216001E401A427D
:1034CC0000D175E01023CB610023984600262368B9
:1034DC009869820631D4002E2FD16B1CF7D0FFF7E0
:1034EC00E9FDC01BA84201D8002DF0D121684B6822
:1034FC008022D20113404222A25CD2B2886900041D
:10350C0003D5002B01D1202A0ED123689B699B0681
:10351C00DDD4FFF7CFFDC01B1928F6D92023424676
:10352C001A4390460126D2E74A688023DB011343F5
:10353C004B60FFF7BFFD0700E7E7002E01D120220B
:10354C00DA610426434633431E0001252268936941
:10355C00D90504D501210E43FF31D16101255A054E
:10356C0006D50822164322688021C900D1610125A5
:10357C009B051FD502231E43236880229200DA612B
:10358C0001252000FFF769FF226853680B490B40A7
:10359C005360636C1E43666441232022E254002373
:1035AC002232A354023AA354280080BCB846F0BD82
:1035BC000025CBE7002DF7D0E3E7C04600E800FE7E
:1035CC0070B504000D00160023689B699B0720D47E
:1035DC00320029002000FFF767FF00281BD16B1C6D
:1035EC00F2D0FFF767FD801BA84201D8002DEBD16C
:1035FC0023689B699B07E7D4636C202213436364A5
:10360C004123E25400232232A354023AA354012052
:10361C0000E0002070BD0120FCE7F0B5D6464F4617
:10362C0080B583B007000D00160099460A9B9A4698
:10363C003B689C692C40641B63425C410196B4421C
:10364C0028D1524649463800FFF72EFF002827D1D3
:10365C004B460133ECD0FFF72DFD5346C01A4845BD
:10366C0002D84B46002BE3D13B689B692B405B1B7C
:10367C005A425341019A9342DAD17B6C2022134374
:10368C007B644123FA5400232232BB54023ABB54CC
:10369C00012000E0002003B0C0BCBA46B146F0BD2A
:1036AC000120F8E770B582B0040015001E008023DD
:1036BC00F2B2194800905B042000FFF7DDFE079A78
:1036CC0006992000FFF77CFF00281ED1012E0ED199
:1036DC002368EDB29D62079B0093069B002280211C
:1036EC002000FFF79AFF002813D102B070BD2368A9
:1036FC002A0A9A62079A06992000FFF761FF0028B0
:10370C0005D12368EDB29D62E5E70120EDE70120CC
:10371C00EBE70120E9E7C0460020008070B582B0DD
:10372C00040015001E00DAB2184B00930023FFF7BB
:10373C00A3FE079A06992000FFF742FF00281ED12E
:10374C00012E0ED12368EDB29D62079B0093069B60
:10375C00002240212000FFF760FF002813D102B0A7
:10376C0070BD23682A0A9A62079A06992000FFF70F
:10377C0027FF002805D12368EDB29D62E5E7012003
:10378C00EDE70120EBE70120E9E7C04600200080CF
:10379C0070B504000D00160003E023689B699B06BE
:1037AC0012D523689B699B061BD43200290020008C
:1037BC00FFF77AFE002816D1FFF77CFC801BA8428D
:1037CC00EBD8002DEDD1E8E7636C20221343636442
:1037DC004123E25400232232A354023AA354012081
:1037EC0000E0002070BD0120FCE7000010B5041EB5
:1037FC0060D04123C35C002B48D041232422E254E7
:10380C002268136801218B43136022682A4B61687C
:10381C000B4013612268936828490B409360E3685E
:10382C00012B39D0226884231B02A1680B439360BF
:10383C00E368022B37D02268536821490B40536050
:10384C00226851681F4B0B4353602268D3681B4995
:10385C000B40D360236962691343A2691202216889
:10386C001343CB602268E369216A0B43136022681F
:10387C00136801210B4313600023636441221F3141
:10388C00A15423630132A354002010BD4033002205
:10389C00C254FCF7B7FFB0E7226880231B02A16873
:1038AC000B439360C4E72268516880231B010B43D0
:1038BC005360C5E70120E8E7FFFFFFF0FF7FFFFF44
:1038CC00FFF7FFFF00800002F0B587B00400039102
:1038DC00049205930CAB20CB1F884123C35C202B97
:1038EC0000D0B3E0002D18D0002F16D04023C35CBD
:1038FC00012B00D1ADE040230122C254FFF7DAFBCB
:10390C000600802100901923012209022000FFF7F4
:10391C0084FE002806D0012099E080239B0063647C
:10392C00012094E041232122E25401331F32E2545E
:10393C000023636465626785636301960E9B009345
:10394C00059B049A03992000FFF7ACFE00280FD1C9
:10395C00638D9BB2FF2B10D9FF2323857F3B002265
:10396C0000925B04FF3203992000FFF785FD21E0F4
:10397C0040230022E254012069E0628D92B222853C
:10398C008023D2B2002100919B0403992000FFF701
:10399C0073FD0FE0628D92B222858023D2B200219A
:1039AC0000919B0403992000FFF766FD638D9BB289
:1039BC00002B34D032000E992000FFF701FE0028B6
:1039CC0049D12368626A12789A62636A013363622E
:1039DC00638D013B9BB26385238D013B9BB2238599
:1039EC00628D92B2002AE1D0002BDFD100960E9BA3
:1039FC00002280212000FFF710FE00282DD1638DBE
:103A0C009BB2FF2BC6D9FF2323857F3B002200925C
:103A1C005B04FF3203992000FFF72EFDC6E732004E
:103A2C000E992000FFF7B4FE002818D1236820223D
:103A3C00DA6121684B680B4D2B404B604123E254FB
:103A4C0000232232A354023AA35400E0022007B010
:103A5C00F0BD0220FBE70120F9E70120F7E7012088
:103A6C00F5E7C04600E800FEF0B587B0040003910E
:103A7C00049205930CAB20CB1F884123C35C202BF5
:103A8C0000D0B5E0002D18D0002F16D04023C35C19
:103A9C00012B00D1AFE040230122C254FFF70AFBF7
:103AAC000600802100901923012209022000FFF753
:103ABC00B4FD002806D001209BE080239B006364AA
:103ACC00012096E041232222E25401331E32E254BB
:103ADC000023636465626785636301960E9B0093A4
:103AEC00059B049A03992000FFF718FE00280FD1BC
:103AFC00638D9BB2FF2B10D9FF2323857F3B424A5A
:103B0C0000925B04FF2203992000FFF7B5FC21E033
:103B1C0040230022E25401206BE0628D92B2228598
:103B2C008023D2B2384900919B0403992000FFF7FF
:103B3C00A3FC0FE0628D92B222858023D2B20021C9
:103B4C0000919B0403992000FFF796FC638D9BB2B8
:103B5C00002B36D000960E9B002204212000FFF78C
:103B6C005CFD002849D123685B6A626A1370636A42
:103B7C0001336362238D013B9BB22385628D013A35
:103B8C0092B26285628D92B2002ADFD0002BDDD119
:103B9C0000960E9B002280212000FFF73EFD00289E
:103BAC002DD1638D9BB2FF2BC4D9FF2323857F3B83
:103BBC00002200925B04FF3203992000FFF75CFCAB
:103BCC00C4E732000E992000FFF7E2FD002818D15F
:103BDC0023682022DA6121684B680C4D2B404B6026
:103BEC004123E25400232232A354023AA35400E0AE
:103BFC00022007B0F0BD0220FBE70120F9E701200D
:103C0C00F7E70120F5E7C0460024008000E800FE3D
:103C1C00F0B54123C35C202B20D12033C35C012B96
:103C2C001ED0402401220255412524234355066809
:103C3C00336893433360066833680A4F3B40336004
:103C4C00066833681943316001680B6813430B60D5
:103C5C0020234355002303550020F0BD0220FCE730
:103C6C000220FAE7FFEFFFFFF0B54123C35C202BE6
:103C7C001ED12033C35C012B1CD0402401220255E1
:103C8C004125242343550668336893433360066803
:103C9C003368094F3B4009021943316001680B68D6
:103CAC0013430B6020234355002303550020F0BD24
:103CBC000220FCE70220FAE7FFF0FFFF70B5041EBC
:103CCC0028D00368144A1A600368144A1A600368FF
:103CDC0042685A60036882689A60FFF7EBF9050046
:103CEC002368DA6852070AD0FFF7E4F9401B312841
:103CFC00F6D92368DB685B07F2D003200BE0196967
:103D0C00E268914202D01A61002004E0044A1A6071
:103D1C00002000E0012070BDCCCC00005555000007
:103D2C00AAAA00000368024A1A6000207047C04625
:103D3C00AAAA000010B5104A136810490B4003439F
:103D4C00136080239B00984201D0002010BD0C4BC7
:103D5C001B685800C01840000A49FCF7CDF9013027
:103D6C00054B5B695B0503D5002803D00138F7E7E9
:103D7C000020EBE70320E9E700700040FFF9FFFFAC
:103D8C000000002040420F0070B5FFF793F90400CB
:103D9C00254A116880235B000B431360224B1B6880
:103DAC005B0506D4FFF786F9001B0228F6D9032021
:103DBC0070BD1D4D8023DB016B60FFF77BF90400A8
:103DCC000023AB60184B9B6838221A4207D0FFF7D0
:103DDC0071F9001B154B9842F4D90320E8E7124BFC
:103DEC00C8321A601A60FFF765F904000E4B1B68A5
:103DFC009B0106D5FFF75EF9001B0228F6D90320BC
:103E0C00D6E7094B80225201DA6000229A61013A0E
:103E1C001A62074B074A1A60074B1868FFF7FEF83F
:103E2C000028C5D00120C3E7001002408813000011
:103E3C00000000200024F4000C00002070B582B0BB
:103E4C00041E00D15EE20368DB0739D5C14A9168D4
:103E5C0038230B40D16803220A40102B26D0082BA4
:103E6C0026D063688022520293427FD0A022D202D5
:103E7C00934200D181E0B74B1A68B7490A401A60E7
:103E8C001A68B6490A401A606368002B00D180E0BA
:103E9C00FFF710F90500AF4B1B689B0310D4FFF71D
:103EAC0009F9401B6428F6D903202CE2032AD6D149
:103EBC00A84B1B689B0303D56368002B00D124E23D
:103ECC0023689B0731D5A34A936838210B40D168EE
:103EDC0003220A40102B6AD0002B6BD19D4A12682A
:103EEC00520503D5E268002A00D110E299484268D5
:103EFC009B490A40616909020A434260002B0DD1BB
:103F0C00036898490B4021690B4303600368DB0A83
:103F1C0007221A40944BD340944A1360944B186870
:103F2C00FFF77CF8002800D0F3E123681B0700D4CE
:103F3C0081E0884B9A6838231340182B73D0A369FF
:103F4C00002B00D1B4E0834A136E01210B4313669E
:103F5C00FFF7B0F805007F4B1B6E9B076BD4FFF788
:103F6C00A9F8401B0228F6D90320CCE1794A116844
:103F7C0080235B020B43136086E7764B1968802223
:103F8C00D2020A431A601968802252020A431A604C
:103F9C007AE7FFF78FF805006E4B1B689B038FD5F4
:103FAC00FFF788F8401B6428F6D90320ABE1022AFE
:103FBC0092D193E7E368002B22D0664A13686949D3
:103FCC000B4021690B431360116880235B000B438A
:103FDC001360FFF76FF805005E4B1B685B0506D49A
:103FEC00FFF768F8401B0228F6D903208BE15949EA
:103FFC004B685B4A13406269120213434B6094E7AF
:10400C00544A13685B490B401360FFF753F80500E3
:10401C00504B1B685B0588D5FFF74CF8401B0228FA
:10402C00F6D903206FE14B4B1B6E9B0703D5A3699D
:10403C00002B00D16FE123685B0700D4A2E0454B55
:10404C009A6838231340202B45D0424BDB6BDB00A6
:10405C004AD4404AD16B802040050143D163D36BD5
:10406C0003400193019B0125434B1B68DB053DD5A8
:10407C00A368012B4ED0052B52D0364BDA6D0121A3
:10408C008A43DA65DA6D03318A43DA65A368002B5B
:10409C0050D0FFF70FF806002E4BDB6D9B076FD44B
:1040AC00FFF708F8801B354B9842F5D903202AE11D
:1040BC00284A136E01218B431366FEF7FBFF0500A4
:1040CC00244B1B6E9B07B6D5FEF7F4FF401B022852
:1040DC00F6D9032017E11F4BDB6D9B0752D5A36864
:1040EC00002B4FD101200EE10025BDE7224A1168BB
:1040FC0080235B000B431360FEF7DCFF06001E4BB6
:10410C001B68DB05B4D4FEF7D5FF801B0228F6D95B
:10411C000320F8E00F4AD36D01210B43D365B5E7BB
:10412C000C4BDA6D04210A43DA65DA6D03390A4364
:10413C00DA65ABE7FEF7BEFF0600064BDB6D9B07AF
:10414C001ED5FEF7B7FF801B0C4B9842F5D9032008
:10415C00D9E0C04600100240FFFFFEFFFFFFFBFF4F
:10416C00FF80FFFFFFC7FFFF0024F40000000020CA
:10417C000C000020FFFEFFFF0070004088130000C1
:10418C00012D19D023689B062FD5E369002B19D07C
:10419C006A4A11688023DB030B431360FEF78AFF26
:1041AC000500664B1B681B021FD4FEF783FF401BE8
:1041BC000228F6D90320A6E0604AD36B60490B4075
:1041CC00D363DFE75D4A13685E490B401360FEF76B
:1041DC0071FF0500594B1B681B0206D5FEF76AFFE1
:1041EC00401B0228F6D903208DE0236A002B00D156
:1041FC0093E0524A916838220A40102A5AD0022B76
:10420C0012D04E4A136850490B401360FEF752FF10
:10421C0004004A4B1B689B0145D5FEF74BFF001B66
:10422C000228F6D903206EE0444A136846490B4035
:10423C001360FEF73FFF0500404B1B689B0106D542
:10424C00FEF738FF401B0228F6D903205BE03B4AFF
:10425C00D3683E491940636AA06A0343E06A0002CE
:10426C000343206B0343606B0343A06B03430B437B
:10427C00D360116880235B040B431360D1688023E7
:10428C005B050B43D360FEF715FF04002B4B1B683B
:10429C009B0106D4FEF70EFF001B0228F6D9032063
:1042AC0031E000202FE0254AD36829490B40D36028
:1042BC00002028E0012B32D0204BDA680323134076
:1042CC00616A8B422DD170231340A16A8B422AD193
:1042DC00FE21C9011140E36A1B02994225D1F82342
:1042EC009B031340216B8B4221D1E0231B05134010
:1042FC00616B8B421DD1520F5207A36B9A421AD19C
:10430C00002000E0012002B070BD0120FBE701207D
:10431C00F9E70120F7E70120F5E70020F3E701209A
:10432C00F1E70120EFE70120EDE70120EBE70120A9
:10433C00E9E70120E7E70120E5E7C046001002406D
:10434C00FFFFFFEFFFFFBFFFFFFFFFFE8C80C111E0
:10435C00FCFFFEEE10B52A4B9B6838221A4207D19F
:10436C00274B1A68D20A072313402648D84010BDA1
:10437C00234B9A6838231340082B3BD0204B9A6868
:10438C0038231340102B0DD01D4B9A683823134043
:10439C00202B31D01A4B9A6838231340182B26D077
:1043AC000020E4E7164AD1680D3B0B40D268120995
:1043BC00072111400131032B0FD01248FBF79CFE53
:1043CC000F4BDA68120A7F23134058430C4BD96801
:1043DC00490F0131FBF790FEC9E70B48FBF78CFE48
:1043EC00074BDA68120A7F2313405843EEE7FA2092
:1043FC00C001BCE70448BAE780200002B7E7C0461A
:10440C00001002400024F40000127A0070B5040081
:10441C000D00002800D1AAE0574B1A68072313405F
:10442C008B4221D323689A070ED55B0705D5534AD7
:10443C009168E023DB010B439360504A9368504929
:10444C000B40A1680B4393602368DB0754D563686A
:10445C00012B20D0022B3BD0002B3FD1474A1268B6
:10446C0052051CD401206AE0434A136807218B4390
:10447C002B431360FEF71EFE06003F4B1A68072302
:10448C001340AB42CED0FEF715FE801B3D4A904246
:10449C00F3D9032053E0394A1268920369D537499E
:1044AC008A680720824313438B60FEF703FE0600E5
:1044BC00324B9B6838221A406368DB009A421BD04F
:1044CC00FEF7F8FD801B2F4B9842F1D9032036E004
:1044DC002A4A12689201E2D4012030E0032B05D065
:1044EC00264AD26D9207DAD4012028E0234A126EB4
:1044FC009207D4D4012022E01F4B1A6807231340E3
:10450C00AB421DD823685B0706D51C4A93681E492D
:10451C000B40E1680B439360FFF71CFF174B9A6845
:10452C00120A0F2313409B00184A9A581F2313405A
:10453C00D840174B1860174B1868FEF76FFD70BD0D
:10454C000D4A136807218B432B431360FEF7B2FD12
:10455C000600094B1A6807231340AB42D2D0FEF772
:10456C00A9FD801B074B9842F3D90320E7E70120F4
:10457C00E5E70120E3E7C0460020024000100240BE
:10458C00FFF0FFFF88130000FF8FFFFF2C5B00087C
:10459C00000000200C000020014B18687047C0463A
:1045AC000000002010B5FFF7F7FF064B9A68120BBE
:1045BC00072313409B00044A9A581F231340D840EA
:1045CC0010BDC046001002406C5B0008F0B583B013
:1045DC00040003689B0362D5AE4BDB6BDB001ED47F
:1045EC00AC4AD16B802040050143D163D36B0340AF
:1045FC000193019B0126A84A116880235B000B43A1
:10460C001360FEF757FD0500A34B1B68DB0508D4B0
:10461C00FEF750FD401B0228F6D9032502E00026C8
:10462C00E9E70025002D23D19A4BD96DC0229200C9
:10463C000B001340114210D0226C9A420DD0954AB7
:10464C00D36D96490B40D06D802149020143D16551
:10465C00D16D93480140D165D365DB0710D4002D93
:10466C0006D18C4AD36D8D490B40216C0B43D3651D
:10467C00012E15D1874AD36B8A490B40D3630FE0C7
:10468C00FEF718FD0700834BDB6D9B07E7D4FEF7A5
:10469C0011FDC01B844B9842F5D90325DFE700259B
:1046AC002368DB0706D57B4A536D03218B43616876
:1046BC000B43536523689B0706D5764A536D0C2133
:1046CC008B43A1680B43536523685B0706D5714A7E
:1046DC00536D30218B43E1680B4353652368DB0634
:1046EC0006D56C4A536D71490B4021690B435365D8
:1046FC002368DB0406D5674A536D68490B40616932
:10470C000B43536523689B0506D5624A536D684974
:10471C000B40A16A0B43536523685B0506D55D4AC4
:10472C00536D64490B40E16A0B43536523689B0648
:10473C0006D5584A536D60490B40A1690B4353652C
:10474C0023685B0606D5534A536D5C490B40E169FF
:10475C000B43536523685B040BD54E4A536D9B008A
:10476C009B08216B0B4353658023DB05226B9A421C
:10477C0062D023681B0306D5464A536D40218B43F8
:10478C00616B0B43536523689B020BD5414A536DF8
:10479C004B490B40A16B0B4353658023DB03A26B8E
:1047AC009A4250D023685B020BD53A4A536D454967
:1047BC000B40E16B0B43536580235B04E26B9A4225
:1047CC0048D023681B0509D5324A936D03218B43CE
:1047DC00216A0B439365236A012B40D023689B0409
:1047EC0009D52C4A936D0C218B43616A0B4393655D
:1047FC00636A042B39D02368DB010BD5254A936DF2
:10480C002D490B40616C0B43936580239B01626CBB
:10481C009A4230D023689B010BD51E4A936D1F49D9
:10482C000B40A16C0B439365A26C80235B009A42F6
:10483C0028D0280003B0F0BD164AD16880235B0253
:10484C000B43D36095E7134AD16880235B040B4379
:10485C00D360A7E70F4AD1680B43D360B1E7D168A7
:10486C0080235B020B43D360B8E7D16880235B02E3
:10487C000B43D360BFE7074AD16880235B040B432B
:10488C00D360C7E7034AD16880235B040B43D36032
:10489C00CFE7C0460010024000700040FFFCFFFF55
:1048AC00FFFFFEFFFFFFFFEF88130000FFF3FFFF8A
:1048BC00FFFFF3FFFFFFCFFFFFCFFFFFFF3FFFFF28
:1048CC00FFFFBFFFFFFFFFFE30B5EFF310840122A7
:1048DC0082F3108801680B68124D2B400B6084F337
:1048EC001088EFF3108182F31088026893680E4CE5
:1048FC002340936081F31088C36E012B06D08C2368
:10490C002022C2500023C366436730BDEFF31081F1
:10491C0083F31088026813681024A343136081F397
:10492C001088ECE7DFFEFFFFFEFFFFEF704710B5CE
:10493C00EFF31081012383F310880268136840247D
:10494C00A343136081F3108888232022C2500023D4
:10495C008367FFF7EBFF10BD10B5806AFBF781FE94
:10496C0010BD7047F8B504000268D36910689568EB
:10497C00BA491E000E400B4205D1990603D581069B
:10498C002CD4E9002AD4002E07D0B5492E000E40B5
:10499C000D4229D1B349084226D1E16E012900D13B
:1049AC00AAE0D90202D5690200D550E11A0605D554
:1049BC00020600D560E12A0200D55DE15A0602D557
:1049CC00420600D55FE11A0202D5420000D55EE135
:1049DC00DB0102D5002800DA5DE1F8BD636F002B26
:1049EC00FBD020009847F8E7D90707D5C10505D5B6
:1049FC0001271762902162583A4362509A0709D5F1
:104A0C00EA0707D52268022111628E316258042709
:104A1C003A4362505A0709D5EA0707D522680421A0
:104A2C0011628C31625802273A4362501A070AD538
:104A3C00820601D4002E06D0226808261662902128
:104A4C006258324362501A050AD5420108D52268D1
:104A5C008021090111629021625820263243625054
:104A6C009022A258002AB8D09B0608D5830601D400
:104A7C00EB0004D5636F002B01D0200098479023E6
:104A8C00E25823689B685B0602D4282313422CD07F
:104A9C002000FFF719FF23689B685B0621D5EFF315
:104AAC001081012383F3108822689368402083438C
:104ABC00936081F310888023E358002B0DD06A4A51
:104ACC009A638023E058FEF7BFFB002800D184E7EF
:104ADC008023E058836B98477FE72000FBF7C1FDEC
:104AEC007BE72000FBF7BDFD77E72000FBF7B9FD66
:104AFC0090230022E25070E7D90600D451E7C1069A
:104B0C0000D44EE71023136223689B685B0662D5C2
:104B1C008023E1580A6853689BB2002B4CD05C2070
:104B2C00205A984248D95E22A3520B681B689B06F8
:104B3C000BD5022323675A33E15A0233E35AC91ABD
:104B4C0089B22000FFF70DFF47E7EFF31080012338
:104B5C0083F3108821680A68444D2A400A6080F368
:104B6C001088EFF3108083F3108821688A689A43C9
:104B7C008A6080F31088EFF3108083F3108821682B
:104B8C008A684235FF35AA438A6080F310888C22EC
:104B9C002021A1500022E266EFF3108183F31088EC
:104BAC002268136810208343136081F310888023DC
:104BBC00E058FEF70DFBBCE75C21615A994200D02E
:104BCC000BE713689B0600D407E70223236720003A
:104BDC00FFF7C7FE01E75C23E15A0233E25A891A58
:104BEC0089B2E35A9BB2002B00D1F6E6002900D122
:104BFC00F3E6EFF31085012383F310882068026835
:104C0C001B4E3240026085F31088EFF3108583F35E
:104C1C00108820688268174E3240826085F31088B5
:104C2C008C222020A0500022E2666267EFF31080F5
:104C3C0083F31088226813681025AB43136080F34C
:104C4C001088022323672000FFF78BFEC5E6802324
:104C5C005B031362200000F08BFBBEE60F08000024
:104C6C00010000102001000465490008FFFEFFFF51
:104C7C00DFFEFFFFFEFFFFEFA36F002B00D1ACE6C2
:104C8C0020009847A9E62000FFF751FEA5E620007A
:104C9C0000F070FBA1E6200000F06BFB9DE6C04627
:104CAC009023C05870470000F8B504000168836871
:104CBC000269134342691343C26913430A68AA4841
:104CCC00024013430B6022685368A8490B40E1680B
:104CDC000B435360A1692268A54B9A4204D0A54BA3
:104CEC009A4201D0236A19439368A34803400B43AB
:104CFC0093602268D36A0F218B43616A0B43D362A2
:104D0C0022689E4B9A421AD09D4B9A425CD09D4B86
:104D1C009A426AD09C4B9A4200D1BDE09B4B9A427E
:104D2C0000D1BBE09A4B9A4200D1B9E0904B9A4229
:104D3C006CD0904B9A4200D180E010230EE0954B42
:104D4C00596D03230B40022B00D18FE038D8002B78
:104D5C0000D18DE0012B00D08CE0033384498A42D2
:104D6C0000D1AFE083498A4200D1ABE0E0698022F8
:104D7C001202904200D119E1042B00D15AE100D962
:104D8C004AE1002B00D14EE1022B00D042E18248D7
:104D9C00636A5B00814A995AFBF7AEF963685B085A
:104DAC00C0186168FBF7A8F90200103A7C4B9A42D4
:104DBC0000D94AE123680004000CD8600020BFE051
:104DCC00032B59D10533C9E7724B596D0C230B409A
:104DDC00082B53D005D8002B52D0042BBED0102357
:104DEC00BCE70C2B4ED1043BB8E76A4B596D302312
:104DFC000B40202B48D005D8002B47D0102B47D187
:104E0C000C3BABE7302B45D1283BA7E7614B5B6DE7
:104E1C00C02109010B40802109018B4242D007D8E7
:104E2C00002B41D08021C9008B423FD1042395E750
:104E3C00C02109018B423BD108238FE7554B5B6D99
:104E4C00C02189000B400139FF398B4232D007D881
:104E5C00002B31D00139FF398B422FD104237DE750
:104E6C00C02189008B422BD1082377E7022375E7F9
:104E7C00002373E7102371E710236FE702236DE71C
:104E8C0000236BE7102369E7022367E7002365E73C
:104E9C00102363E7102361E700235FE700235DE73E
:104EAC0000235BE7022359E7002357E7102355E75C
:104EBC00102353E7022351E700234FE710234DE75C
:104ECC0010234BE7042B4BD034D8002B41D0022BB2
:104EDC002ED1314D636A5B00304A9F5A390028004D
:104EEC00FBF70AF9666873009B19834200D9A4E0AA
:104EFC003303834200D2A2E03A00002328000021B1
:104F0C00FBF770FA050E0B022B430202700800210E
:104F1C008018594132000023FBF764FA214BC21868
:104F2C00214B9A4200D98CE02368D860002007E01E
:104F3C00012005E0082B02D180252D02CAE70120B3
:104F4C0001236A22A352023AA35200236367A36788
:104F5C00F8BDFFF727FB0500002DBBD10020EFE7C4
:104F6C00FFF7F8F90500F7E7F369FFCFFFCFFFFF75
:104F7C000080004000840040FFF4FF110038014025
:104F8C000044004000480040004C004000500040ED
:104F9C00003C0140001002400024F400F85D0008C1
:104FAC00EFFF000000FDFFFFFFFC0F00042B2ED0D5
:104FBC0023D8002B25D0022B1DD12548636A5B001A
:104FCC00244A995AFBF798F8400063685B08C018AC
:104FDC006168FBF791F80200103A1F4B9A4232D8E5
:104FEC0082B20F239A434008083B184010432368B1
:104FFC00D8600020A4E70120A2E7082BDED0012016
:10500C009EE7FFF7CFFA0028D8D1002098E7FFF7EA
:10501C00A1F9F8E7012093E7082B02D180200002C8
:10502C00B6E601208CE7FFF7BDFA002800D0AFE60A
:10503C00002085E7FFF78EF9F7E7012080E70120D4
:10504C007EE701207CE701207AE7012078E7C04663
:10505C000024F400F85D0008EFFF0000836A1B07D2
:10506C0006D5026853682C490B40816B0B43536087
:10507C00836ADB0706D50268536828490B40C16A6E
:10508C000B435360836A9B0706D502685368244917
:10509C000B40016B0B435360836A5B0706D50268B8
:1050AC00536820490B40416B0B435360836ADB060A
:1050BC0006D5026893681C490B40C16B0B43936087
:1050CC00836A9B0606D50268936818490B40016CED
:1050DC000B439360836A5B060BD5026853681449D3
:1050EC000B40416C0B43536080235B03426C9A4230
:1050FC000AD0836A1B0606D5026853680D490B401B
:10510C00C16C0B4353607047026853680A490B40EB
:10511C00816C0B435360ECE7FF7FFFFFFFFFFDFF4C
:10512C00FFFFFEFFFFFFFBFFFFEFFFFFFFDFFFFFB8
:10513C00FFFFEFFFFFFFF7FFFFFF9FFFF8B5CE4626
:10514C00474680B506000D0017009946089B984607
:10515C003368DC692C40641B63425C41BC4233D134
:10516C0043460133F4D0FDF7A5FF4B46C01A40452A
:10517C002FD84346002B2ED033681A685207E7D538
:10518C00802DE5D0402DE3D0DA69120710D4DA690E
:10519C001205DDD5802212011A623000FFF794FB54
:1051AC0090232022F2500C3B0022F25403200CE0FE
:1051BC0008241C623000FFF787FB9023F4500C3B53
:1051CC000022F254012000E00020C0BCB946B046D9
:1051DC00F8BD0320F9E70320F7E7000030B583B0F2
:1051EC00040090230022C250FDF764FF05002268E2
:1051FC001268130710D423681B685B072BD4202379
:10520C008822A3500432A3500023E3662367083A94
:10521C00A354002003B030BD8021234B0093030026
:10522C00002289032000FFF789FF0028E3D0EFF369
:10523C001081012383F31088226813688020834334
:10524C00136081F3108888232022E250043B002253
:10525C00E2547D38DEE78021134B00932B000022B3
:10526C00C9032000FFF76AFF0028C8D0EFF31080B5
:10527C00012282F3108821680B680C4D2B400B60C7
:10528C0080F31088EFF3108082F3108821688B680C
:10529C0093438B6080F310888C231F32E250083BC1
:1052AC000022E2540320B5E7FFFFFF01DFFEFFFF02
:1052BC0010B5041E30D08823C358002B22D088236D
:1052CC002422E2502268136801218B431360A36AE5
:1052DC00002B1DD12000FFF7E7FC012811D022681C
:1052EC0053680E490B405360226893682A218B4304
:1052FC0093602268136829390B4313602000FFF771
:10530C006DFF10BD84330022C254FBF711FBD6E7AE
:10531C002000FFF7A3FEDDE70120F2E7FFB7FFFF58
:10532C00F8B50400436E002B05D101336A22835279
:10533C00023A8352F8BD026895686D0E07231D4032
:10534C009268520F1340084FF85CC000074EF15C96
:10535C00FAF75CFF6A23E052785DC000715DFAF7E2
:10536C0055FF6823E052E5E7185E0008105E000860
:10537C00704770477047000070B58423C35C012BE5
:10538C0015D0842401260655882524234351026810
:10539C0013681168B1431160064A1340002242663B
:1053AC0001680B60202343510255002070BD022080
:1053BC00FCE7C046FFFFFFDFF8B504000A008423BA
:1053CC00C35C012B1BD08425012060558826242327
:1053DC00A35123681F68196881431960206883688A
:1053EC00DB00D908114381602000FFF799FF236887
:1053FC001F602023A351002363550020F8BD022019
:10540C00FCE70000F8B504000B008422825C012A42
:10541C001BD084250120605588262422A2512268A5
:10542C00176811688143116022689168084801402F
:10543C00194391602000FFF773FF23681F6020233E
:10544C00A351002363550020F8BD0220FCE7C046A1
:10545C00FFFFFFF1F0B5D6464F464646C0B582B0C9
:10546C0006000D0090461F00FDF724FE0A9B181A3B
:10547C008146B944FDF71EFE82462E4B1B685B012C
:10548C001B0D4A465343019333689C682C40641BA4
:10549C0063425C41444545D07B1CF5D0FDF70AFEC8
:1054AC005346C01A484507D24B46002B04D0019BEB
:1054BC00002B33D19946E7E732685368E0218B43E0
:1054CC00536082235B0072689A420CD080239B014C
:1054DC00B26A9A4216D05D230122F254013B00229B
:1054EC00F25403201FE0B36880221202934203D0CF
:1054FC008022D2009342E9D13268136840218B4359
:10550C001360E3E7326813680B490B401360326891
:10551C00116880239B010B431360DCE7019B013B6B
:10552C000193B1E7002002B0E0BCBA46B146A846F0
:10553C00F0BDC04600000020FFDFFFFFF0B5DE46E7
:10554C0057464E464546E0B583B007000D001600A1
:10555C0098466B460022DA70FDF7ACFD0C9B181ACE
:10556C0040448146FDF7A6FD82463B689B46364B80
:10557C001A6893009A18D3009B1A1B0D4A46534382
:10558C00019302E04346013311D13B689C682C40E7
:10559C00B44250D0C023DB009D42F3D1002EF1D198
:1055AC005B461B7BDBB26A46D370D378EAE7FDF728
:1055BC0081FD5346C01A484507D24B46002B04D0F8
:1055CC00019B002B33D19946DFE73A685368E02101
:1055DC008B43536082235B007A689A420CD0802301
:1055EC009B01BA6A9A4216D05D230122FA54013B00
:1055FC000022FA5403201FE0BB688022120293425F
:10560C0003D08022D2009342E9D13A68136840213A
:10561C008B431360E3E73A6813680C490B40136043
:10562C003A68116880239B010B431360DCE7019BF4
:10563C00013B0193A9E7002003B0F0BCBB46B24686
:10564C00A946A046F0BDC04600000020FFDFFFFFCA
:10565C0070B582B004000D001600C02100922B0022
:10566C0000224901FFF76AFF002818D100962B0091
:10567C00002280212000FFF7EDFE002816D1C0216A
:10568C0000962B000022C9002000FFF757FF0028CE
:10569C000AD0236E202213432366032004E0236EDA
:1056AC00202213432366032002B070BD236E2022F8
:1056BC00134323660320F7E77047000070B5041E00
:1056CC0000D178E0436A002B07D10533FF334268E1
:1056DC009A4205D00023C36102E0002303614361B9
:1056EC000023A3625D33E35C002B5AD05D230222BE
:1056FC00E2542268136840218B431360E368E02274
:10570C00D200934254D90022F02109018B4205D0DA
:10571C00E021C9008B4201D00023A36282235B00ED
:10572C0061680B4084210902A06801400B430221EF
:10573C00206901400B43012160690840034380202C
:10574C008000A569284003433820E56928400343BD
:10575C008020256A2840034380208001A56A2840C8
:10576C00034320680360608B042303401020656AA8
:10577C00284003430820656B28400343F0200001B8
:10578C00E568284003432068134343602268D369CB
:10579C000A480340D361002323665D33E1540020A3
:1057AC0070BD5C330022E2542000FFF785FF9DE7BB
:1057BC0080225201A8E70120F2E7C046FFF7FFFF65
:1057CC00F0B5CE4600B582B00400894601921F00A8
:1057DC00089DFDF76FFC06005D23E35CD9B262689F
:1057EC00012B0BD082235B009A4200D011E1A368FD
:1057FC00002B00D012E1042900D011E14B46002B04
:10580C0000D10FE1019B002B00D10DE1002F00D145
:10581C000CE15C23E35C012B00D109E15C23012248
:10582C00E2540133E35C042B02D05D230432E254D6
:10583C0000232366019A22644622A752023AA752F9
:10584C004A46A263E787A787E3642365E023DB006E
:10585C00E2689A4223D92268536876490B40536018
:10586C0023681A68520603D41A6840210A431A6046
:10587C00E023DB00E2689A425BD96368002B01D01D
:10588C00012F0AD12368A26B1288DA60A36B023352
:10589C00A363E38F013B9BB2E38701272DE02268D2
:1058AC00516880235B010B435360D9E7A26B1288CC
:1058BC00DA60A36B0233A363E38F013B9BB2E387F4
:1058CC00002723689A68D20710D54622A25A92B2B2
:1058DC00002A0BD0DB68226C1380236C0233236408
:1058EC004622A35A013B9BB2A3520127FDF7E2FBD0
:1058FC00801BA84201D36B1C13D1E38F9BB2002BEE
:10590C0004D14633E35A9BB2002B69D023689A68C2
:10591C009207D6D5E28F92B2002AD2D0012FD0D1E5
:10592C00C4E75D230122E254013B0022E254032030
:10593C0070E06368002B01D0012F0AD1A36B1B7898
:10594C0022681373A36B0133A363E38F013B9BB2F8
:10595C00E38701271DE023689A68D20710D54622F9
:10596C00A25A92B2002A0BD01B7B226C1370236CB0
:10597C00013323644622A35A013B9BB2A352012755
:10598C00FDF798FB801BA84201D36B1C20D1002D86
:10599C001ED0E38F9BB2002B04D14633E35A9BB24B
:1059AC00002B1DD023689A689207D4D5E28F92B24F
:1059BC00002AD0D0012FCED1A26B12781A73A36B10
:1059CC000133A363E38F013B9BB2E3870027C2E75C
:1059DC005D230122E254013B0022E254032019E032
:1059EC00320029002000FFF733FE00280AD15D2386
:1059FC000122E254013B0022E254236E002B09D019
:105A0C00012007E0202323663C330022E2540120CE
:105A1C0000E0022002B080BCB946F0BD0220F9E7DC
:105A2C000220F7E70120F5E70120F3E70120F1E779
:105A3C000220EFE7FFEFFFFF70B500260C4D0D4C79
:105A4C00641BA410A64209D1002600F039F80A4DB7
:105A5C000A4C641BA410A64205D170BDB300EB58D0
:105A6C0098470136EEE7B300EB5898470136F2E75A
:105A7C00285E0008285E0008285E00082C5E0008DE
:105A8C0030B500240139A24201D1002005E0035DAC
:105A9C0001340D5DAB42F6D0581B30BD002310B560
:105AAC009A4200D110BDCC5CC4540133F8E703001A
:105ABC008218934200D1704719700133F9E7000046
:105ACC00F8B5C046F8BC08BC9E467047F8B5C04651
