:020000022000DC
:10000000F0EF01201104020059040200590402001B
:1000100059040200590402005904020000000000C3
:1000200000000000000000000000000061D4020099
:100030005904020000000000C1D4020025D50200CE
:10004000FF5E0200095F0200135F02001D5F0200F5
:10005000275F0200315F02003B5F0200455F020044
:100060004F5F0200595F0200635F02006D5F020094
:10007000775F0200815F02008B5F0200955F0200E4
:100080009F5F020059040200590402005904020053
:1000900059040200590402005904020059040200E4
:1000A000339402003D9402006996020073960200A8
:1000B0007D96020047940200519402005904020008
:1000C00059040200590402005904020059040200B4
:1000D00059040200590402005904020049AF020009
:1000E00053AF0200590402005904020059040200EF
:1000F0005904020059040200590402005904020084
:100100005904020059040200590402005904020073
:100110005904020059040200590402005904020063
:100120005904020059040200590402005904020053
:100130005904020059040200590402005904020043
:100140005904020059040200590402005904020033
:1001500059040200B979020059040200590402004E
:100160001D610200F5600200FF60020009610200EB
:100170005904020013610200357902003F79020040
:1001800049790200537902005D79020059040200A6
:1001900059040200677902007179020059040200D3
:1001A0007B7902008579020059040200590402009B
:1001B0008F7902009979020059040200A3790200A4
:1001C000AD790200590402005904020059040200EA
:1001D00059040200590402005904020059040200A3
:1001E0005904020059040200590402005904020093
:1001F0005904020059040200590402005904020083
:100200005904020059040200590402005904020072
:1003F000590402005904020059040200FFFFFFFFE4
:10040000FFFFFFFFFFFFFFFFFFFFFFFFFE7FFFFF7D
:1004100072B64FF000014FF000024FF000034FF0B2
:1004200000044FF000054FF000064FF00007B846FB
:10043000B946BA46BB46BC46044880470448854690
:100440000448804762B60DF023FAFEE7FD3E020045
:10045000F0EF0120613F0200FFF7FEBF81F0004195
:1004600002E000BF83F0004330B54FEA41044FEA99
:10047000430594EA050F08BF90EA020F1FBF54EA34
:10048000000C55EA020C7FEA645C7FEA655C00F0D0
:10049000E2804FEA5454D4EB5555B8BF6D420CDDA1
:1004A0002C4480EA020281EA030382EA000083EA24
:1004B000010180EA020281EA0303362D88BF30BDC4
:1004C00011F0004F4FEA01314FF4801C4CEA11311A
:1004D00002D0404261EB410113F0004F4FEA033379
:1004E0004CEA133302D0524263EB430394EA050F04
:1004F00000F0A780A4F10104D5F1200E0DDB02FA73
:100500000EFC22FA05F2801841F1000103FA0EF206
:10051000801843FA05F359410EE0A5F120050EF1CC
:10052000200E012A03FA0EFC28BF4CF0020C43FAFD
:1005300005F3C01851EBE37101F0004507D54FF00A
:10054000000EDCF1000C7EEB00006EEB0101B1F55A
:10055000801F1BD3B1F5001F0CD349085FEA3000A0
:100560004FEA3C0C04F101044FEA445212F5800FAB
:1005700080F09A80BCF1004F08BF5FEA500C50F148
:10058000000041EB045141EA050130BD5FEA4C0C2B
:10059000404141EB010111F4801FA4F10104E9D1B4
:1005A00091F0000F04BF01460020B1FA81F308BFAB
:1005B0002033A3F10B03B3F120020CDA0C3208DD77
:1005C00002F1140CC2F10C0201FA0CF021FA02F152
:1005D0000CE002F11402D8BFC2F1200C01FA02F1C2
:1005E00020FA0CFCDCBF41EA0C019040E41AA2BFE7
:1005F00001EB0451294330BD6FEA04041F3C1CDAAF
:100600000C340EDC04F11404C4F1200220FA04F0CE
:1006100001FA02F340EA030021FA04F345EA030178
:1006200030BDC4F10C04C4F1200220FA02F001FA3A
:1006300004F340EA0300294630BD21FA04F02946BC
:1006400030BD94F0000F83F4801306BF81F4801155
:100650000134013D4EE77FEA645C18BF7FEA655CC8
:1006600029D094EA050F08BF90EA020F05D054EA9A
:10067000000C04BF1946104630BD91EA030F1EBF9F
:100680000021002030BD5FEA545C05D140004941A3
:1006900028BF41F0004130BD14F580043CBF01F596
:1006A000801130BD01F0004545F0FE4141F470017C
:1006B0004FF0000030BD7FEA645C1ABF1946104657
:1006C0007FEA655C1CBF0B46024650EA013406BF58
:1006D00052EA033591EA030F41F4002130BD00BF17
:1006E00090F0000F04BF0021704730B54FF48064D4
:1006F00004F132044FF000054FF0000150E700BF55
:1007000090F0000F04BF0021704730B54FF48064B3
:1007100004F1320410F0004548BF40424FF00001A0
:100720003EE700BF42004FEAE2014FEA31014FEAE3
:1007300002701FBF12F07F4393F07F4F81F0605132
:10074000704732F07F4208BF704793F07F4F04BF7D
:1007500041F40021704730B54FF4607401F000455A
:1007600021F000411CE700BF50EA010208BF7047BA
:1007700030B54FF000050AE050EA010208BF7047AB
:1007800030B511F0004502D5404261EB41014FF414
:10079000806404F132045FEA915C3FF4D8AE4FF01C
:1007A00003025FEADC0C18BF03325FEADC0C18BFFF
:1007B000033202EBDC02C2F1200300FA03FC20FA50
:1007C00002F001FA03FE40EA0E0021FA02F114449D
:1007D000BDE600BF70B54FF0FF0C4CF4E06C1CEAB6
:1007E00011541DBF1CEA135594EA0C0F95EA0C0F27
:1007F00000F0DEF82C4481EA030621EA4C5123EA9A
:100800004C5350EA013518BF52EA033541F48011C8
:1008100043F4801338D0A0FB02CE4FF00005E1FB7B
:1008200002E506F00042E0FB03E54FF00006E1FBC5
:1008300003569CF0000F18BF4EF0010EA4F1FF0408
:10084000B6F5007F64F5407404D25FEA4E0E6D4148
:1008500046EB060642EAC62141EA55514FEAC52059
:1008600040EA5E504FEACE2EB4F1FD0C88BFBCF5D5
:10087000E06F1ED8BEF1004F08BF5FEA500E50F186
:10088000000041EB045170BD06F0004646EA01014C
:1008900040EA020081EA0301B4EB5C04C2BFD4EB7E
:1008A0000C0541EA045170BD41F480114FF0000E77
:1008B000013C00F3AB8014F1360FDEBF002001F0E5
:1008C000004170BDC4F10004203C35DA0C341BDC5F
:1008D00004F11404C4F1200500FA05F320FA04F031
:1008E00001FA05F240EA020001F0004221F0004165
:1008F00010EBD37021FA04F642EB06015EEA430ED8
:1009000008BF20EAD37070BDC4F10C04C4F1200507
:1009100000FA04F320FA05F001FA04F240EA0200BA
:1009200001F0004110EBD37041F100015EEA430E8B
:1009300008BF20EAD37070BDC4F1200500FA05F2AB
:100940004EEA020E20FA04F301FA05F243EA02032A
:1009500021FA04F001F0004121FA04F220EA020039
:1009600000EBD3705EEA430E08BF20EAD37070BD7F
:1009700094F0000F0FD101F00046400041EB01015F
:1009800011F4801F08BF013CF7D041EA060195F041
:10099000000F18BF704703F00046520043EB0303FB
:1009A00013F4801F08BF013DF7D043EA06037047E8
:1009B00094EA0C0F0CEA135518BF95EA0C0F0CD0F3
:1009C00050EA410618BF52EA4306D1D181EA030139
:1009D00001F000414FF0000070BD50EA410606BF33
:1009E0001046194652EA430619D094EA0C0F02D178
:1009F00050EA013613D195EA0C0F05D152EA0336BD
:100A00001CBF104619460AD181EA030101F00041DA
:100A100041F0FE4141F470014FF0000070BD41F023
:100A2000FE4141F4780170BD70B54FF0FF0C4CF4FD
:100A3000E06C1CEA11541DBF1CEA135594EA0C0F1C
:100A400095EA0C0F00F0A7F8A4EB050481EA030E69
:100A500052EA03354FEA013100F088804FEA033350
:100A60004FF0805545EA131343EA12634FEA02221E
:100A700045EA111545EA10654FEA00260EF00041DF
:100A80009D4208BF964244F1FD0404F5407402D231
:100A90005B084FEA3202B61A65EB03055B084FEAC2
:100AA00032024FF480104FF4002CB6EB020E75EBBF
:100AB000030E22BFB61A754640EA0C005B084FEAE7
:100AC0003202B6EB020E75EB030E22BFB61A754664
:100AD00040EA5C005B084FEA3202B6EB020E75EBAF
:100AE000030E22BFB61A754640EA9C005B084FEA27
:100AF0003202B6EB020E75EB030E22BFB61A754634
:100B000040EADC0055EA060E18D04FEA051545EA22
:100B100016754FEA06164FEAC30343EA52734FEACB
:100B2000C2025FEA1C1CC0D111F4801F0BD141EA44
:100B300000014FF000004FF0004CB6E711F4801FA9
:100B400004BF01430020B4F1FD0C88BFBCF5E06F89
:100B50003FF6AFAEB5EB030C04BFB6EB020C5FEA99
:100B6000500C50F1000041EB045170BD0EF0004EEE
:100B70004EEA113114EB5C04C2BFD4EB0C0541EA20
:100B8000045170BD41F480114FF0000E013C90E61D
:100B900045EA060E8DE60CEA135594EA0C0F08BFE1
:100BA00095EA0C0F3FF43BAF94EA0C0F0AD150EAE0
:100BB00001347FF434AF95EA0C0F7FF425AF104673
:100BC00019462CE795EA0C0F06D152EA03353FF49B
:100BD000FDAE1046194622E750EA410618BF52EA18
:100BE00043067FF4C5AE50EA41047FF40DAF52EAEC
:100BF00043057FF4EBAE12E74FF0FF3C06E000BF89
:100C00004FF0010C02E000BF4FF0010C4DF804CD95
:100C10004FEA410C7FEA6C5C4FEA430C18BF7FEA55
:100C20006C5C1BD001B050EA410C0CBF52EA430C83
:100C300091EA030F02BF90EA020F0020704710F103
:100C4000000F91EA030F58BF994208BF90422CBF92
:100C5000D8176FEAE37040F0010070474FEA410C8B
:100C60007FEA6C5C02D150EA013C07D14FEA430CA9
:100C70007FEA6C5CD6D152EA033CD3D05DF8040B1A
:100C8000704700BF8446104662468C46194663464C
:100C900000E000BF01B5FFF7B7FF002848BF10F123
:100CA000000F01BD4DF808EDFFF7F4FF0CBF012068
:100CB00000205DF808FB00BF4DF808EDFFF7EAFFE4
:100CC00034BF012000205DF808FB00BF4DF808ED9F
:100CD000FFF7E0FF94BF012000205DF808FB00BF94
:100CE0004DF808EDFFF7CEFF94BF012000205DF81E
:100CF00008FB00BF4DF808EDFFF7C4FF34BF01202B
:100D000000205DF808FB00BF4FEA410C7FEA6C5CF5
:100D100002D150EA013C0AD14FEA430C7FEA6C5CF5
:100D200002D152EA033C02D14FF0000070474FF06D
:100D3000010070474FEA410212F5001215D211D599
:100D40006FF47873B3EB625212D94FEAC12343F0C8
:100D5000004343EA505311F0004F23FA02F018BF4A
:100D6000404270474FF00000704750EA013005D113
:100D700011F0004008BF6FF0004070474FF00000D6
:100D8000704700BF4A0011D212F5001211D20DD5E2
:100D90006FF47873B3EB62520ED44FEAC12343F081
:100DA000004343EA505323FA02F070474FF000002B
:100DB000704750EA013002D14FF0FF3070474FF0DA
:100DC000000070474FEA4102B2F1E04324BFB3F59F
:100DD000001CDCF1FE5C0DD901F0004C4FEAC002B2
:100DE0004CEA5070B2F1004F40EB830008BF20F096
:100DF0000100704711F0804F21D113F13872BCBF50
:100E000001F00040704741F480114FEA5252C2F1A4
:100E10001802C2F1200C10FA0CF320FA02F018BFED
:100E200040F001004FEAC1234FEAD32303FA0CFC40
:100E300040EA0C0023FA02F34FEA4303CCE77FEACF
:100E4000625307D150EA01331EBF4FF0FE4040F419
:100E50004000704701F0004040F0FE4040F40000C8
:100E6000704700BF8C4619B3F0B54E1E8F1EF3B20B
:100E7000FF1A4FF0000E10E05A0030F81310023243
:100E8000845AA14284BF20F8134081520133DBB25F
:100E9000AB42F1DB013EB74205D03546002EC8BF5C
:100EA0007346E9DCF6E74FEA5C0C30F81C00F0BD55
:100EB0004FEA510C30F81C007047000008B50A4B8F
:100EC0000A4A03F10C0033F8021B22F8021B83428A
:100ED000F9D10749054B0B6000231A460548006805
:100EE0000BF044F908BD00BF0000002060000020A6
:100EF000C80000205C00002008B5084908480AF036
:100F00002FF90221272007F077FB0022042103207C
:100F10000BF074F8034B186008BD00BFE028030015
:100F2000EC2803005C00002038B500223249334B26
:100F300018680BF093F9012808D0314B1B78012B6E
:100F400052D000212F480AF059F938BD2A4B1968B0
:100F50002D4803780C882D4A22F813404D88DC1D5B
:100F600022F814508D8803F10E0422F81450CD8815
:100F700003F1150422F814500D8903F11C0422F822
:100F800014504C8903F1230122F811400133DBB2E4
:100F90000370062BD1D9154607211046FFF762FFD3
:100FA0001B4C2080072105F10E00FFF75BFF6080DE
:100FB000072105F11C00FFF755FFA080072105F16F
:100FC0002A00FFF74FFFE080072105F13800FFF707
:100FD00049FF2081072105F14600FFF743FF6081AB
:100FE0000022094B1A70A8E7044B18680BF06AFA44
:100FF000034B9871A5E700BFC40000205C000020EF
:1010000024070020EC2803006C0000207000002062
:10101000E009002000B587B000238DF810308DF86E
:1010200011308DF80F300138C0B2032803D90020E9
:1010300007B05DF804FB01238DF81430000140383F
:101040008DF81500E3228DF8162005220092032268
:1010500005A913480AF0B5FB08B10020E8E7022013
:101060000BF002FE05230093002301220DF10F0176
:101070000B480AF0A6FB08B10020D9E7052300932E
:101080000123022204A906480AF0B1FB30B99DF8F9
:1010900010309DF8110040EA0320C9E70020C7E79F
:1010A0004C00002008B5024902480AF02DFB08BD9B
:1010B000A82903004C00002038B5094D2C780134D4
:1010C000E4B22C702046FFF7A5FF064B03EB440467
:1010D00060812B78032B01D900222A7038BD00BF14
:1010E000CC000020E009002010B50D4C01220A219F
:1010F000204609F01AFE01220A21204609F021FEAD
:1011000001220921204609F01CFE00220A21204666
:1011100009F017FE00220921204609F012FE10BD39
:1011200040F00F402DE9F0410546154C01220A21FF
:10113000204609F0FAFD00220921204609F001FEAF
:1011400008240F4E00274FF0010815F0800F14BF40
:1011500042463A460A21304609F0F3FD6D00EDB2F1
:1011600042460921304609F0ECFD3A460921304655
:1011700009F0E7FD631E13F0FF04E6D1BDE8F0813E
:1011800040F00F4010B50D4C01220A21204609F015
:10119000CCFD00220921204609F0D3FD00220A21BE
:1011A000204609F0CEFD01220921204609F0C9FDA3
:1011B00001220A21204609F0C4FD10BD40F00F4075
:1011C00038B5134C00220A21204609F0AEFD012259
:1011D0000A21204609F0B5FD01220921204609F027
:1011E000B0FDFB240A4D284609F0BDFD10F4806FC8
:1011F00007D0631E13F0FF04F5D1FFF7C3FF0120F2
:1012000038BD00220921024809F09BFD002038BDAD
:1012100040F00F4010B582B0032806D8DFE800F098
:1012200002292D31C022194B1A708DF804100123A8
:101230008DF80530154B1B788DF80630E3238DF8BB
:101240000730FFF751FF0023114A1370144602AA1A
:10125000134413F8040CFFF765FFFFF7B1FF237881
:101260000133DBB22370032BF1D9FFF78BFF02B000
:1012700010BDD022054B1A70D7E7E022034B1A703D
:10128000D3E7F022014B1A70CFE700BFCD0000205A
:10129000CE00002010B50446FFF726FF2046FFF7DA
:1012A00041FFFFF78DFF0020FFF73CFFFFF788FFAE
:1012B000FFF768FF10BD00002DE9F84381460022CA
:1012C0000A212D4809F031FD082500242A4EA046A8
:1012D000092742463946304609F033FD0122394696
:1012E000304609F02EFD6400E4B2304609F03BFDC3
:1012F00010F4806F1CBF0134E4B26B1E13F0FF05C5
:10130000E7D1B9F1000F1CD01B4D0022092128465E
:1013100009F017FD01220A21284609F006FD0022E6
:101320000A21284609F00DFD01220921284609F06D
:1013300008FD00220921284609F003FD2046BDE8EA
:10134000F8830D4D00220921284609F0FAFC0122FC
:101350000A21284609F0E9FC01220A21284609F061
:10136000F0FC01220921284609F0EBFC00220921AA
:10137000284609F0E6FCE1E740F00F4038B50446A6
:10138000FFF7B2FE601CC0B2FFF7CCFEFFF718FFFC
:101390000120FFF791FF05460120FFF78DFF04466E
:1013A000FFF7F0FE04EB052080B238BD10B5064C07
:1013B00001220921204609F0C4FC01220A2120460D
:1013C00009F0BFFC10BD00BF40F00F402DE9F04117
:1013D0001D4F0024922602253146E0B2FFF71AFF86
:1013E00028460BF041FC3046FFF754FF28460BF02F
:1013F0003BFC3046FFF7C2FF804628460BF034FC2A
:1014000027F8028B0134042CE6D1104F00249026DB
:1014100002253146E0B2FFF7FDFE28460BF024FC22
:101420003046FFF737FF28460BF01EFC3046FFF72B
:10143000A5FF804628460BF017FC27F8028B0134E5
:10144000042CE6D1BDE8F081F8090020000A002054
:10145000A2B32DE9F04182B00446571EFFB24D1EE3
:101460000F440026DFF8588007E09DF8033005F8A8
:10147000013F0134A4B2BD421DD08DF8036014F4C5
:10148000004FF2D1230A8DF804308DF80540334621
:10149000022201A940460AF08BF903200BF0E4FB7D
:1014A00001231A460DF1030140460AF097F9032083
:1014B0000BF0DAFBD9E702B0BDE8F081704700BF5E
:1014C0002C05FE1F6AB32DE9F04182B004460D469B
:1014D000531EDBB203445E1CB6B2DFF8488001271E
:1014E00007E00134A4B2013505200BF0BDFBB44286
:1014F00014D014F4004FF4D12B78220A8DF8042074
:101500008DF805408DF806303B46032201A9404680
:101510000AF04EF903200BF0A7FBE2E702B0BDE8AA
:10152000F08170472C05FE1F08B5024902480AF0F9
:10153000EBF808BDC02903002C05FE1F08B50C4BB5
:101540001B78012B02D0022B09D008BD0222084BC8
:101550001A70042207490020FFF7B4FF08BD0322D8
:10156000034B1A70042204490020FFF771FFECE7D7
:101570006C0EFE1F700EFE1FD000002008B5064B3B
:101580001B7803B908BD054A054B1A6007F02CF813
:1015900002F0DAFCF6E700BFD5000020CDFE3517DB
:1015A000F0EF012010B50A490A480AF0B5FA012205
:1015B0001121094809F0C5FB084C01221D212046D4
:1015C00009F0BFFB01221E21204609F0BAFB10BD25
:1015D000F42903005C0EFE1F40F00F40C0F00F40E6
:1015E0002DE9F04383B0DD4B1B7D002B00F007811C
:1015F00000248DF800408DF801408DF804408DF8EE
:101600000540DFF8688322461121404609F099FB26
:1016100002200BF029FBD24F022301AA694638466B
:101620000AF0EEFA02200BF01FFB012211214046C6
:1016300009F087FBC94E9DF804209DF8053003EBA7
:101640000223F38202200BF00FFB8DF800408DF88F
:101650000140C44D22461D21284609F072FB02209C
:101660000BF002FB022301AA694638460AF0C8FAC9
:1016700002200BF0F9FA01221D21284609F061FB36
:101680009DF804209DF8053003EB022333830220EC
:101690000BF0EAFA8DF800408DF8014022461E2139
:1016A000284609F04EFB02200BF0DEFA022301AAC5
:1016B000694638460AF0A4FA02200BF0D5FA012256
:1016C0001E21284609F03DFB9DF804209DF80530B9
:1016D00003EB0223738302200BF0C6FA8DF801405E
:1016E0008DF804408DF805404FF007098DF8009003
:1016F00022461121404609F024FB02200BF0B4FAE7
:10170000022301AA694638460AF07AFA02200BF051
:10171000ABFA01221121404609F013FB9DF8042089
:101720009DF8053003EB0223738402200BF09CFA32
:101730008DF800908DF8014022461D21284609F0C1
:1017400000FB02200BF090FA022301AA69463846FA
:101750000AF056FA02200BF087FA01221D212846D2
:1017600009F0EFFA9DF804209DF8053003EB022301
:10177000B38402200BF078FA8DF800908DF80140C8
:1017800022461E21284609F0DCFA02200BF06CFAF2
:10179000022301AA694638460AF032FA02200BF009
:1017A00063FA01221E21284609F0CBFA9DF8042095
:1017B0009DF8053003EB0223F38402200BF054FA6A
:1017C0008DF800408DF801408DF804408DF80540FB
:1017D000284609F0C8FA10F0805F77D0624809F017
:1017E000C2FA10F0020F00F0C3805F4809F0BBFAA4
:1017F00010F0010F00F0038103B0BDE8F083012673
:10180000564B1E7500248DF804408DF805404FF0AE
:1018100080098DF800904FF0D3088DF80180534D6A
:1018200022461121284609F08CFA02200BF01CFAFE
:101830004B4F022301AA694638460AF0E1F902201B
:101840000BF012FA32461121284609F07AFA0220EA
:101850000BF00AFA8DF800908DF801808035224651
:101860001D21284609F06DFA02200BF0FDF9022334
:1018700001AA694638460AF0C3F902200BF0F4F9D0
:1018800032461D21284609F05CFA02200BF0ECF9E3
:101890008DF800908DF8018022461E21284609F01F
:1018A00050FA02200BF0E0F9022301AA69463846FB
:1018B0000AF0A6F902200BF0D7F932461E2128467D
:1018C00009F03FFA02200BF0CFF991E64FF0010842
:1018D0008DF8008027468DF80140244E22461121C4
:1018E000304609F02EFA02200BF0BEF9DFF87090B6
:1018F000022301AA694648460AF082F902200BF049
:10190000B3F942461121304609F01BFA9DF8055003
:101910002D0202248DF800408DF801703A46112105
:10192000304609F00EFA20460BF09EF9234601AA34
:10193000694648460AF064F920460BF095F942469C
:101940001121304609F0FDF99DF805301D44034B87
:101950009D8320460BF088F940E700BFF409002082
:101960005C0EFE1FC0F00F4000F00F4040F00F4033
:101970004FF001088DF8008000278DF80170434E6C
:101980003A461D21304609F0DCF902200BF06CF9D3
:10199000DFF80091022301AA694648460AF030F9AF
:1019A00002200BF061F942461D21304609F0C9F9C9
:1019B0009DF805502D0202248DF800408DF801702D
:1019C0003A461D21304609F0BCF920460BF04CF98F
:1019D000234601AA694648460AF012F920460BF050
:1019E00043F942461D21304609F0ABF99DF8053018
:1019F0001D44274BDD8320460BF036F9F5E64FF00A
:101A000001088DF8008000278DF801701F4E3A46BE
:101A10001E21304609F095F902200BF025F9DFF878
:101A20007490022301AA694648460AF0E9F80220A8
:101A30000BF01AF942461E21304609F082F99DF852
:101A400005502D0202248DF800408DF801703A46B1
:101A50001E21304609F075F920460BF005F92346A2
:101A600001AA694648460AF0CBF820460BF0FCF87C
:101A700042461E21304609F064F99DF805301D44A8
:101A8000034B1D8420460BF0EFF8B5E6C0F00F4085
:101A9000F40900205C0EFE1F10B5084908480AF042
:101AA0003BF8084C00220C21204609F04AF900229C
:101AB0000D21204609F045F910BD00BF102A030092
:101AC000640EFE1F80F00F4030B585B00025ADF8E4
:101AD0000E501E4C01220C21204609F032F9012241
:101AE0000D21204609F02DF9194C294620460AF00F
:101AF000CFF8184B1B7863F0FF0304A921F8023DCF
:101B0000022300930123144A20460AF09BF818B9D7
:101B1000114B1A880F4B9A700D4C012120460AF088
:101B2000B7F80C4B5B7863F0FF0304A921F8023D82
:101B3000022300930123094A20460AF083F818B9CA
:101B4000054B5A88034BDA7005B030BD80F00F406A
:101B5000640EFE1FD8000020DC000020DE00002004
:101B600008B5074A01F00F0303EB0013137020F0D0
:101B70000F0040EA11115170FFF7A6FF08BD00BF2A
:101B8000D800002008B5094BD3F8002442F03002F9
:101B9000C3F80024D3F8042442F03002C3F804242C
:101BA0000349044804F0C0FA08BD00BF001000401B
:101BB000E8010020AC28030038B505460C46C1F307
:101BC0000B033BB1B1F5805F26BF01F58054E41AE9
:101BD0004FF4805422462946094804F00DFB034681
:101BE00008B1184638BD06484FF0FF338361012322
:101BF000C4F30F12294604F047FB0346F1E700BF88
:101C0000E80100202DE9F04385B00746894690465B
:101C100006F0EAFC07EB0805AF4212D23C4602E0B0
:101C20000434AC420DD22368B3F1FF3FF8D0291B36
:101C30002046FFF7C1FF06460028F2D006F0C6FC9A
:101C400014E04B46424639460C4804F053FB064626
:101C500080B90123019303AB00934B4642463946BA
:101C6000064804F0A3FB064606F0B0FC304605B07B
:101C7000BDE8F08306F0AAFCF8E700BFE801002009
:101C800070B504460D46164606F0AEFC46B1291F57
:101C900004EB860254F8043B41F8043F9442F9D126
:101CA00006F094FC70BD01700B0A43700B0C83703E
:101CB000090EC1700420704770B5C0B00D4E351FBD
:101CC000FC36002455F8041F0DEB0400FFF7EBFF72
:101CD0000444A4B2B542F5D114F0070302D008348D
:101CE000E41AA4B2224669464FF48030FFF78AFF17
:101CF00040B070BDE000002008B5402202494FF41A
:101D00008030FFF7BDFF08BDE000002010B5164B86
:101D10001A785B78934224D0134B5A70134B2120CE
:101D200083F8000141F23421A3F80211104AC3F8EC
:101D30000421186059609A60FFF7BEFF0324FFF783
:101D4000DBFF0A4B53F8242083F80021621C53F870
:101D50002220A3F80221023453F82420C3F80421DE
:101D600010BD0024EBE700BF04020020E0000020CB
:101D70007856341238B5494D284608F0F4FF80F4FF
:101D80008054C4F30034284608F0EDFF10F4804F6F
:101D900008BF44F00204414808F0E5FF10F4005F7A
:101DA00008BF44F004043D4808F0DDFF10F4806FE4
:101DB0000EBF44F0080424F00804A4B2374808F029
:101DC000D2FF10F4006F0EBF44F0100424F0100492
:101DD000A4B2324808F0C7FF10F4004F0EBF44F021
:101DE000200424F02004A4B22C4808F0BCFF10F416
:101DF000001F0EBF44F0400424F04004A4B2274862
:101E000008F0B1FF10F4801F0EBF44F0800424F0EE
:101E10008004A4B2214808F0A6FF10F4002F0EBFE2
:101E200044F4807424F48074A4B21C4808F09BFF2E
:101E300010F4803F0EBF44F4007424F40074A4B284
:101E4000164808F090FF10F4800F0EBF44F4806431
:101E500024F48064A4B2114808F085FF10F4000F48
:101E60000EBF44F4006424F40064A4B20B4808F0EC
:101E70007AFF10F0807F0EBF44F4805424F4805425
:101E8000A4B2064808F06FFF10F0007F0EBF44F4C4
:101E9000005024F40054A0B238BD00BF00F10F4040
:101EA00010B50E495D2008F030FF0D4C0121204691
:101EB00008F055FF0221204608F04FFF00221821AC
:101EC000204608F03EFF00221321204608F039FF8B
:101ED00000221221204608F034FF10BD3405FE1FF9
:101EE000C0F00F4008B5FFF745FF08BD38B51D48E5
:101EF00008F039FF80F00804C4F3C0041A4808F061
:101F000032FF10F4807F08BF44F00204174808F045
:101F10002AFF10F4001F08BF44F00404134808F01F
:101F200022FF10F4801F0CBF44F0080404F0F704F3
:101F30000D4808F018FF10F4007F0CBF44F01004A7
:101F400004F0EF040A4808F00EFF10F4003F0CBF45
:101F500044F0200404F0DF04064D6C80FFF70AFF14
:101F6000288038BD80F00F4000F10F4040F00F4056
:101F7000C0F00F40F409002010B5044610F0010F26
:101F800014BF0122002217211C4808F0DAFE14F0C9
:101F9000020F14BF012200220221184808F0D1FECE
:101FA00014F0040F14BF012200220321134808F08B
:101FB000C8FE14F0080F14BF0122002204210F48AC
:101FC00008F0BFFE14F0100F14BF012200221621EA
:101FD0000A4808F0B6FE14F0200F14BF01220022B8
:101FE0000F21074808F0ADFE14F0400F14BF012286
:101FF00000221021024808F0A4FE10BDC0F00F40DE
:1020000080F00F400123002140FA03F202F00102A8
:1020100051400133102BF7D108467047E0B170B43E
:102020000F498C780B1D421ED2B2033201EB4201E4
:102030000025012601E08B420CD033F8022F12F468
:10204000004FF8D0B3F86A0090421CBF44F002047D
:102050003546F0E70DB970BC7047014B9C70FAE74C
:102060000802002010B32DE9F04182B0104DAC1DE4
:10207000431EDBB2043305EB4305DFF8388002274B
:1020800001260097334604F16A022146404609F0D2
:10209000D9FD18B90234AC42F3D104E0044A937874
:1020A00043F00103937002B0BDE8F081704700BFB8
:1020B000080200205400002010B54FF4A040FFF7A4
:1020C000A1FF0F4C00F0010040F4A040E08001208F
:1020D0002071FFF7C7FFB4F87030C3F3400262709D
:1020E00003F4C072B2F5C07F03D103F06003602B2C
:1020F00004D0034A937843F00403937010BD00BFEB
:102100000802002010B54FF49C40FFF77BFF084CFD
:1021100000F0010040F49C40E08001202071FFF7B6
:10212000A1FFB4F87000C0F34200207010BD00BFE2
:102130000802002010B54AF6D430FFF763FF0D4CBB
:1021400000F0010040F42B4040F0D400E0804AF65B
:102150002A40FFF757FF00F0010040F42C4040F008
:102160002A00208102202071FFF77CFF2079FFF7F1
:1021700055FF10BD0802002070B548F25670FFF7F9
:1021800041FF564C00F0010040F4074040F056007B
:10219000E08048F2DE70FFF735FF00F0010040F408
:1021A000074040F0DE00208148F2AC60FFF72AFFD4
:1021B00000F0010040F4064040F0AC00608148F2BD
:1021C0002460FFF71FFF00F0010040F4064040F0DC
:1021D0002400A081042626713046FFF743FF2079B2
:1021E000FFF71CFFFFF768FF4FF40C40FFF70AFFF3
:1021F00000F0010040F40C40E0804FF40E40FFF787
:1022000001FF00F0010040F40E40208102252571FD
:102210002846FFF727FF2079FFF700FF4FF40A4019
:10222000FFF7F0FE00F0010040F40A40E0800120DA
:102230002071FFF717FF2079FFF7F0FEFFF77AFF15
:1022400048F2BE70FFF7DEFE00F0010040F40740E8
:1022500040F0BE00E08048F26860FFF7D3FE00F077
:10226000010040F4064040F06800208148F27C7094
:10227000FFF7C8FE00F0010040F4074040F07C008A
:10228000608148F29470FFF7BDFE00F0010040F459
:10229000074040F09400A08126713046FFF7E2FE2F
:1022A0002079FFF7BBFEFFF707FF4FF4D050FFF791
:1022B000A9FE00F0010040F4D050E0804FF4E0505F
:1022C000FFF7A0FE00F0010040F4E05020812571EE
:1022D0002846FFF7C7FEFFF715FF70BD0802002074
:1022E00038B501280ED060B1022855D0314B1B788B
:1022F000834206D02F4B1870FFF71CFF64200AF0B2
:10230000B3FC38BD2B4B1B78012BFAD00122294B93
:102310001A704AF60620FFF775FE274C00F0010000
:1023200040F42A4040F00600E0804AF6F850FFF7FB
:1023300069FE00F0010040F42D4040F0F8002081DB
:10234000022525712846FFF78DFE2079FFF766FEEE
:102350000A200AF089FC4AF60A20FFF753FE00F033
:10236000010040F42A4040F00A00E0804AF6F450B0
:10237000FFF748FE00F0010040F42D4040F0F4006B
:10238000208125712846FFF76DFE2079FFF746FE74
:102390000A200AF069FC38BD064B1B78022BB0D02E
:1023A0000222044B1A70FFF7C5FE0A200AF05CFCFB
:1023B00038BD00BFE20200200802002010B5064C24
:1023C0000649204609F0A8FB0221204609F060FCDE
:1023D000FFF7D2FE10BD00BF54000020D829030033
:1023E00010B5EE4B1B78012B00F008820020FFF7A0
:1023F00009FEEA4C00F00100E0804FF40070FFF7A6
:1024000001FE00F0010040F4007020814FF4806074
:10241000FFF7F8FD00F0010040F4806060814FF4A8
:10242000C060FFF7EFFD00F0010040F4C060A08144
:102430004FF40060FFF7E6FD00F0010040F400609B
:10244000E0814FF42060FFF7DDFD00F0010040F473
:10245000206020824FF44060FFF7D4FD00F00100BF
:1024600040F4406060824FF46060FFF7CBFD00F005
:10247000010040F46060A0824FF48050FFF7C2FD7D
:1024800000F0010040F48050E0824FF49050FFF7DC
:10249000B9FD00F0010040F4905020834FF4A050AB
:1024A000FFF7B0FD00F0010040F4A05060834FF44E
:1024B000B050FFF7A7FD00F0010040F4B050A0833A
:1024C0004FF4C050FFF79EFD00F0010040F4C050F3
:1024D000E0834FF4D050FFF795FD00F0010040F489
:1024E000D05020844FF4E050FFF78CFD00F0010045
:1024F00040F4E05060844FF4F050FFF783FD00F0AB
:10250000010040F4F050A0844FF40050FFF77AFD32
:1025100000F0010040F40050E0844FF40850FFF751
:1025200071FD00F0010040F4085020854FF4105078
:10253000FFF768FD00F0010040F4105060854FF493
:102540001850FFF75FFD00F0010040F41850A0851F
:102550004FF42050FFF756FD00F0010040F42050EA
:10256000E0854FF42850FFF74DFD00F0010040F4E6
:10257000285020864FF43050FFF744FD00F0010052
:1025800040F4305060864FF43850FFF73BFD00F0C8
:10259000010040F43850A0864FF44050FFF732FD60
:1025A00000F0010040F44050E0864FF44850FFF73F
:1025B00029FD00F0010040F4485020874FF45050AE
:1025C000FFF720FD00F0010040F4505060874FF409
:1025D0005850FFF717FD00F0010040F45850A08755
:1025E0004FF46050FFF70EFD00F0010040F4605022
:1025F000E0874FF46850FFF705FD00F0010040F45C
:102600006850A4F840004FF47050FFF7FBFC00F056
:10261000010040F47050A4F842004FF47850FFF7E6
:10262000F1FC00F0010040F47850A4F844004FF4AD
:102630008040FFF7E7FC00F0010040F48040A4F880
:1026400046004FF48440FFF7DDFC00F0010040F449
:102650008440A4F848004FF48840FFF7D3FC00F012
:10266000010040F48840A4F84A004FF48C40FFF782
:10267000C9FC00F0010040F48C40A4F84C004FF479
:102680009040FFF7BFFC00F0010040F49040A4F838
:102690004E004FF49440FFF7B5FC00F0010040F409
:1026A0009440A4F850004FF49840FFF7ABFC00F0C2
:1026B000010040F49840A4F852004FF49C40FFF70A
:1026C000A1FC00F0010040F49C40A4F854004FF439
:1026D000A040FFF797FC00F0010040F4A040A4F8F0
:1026E00056004FF4A440FFF78DFC00F0010040F4C9
:1026F000A440A4F858004FF4A840FFF783FC00F072
:10270000010040F4A840A4F85A004FF4AC40FFF791
:1027100079FC00F0010040F4AC40A4F85C004FF4F8
:10272000B040FFF76FFC00F0010040F4B040A4F8A7
:102730005E004FF4B440FFF765FC00F0010040F488
:10274000B440A4F860004FF4B840FFF75BFC00F021
:10275000010040F4B840A4F862004FF4BC40FFF719
:1027600051FC00F0010040F4BC40A4F864004FF4B8
:10277000C040FFF747FC00F0010040F4C040A4F85F
:1027800066004FF4C440FFF73DFC00F0010040F448
:10279000C440A4F868004FF4C84001E008020020DB
:1027A000FFF730FC00F0010040F4C840A4F86A00D4
:1027B0004FF4CC40FFF726FC00F0010040F4CC4081
:1027C000A4F86C004FF4FC40FFF71CFC00F0010083
:1027D00040F4FC40A4F86E0035202071FFF742FC65
:1027E000217921B100230133DAB29142FBD8FFF7FE
:1027F00089FC054BD878FFF773FD10BD64200AF003
:1028000033FAFFF7B9FCF4E70802002008B50449E1
:10281000044808F0F9FF0449044808F0F5FF08BD32
:102820001C0EFE1F240EFE1F480EFE1F500EFE1F24
:1028300008B5002814BF4FF4166200220621024892
:1028400009F020F908BD00BF500EFE1F70470000C0
:1028500000B583B00023019311BB002A30D11C4B7B
:102860005B68B3F5F46F1ED0194A0021194808F0CF
:10287000F3FE1949194B0B60002301AA18480068A0
:1028800009F074FC174A137A01331372019B3BB1B0
:102890004FF08052144B1A60BFF34F8FBFF36F8F0E
:1028A00003B05DF804FB0A4B93F84830002BDBD0F3
:1028B000074B1B7A422BD7D101220C4B1A70D3E75E
:1028C000022AD6D10A4A0221024808F0C5FED0E702
:1028D0003803002028290300E8020020E402002039
:1028E000E0060020C806002004ED00E0D50000202E
:1028F000EC020020F0B595B005460F4616461C4682
:102900004C22002101A80FF0C8FF2246082C28BF46
:10291000082202978DF84C20314603A80FF0B2FF31
:10292000022301AA2946024808F056FE15B0F0BD60
:102930002829030008B508230A4601460320FFF7AB
:10294000D9FF08BD10B51D4C1D49204608F034FDC7
:1029500000231C4A1946204608F000FE1A4A0121AD
:10296000204608F0C1FD0023184A0221204608F045
:10297000F5FD174A0321204608F0B6FD00231A464C
:102980001946204608F08CFE002302220121204631
:1029900008F086FE00220F49204608F095FE02212D
:1029A000512005F029FE0C4A0021204608F054FE73
:1029B0000A4A0221204608F04FFE10BD28290300D4
:1029C000F4280300800EFE1F900EFE1F780EFE1FDF
:1029D000880EFE1F5128020038030020EC02002060
:1029E00000B583B00023019391B9042A13D0062ABD
:1029F00000F0CB80684A537A01335372019B3BB19C
:102A00004FF08052654B1A60BFF34F8FBFF36F8F4B
:102A100003B05DF804FB624B93F84830082B05D0F7
:102A20005F4A04215F4808F017FEE3E75C4B5B68F0
:102A3000172B68D025D8122B00F0878011D9132BC3
:102A400047D0162B40F09B80574B03F108025749A3
:102A500003C982E8030093F84920013283F8492032
:102A600042E0112B40F08B804F4B03F120024F4985
:102A700003C982E8030093F84C20013283F84C200C
:102A800032E0B3F5F27F4BD014D940F201429342C9
:102A900068D040F20242934271D1434B03F14002AD
:102AA000424903C982E8030093F85020013283F8B9
:102AB000502019E0422B62D13B4B03F130023B49DD
:102AC00003C982E8030093F84E20013283F84E20B8
:102AD0000AE0354B354A92E8030083E8030093F897
:102AE0004820013283F848202D4A04212D4808F05F
:102AF000B3FD2F492C4B0B60002301AA2D48006821
:102B000009F034FB76E7284B03F11002274903C98B
:102B100082E8030093F84A20013283F84A20E3E771
:102B20001F4A137A517A927A4B409A427FF478AFD7
:102B30001D4B03F118021D4903C982E8030093F8F5
:102B40004B20013283F84B20CEE7174B03F12802CC
:102B5000164903C982E8030093F84D20013283F837
:102B60004D20C1E7104B03F13802104903C982E838
:102B7000030093F84F20013283F84F20B4E7084A4E
:102B80000421084808F068FD34E70B4A062105488F
:102B900008F062FD2EE700BFC806002004ED00E04B
:102BA0004C04002064290300840300205404002006
:102BB000FC030020E40600200004002030B595B09E
:102BC00005460C464C22002101A80FF066FE029536
:102BD00008238DF84C3003AB2068616803C30223DF
:102BE00001AA0521024808F0F7FC15B030BD00BF6E
:102BF0006429030010B51D4C1D49204608F0DCFB7C
:102C000000231C4A0421204608F0A8FC1A4A05218A
:102C1000204608F069FC0023184A0621204608F0E7
:102C20009DFC174A0721204608F05EFC0023042281
:102C30001946204608F034FD0023062201212046D3
:102C400008F02EFD00220F49204608F03DFD02212C
:102C5000582005F0D1FC0C4A0421204608F0FCFC69
:102C60000A4A0621204608F0F7FC10BD642903003B
:102C700030290300A00EFE1FB00EFE1F980EFE1F8F
:102C8000A80EFE1FE12902004C04002000040020D1
:102C900000B583B000230193D1B90A2A1BD00C2AB6
:102CA0001FD01349134B0B60002301AA1248006880
:102CB00009F05CFA114A937A01339372019B3BB19C
:102CC0004FF080520E4B1A60BFF34F8FBFF36F8FE0
:102CD00003B05DF804FB0B4A0A210B4808F0BCFC6A
:102CE000DFE70A4A0C21084808F0B6FCD9E700BF24
:102CF0009C04002098040020E8060020C80600205C
:102D000004ED00E0EC040020A0290300A004002052
:102D100008B503282ED8DFE800F0020D18230122A1
:102D20000821154808F00DF801220D21134808F07C
:102D300008F808BD012208210F4808F002F8002217
:102D40000D210E4807F0FDFF08BD002208210A48AA
:102D500007F0F7FF00220D21084807F0F2FF08BD39
:102D600000220821044807F0ECFF01220D2103484E
:102D700007F0E7FF08BD00BF40F00F40C0F00F4074
:102D800010B5214C2149204608F016FB0023204AAB
:102D90000A21204608F0E2FB1E4A0B21204608F0DB
:102DA000A3FB1D4A0E21204608F09EFB00231B4A70
:102DB0000C21204608F0D2FB194A0D21204608F0CC
:102DC00093FB00230A221946204608F069FC0023E1
:102DD0000C220121204608F063FC00221149204604
:102DE00008F072FC02215F2005F006FC0E4A0A2161
:102DF000204608F031FC0D4A0C21204608F02CFC3E
:102E00000020FFF785FF10BDA02903006C290300F7
:102E1000C00EFE1FD00EFE1FD80EFE1FB80EFE1FE6
:102E2000C80EFE1F912C0200EC040020A00400201C
:102E3000F0B583B00023019341BB364AD37A013306
:102E4000D372354B1B784BB9334B5B78552B5CD029
:102E500001223249324808F0A3FF17E00133DBB208
:102E60002D4A1370202B13D82B490B7801330122E4
:102E700019442B4808F094FF019B3BB14FF080525E
:102E8000284B1A60BFF34F8FBFF36F8F03B0F0BDB5
:102E9000254B186809F021FB022803D900221E4B9C
:102EA0001A70E1E7214B1978214B01EB81112122A6
:102EB0005A544C1C1848421C234421301768566849
:102EC0009568D4681F605E609D60DC6010321033CE
:102ED0008242F3D112781A70154B194400910023E5
:102EE00001AA69461048006809F040F90128D5D1C7
:102EF0000E4B1B780133DBB2032B02D80B4A137045
:102F0000CCE70022094B1A70C8E70122024B1A7065
:102F1000AAE700BFC80600203805002039050020B8
:102F20004C2A030004ED00E0F8060020880600208B
:102F30008405002010B5074C0749204608F0B2FE72
:102F40000821212005F058FB01220449204608F001
:102F500015FF10BD4C2A03002C2A03003905002060
:102F600010B582B00C4601A9314808F010FF0228C4
:102F700008D001A92E4808F00AFF01222D492C484B
:102F800008F0FCFE5CB92C4B1B78A3B9294B1B78CD
:102F90000F2B06D001222749254808F001FF02B077
:102FA00010BD0122244B1A700022244B1A700F22EC
:102FB000234B1A70EEE7012BECD1204A1378013332
:102FC000DBB213701B4A11781D4AD154172BE1D97B
:102FD0000022194B1A701A4B1B7E002BDAD1194CA8
:102FE0002378013323700AF04DFA154B224603F182
:102FF000170013F8011F02F8011F8342F9D10AF0EC
:1030000051FA11490F4B0B60002302AA42F8083D08
:103010000E48006809F0AAF8009B002BBAD04FF0C8
:1030200080520B4B1A60BFF34F8FBFF36F8FB1E726
:10303000742A030089060020AA060020A9060020A1
:1030400090060020AC0600208C060020FC06002024
:1030500004ED00E010B5074C0749204608F022FEB9
:103060000221232005F0C8FA01220449204608F075
:1030700085FE10BD742A0300542A0300890600202F
:1030800000B583B000230D4A01210D4802F05EFC1B
:103090000021084602F068FCFEF702FF094B01938D
:1030A0000423009300234FF400720749074809F0F6
:1030B00019FB09F067FC03B05DF804FB4800002031
:1030C0008C04FE1F100700207C2A030079320200C6
:1030D00010B582B01F4B01930424009400234FF4D9
:1030E00000721D491D4809F0FDFA1D4B0193009423
:1030F00000234FF400721B491B4809F0F3FA1B4BE5
:103100000193009400234FF400721949194809F003
:10311000E9FA194B0193009400234FF40072174908
:10312000174809F0DFFA174B0193009400234FF47E
:1031300000721549154809F0D5FA154B0193009412
:1031400000234FF400721349134809F0CBFA02B080
:1031500010BD00BF1C070020842A0300793E020036
:1031600020070020902A0300B93E02001807002023
:103170009C2A0300C13A02000C070020A82A030081
:10318000E535020014070020B42A0300D9390200F3
:1031900008070020C02A0300D932020008B5002227
:1031A0000421032008F02AFF244B18600022042188
:1031B000032008F023FF224B186000220421032083
:1031C00008F01CFF1F4B186000220421032008F0A8
:1031D00015FF1D4B186000220421032008F00EFF8C
:1031E0001A4B186000220421032008F007FF184B37
:1031F000186000220421032008F000FF154B18601E
:1032000000220421032008F0F9FE134B186000226D
:103210000421032008F0F2FE104B18600022042164
:10322000032008F0EBFE0E4B18600022042103205F
:1032300008F0E4FE0B4B186008BD00BFE00600205C
:10324000E4060020E8060020EC060020F00600203E
:10325000F4060020F8060020FC06002000070020ED
:1032600004070020DC06002008B508F0A2FD014B91
:10327000186008BDC406002008B5FFF78FFFFFF7F0
:10328000F3FFFDF739FEFDF70DFFFEF78FF8FEF7B0
:103290004BF9FFF74FFEFFF7DDFEFFF753FBFFF79C
:1032A000A9FCFFF76DFDFFF789F8FEF7F5FBFEF7C8
:1032B00079F9FFF7ABFAFEF765FCFFF709FF00208D
:1032C00009F0FAFA08BD000008B50221014807F02C
:1032D00046FD08BDC0F00F402DE9F04F2DED028BEB
:1032E00085B00023039309F08BFB03900124A24EC9
:1032F000DFF8ACA206F1100BA04FDFF8A89261E056
:103300009F4B1A6833461068516803C3114651F841
:10331000080F496803C3114651F8100F496803C3E9
:10332000114651F8180F496803C3114651F8200F90
:10333000496803C352F8280F516803C34AE0914B10
:103340001A68914B116819605168596091689960C9
:10335000D168D9601169196151695961916999619F
:10336000D169D961116A1962526A5A623AE05946C2
:103370002020FFF723FC06F120014120FFF71EFC6F
:1033800006F1280140F26940FFF718FC31E006F130
:1033900018011020FFF712FC34E006F108017B4809
:1033A000FFF7C8FA38E00134A4B242F210739C422D
:1033B00088BF01240A2103A809F028FC744A537C21
:1033C0000133537400226E49724B186808F046FFAF
:1033D000012895D000226B496F4B186808F03EFF1A
:1033E0000128ACD031465046FFF7A4FA14F0010F83
:1033F000BDD0A7FB04239B0803EB8303E31A9BB216
:10340000002BC4D0A7FB0423DB0803EB8303A4EB4E
:1034100043039BB2002BC0D0A9FB04231B0932221B
:1034200002FB13439BB2002BBDD1574DD5ED007A63
:103430009FED5A8A67EE887AFDEEE77A17EE903AAA
:103440001BB21A128DF804208DF80530D5ED017AE3
:1034500067EE887AFDEEE77A17EE903A1BB21A1201
:103460008DF806208DF80730D5ED027A67EE887A60
:10347000FDEEE77A17EE903A1BB21A128DF808208B
:103480008DF80930D5ED097A67EE887AFDEEE77A96
:1034900017EE903A1BB21A128DF80A208DF80B30F5
:1034A00001A9BA20FFF78AFBD5ED037A67EE887A87
:1034B000FDEEE77A17EE903A1BB21A128DF804204F
:1034C0008DF80530D5ED047A67EE887AFDEEE77A5F
:1034D00017EE903A1BB21A128DF806208DF80730BD
:1034E000D5ED057A67EE887AFDEEE77A17EE903A29
:1034F0001BB21A128DF808208DF809304FF0000821
:103500008DF80A808DF80B8001A9BB20FFF756FBD0
:10351000D5ED077A67EE887AFDEEE77A17EE903AF6
:103520001BB21A128DF804208DF80530D5ED067AFD
:1035300067EE887AFDEEE77A17EE903A1BB21A1220
:103540008DF806208DF80730D5ED087A27EE888AA9
:10355000BDEEC88A18EE103A1BB21A128DF8082078
:103560008DF809308DF80A808DF80B8001A9BC20F8
:10357000FFF724FB17E700BF2C070020CDCCCCCCF5
:103580009C070020A007002074070020EF09FF0C13
:10359000C8060020EC060020DC0600200000C8421F
:1035A000EF08FF0C1F85EB5103788B420DD00170A3
:1035B000002343708378934204D20133DBB28370DB
:1035C0009A420DD80123C3700AE043781D2B04D81A
:1035D0000133DBB243701D2B02D90023C37083700B
:1035E000C07870472DE9F04F83B009F009FA0190D7
:1035F000DFF8C0930024C04FC04D03264FF0000BEE
:10360000FDE0D9F800C03B46DCF80000DCF804100F
:10361000DCF8082007C35CF80C0FDCF8041003C3C7
:10362000F6E0B74BD3F800C0BCF80030DFF888E311
:10363000AEF80030BCF80230AEF8023063460EF14E
:10364000040853F8040F59689A68DB68A8E80F006B
:103650009CF814308EF81430634653F8162FCEF8C9
:1036600016209B88AEF81A30634653F81C0FCEF82C
:103670001C009B88AEF820305CF8223FCEF8223048
:10368000BCF80430AEF82630CBE009F0FBFE752222
:103690009C4B196828460FF0F5F809F003FF9A4A89
:1036A0002B4603CB10605160984A03CB10605160E9
:1036B000974A03CB10605160964A03CB106051606B
:1036C000954A03CB10605160944A03CB106051605F
:1036D000934A03CB10605160924A03CB1060516053
:1036E000914A03CB10605160B0E0874B1C605C6076
:1036F000B5E0864B1C605C60BAE0854B1C605C608A
:10370000BFE0844B1C605C60C4E0834B1C605C6069
:10371000C9E0824B1C605C60CEE0814B1C605C6049
:10372000D3E0804B1C605C60D8E022467F49804B30
:10373000186808F093FD7F4B1B78002B00F0448144
:10374000FEF7D0FB7C4B1880DFF87082A8F80000F1
:103750007A4BBA891A80FA895A803A8A9A803A88CA
:10376000DA807A881A81764BC3F800B0754BC3F8BB
:1037700000B00AF049F9DFF848C2734A634610689E
:10378000516803C3714A1068516803C3704A1146F7
:1037900051F8020F496803C36E490868496803C3BA
:1037A0006D490868496803C36C490868496803C3E0
:1037B000DFF810A213788AF8003053788AF80130C5
:1037C000674B1B788AF803306649C1F800C023466E
:1037D00022466548006808F037FC6449C1F800A03B
:1037E000234622466248006808F02EFC98F80F3005
:1037F000013388F80F300A2101A809F007FA2246A0
:1038000049465C4B186808F029FD01283FF4F9AEE1
:1038100022463B49584B186808F020FD01283FF428
:1038200000AF22465549564B186808F017FD22464E
:103830005449554B186808F011FD22463149534B45
:10384000186808F00BFD01283FF41FAF324695F8C9
:1038500048104F48FFF7A8FE00283FF446AF324615
:1038600095F849104B48FFF79FFE00283FF441AF01
:10387000324695F84A104848FFF796FE00283FF474
:103880003CAF012295F84B104448FFF78DFE00280D
:103890003FF437AF324695F84C104148FFF784FEAD
:1038A00000283FF432AF324695F84D103D48FFF7FF
:1038B0007BFE00283FF42DAF324695F84E103A4873
:1038C000FFF772FE00283FF428AF324695F84F10FC
:1038D0003648FFF769FE00283FF423AF324695F8DB
:1038E00050103348FFF760FE00287FF41EAF0E4BE8
:1038F0001C605C6019E700BF7C080020BC0700204A
:10390000D8080020C808002084D900208CD90020C5
:1039100094D9002000DC0020D0DB0020D8DB002080
:103920007CD90020B8DB0020C0DB0020CC080020C0
:10393000E8060020E8080020FADB0020F0DB002089
:1039400034DC002038DC0020A0DB0020A8DB0020D5
:1039500070DB0020C8DB002074D90020B0DB002021
:10396000E6DB0020D0080020EC060020E008002064
:10397000F00600200007002004070020DC080020DB
:10398000FC060020C4080020E0060020E406002019
:10399000B0070020B4070020B8070020E40800208A
:1039A000BC080020C0080020A4070020A8070020B1
:1039B000AC070020D408002090080020C806002092
:1039C00034080020B80800200122024B1A700DF0C4
:1039D0007BFBB5E6E80800202DE9F04782B009F04E
:1039E0000FF801900025DFF8CC90DFF8CC802B4F4A
:1039F0002B4E2C4CDFF8C4A01EE0D9F800301A780A
:103A000088F800209A783A705978274A1170DB7844
:103A1000337019E06278244B1B789A4220D125E05C
:103A20000135EDB2132D29D8204A137C01331374CC
:103A30000A2101A809F0EAF8002249461C4B18683F
:103A400008F00CFC0128D8D098F8000023788342B5
:103A500002D02070FEF790FA3878A3788342D9D04C
:103A6000A070114B19786170FEF77AF83078E3781E
:103A70008342D5D0E070FEF7DBFED1E7FEF7B0FC65
:103A8000FDF75CFDFEF7E2FEFEF740F9FDF776FD7F
:103A90000121504607F065F90025C5E7F10800202F
:103AA000E9080020EC080020F0080020C8060020EB
:103AB000F0060020F4080020F8080020C0F00F40B5
:103AC0002DE9F04F2DED048B89B0DFED7D8A9FED60
:103AD0007D8ADFED7D9A9FED7D9A57E17C4B1968D9
:103AE00011F8012B402A28BF40227A4800F8012B08
:103AF0000EF0C8FE53E1F11803F10A0AB2440022A5
:103B000011F801BF5A44D2B25145F9D13444617819
:103B1000914227D00A33DBB20133DBB2184603F1FE
:103B20000A04A54240F2D88032185278552AF3D1BF
:103B300032189278532ADED0522A41D0512AEBD142
:103B4000F11803F10A0AB244002211F801BF5A44E5
:103B5000D2B28A45F9D134446178914270D00A33A7
:103B6000DBB2D9E730440179C27842EA012212B2CD
:103B700006EE102AB8EEC66A26EE226A26EE086A1B
:103B80008179427942EA012212B206EE902AF8EED9
:103B9000E66A66EEA26A66EE886A017AC27942EA4D
:103BA000012212B207EE902AF8EEE77A67EEA27AC7
:103BB00067EE887ACDF808C0CDF804E0F146A9E7B1
:103BC000F11803F10A0AB244002211F801BF5A4465
:103BD000D2B25145F9D134446178914202D00A33CE
:103BE000DBB299E730440179C27842EA012212B28D
:103BF00005EE102AB8EEC55A25EE025A25EE085AEF
:103C00008179427942EA012212B205EE902AF8EE59
:103C1000E55A65EE825A65EE885A017AC27942EA1F
:103C2000012212B207EE102AB8EEC77A27EE027A06
:103C300027EE087A6746CDF810E0CDF80CE0CEE725
:103C400030440179C27842EA012212B203EE102A0E
:103C5000B8EEC33A23EE283A23EE083A8179427946
:103C600042EA012212B203EE902AF8EEE33A63EE42
:103C7000A83A63EE883A017AC27942EA012212B286
:103C800004EE102AB8EEC44A24EE284A24EE084A6C
:103C9000817A427A42EA012212B204EE902AF8EEC8
:103CA000E44A64EEA94A64EE884A74EE894ACDF883
:103CB0001CC0CDF818E0CDF814E0F0464FE700BF87
:103CC000CDCC1C43000000388FC2C042B81E124247
:103CD000D809002024090020B8F1000F40F0A2808C
:103CE000059B13B1574BC3ED013A069B13B1554BDE
:103CF00083ED024A079B13B1524BC3ED094AB9F158
:103D0000000F02D04F4B83ED066A019B13B14D4B60
:103D1000C3ED076A029B13B14A4BC3ED087A039BBC
:103D200013B1484B83ED035A049B13B1454BC3EDCC
:103D3000045A17B1434B83ED057A434B414A11684E
:103D400019605168596091689960D168D9601169AA
:103D500019615169596191699961D169D961116A92
:103D60001962526A5A6239490B6000231A46384870
:103D7000006808F069F9374B1B78012B56D0364A9A
:103D8000937B01339373322008F06EFF0022334996
:103D9000334B186808F062FA01283FF49FAE002206
:103DA0003049314B186808F059FA0128C5D12D4B1C
:103DB000196811F8014B402C28BF40242B4800F80B
:103DC000014B254622460EF05DFD0A2CB5D91D4B50
:103DD00093ED003AD3ED013A93ED024AD3ED094A4F
:103DE00093ED035AD3ED045A93ED057A93ED066AE9
:103DF000D3ED076AD3ED087A00270497039702975B
:103E00000197B946079706970597B8460A243B4697
:103E10003846164E4FF0010CE6469FED152ADFEDB1
:103E2000152A81E6074B83ED003A59E70C4B1868D9
:103E300008F048FB074C20710B4B186808F042FB58
:103E400060719CE7AC090020FC080020D409002028
:103E5000DC06002024070020C8060020D809002026
:103E6000F4060020DC090020F80600206809002084
:103E70000000FA440000344308B50B4C0B4E0C4DC7
:103E8000FDF752F8FDF718F9266000231A4621467F
:103E9000286808F0D9F8074A137B0133137305200B
:103EA00008F0E2FEECE700BF1C0A0020E009002059
:103EB00000070020C806002008B50C4C0C4E0D4D24
:103EC000FEF714F8FDF782FAFDF78AFB266000235F
:103ED0001A462146286808F0B7F8074A537B013391
:103EE0005373642008F0C0FEEAE700BF200A0020F8
:103EF000F409002004070020C80600204FF0E0234A
:103F0000D3F8882D42F47002C3F8882DD3F8342FEB
:103F100022F08042C3F8342F084B094A5A605A688D
:103F200042F220121A604FF6FF729A60054AD2F8E8
:103F3000003843F4F803C2F8003870470020054009
:103F400020C528D900D000404FF0E021D1F80C2D39
:103F500092B2024B1343C1F80C3D70470400FA05BE
:103F6000264B274A9A4208D013462448254A13F87C
:103F7000011B02F8011B9842F9D1234B234A9A42B4
:103F800008D013462048224A13F8011B02F8011BEF
:103F90008342F9D11F4B204A9A4206D01346002192
:103FA0001C4A03F8011B9342FBD11C4B1C4A9A424A
:103FB00008D0134619481B4A13F8011B02F8011BCD
:103FC0008342F9D1184B194A9A4212D010B4184CB6
:103FD000A40808D01946002351F8040B42F8040B3A
:103FE0000133A342F8D1134B104A1A605DF8044B19
:103FF0007047104B0C4A1A60704700BF443D0300E5
:10400000083103000004FE1F7C3D0300443D030013
:104010003C10FE1F6CDC0020000000207C3D0300F3
:104020007C3D030000000020000002000000FE1F95
:104030000004000008ED00E0002303700C22427031
:104040008370C370037143718371C37103724372D0
:104050008372704770B584B006460D465D4B53F8C9
:1040600020404C238DF80C304D238DF80D3004A9E1
:10407000002341F8083D04AB034413F8040C01F09D
:10408000E7FC2B78029ADA400292226C22F060025E
:104090005B0103F06003134323646B78002B08BFBC
:1040A0000123626C22F0FF0213436364226C22F04E
:1040B0000C02AB789B0003F00C0313432364226CC7
:1040C00022F00302EB7803F0030313432364D4F8D4
:1040D000902022F040022B799B0103F04003134310
:1040E000C4F890306B79302200924FF44052019224
:1040F000394A926904A901EB860151F8101C22EAA1
:104100000102002E43D0012E4FD0334B9A61AA7981
:10411000012100914FF4807101919B6904A901EB89
:10412000860151F8101C23EA0103002E39D0012E1C
:1041300045D0294A9361D4F8903023F00403EA79FA
:10414000002A14BF042200221343C4F89030D4F88C
:10415000902022F003022B7A03F003031343C4F8E8
:104160009030D4F8943023F008036A7A002A14BF00
:10417000082200221343C4F8943036B9AB7A1BBB33
:10418000154A536823F40023536004B070BD1B012B
:1041900003F03003134310498B61AA798B6923F034
:1041A000010302F001021343C3E71B0303F440536E
:1041B000134309498B61AA798B6923F48073120236
:1041C00002F480721343B4E7034A536843F40023B4
:1041D0005360DAE7D02A03000080044030B4144B67
:1041E00053F8200053881478A3F5706292B2052A20
:1041F0000BD8104A556825F4E025556055681B0416
:1042000003F4E0232B435360152300EB8101D1F825
:10421000082103F03F0322F07F021343002C14BF58
:10422000402200221343C1F8083130BC704700BF60
:10423000D02A03000080044082B00E2300934FF484
:10424000606301930C4B9B6902AA02EB800252F857
:10425000082C23EA020328B1012808D0064A9361FA
:1042600002B07047490001F00E010B43F6E7490226
:1042700001F460610B43F1E70080044010B582B0A7
:104280000446264B53F8201000233F2241F82320F8
:104290000133102BFAD100230B640C224A64C1F8BD
:1042A0008830C1F88C30C1F89030C1F89430C1F832
:1042B000A0300422C1F8B0203F2003F1420241F8AF
:1042C00022000133202BF8D1302300934FF44053C8
:1042D0000193134B9A6902A901EB840151F8080C70
:1042E00022EA00029A61012200924FF48072019248
:1042F0009A6951F8081C22EA01029A6100212046BD
:10430000FFF79AFF44B9064B5A6822F400225A601C
:104310005A6822F4E0225A6002B010BDD02A03008D
:1043200000800440044B53F82030623153F82130B0
:10433000C3F30B0313807047D02A03002DE9F04725
:1043400082B04F4B53F82040D4F89430C3F3800828
:10435000D4F8947007F00307D4F89060656CEDB260
:10436000D4F8943043F00303C4F89430D4F8943074
:1043700043F00403C4F89430D4F8903023F04003A1
:10438000C4F89030636C23F0FF0343F00C036364C4
:104390000023C4F8B430C4F8B830C4F8BC30C4F852
:1043A000C030C4F8C430C4F8C830C4F8CC304C2293
:1043B0008DF804204D228DF8052002A941F8083D12
:1043C000D4F840904FEA591A02AB184410F8040C84
:1043D00001F03EFB009B0AF0030A23FA0AFA294A7D
:1043E000924512D9284A934208D9284A934245D97E
:1043F000274A934294BF0323002300E00123226C49
:1044000022F0600242EA43132364D4F8943043F06C
:104410008003C4F89430D4F8943013F08003FAD1B8
:10442000226C22F0600209F0600949EA020222646B
:10443000D4F8942022F00402B8F1000F18BF04232E
:104440001343C4F89430D4F8943023F003031F438B
:10445000C4F89470D4F8903023F0400306F040067E
:104460001E43C4F89060002D08BF0125636C23F043
:10447000FF031D43656402B0BDE8F0870223BEE779
:10448000D02A030040787D0181F0FA0203E1F505AE
:1044900007C2EB0B014B33F910007047CC2A030025
:1044A000074B5B69DBB2042B06D0802B06D0012BB7
:1044B0000CBF012004207047022070470320704782
:1044C00000E00740044BD3F8003113F0807F1ABF9F
:1044D000024B18680020704700400640440A002044
:1044E00010B584B00B4600293BD0444AD2F80021D5
:1044F00012F0007F7DD1414AD2F8001121F4000171
:10450000C2F800114FF08061C2F8001100213C4A4E
:104510001160002870D05A7A120202F4E062197A0F
:1045200001F007010A433548C0F80421DA79120185
:1045300002F030029979C90001F008010A43597963
:10454000890001F004010A43C0F808211A79012A00
:1045500029D0E2B1022A32D01A68294B1A60294CBC
:104560003BE000238DF804308DF80C3001228DF8EB
:1045700008208DF809208DF805208DF806300223DB
:104580008DF8073004AB204A43F8102DADE71A7BB5
:10459000002A14BF4FF40002002242F00102174922
:1045A000C1F80021D8E71A7B002A14BF4FF400029B
:1045B000002242F001121149C1F80021CCE71A7B18
:1045C000002A14BF4FF403024FF4403242F00102BC
:1045D0000A49C1F80021BFE7013CFFF773FF18B992
:1045E000002CF9D1032005E0002C14BF002003208B
:1045F00000E0022004B010BD0020FBE700400640B0
:10460000440A002088E7300000127A00084BD3F8F3
:10461000003213F0807F09D0054BD3F8083203F045
:104620000103002B034808BF00207047002070479B
:104630000040064000127A0010B582B00B460029F7
:1046400038D02D4AD2F8002212F0007F4FD12A4AEA
:10465000D2F8001221F40001C2F800120021C2F8C1
:104660000012002846D09A78120202F4E0625978CB
:1046700001F007010A432049C1F804221A7802F028
:104680000102C1F8082259799A791B79002B14BFCD
:1046900003230123002914BF042100210B43002A16
:1046A00014BF4FF4000200221343134AC2F8003231
:1046B000642410E000238DF8043001228DF80520D9
:1046C0008DF806308DF801208DF8022002AB03F83A
:1046D000082DB6E7013CFFF799FF18B9002CF9D176
:1046E000032005E0002C14BF0020032000E002207E
:1046F00002B010BD0020FBE700400640054BD3F898
:10470000003313F0807F1DBF024BD3F808330248FB
:104710000020704700400640006CDC0210B582B0FB
:104720000B46002932D0294AD2F8002312F0007F2C
:1047300047D1264AD2F8001321F40001C2F8001331
:104740004FF08061C2F8001300283DD09A78120221
:1047500002F4E062597801F007010A431B49C1F8ED
:1047600004231A7802F00302C1F808239A795B79CE
:10477000002B14BF01230923002A14BF4FF40002A9
:1047800000221343C1F8003314240EE001238DF8F6
:10479000053000228DF806208DF801308DF80230AA
:1047A00002AB03F8082DBEE7013CFFF7A7FF18B9DD
:1047B000002CF9D1032005E0002C14BF00200320B9
:1047C00000E0022002B010BD0020FBE700400640E0
:1047D00008B50F4BD3F8003613F0807F02D10023C9
:1047E000184608BDFFF76EFE03460028F8D00849BA
:1047F000D1F80826C2F302220132B0FBF2F3D1F85D
:104800000826C2F30442103203FB02F35B08E7E719
:104810000040064010B584B00C4699B13D4BD3F82A
:10482000003613F0007F72D13A4BD3F8002622F401
:104830000002C3F800264FF08062C3F80026A0B93A
:10484000002065E000238DF804308DF80B30012244
:104850008DF808208DF809208DF8053007228DF895
:1048600006208DF8073001ACD8E7FFF72BFE6379FF
:104870001B0203F4E063227902F007021343254987
:10488000C1F8043663781B0203F4E063A2781204D3
:1048900002F4F8121343C1F808362378012B16D01E
:1048A0004BB1022B1FD04FF47A74FFF791FF48BB36
:1048B00034B3013CF9E7E379002B14BF4FF4000354
:1048C000002343F00103134AC2F80036EBE7E37913
:1048D000002B14BF4FF40003002343F001130D4AD3
:1048E000C2F80036DFE7E379002B14BF4FF403036F
:1048F0004FF4403343F00103064AC2F80036D2E7D2
:10490000032005E0002C14BF0020032000E002205B
:1049100004B010BD004006402DE9F04180460D4630
:104920008C7801344E7806FB04460F7807FB044769
:10493000CB78013B052B1CD8DFE803F00312151BD5
:104940001B18FFF7BFFD0009B8F1020F4AD0B8F1FC
:10495000030F7BD0B8F1010F0DD00020BDE8F0812E
:10496000FFF754FEEFE7FFF7C9FEECE7FFF730FF74
:10497000E9E70020E7E7EA7802EB42015B4B53F8F6
:1049800021301B0904FB03F4A04200F293800B4684
:10499000564901EB83035B681B0906FB03F6B04233
:1049A00000F28B8002EB420301EB83039B681B093F
:1049B00007FB03F7B84200F28380AB781B0403F4D3
:1049C0007023120602F0706213432A7802F00F027D
:1049D00013436A781201D2B21343454A536100204F
:1049E000BDE8F081EA7802EB4201424B53F82130F6
:1049F0001B0904FB03F4A04265D80B463D4901EBBB
:104A000083035B681B0906FB03F6B0425ED802EB2A
:104A1000420301EB83039B681B0907FB03F7B842C2
:104A200057D8AB781B0403F47023120602F07062AF
:104A300013432A7802F00F0213436A781201D2B2AC
:104A400013432B4A93610020BDE8F081EB7803EB20
:104A50004301294A52F82120120904FB02F4A04222
:104A60003AD80A46244901EB82025268120906FB31
:104A700002F6B04233D803EB430201EB82029268A4
:104A8000120907FB02F7B8422CD8AA78120402F4E4
:104A900070221B0603F0706313432A7802F00F02A2
:104AA00013436A781201D2B21343114AD361002032
:104AB000BDE8F0810120BDE8F0810120BDE8F08172
:104AC0000120BDE8F0810120BDE8F0810120BDE8B2
:104AD000F0810120BDE8F0810120BDE8F0810120D6
:104AE000BDE8F0810120BDE8F08100BFE42B0300A8
:104AF00000400640382C0300902B030038B50546D3
:104B0000FFF7CEFC2946FFF707FF044658B9E878BF
:104B10000A220849013A0B69C3F30363984204D09F
:104B2000002AF7D10324204638BD002A08BF0324F9
:104B3000F9E700BF0040064010B504461B4B1B6957
:104B4000C3F30363013B052B1DD8DFE803F0031318
:104B5000161C1C19FFF7B6FC144B1B69C3F3034367
:104B60000133B0FBF3F0012C0FD0ECB1022C14D0C8
:104B7000002010BDFFF74AFDEEE7FFF7BFFDEBE7B2
:104B8000FFF726FEE8E70020E6E7084B1B69C3F3C2
:104B900003130133B0FBF3F010BD044B1B6903F0AA
:104BA0000F030133B0FBF3F010BD00BF004006401F
:104BB00008B5094BD3F8D801C0F3807038B103F5BC
:104BC00088331B681B0E03D10020FFF7B5FF08BD1B
:104BD0000120FFF7B1FF08BD0050064008B50F4B9C
:104BE0001B6AC3F30363062B15D8DFE803F0040840
:104BF0000B0E141411000220FFF79EFF08BDFFF7F3
:104C000061FC08BDFFF702FD08BDFFF777FD08BD99
:104C1000FFF7DEFD08BD002008BD00BF00400640D4
:104C200008B541B1012931D00020024610B1431E20
:104C300022FA03F008BD0438032852D8DFE800F058
:104C40000B02141DFFF75AFD0246294BD3F804034B
:104C500000F00700EAE7FFF7D9FC0246244BD3F83F
:104C6000040200F00700E1E7FFF72CFC0246204BAE
:104C7000D3F8040100F00700D8E7FFF7A9FD0246CA
:104C80001B4BD3F8040600F00700CFE704380328D5
:104C90002AD8DFE800F00B02141DFFF72FFD0246B3
:104CA000134BD3F80403C0F30220BFE7FFF7AEFCB9
:104CB00002460F4BD3F80402C0F30220B6E7FFF719
:104CC00001FC02460A4BD3F80401C0F30220ADE711
:104CD000FFF77EFD0246064BD3F80406C0F3022020
:104CE000A4E700200246A1E7002002469EE700BF9D
:104CF0000040064008B5114B1B69C3F30113032B99
:104D000019D8DFE803F00207101300210620FFF78F
:104D100087FF08BD094B186900F00200002818BF82
:104D20004FF4FA4008BD064B186808BD0021052065
:104D3000FFF776FF08BD002008BD00BF00800440DB
:104D4000240A002008B50B4B1B6A13F0806F0FD0AC
:104D5000094B1B681B0E4FF0000114BF05200720F4
:104D6000FFF75EFF044B5B6A0133B0FBF3F008BD55
:104D7000002008BD008004400060074038B51C4B8F
:104D800033F810309B0003F1804303F5CA231D68FC
:104D9000C5F3C0051C6804F00704AC4225D31868AD
:104DA000C0F3807010B31B68C3F30263013B052B93
:104DB00019D8DFE803F0030C101818140620FFF7C9
:104DC0002FFF0134B0FBF4F005FB000038BD0420D8
:104DD000FFF726FFF5E70520FFF722FFF1E70720A1
:104DE000FFF71EFFEDE70020EBE7002038BD00BF16
:104DF000D82A03000F4B1B69C3F38103022B07D092
:104E0000032B0ED0002B0CBF4FF4FA30002070475C
:104E1000084B186900F00200002818BF4FF4FA4050
:104E20007047044B186900F00200002818BF4FF4C7
:104E3000FA4070470080044008B5304B5B6813F4BB
:104E4000006F58D02D4B5B68C3F303130F2B09D8A9
:104E5000DFE803F00A080D08122F171C202547333E
:104E600029362C3E00203EE0FFF7B8FE3BE0012152
:104E70000620FFF7D5FE36E001210420FFF7D0FE23
:104E800031E001210520FFF7CBFE2CE00020FFF7E9
:104E900053FE28E001210720FFF7C2FE23E0012096
:104EA000FFF74AFE1FE0FFF7A5FF1CE0FFF722FF18
:104EB00019E0FFF747FF400815E0FFF779FE12E021
:104EC000FFF740FF0E4B1B681B0E0CD040080AE09A
:104ED0000B4B1B681B0E01D1002004E0FFF732FFD3
:104EE00001E04FF4FA30054B5B68C3F30223013352
:104EF000B0FBF3F008BD002008BD00BF00800440F7
:104F000000600740F0B5A1B028B30446064600286B
:104F100000F0FF80644B1B69C3F30363032B00F0B5
:104F2000C980FFF7EBFB002800F0B48003238DF865
:104F3000073000228DF8062001228DF8052020A8D8
:104F400000F87C3DFFF7DAFD0546002800F0B2804E
:104F5000284621B0F0BD01238DF80B3000228DF8DA
:104F60000C208DF80D308DF80E208DF808308DF85E
:104F700009308DF80A308DF816308DF814308DF820
:104F800015208DF80F208DF810308DF811308DF828
:104F900038300D928DF82530444906918DF81C204B
:104FA0008DF824208DF81D308DF81E2002208DF8FC
:104FB0001F008DF820308DF821308DF830308DF8BD
:104FC00028208DF82F208DF829200C218DF82A100B
:104FD0008DF82B208DF82C308DF82D308DF83D304C
:104FE00003218DF83C108DF84B308DF841108DF871
:104FF00040208DF83F308DF83E308DF845008DF81B
:1050000044308DF843208DF8421006208DF8490079
:105010008DF848208DF847308DF8461024491E91B0
:1050200029211D918DF84C308DF84D208DF84E20A2
:105030008DF84F208DF850308DF854308DF8533066
:105040008DF852208DF851208DF868308DF8693038
:105050008DF86A308DF86B308DF86C308DF86D30CE
:105060008DF873308DF858301792189219928DF888
:105070006E308DF86F308DF870208DF871208DF8BE
:1050800072208DF87C308DF87D308DF87E2002AE58
:1050900034463FE700210120FFF740FB054600288A
:1050A0007FF456AF42E700BF0040064000127A008E
:1050B000E00EFE1F3146E078FFF7BEFA05460028F5
:1050C00000F03081FFF7ECF9022800F06581032839
:1050D00000F06581012800F03F81002D7FF438AF9A
:1050E00094F8303013B1E26AAE4B1A6094F8353060
:1050F00053B1AD490A6A22F0706294F834301B064D
:1051000003F0706313430B6294F84330002B40F0BC
:10511000B28114F16C0F35D0236F002B32D0E36EC7
:1051200083B30021A148A24D01EB8102236F9B5C58
:1051300030F813309B0003F1804303F5CA231E6847
:1051400026F080461E60236F9F189E5CBB781B066E
:1051500003F0E063FA78D20002F0080213433A79D0
:1051600002F0070213437A78002A14BF4FF08042FE
:105170000022134330F8162045F822300131E36E47
:105180009942D1D394F84430C3B194F8463094F89E
:1051900047208849496821F47F6194F84500002838
:1051A00014BF4FF4006000201B01DBB2120202F4B6
:1051B000E06213430B4303437E4A536094F8483044
:1051C000DBB194F84A3094F849207A49096921F012
:1051D0003F0194F84C00084394F84B10002914BF89
:1051E000022100219B0003F00C030343120102F093
:1051F000300213430B436F4A136194F86030002B65
:1052000044D06C4B196C21F0010194F861200A43E1
:105210001A641B6C23F0020394F86220002A14BF66
:10522000022200221343634A1364136C23F0040325
:1052300094F86320002A14BF0422002213435D4A1D
:105240001364136C23F0080394F86420002A14BF3D
:10525000082200221343574A1364136C23F01003EF
:1052600094F86520002A14BF102200221343514AEB
:105270001364136A23F0806394F86B20002A14BF30
:105280004FF08062002213434A4A136294F8503070
:1052900033B1494B626D1A60A26D5A60E26D9A603B
:1052A00094F86630EBB1434A936E002090665168E3
:1052B00021F4805194F868301B0303F480530B43AE
:1052C0005360906694F867305BB194F869305B0086
:1052D00003F00E0394F86A2042F080521343354ADB
:1052E000936694F87430002B00F0E18033498B789A
:1052F00003F07F0394F8752082F0010243EAC213A1
:10530000DBB28B7094F97630002BBCBF20335BB2DC
:105310002A490A7903F01F0302F0E00213430B71DC
:10532000002515E604F11001607FFFF7D9F8054666
:1053300000287FF4C7AE04F1200194F82800FFF79D
:1053400069FA0546FFF7ACF8022825D0032826D0D5
:10535000012801D0002601E004F13606002D7FF47B
:10536000BCAEF378032B2BD08DF80730B3788DF8D3
:10537000063073788DF80530337820A800F87C3D2E
:10538000FFF7BCFB054600287FF4A7AEE11DA07B1C
:10539000FFF7C4F90546A0E604F13A06DEE704F19A
:1053A0003E06DBE7240A002000400640D82A03001E
:1053B0000050064000800440280A002000D007402A
:1053C00094F828300BBB637F93BBE378002B42D16A
:1053D0000125002D7FF481AEE11DA07BFFF79EF932
:1053E000054600287FF479AEF3788DF80730B3785E
:1053F0008DF8063073788DF80530337820A800F8E2
:105400007C3DFFF77BFB054667E606238DF80730FA
:1054100002238DF8063001238DF8053020A800F80E
:105420007C3DFFF76BFB0546637F7BB10128D0D144
:1054300001238DF8073000228DF806208DF8053005
:1054400020A800F87C3DFFF759FB0546E378002BC8
:10545000BFD0012DBDD102238DF8073000238DF878
:1054600006308DF8053020A8012300F87C3DFFF7B9
:1054700045FB0546ADE704F136010120FFF74CFA84
:10548000054600287FF464AD04F13A010220FFF7DD
:1054900043FA054600287FF45BAD04F13E0103208A
:1054A000FFF73AFA054600287FF452AD31E60025B1
:1054B0004EE500BF70B504460D46112807D92B28CC
:1054C00040F285805A2840F2D081042070BD112816
:1054D0007AD8DFE800F00913191F24292E33383C4D
:1054E00041484F565D646B720020FFF725FB034671
:1054F0000020002D00F020822B6070BD0120FFF7FE
:105500001BFB03460020F4E70220FFF715FB0346D0
:105510000020EEE7FFF790FC03460020E9E7FFF7E5
:1055200075F803460020E4E7FFF7E8F8034600209B
:10553000DFE7FEF7C7FF03460020DAE7FFF748F989
:1055400003460020D5E7B44B1B680020D1E7FFF7E6
:1055500045FB03460020CCE700210420FFF760FB59
:1055600003460020C5E701210420FFF759FB03464D
:105570000020BEE700210520FFF752FB0346002074
:10558000B7E701210520FFF74BFB03460020B0E7FA
:1055900000210620FFF744FB03460020A9E7012174
:1055A0000620FFF73DFB03460020A2E7002107206D
:1055B000FFF736FB034600209BE701210720FFF79A
:1055C0002FFB0346002094E70023042091E7A0F17D
:1055D0001504162C00F20181DFE814F017002300F7
:1055E0002F003B00460052005E006A0076007F00FC
:1055F000840090009D00AA00B300BC00C500CE004E
:10560000D700DF00E400E900F300844BDB68C3F35C
:105610000163022B00F2E480814A52F8233000201B
:1056200056E07E4BDB68C3F38163022B00F2DB8024
:105630007B4A52F8233000204AE0784BDB68C3F302
:105640000173022B00F2D280754A52F823300020F9
:105650003EE0724BDB689B0F022B00F2CA80704A5F
:1056600052F82330002033E06C4BDB68C3F3014376
:10567000022B00F2C1806A4A52F82330002027E052
:10568000664BDB68C3F38143022B00F2B880644AA7
:1056900052F8233000201BE0604BDB68C3F301535A
:1056A000022B00F2AF805E4A52F8233000200FE058
:1056B0005A4BDB68C3F38153022B00F2A680584A91
:1056C00052F82330002003E0FFF7B6FB034600202A
:1056D000002D00F031812B6070BDFFF70BFB0346FE
:1056E0000020F5E74F4B9B78DB0902D000231846DA
:1056F000EEE7FFF77FFB03460020E9E7494B9B7885
:10570000DB0940F08580454B1B6913F0010340F035
:105710008D800020DCE7434B9B78DB0940F08A80DA
:105720003E4B1B6913F0020340F087800020CFE757
:105730003C4B9B78DB0940F084804FF4FA33002027
:10574000C6E7364B1B6CC3F30013002B7CD14FF420
:105750008070BDE7314B1B6CC3F3C003002B76D1C7
:105760004FF48070B4E72D4B1B6CC3F38003002B08
:1057700070D14FF48070ABE7284B1B6CC3F3400330
:10578000002B6AD14FF48070A2E7244B1B6C13F0FE
:10579000010365D14FF480709AE7FFF7D3FA43080D
:1057A000002095E7FFF704FA0346002090E7FFF793
:1057B000C9FA03461C4A1268120E54D0430800204E
:1057C00086E7194B1B681B0E02D1002318467FE7A2
:1057D000FFF7B8FA034600207AE70023042077E7B2
:1057E0000023184674E70023184671E70023184683
:1057F0006EE7002318466BE70023184668E700238E
:10580000184665E70023184662E7002318465FE75D
:10581000002318465CE700BF240A002000800440F3
:10582000280A002000D00740006007404FF47A7338
:1058300000204DE7002318464AE74FF4FA430020C2
:1058400046E70023184643E70023184640E70023B5
:1058500018463DE7002318463AE70023184637E785
:105860000023184634E7002032E72C2805D804200E
:105870000023002D60D02B6070BDA0F13903DBB296
:10588000122B07D82D4A22FA03F313F0010F18BF89
:105890000420EDD15A2C4DD0294B33F81420294B3C
:1058A00053F8223013F0804F33D14FF48070DFE78C
:1058B0000120FFF741F9B8BB00234FF48070D8E70F
:1058C0000020FFF739F90028F6D02DE00220FFF77D
:1058D00033F90028F0D027E016F0080F06D116F0B3
:1058E000100F0BD100234FF48070C2E70021204637
:1058F000FFF744FA034616F0100F04D001212046AA
:10590000FFF73CFA0346002B14BF00204FF48070D1
:10591000AFE70D4B1E5D16F0200FC9D116F0400FFA
:10592000CED116F0800FD1D116F0180FD4D10023AC
:1059300018469EE704209BE770BD00BF41010400AC
:10594000D82A0300005006408C2C030010B4054CEC
:1059500020602171A2602373637300205DF8044B03
:10596000704700BF340A0020F0B583B007460E46EA
:105970008DF804008DF8051002F036FE334B1C7BC9
:105980005C7301238DF80630002C4AD000242F4D83
:1059900004E00134E4B22B7BA34242D9AB6853F854
:1059A0002430002BF5D01A79022AF2D01A689968AF
:1059B00001A890470028ECD06C73002EE9D140F28A
:1059C000031500238DF80630A400204E20E001349A
:1059D000E4B23B7BA34212D9BB6853F82430002BBE
:1059E000F5D01A79012AF2D01A68996801A890476F
:1059F0000028ECD07C73002EE9D14FF4827502F0C0
:105A0000E5FD284603B0F0BD043C14F1040FF6D0C8
:105A1000B3681B59002BF7D01A68996801A8904702
:105A2000F2E70A4D2B6853F82700FFF76BFA6F7106
:105A300005460028C5D102238DF80630034B1B7B99
:105A4000002BDCD00024014FC6E700BF340A002041
:105A500008B5FFF72FFD08BD10B4064B1B6853F8BF
:105A60002040616053F820309A6000205DF8044BBC
:105A7000704700BF480A002008B5084B1B6853F860
:105A8000203000F00F00064A1077D07723B15A6813
:105A900012B1197B9868904708BD00BF480A0020E2
:105AA0000080004038B5054600F00F040022214672
:105AB000094800F06FF9094B1B6853F8253053B1C2
:105AC000054A1477D477947701221A735A6812B171
:105AD000197B9868904738BD00800040480A002034
:105AE0002DE9F04F87B09DF84070119D0124BC4016
:105AF0005FFA84FCB5FBFCF60CFB1656002E14BFB7
:105B00004FF0010A4FF0000A03D0504607B0BDE83D
:105B1000F08F059304920391804600F00F06DFF8A2
:105B200000913146484600F03AF9D9F8003023F0A8
:105B30008003C9F80030730103F1804202F5004B85
:105B400002F51042049810604B4441F2100205988F
:105B500098500197009700231A463146484600F0B6
:105B600043F9039B032B12D8DFE803F0022D3D4CD1
:105B7000002241F204032BF8032064B2A4B27301A3
:105B800003F1804303F5004341F214029C52244C7C
:105B90002A463146204600F03FF901223146204690
:105BA00000F068F904EB461641F21C02B35A1BB22E
:105BB00043F002039BB2B3521A4B1B6853F82830D0
:105BC00000221A73A1E764B2A4B241F204032BF8D5
:105BD0000340730103F1804303F50043002141F2C8
:105BE00014029952D3E764B2A4B241F204032BF831
:105BF0000340730103F1804303F5004341F21402B3
:105C00009C52C4E7002241F204032BF803207301E5
:105C100003F1804303F5004341F214015A52B6E701
:105C200000800040480A002070B582B00446079DFD
:105C300001959DF818500095FFF752FF054610B1E9
:105C4000284602B070BD04F00F040F4E089A21469A
:105C5000304600F00FF906EB441641F21C03F35AEC
:105C600023F008031B041B0C9DF82420002A14BFFA
:105C7000082200221343640104F1804404F5004427
:105C800041F21C02A352DBE70080004008B501226C
:105C900000F00F01024800F07DF8002008BD00BFB1
:105CA0000080004008B5002200F00F01024800F01B
:105CB00071F8002008BD00BF0080004010B40F4BF9
